
TTS003.elf:     file format elf32-avr

Sections:
Idx Name          Size      VMA       LMA       File off  Algn
  0 .text         000089a8  00000000  00000000  00000094  2**1
                  CONTENTS, ALLOC, LOAD, READONLY, CODE
  1 .data         000002e4  00802000  000089a8  00008a3c  2**0
                  CONTENTS, ALLOC, LOAD, DATA
  2 .bss          00000baa  008022e4  008022e4  00008d20  2**0
                  ALLOC
  3 .comment      0000005c  00000000  00000000  00008d20  2**0
                  CONTENTS, READONLY
  4 .note.gnu.avr.deviceinfo 00000040  00000000  00000000  00008d7c  2**2
                  CONTENTS, READONLY
  5 .debug_aranges 000004c8  00000000  00000000  00008dbc  2**0
                  CONTENTS, READONLY, DEBUGGING
  6 .debug_info   00012077  00000000  00000000  00009284  2**0
                  CONTENTS, READONLY, DEBUGGING
  7 .debug_abbrev 00001bac  00000000  00000000  0001b2fb  2**0
                  CONTENTS, READONLY, DEBUGGING
  8 .debug_line   00004b09  00000000  00000000  0001cea7  2**0
                  CONTENTS, READONLY, DEBUGGING
  9 .debug_frame  00001410  00000000  00000000  000219b0  2**2
                  CONTENTS, READONLY, DEBUGGING
 10 .debug_str    00003378  00000000  00000000  00022dc0  2**0
                  CONTENTS, READONLY, DEBUGGING
 11 .debug_loc    00007504  00000000  00000000  00026138  2**0
                  CONTENTS, READONLY, DEBUGGING
 12 .debug_ranges 000006b0  00000000  00000000  0002d63c  2**0
                  CONTENTS, READONLY, DEBUGGING

Disassembly of section .text:

00000000 <__vectors>:
       0:	0c 94 6b 0c 	jmp	0x18d6	; 0x18d6 <__ctors_end>
       4:	0c 94 88 0c 	jmp	0x1910	; 0x1910 <__bad_interrupt>
       8:	0c 94 88 0c 	jmp	0x1910	; 0x1910 <__bad_interrupt>
       c:	0c 94 88 0c 	jmp	0x1910	; 0x1910 <__bad_interrupt>
      10:	0c 94 88 0c 	jmp	0x1910	; 0x1910 <__bad_interrupt>
      14:	0c 94 88 0c 	jmp	0x1910	; 0x1910 <__bad_interrupt>
      18:	0c 94 88 0c 	jmp	0x1910	; 0x1910 <__bad_interrupt>
      1c:	0c 94 88 0c 	jmp	0x1910	; 0x1910 <__bad_interrupt>
      20:	0c 94 88 0c 	jmp	0x1910	; 0x1910 <__bad_interrupt>
      24:	0c 94 88 0c 	jmp	0x1910	; 0x1910 <__bad_interrupt>
      28:	0c 94 88 0c 	jmp	0x1910	; 0x1910 <__bad_interrupt>
      2c:	0c 94 88 0c 	jmp	0x1910	; 0x1910 <__bad_interrupt>
      30:	0c 94 07 11 	jmp	0x220e	; 0x220e <__vector_12>
      34:	0c 94 88 0c 	jmp	0x1910	; 0x1910 <__bad_interrupt>
      38:	0c 94 88 0c 	jmp	0x1910	; 0x1910 <__bad_interrupt>
      3c:	0c 94 88 0c 	jmp	0x1910	; 0x1910 <__bad_interrupt>
      40:	0c 94 88 0c 	jmp	0x1910	; 0x1910 <__bad_interrupt>
      44:	0c 94 88 0c 	jmp	0x1910	; 0x1910 <__bad_interrupt>
      48:	0c 94 02 15 	jmp	0x2a04	; 0x2a04 <__vector_18>
      4c:	0c 94 88 0c 	jmp	0x1910	; 0x1910 <__bad_interrupt>
      50:	0c 94 88 0c 	jmp	0x1910	; 0x1910 <__bad_interrupt>
      54:	0c 94 88 0c 	jmp	0x1910	; 0x1910 <__bad_interrupt>
      58:	0c 94 2e 13 	jmp	0x265c	; 0x265c <__vector_22>
      5c:	0c 94 88 0c 	jmp	0x1910	; 0x1910 <__bad_interrupt>
      60:	0c 94 88 0c 	jmp	0x1910	; 0x1910 <__bad_interrupt>
      64:	0c 94 88 0c 	jmp	0x1910	; 0x1910 <__bad_interrupt>
      68:	0c 94 88 0c 	jmp	0x1910	; 0x1910 <__bad_interrupt>
      6c:	0c 94 88 0c 	jmp	0x1910	; 0x1910 <__bad_interrupt>
      70:	0c 94 88 0c 	jmp	0x1910	; 0x1910 <__bad_interrupt>
      74:	0c 94 88 0c 	jmp	0x1910	; 0x1910 <__bad_interrupt>
      78:	0c 94 88 0c 	jmp	0x1910	; 0x1910 <__bad_interrupt>
      7c:	0c 94 88 0c 	jmp	0x1910	; 0x1910 <__bad_interrupt>
      80:	0c 94 88 0c 	jmp	0x1910	; 0x1910 <__bad_interrupt>
      84:	0c 94 88 0c 	jmp	0x1910	; 0x1910 <__bad_interrupt>
      88:	0c 94 67 13 	jmp	0x26ce	; 0x26ce <__vector_34>
      8c:	0c 94 58 13 	jmp	0x26b0	; 0x26b0 <__vector_35>
      90:	0c 94 88 0c 	jmp	0x1910	; 0x1910 <__bad_interrupt>
      94:	0c 94 88 0c 	jmp	0x1910	; 0x1910 <__bad_interrupt>
      98:	0c 94 97 12 	jmp	0x252e	; 0x252e <__vector_38>
      9c:	0c 94 e3 12 	jmp	0x25c6	; 0x25c6 <__vector_39>
      a0:	0c 94 88 0c 	jmp	0x1910	; 0x1910 <__bad_interrupt>
      a4:	0c 94 88 0c 	jmp	0x1910	; 0x1910 <__bad_interrupt>
      a8:	0c 94 88 0c 	jmp	0x1910	; 0x1910 <__bad_interrupt>
      ac:	b5 1a       	sub	r11, r21
      ae:	1b 1b       	sub	r17, r27
      b0:	fd 1a       	sub	r15, r29
      b2:	c0 1a       	sub	r12, r16
      b4:	ee 1a       	sub	r14, r30
      b6:	ce 1a       	sub	r12, r30
      b8:	29 1b       	sub	r18, r25
      ba:	57 1b       	sub	r21, r23
      bc:	38 1b       	sub	r19, r24
      be:	b4 34       	cpi	r27, 0x44	; 68
      c0:	b7 34       	cpi	r27, 0x47	; 71
      c2:	ba 34       	cpi	r27, 0x4A	; 74
      c4:	bd 34       	cpi	r27, 0x4D	; 77
      c6:	c0 34       	cpi	r28, 0x40	; 64
      c8:	c3 34       	cpi	r28, 0x43	; 67
      ca:	c6 34       	cpi	r28, 0x46	; 70

000000cc <__trampolines_end>:
      cc:	6e 61       	ori	r22, 0x1E	; 30
      ce:	6e 00       	.word	0x006e	; ????

000000d0 <__c.2332>:
      d0:	69 6e 66 00 00 40 7a 10 f3 5a 00 a0 72 4e 18 09     inf..@z..Z..rN..
      e0:	00 10 a5 d4 e8 00 00 e8 76 48 17 00 00 e4 0b 54     ........vH.....T
      f0:	02 00 00 ca 9a 3b 00 00 00 e1 f5 05 00 00 80 96     .....;..........
     100:	98 00 00 00 40 42 0f 00 00 00 a0 86 01 00 00 00     ....@B..........
     110:	10 27 00 00 00 00 e8 03 00 00 00 00 64 00 00 00     .'..........d...
     120:	00 00 0a 00 00 00 00 00 01 00 00 00 00 00 2c 76     ..............,v
     130:	d8 88 dc 67 4f 08 23 df c1 df ae 59 e1 b1 b7 96     ...gO.#....Y....
     140:	e5 e3 e4 53 c6 3a e6 51 99 76 96 e8 e6 c2 84 26     ...S.:.Q.v.....&
     150:	eb 89 8c 9b 62 ed 40 7c 6f fc ef bc 9c 9f 40 f2     ....b.@|o.....@.
     160:	ba a5 6f a5 f4 90 05 5a 2a f7 5c 93 6b 6c f9 67     ..o....Z*.\.kl.g
     170:	6d c1 1b fc e0 e4 0d 47 fe f5 20 e6 b5 00 d0 ed     m......G.. .....
     180:	90 2e 03 00 94 35 77 05 00 80 84 1e 08 00 00 20     .....5w........ 
     190:	4e 0a 00 00 00 c8 0c 33 33 33 33 0f 98 6e 12 83     N......3333..n..
     1a0:	11 41 ef 8d 21 14 89 3b e6 55 16 cf fe e6 db 18     .A..!..;.U......
     1b0:	d1 84 4b 38 1b f7 7c 1d 90 1d a4 bb e4 24 20 32     ..K8..|......$ 2
     1c0:	84 72 5e 22 81 00 c9 f1 24 ec a1 e5 3d 27           .r^"....$...='

000001ce <Times14Bold_Offset>:
     1ce:	00 00 0d 00 16 00 2b 00 44 00 56 00 7e 00 a1 00     ......+.D.V.~...
     1de:	aa 00 b7 00 c4 00 d6 00 ed 00 f6 00 03 01 0c 01     ................
     1ee:	19 01 2e 01 40 01 57 01 6c 01 81 01 96 01 ab 01     ....@.W.l.......
     1fe:	c0 01 d5 01 ea 01 f3 01 fc 01 15 02 2c 02 45 02     ............,.E.
     20e:	5a 02 84 02 a4 02 c2 02 e0 02 00 03 1e 03 3a 03     Z.............:.
     21e:	5d 03 80 03 92 03 ab 03 d0 03 ec 03 18 04 3b 04     ].............;.
     22e:	5b 04 77 04 97 04 ba 04 d1 04 ed 04 0d 05 2d 05     [.w...........-.
     23e:	5c 05 7c 05 9c 05 ba 05 c5 05 d2 05 dd 05 f4 05     \.|.............
     24e:	0d 06 16 06 2d 06 44 06 56 06 6d 06 7f 06 91 06     ....-.D.V.m.....
     25e:	a8 06 c1 06 ce 06 db 06 f7 06 04 07 29 07 42 07     ............).B.
     26e:	57 07 6e 07 85 07 9a 07 aa 07 ba 07 d3 07 ea 07     W.n.............
     27e:	0d 08 24 08 3b 08 50 08 5d 08 61 08 6e 08 87 08     ..$.;.P.].a.n...
     28e:	a0 08                                               ..

00000290 <Times14Bold_bmp>:
     290:	05 00 00 00 00 00 00 00 00 00 00 00 00 03 03 ff     ................
     2a0:	fa 48 7f c0 00 00 08 00 00 e7 e7 e7 42 42 42 00     .H..........BBB.
	...
     2b8:	00 00 00 0a 00 00 00 88 22 11 3f f1 10 44 22 3f     ........".?..D"?
     2c8:	f2 20 88 44 11 00 00 00 00 00 00 00 07 00 21 f6     . .D..........!.
     2d8:	bd 3a 3c 3c 3c 3c 5c bd 6f 84 00 00 00 00 10 00     .:<<<<\.o.......
     2e8:	00 00 00 78 08 cc 10 cc 20 cc 40 cc 5e cc b3 cd     ...x.... .@.^...
     2f8:	33 7a 33 02 33 04 33 08 33 10 1e 00 00 00 00 00     3z3.3.3.3.......
     308:	00 00 00 00 00 00 0e 00 00 00 00 f0 06 60 19 80     .............`..
     318:	66 01 e0 07 9e 6e 33 9c 8e 7c 38 f1 f1 f8 f9 c0     f....n3..|8.....
	...
     330:	00 03 03 fe 92 00 00 00 00 00 05 00 02 22 31 18     ............."1.
     340:	c6 31 8c 21 84 10 40 05 00 20 82 18 43 18 c6 31     .1.!..@.. ..C..1
     350:	88 c4 44 00 07 00 70 e6 bf e2 1b 36 00 00 00 00     ..D...p....6....
     360:	00 00 00 00 00 00 09 00 00 00 00 00 80 40 20 10     .............@ .
     370:	ff 84 02 01 00 80 00 00 00 00 00 00 00 03 00 00     ................
     380:	00 00 6f ca 80 00 05 00 00 00 00 00 00 3e 00 00     ..o..........>..
     390:	00 00 00 03 00 00 00 00 7f c0 00 00 05 00 02 21     ...............!
     3a0:	08 84 22 10 88 40 00 00 00 08 00 00 3c 66 66 e7     .."..@......<ff.
     3b0:	e7 e7 e7 e7 e7 66 66 3c 00 00 00 00 00 00 07 00     .....ff<........
     3c0:	00 23 cf 87 0e 1c 38 70 e1 c3 9f c0 00 00 00 00     .#....8p........
     3d0:	09 00 00 0f 0f c4 f0 38 1c 0c 0c 04 04 04 17 f7     .......8........
     3e0:	f8 00 00 00 00 00 00 08 00 00 3c 7e 8e 0e 18 3c     ..........<~...<
     3f0:	1e 0f 07 c7 e6 78 00 00 00 00 00 00 08 00 00 06     .....x..........
     400:	0e 0e 1e 2e 4e 8e ff ff 0e 0e 0e 00 00 00 00 00     ....N...........
     410:	00 08 00 00 3f 7e 40 78 fe fe 0f 03 01 c1 f2 7c     ....?~@x.......|
     420:	00 00 00 00 00 00 08 00 00 07 1c 30 70 7c ee e7     ...........0p|..
     430:	e7 e7 e7 76 3c 00 00 00 00 00 00 08 00 00 7f ff     ...v<...........
     440:	82 02 02 04 04 04 08 08 10 10 00 00 00 00 00 00     ................
     450:	08 00 00 3e e3 e3 e3 7e 3c 3e 4f c7 c7 c6 7c 00     ...>...~<>O...|.
     460:	00 00 00 00 00 08 00 00 3c 6e e7 e7 e7 e7 77 3e     ........<n....w>
     470:	0e 0c 38 e0 00 00 00 00 00 00 03 00 01 ff 00 7f     ..8.............
     480:	c0 00 00 03 00 01 ff 00 6f ca 80 00 0a 00 00 00     ........o.......
     490:	00 01 03 83 07 02 00 70 03 00 38 01 00 00 00 00     .......p..8.....
     4a0:	00 00 00 00 00 09 00 00 00 00 00 00 03 fe 00 00     ................
     4b0:	7f c0 00 00 00 00 00 00 00 00 00 00 0a 00 00 00     ................
     4c0:	02 00 70 03 00 38 01 03 83 07 02 00 00 00 00 00     ..p..8..........
     4d0:	00 00 00 00 00 08 00 00 3e c7 e7 e7 06 0c 10 10     ........>.......
     4e0:	00 38 38 38 00 00 00 00 00 00 11 00 00 00 00 00     .888............
     4f0:	fc 01 81 83 00 61 0d d9 0d c5 8e e2 87 71 47 38     .....a.......qG8
     500:	a3 98 91 dc 48 ee 42 3b c5 00 04 40 04 18 0c 03     ....H.B;...@....
     510:	f8 00 00 00 0d 00 00 00 00 80 06 00 70 03 c0 2e     ............p...
     520:	01 70 11 c0 8e 07 f8 41 c2 0f 78 fc 00 00 00 00     .p.....A..x.....
     530:	00 00 00 00 0c 00 00 00 ff c3 8e 38 73 87 38 e3     ...........8s.8.
     540:	fc 38 e3 87 38 73 87 38 ef fc 00 00 00 00 00 00     .8..8s.8........
     550:	00 00 0c 00 00 00 0f 93 87 70 36 01 e0 0e 00 e0     .........p6.....
     560:	0e 00 e0 07 01 38 21 fc 00 00 00 00 00 00 00 00     .....8!.........
     570:	0d 00 00 00 3f e0 71 c3 87 1c 18 e0 e7 07 38 39     ....?.q.......89
     580:	c1 ce 0e 70 e3 8e 7f c0 00 00 00 00 00 00 00 00     ...p............
     590:	0c 00 00 00 ff e3 86 38 23 90 39 03 f0 39 03 90     .......8#.9..9..
     5a0:	38 13 81 38 3f ff 00 00 00 00 00 00 00 00 0b 00     8..8?...........
     5b0:	00 03 ff 9c 33 82 72 0e 41 f8 39 07 20 e0 1c 03     ....3.r.A.9. ...
     5c0:	81 fc 00 00 00 00 00 00 00 00 0e 00 00 00 00 f9     ................
     5d0:	0e 1c 70 31 c0 4e 00 38 00 e0 03 87 fe 07 1c 1c     ..p1.N.8........
     5e0:	38 70 3f 00 00 00 00 00 00 00 00 00 00 0e 00 00     8p?.............
     5f0:	00 0f cf ce 1c 38 70 e1 c3 87 0f fc 38 70 e1 c3     .....8p.....8p..
     600:	87 0e 1c 38 73 f3 f0 00 00 00 00 00 00 00 00 00     ...8s...........
     610:	07 00 03 f9 c3 87 0e 1c 38 70 e1 c3 9f c0 00 00     ........8p......
     620:	00 00 0a 00 00 01 fc 1c 07 01 c0 70 1c 07 01 ce     ...........p....
     630:	73 9c c6 0f 00 00 00 00 00 00 00 0f 00 00 00 03     s...............
     640:	f9 f1 c0 83 86 07 10 0e 40 1f 80 3b 80 73 80 e7     ........@..;.s..
     650:	01 c7 03 87 1f df c0 00 00 00 00 00 00 00 00 00     ................
     660:	0b 00 00 03 f8 1c 03 80 70 0e 01 c0 38 07 00 e0     ........p...8...
     670:	9c 13 87 ff c0 00 00 00 00 00 00 00 12 00 00 00     ................
     680:	00 0f c0 fc f0 3c 2e 17 0b 85 c2 71 70 9c 9c 27     .....<.....qp..'
     690:	27 08 f1 c2 3c 70 87 1c 21 87 3e 27 f0 00 00 00     '...<p..!.>'....
	...
     6a8:	0e 00 00 00 07 07 ce 04 3c 10 f8 42 f1 09 e4 23     ........<..B...#
     6b8:	d0 87 c2 0f 08 1c 20 33 e0 40 00 00 00 00 00 00     ...... 3.@......
     6c8:	00 00 00 0d 00 00 00 03 e0 71 c7 07 30 1b 80 fc     .........q..0...
     6d8:	07 e0 3f 01 d8 0c e0 e3 8e 07 c0 00 00 00 00 00     ..?.............
     6e8:	00 00 00 0b 00 00 03 fe 1c e3 8e 71 ce 39 ce 3f     ...........q.9.?
     6f8:	87 00 e0 1c 03 81 fc 00 00 00 00 00 00 00 00 0d     ................
     708:	00 00 00 03 e0 71 c7 07 30 1b 80 fc 07 e0 3f 01     .....q..0.....?.
     718:	f8 0e e0 e3 8e 0f e0 1c 00 70 01 f0 00 00 00 0e     .........p......
     728:	00 00 00 0f fc 0e 38 38 70 e1 c3 87 0e 38 3f 80     ......88p....8?.
     738:	ee 03 9c 0e 38 38 73 f8 f0 00 00 00 00 00 00 00     ....88s.........
     748:	00 00 09 00 00 0f 4c 6e 17 0b c0 f8 1f 43 e0 f8     ......Ln.....C..
     758:	7e 34 f0 00 00 00 00 00 00 0b 00 00 03 ff c7 18     ~4..............
     768:	e2 1c 03 80 70 0e 01 c0 38 07 00 e0 7f 00 00 00     ....p...8.......
     778:	00 00 00 00 00 0d 00 00 00 3f be 70 43 82 1c 10     .........?.pC...
     788:	e0 87 04 38 21 c1 0e 08 70 41 c4 07 c0 00 00 00     ...8!...pA......
     798:	00 00 00 00 00 0d 00 00 00 3f 1e e0 23 82 1c 10     .........?..#...
     7a8:	71 03 88 0e 80 74 03 a0 0e 00 70 01 00 00 00 00     q....t....p.....
     7b8:	00 00 00 00 00 13 00 00 00 00 03 f7 e3 b8 38 23     ..............8#
     7c8:	87 04 70 71 07 1e 20 e2 c8 0e 9d 01 d3 a0 1c 38     ..pq.. ........8
     7d8:	03 87 00 70 e0 04 08 00 00 00 00 00 00 00 00 00     ...p............
     7e8:	00 00 00 00 0d 00 00 00 3f 3e 70 41 c4 0e 40 3c     ........?>pA..@<
     7f8:	00 e0 07 00 3c 02 70 23 82 0e 7c fc 00 00 00 00     ....<.p#..|.....
     808:	00 00 00 00 0d 00 00 00 3f 1e e0 23 82 1c 20 71     ........?..#.. q
     818:	01 d0 0f 00 38 01 c0 0e 00 70 0f e0 00 00 00 00     ....8....p......
     828:	00 00 00 00 0c 00 00 00 7f e6 1c 43 84 38 07 00     ...........C.8..
     838:	e0 0e 01 c0 38 13 81 70 3f ff 00 00 00 00 00 00     ....8..p?.......
     848:	00 00 04 00 fc cc cc cc cc cc cc cf 00 05 00 21     ...............!
     858:	04 21 04 21 04 21 04 00 00 00 04 00 f3 33 33 33     .!.!.!.......333
     868:	33 33 33 3f 00 09 00 04 05 02 82 22 09 05 01 00     333?......."....
	...
     884:	0a 00 00 00 00 00 00 00 00 00 00 00 00 00 00 00     ................
     894:	00 00 00 00 00 00 3f f0 00 03 19 90 00 00 00 00     ......?.........
     8a4:	00 00 09 00 00 00 00 00 01 f3 1d ce e7 0f 9d dc     ................
     8b4:	ee f3 bc 00 00 00 00 00 00 09 00 00 3c 0e 07 03     ............<...
     8c4:	b1 ec e7 73 b9 dc ee 77 32 70 00 00 00 00 00 00     ...s...w2p......
     8d4:	07 00 00 00 00 07 99 f3 e1 c3 87 07 27 80 00 00     ............'...
     8e4:	00 00 09 00 00 03 c0 e0 71 b9 bd ce e7 73 b9 dc     ........q....s..
     8f4:	e6 f9 b0 00 00 00 00 00 00 07 00 00 00 00 07 1b     ................
     904:	77 ff c3 87 07 27 80 00 00 00 00 07 00 00 fb b7     w....'..........
     914:	1f 1c 38 70 e1 c3 87 1f 00 00 00 00 00 09 00 00     ..8p............
     924:	00 00 00 01 fd 99 ce e7 73 0f 08 0f f7 fd ff 01     ........s.......
     934:	81 3f 00 00 0a 00 00 0f 01 c0 70 1d c7 b9 ce 73     .?........p....s
     944:	9c e7 39 ce 73 be f0 00 00 00 00 00 00 05 00 1c     ..9.s...........
     954:	e0 79 ce 73 9c e7 7c 00 00 00 05 00 0e 70 3c e7     .y.s..|......p<.
     964:	39 ce 73 9c f7 bf 80 0b 00 00 03 c0 38 07 00 e7     9.s.........8...
     974:	9c 63 88 76 0f c1 dc 39 c7 1d f7 c0 00 00 00 00     .c.v...9........
     984:	00 00 00 05 00 3c e7 39 ce 73 9c e7 7c 00 00 00     .....<.9.s..|...
     994:	0f 00 00 00 00 00 00 00 00 00 1e e7 1e f7 39 ce     ..............9.
     9a4:	73 9c e7 39 ce 73 9c e7 39 df 7b c0 00 00 00 00     s..9.s..9.{.....
     9b4:	00 00 00 00 00 0a 00 00 00 00 00 00 3d c7 b9 ce     ............=...
     9c4:	73 9c e7 39 ce 73 be f0 00 00 00 00 00 00 08 00     s..9.s..........
     9d4:	00 00 00 00 3c 66 e7 e7 e7 e7 e7 66 3c 00 00 00     ....<f.....f<...
     9e4:	00 00 00 09 00 00 00 00 00 07 b1 ec e7 73 b9 dc     .............s..
     9f4:	ee 77 b3 b1 c0 e0 70 7c 00 00 09 00 00 00 00 00     .w....p|........
     a04:	01 e9 9d ce e7 73 b9 dc e6 f1 b8 1c 0e 07 07 c0     .....s..........
     a14:	00 08 00 00 00 00 00 f7 7b 73 70 70 70 70 70 f8     ........{sppppp.
     a24:	00 00 00 00 00 00 06 00 00 00 01 dc f9 f1 e3 e7     ................
     a34:	ce e0 00 00 00 00 06 00 01 04 33 f7 1c 71 c7 1c     ..........3..q..
     a44:	74 e0 00 00 00 00 0a 00 00 00 00 00 00 3d e7 39     t............=.9
     a54:	ce 73 9c e7 39 ce 77 8e f0 00 00 00 00 00 00 09     .s..9.w.........
     a64:	00 00 00 00 00 07 dd c4 e2 3a 1d 0e 83 81 c0 40     .........:.....@
     a74:	00 00 00 00 00 00 0e 00 00 00 00 00 00 00 00 03     ................
     a84:	ef 77 18 9c f4 3b d0 eb 41 ce 07 38 1c e0 21 00     .w...;..A..8..!.
	...
     a9c:	00 09 00 00 00 00 00 07 dc e4 74 1c 0e 03 83 c2     ..........t.....
     aac:	77 bc 00 00 00 00 00 00 09 00 00 00 00 00 07 dd     w...............
     abc:	c4 72 3a 0f 07 81 80 c0 20 21 d0 f0 30 00 00 08     .r:..... !..0...
     acc:	00 00 00 00 00 7f 4e 4e 1c 1c 38 71 73 ff 00 00     ......NN..8qs...
     adc:	00 00 00 00 05 00 06 66 30 c6 64 18 63 19 8c 30     .......f0.d.c..0
     aec:	c0 01 3f ff c0 05 00 30 c3 19 8c 30 4c c6 30 c6     ..?....0...0L.0.
     afc:	66 00 0a 00 00 00 00 00 00 00 00 01 c1 8c 60 e0     f.............`.
	...
     b14:	00 00 00 0a 00 3f f8 06 01 80 60 18 06 01 80 60     .....?....`....`
     b24:	18 06 01 80 7f f0 00 00 00 00 00 00                 ............

00000b30 <Font4x6>:
     b30:	00 00 00 22 20 20 55 00 00 57 57 50 23 63 62 41     ..."  U..WWP#cbA
     b40:	24 10 25 35 70 64 00 00 24 44 20 42 22 40 52 72     $.%5pd..$D B"@Rr
     b50:	50 02 72 00 00 00 64 00 70 00 00 00 20 11 24 40     P.r...d.p... .$@
     b60:	35 55 60 26 22 70 61 24 70 61 21 60 15 71 10 74     5U`&"pa$pa!`.q.t
     b70:	61 60 24 65 20 71 32 20 25 25 20 25 31 20 00 20     a`$e q2 %% %1 . 
     b80:	20 00 20 64 12 42 10 00 70 70 42 12 40 61 20 20      . d.B..ppB.@a  
     b90:	75 54 70 25 75 50 65 65 60 34 44 30 65 55 60 74     uTp%uPee`4D0eU`t
     ba0:	64 70 74 64 40 34 55 30 55 75 50 72 22 70 11 15     dptd@4U0UuPr"p..
     bb0:	20 55 65 50 44 44 70 57 75 50 57 55 50 25 55 20      UePDDpWuPWUP%U 
     bc0:	65 64 40 25 57 30 65 65 50 34 71 60 72 22 20 55     ed@%W0eeP4q`r" U
     bd0:	55 70 55 55 20 55 77 50 55 25 50 55 22 20 71 24     UpUU UwPU%PU" q$
     be0:	70 64 44 60 44 21 10 62 22 60 25 00 00 00 00 0f     pdD`D!.b"`%.....
     bf0:	62 00 00 00 35 70 44 65 60 00 34 30 11 35 30 00     b...5pDe`.40.50.
     c00:	76 30 12 72 20 00 75 17 44 65 50 20 22 20 20 22     v0.r .u.DeP "  "
     c10:	26 44 56 50 22 22 20 00 77 50 00 65 50 00 25 20     &DVP"" .wP.eP.% 
     c20:	00 65 64 00 35 31 00 64 40 00 32 60 02 72 30 00     .ed.51.d@.2`.r0.
     c30:	55 70 00 55 20 00 57 70 00 52 50 00 55 24 00 62     Up.U .Wp.RP.U$.b
     c40:	30 32 62 30 22 22 20 62 32 60 5a 00 00 02 57 00     02b0"" b2`Z...W.

00000c50 <Font5HVW>:
     c50:	02 00 00 00 00 00 00 01 b8 00 00 00 00 00 03 08     ................
     c60:	00 08 00 00 00 05 50 f8 50 f8 50 00 03 d0 a8 58     ......P.P.P....X
     c70:	00 00 00 05 88 40 20 10 88 00 04 80 d8 a8 58 00     .....@ .......X.
     c80:	00 01 18 00 00 00 00 00 03 20 50 88 00 00 00 03     ......... P.....
     c90:	88 50 20 00 00 00 05 a8 50 20 50 a8 00 03 20 70     .P .....P P... p
     ca0:	20 00 00 00 03 20 10 08 00 00 00 03 20 20 20 00      .... ......   .
     cb0:	00 00 01 80 00 00 00 00 00 05 80 40 20 10 08 00     ...........@ ...
     cc0:	04 70 88 88 70 00 00 03 88 f8 80 00 00 00 03 c8     .p..p...........
     cd0:	a8 90 00 00 00 03 88 a8 70 00 00 00 03 38 20 f8     ........p....8 .
     ce0:	00 00 00 04 b8 a8 a8 48 00 00 04 70 a8 a0 40 00     .......H...p..@.
     cf0:	00 03 18 08 f8 00 00 00 04 50 a8 a8 50 00 00 04     .........P..P...
     d00:	10 a8 a8 70 00 00 01 50 00 00 00 00 00 02 80 50     ...p...P.......P
     d10:	00 00 00 00 03 20 50 88 00 00 00 03 50 50 50 00     ..... P.....PPP.
     d20:	00 00 03 88 50 20 00 00 00 04 10 08 a8 10 00 00     ....P ..........
     d30:	04 70 a8 d8 70 00 00 04 f0 28 28 f0 00 00 03 f8     .p..p....((.....
     d40:	a8 50 00 00 00 03 70 88 88 00 00 00 03 f8 88 70     .P....p........p
     d50:	00 00 00 03 f8 a8 88 00 00 00 03 f8 28 08 00 00     ............(...
     d60:	00 04 70 88 a8 60 00 00 03 f8 20 f8 00 00 00 03     ..p..`.... .....
     d70:	88 f8 88 00 00 00 03 40 80 78 00 00 00 04 f8 20     .......@.x..... 
     d80:	50 88 00 00 03 f8 80 80 00 00 00 05 f8 10 20 10     P............. .
     d90:	f8 00 05 f8 10 20 40 f8 00 04 70 88 88 70 00 00     ..... @...p..p..
     da0:	03 f8 28 10 00 00 00 05 70 88 a8 48 b0 00 03 f8     ..(.....p..H....
     db0:	28 d0 00 00 00 03 90 a8 48 00 00 00 03 08 f8 08     (.......H.......
     dc0:	00 00 00 04 78 80 80 78 00 00 05 18 60 80 60 18     ....x..x....`.`.
     dd0:	00 05 78 80 e0 80 78 00 05 88 50 20 50 88 00 04     ..x...x...P P...
     de0:	18 a0 a0 78 00 00 03 c8 a8 98 00 00 00 05 20 10     ...x.......... .
     df0:	08 10 20 00 05 b0 c8 08 c8 b0 00 05 10 20 40 20     .. .......... @ 
     e00:	10 00 05 b0 c8 08 c8 b0 00                          .........

00000e09 <Font5x7>:
     e09:	00 00 00 00 00 00 00 9e 00 00 00 0e 00 0e 00 28     ...............(
     e19:	fe 28 fe 28 48 54 fe 54 24 46 26 10 c8 c4 6c 92     .(.(HT.T$F&...l.
     e29:	aa 44 a0 00 0a 06 00 00 00 38 44 82 00 00 82 44     .D.......8D....D
     e39:	38 00 10 54 38 54 10 10 10 7c 10 10 00 a0 60 00     8..T8T...|....`.
     e49:	00 10 10 10 10 10 00 60 60 00 00 40 20 10 08 04     .......``..@ ...
     e59:	7c a2 92 8a 7c 00 84 fe 80 00 84 c2 a2 92 8c 42     |...|..........B
     e69:	82 8a 96 62 30 28 24 fe 20 4e 8a 8a 8a 72 78 94     ...b0($. N...rx.
     e79:	92 92 60 02 e2 12 0a 06 6c 92 92 92 6c 0c 92 92     ..`.....l...l...
     e89:	52 3c 00 6c 6c 00 00 00 ac 6c 00 00 00 10 28 44     R<.ll....l....(D
     e99:	82 28 28 28 28 28 82 44 28 10 00 04 02 a2 12 0c     .(((((.D(.......
     ea9:	64 92 f2 82 7c fc 22 22 22 fc fe 92 92 92 6c 7c     d...|.""".....l|
     eb9:	82 82 82 44 fe 82 82 44 38 fe 92 92 92 82 fe 12     ...D...D8.......
     ec9:	12 02 02 7c 82 82 a2 64 fe 10 10 10 fe 00 82 fe     ...|...d........
     ed9:	82 00 40 80 82 7e 02 fe 10 28 44 82 fe 80 80 80     ..@..~...(D.....
     ee9:	80 fe 04 08 04 fe fe 08 10 20 fe 7c 82 82 82 7c     ......... .|...|
     ef9:	fe 12 12 12 0c 7c 82 a2 42 bc fe 12 32 52 8c 8c     .....|..B...2R..
     f09:	92 92 92 62 02 02 fe 02 02 7e 80 80 80 7e 3e 40     ...b.....~...~>@
     f19:	80 40 3e fe 40 30 40 fe c6 28 10 28 c6 06 08 f0     .@>.@0@..(.(....
     f29:	08 06 c2 a2 92 8a 86 00 00 fe 82 82 04 08 10 20     ............... 
     f39:	40 82 82 fe 00 00 08 04 02 04 08 80 80 80 80 80     @...............
     f49:	00 02 04 08 00 40 a8 a8 a8 f0 fe 90 88 88 70 70     .....@........pp
     f59:	88 88 88 40 70 88 88 90 fe 70 a8 a8 a8 30 10 fc     ...@p....p...0..
     f69:	12 02 04 10 28 a8 a8 78 fe 10 08 08 f0 00 88 fa     ....(..x........
     f79:	80 00 40 80 88 7a 00 00 fe 20 50 88 00 82 fe 80     ..@..z... P.....
     f89:	00 f8 08 30 08 f0 f8 10 08 08 f0 70 88 88 88 70     ...0.......p...p
     f99:	f8 28 28 28 10 10 28 28 30 f8 f8 10 08 08 10 90     .(((..((0.......
     fa9:	a8 a8 a8 40 08 7e 88 80 40 78 80 80 40 f8 38 40     ...@.~..@x..@.8@
     fb9:	80 40 38 78 80 60 80 78 88 50 20 50 88 18 a0 a0     .@8x.`.x.P P....
     fc9:	a0 78 88 c8 a8 98 88 00 10 6c 82 00 00 00 fe 00     .x.......l......
     fd9:	00 00 82 6c 10 00 20 10 10 20 10 f0 88 84 88 f0     ...l.. .. ......
     fe9:	28 7c aa 82 44 f0 29 27 21 ff 00 a0 60 00 00 40     (|..D.)'!...`..@
     ff9:	90 7c 12 04 c0 a0 00 c0 a0 80 00 80 00 80 00 04     .|..............
    1009:	fe 04 00 00 44 fe 44 00 00 04 02 04 00 c3 d3 08     ....D.D.........
    1019:	c4 c2 4c 93 92 93 64 00 10 28 00 00 7c 82 82 7c     ..L...d..(..|..|
    1029:	92 02 fe 90 90 60 c2 a3 92 8b 86 44 92 8a 92 7c     .....`.....D...|
    1039:	70 88 90 60 98 00 02 04 08 00 00 08 04 02 00 02     p..`............
    1049:	04 0a 04 08 08 04 0a 04 02 00 38 38 38 00 00 10     ..........888...
    1059:	10 10 10 10 10 10 10 10 02 01 02 04 02 f1 5b 55     ..............[U
    1069:	51 51 90 a9 aa a9 40 00 88 50 20 00 70 88 70 a8     QQ....@..P .p.p.
    1079:	b0 38 7c f8 7c 38 88 c9 aa 99 88 1c 21 c0 21 1c     .8|.|8......!.!.
    1089:	00 00 00 00 00 00 00 f2 00 00 38 44 fe 44 20 90     ..........8D.D .
    1099:	7c 92 82 40 44 38 28 38 44 2a 2c f8 2c 2a 00 00     |..@D8(8D*,.,*..
    10a9:	ee 00 00 40 94 aa 52 04 00 02 00 02 00 fe 82 ba     ...@..R.........
    10b9:	92 fe 90 aa aa aa bc 20 50 a8 50 88 20 20 20 20     ....... P.P.    
    10c9:	e0 20 20 20 20 20 fe 82 ca a2 fe 02 02 02 02 02     .     ..........
    10d9:	0e 11 11 0e 00 88 88 be 88 88 12 19 15 12 00 11     ................
    10e9:	15 15 0a 00 00 08 04 02 00 fe 20 20 10 3e 0c 12     ..........  .>..
    10f9:	12 fe fe 00 30 30 00 00 00 80 b0 40 00 00 02 0f     ....00.....@....
    1109:	00 00 00 02 05 02 00 44 28 54 28 10 22 1f 68 54     .......D(T(.".hT
    1119:	fa 02 1f 90 c8 b0 15 1f 60 50 f8 60 90 8a 80 40     ........`P.`...@
    1129:	f0 29 26 28 f0 f0 28 26 29 f0 f0 2a 29 2a f0 f2     .)&(..(&)..*)*..
    1139:	29 29 2a f1 f0 29 24 29 f0 f0 2a 2d 2a f0 f8 24     ))*..)$)..*-*..$
    1149:	fe 92 92 1e 21 a1 e1 12 f8 a9 aa a8 88 f8 a8 aa     ....!...........
    1159:	a9 88 f8 aa a9 aa 88 f8 aa a8 aa 88 00 89 fa 88     ................
    1169:	00 00 88 fa 89 00 00 8a f9 8a 00 00 8a f8 8a 00     ................
    1179:	10 fe 92 82 7c fa 11 21 42 f9 78 85 86 84 78 78     ....|..!B.x...xx
    1189:	84 86 85 78 70 8a 89 8a 70 72 89 89 8a 71 78 85     ...xp...pr...qx.
    1199:	84 85 78 44 28 10 28 44 10 aa fe aa 10 7c 81 82     ..xD(.(D.....|..
    11a9:	80 7c 7c 80 82 81 7c 78 82 81 82 78 7c 81 80 81     .||...|x...x|...
    11b9:	7c 04 08 f2 09 04 81 ff 24 24 18 80 7c 92 92 6c     |.......$$..|..l
    11c9:	40 a9 aa a8 f0 40 a8 aa a9 f0 40 aa a9 aa f0 42     @....@....@....B
    11d9:	a9 a9 aa f1 40 aa a8 aa f0 40 aa ad aa f0 64 94     ....@....@....d.
    11e9:	78 94 58 18 24 a4 e4 10 70 a9 aa a8 30 70 a8 aa     x.X.$...p...0p..
    11f9:	a9 30 70 aa a9 aa 30 70 aa a8 aa 30 00 91 fa 80     .0p...0p...0....
    1209:	00 00 90 fa 81 00 00 92 f9 82 00 00 92 f8 82 00     ................
    1219:	4a a4 aa b0 60 fa 11 09 0a f1 70 89 8a 88 70 70     J...`.....p...pp
    1229:	88 8a 89 70 60 94 92 94 60 64 92 92 94 62 70 8a     ...p`...`d...bp.
    1239:	88 8a 70 10 10 54 10 10 10 a8 7c 2a 10 78 81 82     ..p..T....|*.x..
    1249:	40 f8 78 80 82 41 f8 78 82 81 42 f8 78 82 80 42     @.x..A.x..B.x..B
    1259:	f8 18 a0 a4 a2 78 00 82 fe a8 10 18 a2 a0 a2 78     .....x.........x

00001269 <Font6x8>:
    1269:	00 00 00 00 00 00 10 e3 84 10 01 00 6d b4 80 00     ............m...
    1279:	00 00 00 a7 ca 29 f2 80 20 e4 0c 09 c1 00 65 90     .....).. .....e.
    1289:	84 21 34 c0 21 45 08 55 23 40 30 c2 00 00 00 00     .!4.!E.U#@0.....
    1299:	10 82 08 20 81 00 20 41 04 10 42 00 00 a3 9f 38     ... .. A..B....8
    12a9:	a0 00 00 41 1f 10 40 00 00 00 00 00 c3 08 00 00     ...A..@.........
    12b9:	1f 00 00 00 00 00 00 00 c3 00 00 10 84 21 00 00     .............!..
    12c9:	39 14 d5 65 13 80 10 c1 04 10 43 80 39 10 46 21     9..e......C.9.F!
    12d9:	07 c0 39 10 4e 05 13 80 08 62 92 7c 20 80 7d 04     ..9.N....b.| .}.
    12e9:	1e 05 13 80 18 84 1e 45 13 80 7c 10 84 20 82 00     .......E..|.. ..
    12f9:	39 14 4e 45 13 80 39 14 4f 04 23 00 00 03 0c 00     9.NE..9.O.#.....
    1309:	c3 00 00 03 0c 00 c3 08 08 42 10 20 40 80 00 07     .........B. @...
    1319:	c0 01 f0 00 20 40 81 08 42 00 39 10 46 10 01 00     .... @..B.9.F...
    1329:	39 15 d5 5d 03 80 39 14 51 7d 14 40 79 14 5e 45     9..]..9.Q}.@y.^E
    1339:	17 80 39 14 10 41 13 80 79 14 51 45 17 80 7d 04     ..9..A..y.QE..}.
    1349:	1e 41 07 c0 7d 04 1e 41 04 00 39 14 17 45 13 c0     .A..}..A..9..E..
    1359:	45 14 5f 45 14 40 38 41 04 10 43 80 04 10 41 45     E._E.@8A..C...AE
    1369:	13 80 45 25 18 51 24 40 41 04 10 41 07 c0 45 b5     ..E%.Q$@A..A..E.
    1379:	51 45 14 40 45 95 53 45 14 40 39 14 51 45 13 80     QE.@E.SE.@9.QE..
    1389:	79 14 5e 41 04 00 39 14 51 55 23 40 79 14 5e 49     y.^A..9.QU#@y.^I
    1399:	14 40 39 14 0e 05 13 80 7c 41 04 10 41 00 45 14     .@9.....|A..A.E.
    13a9:	51 45 13 80 45 14 51 44 a1 00 45 15 55 55 52 80     QE..E.QD..E.UUR.
    13b9:	45 12 84 29 14 40 45 14 4a 10 41 00 78 21 08 41     E..).@E.J.A.x!.A
    13c9:	07 80 38 82 08 20 83 80 01 02 04 08 10 00 38 20     ..8.. ........8 
    13d9:	82 08 23 80 10 a4 40 00 00 00 00 00 00 00 00 3f     ..#...@........?
    13e9:	30 c1 00 00 00 00 00 03 81 3d 13 c0 41 07 91 45     0........=..A..E
    13f9:	17 80 00 03 91 41 13 80 04 13 d1 45 13 c0 00 03     .....A.....E....
    1409:	91 79 03 80 18 82 1e 20 82 00 00 03 d1 44 f0 4e     .y..... .....D.N
    1419:	41 07 12 49 24 80 10 01 04 10 41 80 08 01 82 08     A..I$.....A.....
    1429:	24 8c 41 04 94 61 44 80 10 41 04 10 41 80 00 06     $.A..aD..A..A...
    1439:	95 55 14 40 00 07 12 49 24 80 00 03 91 45 13 80     .U.@...I$....E..
    1449:	00 07 91 45 17 90 00 03 d1 45 13 c1 00 05 89 20     ...E.....E..... 
    1459:	87 00 00 03 90 38 13 80 00 87 88 20 a1 00 00 04     .....8..... ....
    1469:	92 49 62 80 00 04 51 44 a1 00 00 04 51 55 f2 80     .Ib...QD....QU..
    1479:	00 04 92 31 24 80 00 04 92 48 e1 18 00 07 82 31     ...1$....H.....1
    1489:	07 80 18 82 18 20 81 80 10 41 00 10 41 00 30 20     ..... ...A..A.0 
    1499:	83 08 23 00 29 40 00 00 00 00 10 e6 d1 45 f0 00     ..#.)@.......E..

000014a9 <Times8BoldOffset>:
    14a9:	00 00 06 00 0a 00 12 00 1c 00 24 00 31 00 3e 00     ..........$.1.>.
    14b9:	42 00 49 00 50 00 58 00 60 00 64 00 6a 00 6e 00     B.I.P.X.`.d.j.n.
    14c9:	74 00 7c 00 83 00 8b 00 93 00 9d 00 a5 00 ad 00     t.|.............
    14d9:	b5 00 bd 00 c5 00 c9 00 cd 00 d5 00 dd 00 e5 00     ................
    14e9:	ed 00 fb 00 08 01 13 01 1e 01 2b 01 35 01 3f 01     ..........+.5.?.
    14f9:	4c 01 5a 01 61 01 6b 01 78 01 83 01 92 01 9f 01     L.Z.a.k.x.......
    1509:	ac 01 b7 01 c4 01 d1 01 d9 01 e3 01 f0 01 fd 01     ................
    1519:	0f 02 1a 02 27 02 32 02 38 02 3e 02 44 02 4c 02     ....'.2.8.>.D.L.
    1529:	56 02 5a 02 64 02 6c 02 73 02 7d 02 85 02 8d 02     V.Z.d.l.s.}.....
    1539:	97 02 a2 02 a9 02 af 02 ba 02 c1 02 d0 02 db 02     ................
    1549:	e3 02 eb 02 f5 02 fd 02 04 03 0b 03 16 03 1e 03     ................
    1559:	2b 03 35 03 3f 03 47 03 4e 03 51 03 58 03 60 03     +.5.?.G.N.Q.X.`.
    1569:	6a 03                                               j.

0000156b <Times8Bold032bmp>:
    156b:	03 00 00 00 00 00 02 3f 53 c0 05 06 f7 b0 00 00     .......?S.......
    157b:	00 00 06 00 a2 8a fd 4f d4 50 00 00 05 23 ab c7     .......O.P...#..
    158b:	1c b5 71 00 08 00 42 a4 a8 aa 55 15 25 42 00 00     ..q...B...U.%B..
    159b:	00 08 00 1c 34 34 3b 5a cc ed 76 00 00 00 02 3f     ....44;Z..v....?
    15ab:	00 00 04 01 64 cc cc 46 10 04 08 62 33 33 26 80     ....d..F...b33&.
    15bb:	05 01 09 f2 28 00 00 00 05 00 00 42 7c 84 00 00     ....(......B|...
    15cb:	02 00 03 d8 03 00 00 38 00 00 02 00 03 c0 03 04     .......8........
    15db:	a4 94 80 00 05 03 b7 bd ef 7b 70 00 04 0e 66 66     .........{p...ff
    15eb:	66 f0 00 05 03 bf 31 09 8f f8 00 05 03 a6 33 0c     f.....1.......3.
    15fb:	73 70 00 06 00 21 8e 5a 6f c6 18 00 00 05 03 dc     sp...!.Zo.......
    160b:	8f 7c 3a e0 00 05 00 d8 8f 6f 7b 70 00 05 07 fe     .|:......o{p....
    161b:	21 08 84 20 00 05 03 b7 b7 3b 7b 70 00 05 03 b7     !.. .....;{p....
    162b:	bd bc 46 c0 00 02 00 f3 c0 02 00 f3 d8 05 00 00     ..F.............
    163b:	17 41 c1 00 00 05 00 00 0f 83 e0 00 00 05 00 01     .A..............
    164b:	07 05 d0 00 00 05 03 b7 b1 10 0c 60 00 09 00 0f     ...........`....
    165b:	08 48 18 dc 9e cb 6f 5a 90 87 80 08 00 18 18 1c     .H....oZ........
    166b:	2c 3c 46 46 ef 00 00 00 07 01 f9 9b 37 cc d9 b3     ,<FF........7...
    167b:	fc 00 00 07 00 75 9e 1c 18 30 31 3c 00 00 08 00     .....u...01<....
    168b:	fc 66 63 63 63 63 66 fc 00 00 00 06 03 f6 5a 79     .fccccf.......Zy
    169b:	a6 19 fc 00 00 06 03 f6 5a 79 a6 18 f0 00 00 08     ........Zy......
    16ab:	00 3a 66 c2 c0 c0 cf 66 3c 00 00 00 09 00 7b d8     .:f....f<.....{.
    16bb:	cc 67 f3 19 8c c6 f7 80 00 00 04 0f 66 66 66 f0     .g..........fff.
    16cb:	00 06 00 f1 86 18 6d b6 70 00 00 08 00 f7 64 68     ......m.p.....dh
    16db:	78 78 6c 66 f7 00 00 00 07 01 e1 83 06 0c 18 b3     xxlf............
    16eb:	fe 00 00 0a 00 3c f7 39 ce 5d 97 65 d9 26 eb c0     .....<.9.].e.&..
    16fb:	00 00 08 00 e7 72 5a 5a 4e 46 46 e2 00 00 00 08     .....rZZNFF.....
    170b:	00 3c 66 c3 c3 c3 c3 66 3c 00 00 00 07 01 f9 9b     .<f....f<.......
    171b:	36 6f 98 30 f0 00 00 08 00 3c 66 c3 c3 c3 c3 66     6o.0.....<f....f
    172b:	3c 18 0f 00 08 00 fc 66 66 78 6c 6c 66 f7 00 00     <......ffxllf...
    173b:	00 05 03 77 8f 3c 7b b0 00 06 03 fb 4c 30 c3 0c     ...w.<{.....L0..
    174b:	78 00 00 08 00 f7 62 62 62 62 62 62 3c 00 00 00     x.....bbbbbb<...
    175b:	08 00 f7 62 62 34 34 34 18 18 00 00 00 0c 00 0e     ...bb444........
    176b:	f7 66 26 24 37 43 74 19 81 98 19 80 00 00 00 07     .f&$7Ct.........
    177b:	01 ed 91 c3 03 0e 26 ee 00 00 08 00 f7 62 34 34     ......&......b44
    178b:	18 18 18 3c 00 00 00 07 00 fd 32 c1 86 0c b3 fe     ...<......2.....
    179b:	00 00 03 1f 6d b6 db 80 03 12 24 91 20 00 03 1d     ....m.....$. ...
    17ab:	b6 db 6f 80 0b 1f 06 31 83 60 3c 06 c1 8c 60 88     ..o....1.`<...`.
    17bb:	f1 e0 00 00 06 00 02 24 00 00 06 00 00 00 72 67     .......$......rg
    17cb:	b6 7c 00 00 05 06 31 8f 6f 7b b0 00 04 00 00 7d     .|....1.o{.....}
    17db:	cc 70 00 06 00 e1 86 7b 6d b6 7c 00 00 05 00 00     .p.....{m.|.....
    17eb:	07 6f f8 78 00 05 01 da cf 31 8c f0 00 06 00 00     .o.x.....1......
    17fb:	00 7f 67 30 7f 37 80 07 01 c1 83 07 8d 9b 36 ee     ..g0.7........6.
    180b:	00 00 04 06 60 e6 66 f0 00 03 0d 8e db 6f 00 07     ....`.f......o..
    181b:	01 c1 83 06 ef 1b 36 ee 00 00 04 0e 66 66 66 f0     ......6.....fff.
    182b:	00 0a 00 00 00 00 00 fb 1b 66 d9 b6 ed c0 00 00     .........f......
    183b:	07 00 00 00 0f 8d 9b 36 ee 00 00 05 00 00 07 6f     .......6.......o
    184b:	7b 70 00 05 00 00 0f 6f 7b f6 38 06 00 00 00 6b     {p.....o{.8....k
    185b:	6d b6 78 63 c0 05 00 00 0f b5 8c f0 00 04 00 00     m.xc............
    186b:	7d 6b e0 00 04 00 22 f6 66 70 00 07 00 00 00 0e     }k....".fp......
    187b:	cd 9b 36 3e 00 00 05 00 00 0d eb 4c 60 00 08 00     ..6>.......L`...
    188b:	00 00 00 db da da 6c 6c 00 00 00 06 00 00 00 ed     ......ll........
    189b:	c3 0e dc 00 00 06 00 00 00 ed a7 0c 22 8c 00 05     ............"...
    18ab:	00 00 0f 99 cc f8 00 04 03 66 48 46 66 30 01 7f     .........fHFf0..
    18bb:	e0 04 0c 66 21 26 66 c0 05 00 00 00 66 e0 00 00     ...f!&f.....f...
    18cb:	06 03 f8 61 86 18 61 fc 00 00 00                    ...a..a....

000018d6 <__ctors_end>:
    18d6:	11 24       	eor	r1, r1
    18d8:	1f be       	out	0x3f, r1	; 63
    18da:	cf ef       	ldi	r28, 0xFF	; 255
    18dc:	cd bf       	out	0x3d, r28	; 61
    18de:	df e2       	ldi	r29, 0x2F	; 47
    18e0:	de bf       	out	0x3e, r29	; 62

000018e2 <__do_copy_data>:
    18e2:	12 e2       	ldi	r17, 0x22	; 34
    18e4:	a0 e0       	ldi	r26, 0x00	; 0
    18e6:	b0 e2       	ldi	r27, 0x20	; 32
    18e8:	e8 ea       	ldi	r30, 0xA8	; 168
    18ea:	f9 e8       	ldi	r31, 0x89	; 137
    18ec:	02 c0       	rjmp	.+4      	; 0x18f2 <__do_copy_data+0x10>
    18ee:	05 90       	lpm	r0, Z+
    18f0:	0d 92       	st	X+, r0
    18f2:	a4 3e       	cpi	r26, 0xE4	; 228
    18f4:	b1 07       	cpc	r27, r17
    18f6:	d9 f7       	brne	.-10     	; 0x18ee <__do_copy_data+0xc>

000018f8 <__do_clear_bss>:
    18f8:	2e e2       	ldi	r18, 0x2E	; 46
    18fa:	a4 ee       	ldi	r26, 0xE4	; 228
    18fc:	b2 e2       	ldi	r27, 0x22	; 34
    18fe:	01 c0       	rjmp	.+2      	; 0x1902 <.do_clear_bss_start>

00001900 <.do_clear_bss_loop>:
    1900:	1d 92       	st	X+, r1

00001902 <.do_clear_bss_start>:
    1902:	ae 38       	cpi	r26, 0x8E	; 142
    1904:	b2 07       	cpc	r27, r18
    1906:	e1 f7       	brne	.-8      	; 0x1900 <.do_clear_bss_loop>
    1908:	0e 94 a9 3c 	call	0x7952	; 0x7952 <main>
    190c:	0c 94 28 42 	jmp	0x8450	; 0x8450 <exit>

00001910 <__bad_interrupt>:
    1910:	0c 94 00 00 	jmp	0	; 0x0 <__vectors>

00001914 <LocateMeter_X>:
//	circle radius based on parameters found in "Mtr".
//------------------------------------------------------------------------------
{
	int Xa;
	
	if(Percent <= 50)
    1914:	83 33       	cpi	r24, 0x33	; 51
    1916:	c0 f4       	brcc	.+48     	; 0x1948 <LocateMeter_X+0x34>
	{
		Xa = (-Mtr->x30) + ((Percent * Mtr->x30 *2)/100);		// -139 -> 0
    1918:	fb 01       	movw	r30, r22
    191a:	46 81       	ldd	r20, Z+6	; 0x06
    191c:	57 81       	ldd	r21, Z+7	; 0x07
    191e:	ba 01       	movw	r22, r20
    1920:	66 0f       	add	r22, r22
    1922:	77 1f       	adc	r23, r23
    1924:	86 9f       	mul	r24, r22
    1926:	90 01       	movw	r18, r0
    1928:	87 9f       	mul	r24, r23
    192a:	30 0d       	add	r19, r0
    192c:	11 24       	eor	r1, r1
    192e:	36 95       	lsr	r19
    1930:	27 95       	ror	r18
    1932:	36 95       	lsr	r19
    1934:	27 95       	ror	r18
    1936:	ab e7       	ldi	r26, 0x7B	; 123
    1938:	b4 e1       	ldi	r27, 0x14	; 20
    193a:	0e 94 3b 44 	call	0x8876	; 0x8876 <__umulhisi3>
    193e:	96 95       	lsr	r25
    1940:	87 95       	ror	r24
    1942:	84 1b       	sub	r24, r20
    1944:	95 0b       	sbc	r25, r21
    1946:	08 95       	ret
	}
	else
	{
		Xa = ((Percent -50) * Mtr->x30 * 2)/100;					// 0 -> 139
    1948:	fb 01       	movw	r30, r22
    194a:	46 81       	ldd	r20, Z+6	; 0x06
    194c:	57 81       	ldd	r21, Z+7	; 0x07
    194e:	44 0f       	add	r20, r20
    1950:	55 1f       	adc	r21, r21
    1952:	90 e0       	ldi	r25, 0x00	; 0
    1954:	c2 97       	sbiw	r24, 0x32	; 50
    1956:	48 9f       	mul	r20, r24
    1958:	90 01       	movw	r18, r0
    195a:	49 9f       	mul	r20, r25
    195c:	30 0d       	add	r19, r0
    195e:	58 9f       	mul	r21, r24
    1960:	30 0d       	add	r19, r0
    1962:	11 24       	eor	r1, r1
    1964:	36 95       	lsr	r19
    1966:	27 95       	ror	r18
    1968:	36 95       	lsr	r19
    196a:	27 95       	ror	r18
    196c:	ab e7       	ldi	r26, 0x7B	; 123
    196e:	b4 e1       	ldi	r27, 0x14	; 20
    1970:	0e 94 3b 44 	call	0x8876	; 0x8876 <__umulhisi3>
    1974:	96 95       	lsr	r25
    1976:	87 95       	ror	r24
	}
	return(Xa);
}
    1978:	08 95       	ret

0000197a <Ypoint>:
//			Xa range:  0-> Mtr.x30		// R * cos30 for 120 degree meter movement.
//------------------------------------------------------------------------------
{
	int16_t x, y, xChange, yChange, RadiusError, Radius;
	
	Radius = Mtr->r;
    197a:	fb 01       	movw	r30, r22
    197c:	24 81       	ldd	r18, Z+4	; 0x04
    197e:	35 81       	ldd	r19, Z+5	; 0x05
	
	if(Xa >= Mtr->a45)
    1980:	40 85       	ldd	r20, Z+8	; 0x08
    1982:	51 85       	ldd	r21, Z+9	; 0x09
    1984:	84 17       	cp	r24, r20
    1986:	95 07       	cpc	r25, r21
    1988:	68 f1       	brcs	.+90     	; 0x19e4 <Ypoint+0x6a>
	{
		// Plots from 0->315 degrees  with Xa == 0 -> 113
		//
		x = Radius;								// Begin at 0 degrees
		y = 0;
		xChange = 1 - (Radius << 1);		//  1 -2*R
    198a:	a9 01       	movw	r20, r18
    198c:	44 0f       	add	r20, r20
    198e:	55 1f       	adc	r21, r21
    1990:	a1 e0       	ldi	r26, 0x01	; 1
    1992:	b0 e0       	ldi	r27, 0x00	; 0
    1994:	a4 1b       	sub	r26, r20
    1996:	b5 0b       	sbc	r27, r21
		yChange = 0;
		RadiusError = 0;

		while( (x >= y) && (x != Xa))
    1998:	33 23       	and	r19, r19
    199a:	0c f4       	brge	.+2      	; 0x199e <Ypoint+0x24>
    199c:	4e c0       	rjmp	.+156    	; 0x1a3a <Ypoint+0xc0>
    199e:	28 17       	cp	r18, r24
    19a0:	39 07       	cpc	r19, r25
    19a2:	09 f4       	brne	.+2      	; 0x19a6 <Ypoint+0x2c>
    19a4:	4d c0       	rjmp	.+154    	; 0x1a40 <Ypoint+0xc6>
    19a6:	40 e0       	ldi	r20, 0x00	; 0
    19a8:	50 e0       	ldi	r21, 0x00	; 0
    19aa:	60 e0       	ldi	r22, 0x00	; 0
    19ac:	70 e0       	ldi	r23, 0x00	; 0
		{
			//			LCD_PutPixel(160 +x, 214 -y,GREEN);	// Inverts "Y" to plot starting at yPos.
			
			y++;
			RadiusError += yChange;
    19ae:	fb 01       	movw	r30, r22
    19b0:	ee 0f       	add	r30, r30
    19b2:	ff 1f       	adc	r31, r31
    19b4:	4e 0f       	add	r20, r30
    19b6:	5f 1f       	adc	r21, r31
    19b8:	6f 5f       	subi	r22, 0xFF	; 255
    19ba:	7f 4f       	sbci	r23, 0xFF	; 255
			yChange += 2;
			if (((RadiusError << 1) + xChange) > 0)
    19bc:	fa 01       	movw	r30, r20
    19be:	ee 0f       	add	r30, r30
    19c0:	ff 1f       	adc	r31, r31
    19c2:	ea 0f       	add	r30, r26
    19c4:	fb 1f       	adc	r31, r27
    19c6:	1e 16       	cp	r1, r30
    19c8:	1f 06       	cpc	r1, r31
    19ca:	2c f4       	brge	.+10     	; 0x19d6 <Ypoint+0x5c>
			{
				x--;
    19cc:	21 50       	subi	r18, 0x01	; 1
    19ce:	31 09       	sbc	r19, r1
				RadiusError += xChange;
    19d0:	4a 0f       	add	r20, r26
    19d2:	5b 1f       	adc	r21, r27
				xChange += 2;
    19d4:	12 96       	adiw	r26, 0x02	; 2
		y = 0;
		xChange = 1 - (Radius << 1);		//  1 -2*R
		yChange = 0;
		RadiusError = 0;

		while( (x >= y) && (x != Xa))
    19d6:	26 17       	cp	r18, r22
    19d8:	37 07       	cpc	r19, r23
    19da:	d4 f1       	brlt	.+116    	; 0x1a50 <Ypoint+0xd6>
    19dc:	82 17       	cp	r24, r18
    19de:	93 07       	cpc	r25, r19
    19e0:	31 f7       	brne	.-52     	; 0x19ae <Ypoint+0x34>
    19e2:	36 c0       	rjmp	.+108    	; 0x1a50 <Ypoint+0xd6>
	{
		// Plot 90 -> 45 with Xa == 0 -> 113.
		//
		y = Radius;								// Begin at 0 degrees
		x = 0;
		yChange = 1 - (Radius << 1);		//  1 -2*R
    19e4:	a9 01       	movw	r20, r18
    19e6:	44 0f       	add	r20, r20
    19e8:	55 1f       	adc	r21, r21
    19ea:	a1 e0       	ldi	r26, 0x01	; 1
    19ec:	b0 e0       	ldi	r27, 0x00	; 0
    19ee:	a4 1b       	sub	r26, r20
    19f0:	b5 0b       	sbc	r27, r21
		xChange = 0;
		RadiusError = 0;

		while( (y >= x) && (x != Xa))
    19f2:	33 23       	and	r19, r19
    19f4:	44 f1       	brlt	.+80     	; 0x1a46 <Ypoint+0xcc>
    19f6:	00 97       	sbiw	r24, 0x00	; 0
    19f8:	41 f1       	breq	.+80     	; 0x1a4a <Ypoint+0xd0>
    19fa:	60 e0       	ldi	r22, 0x00	; 0
    19fc:	70 e0       	ldi	r23, 0x00	; 0
    19fe:	40 e0       	ldi	r20, 0x00	; 0
    1a00:	50 e0       	ldi	r21, 0x00	; 0
		{
			//			LCD_PutPixel(x +160, 214-y,ORANGE);
			
			x++;
			RadiusError += xChange;
    1a02:	fa 01       	movw	r30, r20
    1a04:	ee 0f       	add	r30, r30
    1a06:	ff 1f       	adc	r31, r31
    1a08:	6e 0f       	add	r22, r30
    1a0a:	7f 1f       	adc	r23, r31
    1a0c:	4f 5f       	subi	r20, 0xFF	; 255
    1a0e:	5f 4f       	sbci	r21, 0xFF	; 255
			xChange += 2;
			if (((RadiusError << 1) + yChange) > 0)
    1a10:	fb 01       	movw	r30, r22
    1a12:	ee 0f       	add	r30, r30
    1a14:	ff 1f       	adc	r31, r31
    1a16:	ea 0f       	add	r30, r26
    1a18:	fb 1f       	adc	r31, r27
    1a1a:	1e 16       	cp	r1, r30
    1a1c:	1f 06       	cpc	r1, r31
    1a1e:	2c f4       	brge	.+10     	; 0x1a2a <Ypoint+0xb0>
			{
				y--;
    1a20:	21 50       	subi	r18, 0x01	; 1
    1a22:	31 09       	sbc	r19, r1
				RadiusError += yChange;
    1a24:	6a 0f       	add	r22, r26
    1a26:	7b 1f       	adc	r23, r27
				yChange += 2;
    1a28:	12 96       	adiw	r26, 0x02	; 2
		x = 0;
		yChange = 1 - (Radius << 1);		//  1 -2*R
		xChange = 0;
		RadiusError = 0;

		while( (y >= x) && (x != Xa))
    1a2a:	24 17       	cp	r18, r20
    1a2c:	35 07       	cpc	r19, r21
    1a2e:	7c f0       	brlt	.+30     	; 0x1a4e <Ypoint+0xd4>
    1a30:	84 17       	cp	r24, r20
    1a32:	95 07       	cpc	r25, r21
    1a34:	31 f7       	brne	.-52     	; 0x1a02 <Ypoint+0x88>
    1a36:	b9 01       	movw	r22, r18
    1a38:	0b c0       	rjmp	.+22     	; 0x1a50 <Ypoint+0xd6>
	//	Q0, Sector 0.  Plots from 0-> 45 degrees.
	{
		// Plots from 0->315 degrees  with Xa == 0 -> 113
		//
		x = Radius;								// Begin at 0 degrees
		y = 0;
    1a3a:	60 e0       	ldi	r22, 0x00	; 0
    1a3c:	70 e0       	ldi	r23, 0x00	; 0
    1a3e:	08 c0       	rjmp	.+16     	; 0x1a50 <Ypoint+0xd6>
    1a40:	60 e0       	ldi	r22, 0x00	; 0
    1a42:	70 e0       	ldi	r23, 0x00	; 0
    1a44:	05 c0       	rjmp	.+10     	; 0x1a50 <Ypoint+0xd6>
	//---------------------------------------------------------------------------
	else if(Xa < Mtr->a45)
	{
		// Plot 90 -> 45 with Xa == 0 -> 113.
		//
		y = Radius;								// Begin at 0 degrees
    1a46:	b9 01       	movw	r22, r18
    1a48:	03 c0       	rjmp	.+6      	; 0x1a50 <Ypoint+0xd6>
    1a4a:	b9 01       	movw	r22, r18
    1a4c:	01 c0       	rjmp	.+2      	; 0x1a50 <Ypoint+0xd6>
    1a4e:	b9 01       	movw	r22, r18
				yChange += 2;
			}
		}
	}
	return(y);
}
    1a50:	cb 01       	movw	r24, r22
    1a52:	08 95       	ret

00001a54 <LocateMeter_Y>:
//							 |....y
//					-x.....0.....+x			// Meter Position.
//
//	Find the corresponding "Y" position to draw a radius or graphic symbol.
//------------------------------------------------------------------------------
{
    1a54:	cf 93       	push	r28
    1a56:	df 93       	push	r29
    1a58:	eb 01       	movw	r28, r22
	int16_t Yb;
	
	if(Xa >= 0)						// Q1,  positive slope, 0 -> 90 degrees.
    1a5a:	99 23       	and	r25, r25
    1a5c:	1c f0       	brlt	.+6      	; 0x1a64 <LocateMeter_Y+0x10>
	{
		Yb = Ypoint(Xa, Type);
    1a5e:	0e 94 bd 0c 	call	0x197a	; 0x197a <Ypoint>
    1a62:	0b c0       	rjmp	.+22     	; 0x1a7a <LocateMeter_Y+0x26>
		//		LCD_PutPixel( Xa +Xcenter, Ybottom-Yb, ORANGE);
	}
	
	else								// Q2, negative slope.
	{
		Yb = Ypoint(abs(Xa), Type);
    1a64:	9c 01       	movw	r18, r24
    1a66:	99 23       	and	r25, r25
    1a68:	24 f4       	brge	.+8      	; 0x1a72 <LocateMeter_Y+0x1e>
    1a6a:	22 27       	eor	r18, r18
    1a6c:	33 27       	eor	r19, r19
    1a6e:	28 1b       	sub	r18, r24
    1a70:	39 0b       	sbc	r19, r25
    1a72:	be 01       	movw	r22, r28
    1a74:	c9 01       	movw	r24, r18
    1a76:	0e 94 bd 0c 	call	0x197a	; 0x197a <Ypoint>
		//		LCD_PutPixel( Xa +Xcenter, Ybottom-Yb, GREEN);
	}
	return(Type->y -Yb);
    1a7a:	2a 81       	ldd	r18, Y+2	; 0x02
    1a7c:	3b 81       	ldd	r19, Y+3	; 0x03
}
    1a7e:	a9 01       	movw	r20, r18
    1a80:	48 1b       	sub	r20, r24
    1a82:	59 0b       	sbc	r21, r25
    1a84:	ca 01       	movw	r24, r20
    1a86:	df 91       	pop	r29
    1a88:	cf 91       	pop	r28
    1a8a:	08 95       	ret

00001a8c <LinearAnalogFace>:
void LinearAnalogFace(struct AnalogMeter *Type)
//-----------------------------------------------------------------------------
//	Draw the analog meter face with 11 linear tick marks (volts).  "pStrings[]"
//	points to an array of string pointers for values of each tick.
//-----------------------------------------------------------------------------
{
    1a8c:	2f 92       	push	r2
    1a8e:	3f 92       	push	r3
    1a90:	4f 92       	push	r4
    1a92:	5f 92       	push	r5
    1a94:	6f 92       	push	r6
    1a96:	7f 92       	push	r7
    1a98:	8f 92       	push	r8
    1a9a:	9f 92       	push	r9
    1a9c:	af 92       	push	r10
    1a9e:	bf 92       	push	r11
    1aa0:	cf 92       	push	r12
    1aa2:	df 92       	push	r13
    1aa4:	ef 92       	push	r14
    1aa6:	ff 92       	push	r15
    1aa8:	0f 93       	push	r16
    1aaa:	1f 93       	push	r17
    1aac:	cf 93       	push	r28
    1aae:	df 93       	push	r29
    1ab0:	00 d0       	rcall	.+0      	; 0x1ab2 <LinearAnalogFace+0x26>
    1ab2:	00 d0       	rcall	.+0      	; 0x1ab4 <LinearAnalogFace+0x28>
    1ab4:	cd b7       	in	r28, 0x3d	; 61
    1ab6:	de b7       	in	r29, 0x3e	; 62
    1ab8:	6c 01       	movw	r12, r24
	CharHeight = 10;								// Based on TB14
//	CharWidth = 12;
	CharWidth = 20;
	Voffset = 2;
	
	Pass = 0;
    1aba:	51 2c       	mov	r5, r1
	for(Tindex = 0; Tindex <= 100; Tindex += 10)
    1abc:	e1 2c       	mov	r14, r1
    1abe:	f1 2c       	mov	r15, r1
		Xpixel += Type->x;						// Horizontal Position Offset.
		if(!(Pass & 0x01))
		{
			// Open Special Window for meter face letters.
			//
			Window.x = (uint16_t)(Xpixel - (CharWidth/2));
    1ac0:	0f 2e       	mov	r0, r31
    1ac2:	fa ed       	ldi	r31, 0xDA	; 218
    1ac4:	af 2e       	mov	r10, r31
    1ac6:	f6 e2       	ldi	r31, 0x26	; 38
    1ac8:	bf 2e       	mov	r11, r31
    1aca:	f0 2d       	mov	r31, r0
			Window.w = (CharWidth);
    1acc:	0f 2e       	mov	r0, r31
    1ace:	f4 e1       	ldi	r31, 0x14	; 20
    1ad0:	6f 2e       	mov	r6, r31
    1ad2:	71 2c       	mov	r7, r1
    1ad4:	f0 2d       	mov	r31, r0
			Window.y = Ypixel -Voffset;
			Window.h = (CharHeight) -Voffset;
    1ad6:	68 94       	set
    1ad8:	22 24       	eor	r2, r2
    1ada:	23 f8       	bld	r2, 3
    1adc:	31 2c       	mov	r3, r1
			Window.b = SBORDER;
    1ade:	44 24       	eor	r4, r4
    1ae0:	43 94       	inc	r4
			LCD_ClearWindow(NOBORDER, STD);
//			sprintf(&NumStrg[0], "%d", Tindex/10);			// 0- 10V
//			sprintf(&NumStrg[0], "%d", Tindex/2);			// 0-50V
			sprintf(&NumStrg[0], "%d", Tindex/1);			// 0 -100v
    1ae2:	ce 01       	movw	r24, r28
    1ae4:	01 96       	adiw	r24, 0x01	; 1
    1ae6:	4c 01       	movw	r8, r24
	Voffset = 2;
	
	Pass = 0;
	for(Tindex = 0; Tindex <= 100; Tindex += 10)
	{
		Xpixel = LocateMeter_X(Tindex, Type);
    1ae8:	b6 01       	movw	r22, r12
    1aea:	8e 2d       	mov	r24, r14
    1aec:	0e 94 8a 0c 	call	0x1914	; 0x1914 <LocateMeter_X>
    1af0:	8c 01       	movw	r16, r24
		Ypixel = LocateMeter_Y(Xpixel, Type);		//	Returns with corrected Vert Offset.
    1af2:	b6 01       	movw	r22, r12
    1af4:	0e 94 2a 0d 	call	0x1a54	; 0x1a54 <LocateMeter_Y>
		
		Xpixel += Type->x;						// Horizontal Position Offset.
    1af8:	d6 01       	movw	r26, r12
    1afa:	ed 91       	ld	r30, X+
    1afc:	fc 91       	ld	r31, X
    1afe:	e0 0f       	add	r30, r16
    1b00:	f1 1f       	adc	r31, r17
		if(!(Pass & 0x01))
    1b02:	50 fc       	sbrc	r5, 0
    1b04:	2e c0       	rjmp	.+92     	; 0x1b62 <LinearAnalogFace+0xd6>
		{
			// Open Special Window for meter face letters.
			//
			Window.x = (uint16_t)(Xpixel - (CharWidth/2));
    1b06:	8f 01       	movw	r16, r30
    1b08:	0a 50       	subi	r16, 0x0A	; 10
    1b0a:	11 09       	sbc	r17, r1
    1b0c:	f5 01       	movw	r30, r10
    1b0e:	02 83       	std	Z+2, r16	; 0x02
    1b10:	13 83       	std	Z+3, r17	; 0x03
			Window.w = (CharWidth);
    1b12:	66 82       	std	Z+6, r6	; 0x06
    1b14:	77 82       	std	Z+7, r7	; 0x07
			Window.y = Ypixel -Voffset;
    1b16:	02 97       	sbiw	r24, 0x02	; 2
    1b18:	84 83       	std	Z+4, r24	; 0x04
    1b1a:	95 83       	std	Z+5, r25	; 0x05
			Window.h = (CharHeight) -Voffset;
    1b1c:	20 86       	std	Z+8, r2	; 0x08
    1b1e:	31 86       	std	Z+9, r3	; 0x09
			Window.b = SBORDER;
    1b20:	42 86       	std	Z+10, r4	; 0x0a
			LCD_ClearWindow(NOBORDER, STD);
    1b22:	60 e0       	ldi	r22, 0x00	; 0
    1b24:	70 e0       	ldi	r23, 0x00	; 0
    1b26:	80 e0       	ldi	r24, 0x00	; 0
    1b28:	90 e0       	ldi	r25, 0x00	; 0
    1b2a:	0e 94 91 15 	call	0x2b22	; 0x2b22 <LCD_ClearWindow>
//			sprintf(&NumStrg[0], "%d", Tindex/10);			// 0- 10V
//			sprintf(&NumStrg[0], "%d", Tindex/2);			// 0-50V
			sprintf(&NumStrg[0], "%d", Tindex/1);			// 0 -100v
    1b2e:	ff 92       	push	r15
    1b30:	ef 92       	push	r14
    1b32:	8e e4       	ldi	r24, 0x4E	; 78
    1b34:	90 e2       	ldi	r25, 0x20	; 32
    1b36:	9f 93       	push	r25
    1b38:	8f 93       	push	r24
    1b3a:	9f 92       	push	r9
    1b3c:	8f 92       	push	r8
    1b3e:	0e 94 60 43 	call	0x86c0	; 0x86c0 <sprintf>
			LCD_CtrStrg(NumStrg, FONTVWX5, C_MIDDLE, STD);
    1b42:	20 e0       	ldi	r18, 0x00	; 0
    1b44:	30 e0       	ldi	r19, 0x00	; 0
    1b46:	45 e0       	ldi	r20, 0x05	; 5
    1b48:	50 e0       	ldi	r21, 0x00	; 0
    1b4a:	65 e0       	ldi	r22, 0x05	; 5
    1b4c:	70 e0       	ldi	r23, 0x00	; 0
    1b4e:	c4 01       	movw	r24, r8
    1b50:	0e 94 de 19 	call	0x33bc	; 0x33bc <LCD_CtrStrg>
    1b54:	0f 90       	pop	r0
    1b56:	0f 90       	pop	r0
    1b58:	0f 90       	pop	r0
    1b5a:	0f 90       	pop	r0
    1b5c:	0f 90       	pop	r0
    1b5e:	0f 90       	pop	r0
    1b60:	0b c0       	rjmp	.+22     	; 0x1b78 <LinearAnalogFace+0xec>
		}
		else
		{
			LCD_DrawLine(Xpixel - (LineWidth/2), Ypixel, LineHeight, (LineWidth/2), STD);
    1b62:	00 e0       	ldi	r16, 0x00	; 0
    1b64:	10 e0       	ldi	r17, 0x00	; 0
    1b66:	21 e0       	ldi	r18, 0x01	; 1
    1b68:	30 e0       	ldi	r19, 0x00	; 0
    1b6a:	42 e0       	ldi	r20, 0x02	; 2
    1b6c:	50 e0       	ldi	r21, 0x00	; 0
    1b6e:	bc 01       	movw	r22, r24
    1b70:	cf 01       	movw	r24, r30
    1b72:	01 97       	sbiw	r24, 0x01	; 1
    1b74:	0e 94 88 1b 	call	0x3710	; 0x3710 <LCD_DrawLine>
		}
		Pass +=1;
    1b78:	53 94       	inc	r5
//	CharWidth = 12;
	CharWidth = 20;
	Voffset = 2;
	
	Pass = 0;
	for(Tindex = 0; Tindex <= 100; Tindex += 10)
    1b7a:	ba e0       	ldi	r27, 0x0A	; 10
    1b7c:	eb 0e       	add	r14, r27
    1b7e:	f1 1c       	adc	r15, r1
    1b80:	ee e6       	ldi	r30, 0x6E	; 110
    1b82:	ee 16       	cp	r14, r30
    1b84:	f1 04       	cpc	r15, r1
    1b86:	09 f0       	breq	.+2      	; 0x1b8a <LinearAnalogFace+0xfe>
    1b88:	af cf       	rjmp	.-162    	; 0x1ae8 <LinearAnalogFace+0x5c>
		{
			LCD_DrawLine(Xpixel - (LineWidth/2), Ypixel, LineHeight, (LineWidth/2), STD);
		}
		Pass +=1;
	}
}
    1b8a:	24 96       	adiw	r28, 0x04	; 4
    1b8c:	cd bf       	out	0x3d, r28	; 61
    1b8e:	de bf       	out	0x3e, r29	; 62
    1b90:	df 91       	pop	r29
    1b92:	cf 91       	pop	r28
    1b94:	1f 91       	pop	r17
    1b96:	0f 91       	pop	r16
    1b98:	ff 90       	pop	r15
    1b9a:	ef 90       	pop	r14
    1b9c:	df 90       	pop	r13
    1b9e:	cf 90       	pop	r12
    1ba0:	bf 90       	pop	r11
    1ba2:	af 90       	pop	r10
    1ba4:	9f 90       	pop	r9
    1ba6:	8f 90       	pop	r8
    1ba8:	7f 90       	pop	r7
    1baa:	6f 90       	pop	r6
    1bac:	5f 90       	pop	r5
    1bae:	4f 90       	pop	r4
    1bb0:	3f 90       	pop	r3
    1bb2:	2f 90       	pop	r2
    1bb4:	08 95       	ret

00001bb6 <AnalogNeedle>:
//
//	"Type" structure contains an "x" value for sin30 and sin45 in order to locate
//	a corresponding "Y" coordinate.
//
//------------------------------------------------------------------------------
{
    1bb6:	cf 92       	push	r12
    1bb8:	df 92       	push	r13
    1bba:	ff 92       	push	r15
    1bbc:	0f 93       	push	r16
    1bbe:	1f 93       	push	r17
    1bc0:	cf 93       	push	r28
    1bc2:	df 93       	push	r29
    1bc4:	f8 2e       	mov	r15, r24
    1bc6:	eb 01       	movw	r28, r22
	uint16_t xPixel, yPixel;
	
	LCD_OpenWindow(FULL_W, NOBORDER);
    1bc8:	00 e0       	ldi	r16, 0x00	; 0
    1bca:	20 e8       	ldi	r18, 0x80	; 128
    1bcc:	30 e0       	ldi	r19, 0x00	; 0
    1bce:	40 e4       	ldi	r20, 0x40	; 64
    1bd0:	50 e0       	ldi	r21, 0x00	; 0
    1bd2:	60 e0       	ldi	r22, 0x00	; 0
    1bd4:	70 e0       	ldi	r23, 0x00	; 0
    1bd6:	80 e0       	ldi	r24, 0x00	; 0
    1bd8:	90 e0       	ldi	r25, 0x00	; 0
    1bda:	0e 94 54 1d 	call	0x3aa8	; 0x3aa8 <LCD_OpenWindow>
	if((PreviousPercent != Percent) &&
    1bde:	80 91 eb 26 	lds	r24, 0x26EB	; 0x8026eb <PreviousPercent>
    1be2:	8f 15       	cp	r24, r15
    1be4:	69 f1       	breq	.+90     	; 0x1c40 <AnalogNeedle+0x8a>
	((PreviousPercent >=0) || (PreviousPercent <= 100)) )
	{
		xPixel = LocateMeter_X(PreviousPercent, Type);	// Locate linear "X".
    1be6:	be 01       	movw	r22, r28
    1be8:	0e 94 8a 0c 	call	0x1914	; 0x1914 <LocateMeter_X>
    1bec:	6c 01       	movw	r12, r24
		yPixel = LocateMeter_Y(xPixel, Type);			// With "X" now find "Y".
    1bee:	be 01       	movw	r22, r28
    1bf0:	0e 94 2a 0d 	call	0x1a54	; 0x1a54 <LocateMeter_Y>
//		LCD_DiagonalLine(xPixel+ Type->x, Type->x, yPixel, Type->y, SOLID);
		LCD_DiagonalLine(xPixel +Type->x, yPixel, Type->x, Type->y, NEEDLE_CLR);
    1bf4:	e8 81       	ld	r30, Y
    1bf6:	f9 81       	ldd	r31, Y+1	; 0x01
    1bf8:	2a 81       	ldd	r18, Y+2	; 0x02
    1bfa:	3b 81       	ldd	r19, Y+3	; 0x03
    1bfc:	01 e0       	ldi	r16, 0x01	; 1
    1bfe:	10 e0       	ldi	r17, 0x00	; 0
    1c00:	af 01       	movw	r20, r30
    1c02:	bc 01       	movw	r22, r24
    1c04:	c6 01       	movw	r24, r12
    1c06:	8e 0f       	add	r24, r30
    1c08:	9f 1f       	adc	r25, r31
    1c0a:	0e 94 bd 1e 	call	0x3d7a	; 0x3d7a <LCD_DiagonalLine>
	}
	if(PreviousPercent != Percent)
    1c0e:	80 91 eb 26 	lds	r24, 0x26EB	; 0x8026eb <PreviousPercent>
    1c12:	f8 16       	cp	r15, r24
    1c14:	a9 f0       	breq	.+42     	; 0x1c40 <AnalogNeedle+0x8a>
	// Using the same process, locate the X,Y for the new percentage.
	//
	{
		xPixel = LocateMeter_X(Percent, Type);		// Returns +/- "X" value.
    1c16:	be 01       	movw	r22, r28
    1c18:	8f 2d       	mov	r24, r15
    1c1a:	0e 94 8a 0c 	call	0x1914	; 0x1914 <LocateMeter_X>
    1c1e:	6c 01       	movw	r12, r24
		yPixel = LocateMeter_Y(xPixel, Type);
    1c20:	be 01       	movw	r22, r28
    1c22:	0e 94 2a 0d 	call	0x1a54	; 0x1a54 <LocateMeter_Y>
//		LCD_DiagonalLine(xPixel +Type->x, Type->x, yPixel, Type->y,	SOLID);
		LCD_DiagonalLine(xPixel +Type->x, yPixel, Type->x, Type->y, NEEDLE_FILL);
    1c26:	e8 81       	ld	r30, Y
    1c28:	f9 81       	ldd	r31, Y+1	; 0x01
    1c2a:	2a 81       	ldd	r18, Y+2	; 0x02
    1c2c:	3b 81       	ldd	r19, Y+3	; 0x03
    1c2e:	0e ef       	ldi	r16, 0xFE	; 254
    1c30:	10 e0       	ldi	r17, 0x00	; 0
    1c32:	af 01       	movw	r20, r30
    1c34:	bc 01       	movw	r22, r24
    1c36:	c6 01       	movw	r24, r12
    1c38:	8e 0f       	add	r24, r30
    1c3a:	9f 1f       	adc	r25, r31
    1c3c:	0e 94 bd 1e 	call	0x3d7a	; 0x3d7a <LCD_DiagonalLine>
	}
	PreviousPercent = Percent;
    1c40:	f0 92 eb 26 	sts	0x26EB, r15	; 0x8026eb <PreviousPercent>
}
    1c44:	df 91       	pop	r29
    1c46:	cf 91       	pop	r28
    1c48:	1f 91       	pop	r17
    1c4a:	0f 91       	pop	r16
    1c4c:	ff 90       	pop	r15
    1c4e:	df 90       	pop	r13
    1c50:	cf 90       	pop	r12
    1c52:	08 95       	ret

00001c54 <ccp_write_io>:

void ccp_write_io(void *Address, unsigned char value);

void ccp_write_io(void *Address, unsigned char value)
{
	asm("out	0x003b, r1");			// Reset bits 23:16 of Z
    1c54:	1b be       	out	0x3b, r1	; 59
	asm("movw    r30, r24");		// Address of value to change (ADDR).
    1c56:	fc 01       	movw	r30, r24
	asm("ldi     r18, 0xd8");		// Load magic CCP value
    1c58:	28 ed       	ldi	r18, 0xD8	; 216
	asm("out     0x0034, r18");	// Start CCP handshake
    1c5a:	24 bf       	out	0x34, r18	; 52
	asm("st      Z, r22");			// Write value to I/O register
    1c5c:	60 83       	st	Z, r22
    1c5e:	08 95       	ret

00001c60 <InitSysClk>:
void InitSysClk(void)
//-----------------------------------------------------------------------------
//	Initialize System Clocks.... 32MHZ, with ADIV == 4... 
//-----------------------------------------------------------------------------
{
	OSC.CTRL	|= OSC_RC32MEN_bm;						// Enable the 32MHz Osc.
    1c60:	e0 e5       	ldi	r30, 0x50	; 80
    1c62:	f0 e0       	ldi	r31, 0x00	; 0
    1c64:	80 81       	ld	r24, Z
    1c66:	82 60       	ori	r24, 0x02	; 2
    1c68:	80 83       	st	Z, r24
   while ((OSC.STATUS & OSC_RC32MRDY_bm)==0); 
    1c6a:	81 81       	ldd	r24, Z+1	; 0x01
    1c6c:	81 ff       	sbrs	r24, 1
    1c6e:	fd cf       	rjmp	.-6      	; 0x1c6a <InitSysClk+0xa>
	
	ccp_write_io((void *)&CLK.CTRL, CLK_SCLKSEL_RC32M_gc);
    1c70:	61 e0       	ldi	r22, 0x01	; 1
    1c72:	80 e4       	ldi	r24, 0x40	; 64
    1c74:	90 e0       	ldi	r25, 0x00	; 0
    1c76:	0e 94 2a 0e 	call	0x1c54	; 0x1c54 <ccp_write_io>
	
	ccp_write_io((void *)&CLK.PSCTRL, CLK_PSADIV_1_gc);
    1c7a:	60 e0       	ldi	r22, 0x00	; 0
    1c7c:	81 e4       	ldi	r24, 0x41	; 65
    1c7e:	90 e0       	ldi	r25, 0x00	; 0
    1c80:	0e 94 2a 0e 	call	0x1c54	; 0x1c54 <ccp_write_io>
	
	OSC.CTRL &= ~(OSC_RC2MEN_bm);					// Disable the 2MHz Osc.
    1c84:	e0 e5       	ldi	r30, 0x50	; 80
    1c86:	f0 e0       	ldi	r31, 0x00	; 0
    1c88:	80 81       	ld	r24, Z
    1c8a:	8e 7f       	andi	r24, 0xFE	; 254
    1c8c:	80 83       	st	Z, r24
    1c8e:	08 95       	ret

00001c90 <InitPorts>:
	// Init PortA.
	//
//	PORTA.DIR = (( 1 << SMPLX_bp) | (1 << SPKR_bp) | (1 << SINE_bp));
//	sSMPLX;
//	Debug only..!!
	PORTA.DIR = (( 1 << SMPLX_bp) | (1 << SINE_bp));
    1c90:	e0 e0       	ldi	r30, 0x00	; 0
    1c92:	f6 e0       	ldi	r31, 0x06	; 6
    1c94:	86 e0       	ldi	r24, 0x06	; 6
    1c96:	80 83       	st	Z, r24
	sSMPLX;
    1c98:	82 e0       	ldi	r24, 0x02	; 2
    1c9a:	85 83       	std	Z+5, r24	; 0x05

	// Init PortC.
	//
	PORTC.DIR = (( 1 << LCD_CS_bp) | (1 << LCD_RST_bp) | (1 << LCD_CMD_bp)
    1c9c:	e0 e4       	ldi	r30, 0x40	; 64
    1c9e:	f6 e0       	ldi	r31, 0x06	; 6
    1ca0:	9f eb       	ldi	r25, 0xBF	; 191
    1ca2:	90 83       	st	Z, r25
					| (1 << BAL_CS_bp) | (1 << SCLK_bp) 
					| (1 << LCD_BKLT_bp) | (1 << STXD_bp));
	rLCD_CS;
    1ca4:	91 e0       	ldi	r25, 0x01	; 1
    1ca6:	95 83       	std	Z+5, r25	; 0x05
	rBAL_CS;
    1ca8:	90 e1       	ldi	r25, 0x10	; 16
    1caa:	95 83       	std	Z+5, r25	; 0x05
	rLCD_RST;
    1cac:	85 83       	std	Z+5, r24	; 0x05
	//
	// Init PortD.
	//				
	PORTD.DIR = ((1 << COL3_bp) | (1 << COL2_bp)	| (1 << COL1_bp)
    1cae:	e0 e6       	ldi	r30, 0x60	; 96
    1cb0:	f6 e0       	ldi	r31, 0x06	; 6
    1cb2:	9e e1       	ldi	r25, 0x1E	; 30
    1cb4:	90 83       	st	Z, r25
					| (1 << SPKR_EN_bp));

	//
	//	Add Pull-ups on pushbutton rows.
	//
	PORTCFG.MPCMASK = ((1 << ROW3_bp) | (1 << ROW2_bp) | (1 << ROW1_bp));
    1cb6:	90 ee       	ldi	r25, 0xE0	; 224
    1cb8:	90 93 b0 00 	sts	0x00B0, r25	; 0x8000b0 <__TEXT_REGION_LENGTH__+0x7000b0>
	PORTD.PIN1CTRL	= PORT_OPC_PULLUP_gc;
    1cbc:	98 e1       	ldi	r25, 0x18	; 24
    1cbe:	91 8b       	std	Z+17, r25	; 0x11

	// Init PortR.
	//
	PORTR.DIR = ((1 << EN_G_bp) | (1 << PWR_EN_bp));
    1cc0:	e0 ee       	ldi	r30, 0xE0	; 224
    1cc2:	f7 e0       	ldi	r31, 0x07	; 7
    1cc4:	93 e0       	ldi	r25, 0x03	; 3
    1cc6:	90 83       	st	Z, r25
	sPWR_EN;
    1cc8:	85 83       	std	Z+5, r24	; 0x05
    1cca:	08 95       	ret

00001ccc <BackLightDutyCycle>:

void BackLightDutyCycle(uint8_t Percent)
//------------------------------------------------------------------------------
//	PWM duty cycle is based on the percent of maximum count.
//------------------------------------------------------------------------------
{
    1ccc:	cf 93       	push	r28
    1cce:	df 93       	push	r29
	long Count;
	
	cli();								// Disable System Interrupts for 16 bit update.
    1cd0:	f8 94       	cli
	Count = TCC4.PERBUF;
    1cd2:	c0 e0       	ldi	r28, 0x00	; 0
    1cd4:	d8 e0       	ldi	r29, 0x08	; 8
    1cd6:	2e a9       	ldd	r18, Y+54	; 0x36
    1cd8:	3f a9       	ldd	r19, Y+55	; 0x37
	
	Count *= Percent;
    1cda:	a8 2f       	mov	r26, r24
    1cdc:	b0 e0       	ldi	r27, 0x00	; 0
    1cde:	0e 94 3b 44 	call	0x8876	; 0x8876 <__umulhisi3>
	Count /= 100;
	TCC4.CCDBUF = (uint16_t)Count;
    1ce2:	24 e6       	ldi	r18, 0x64	; 100
    1ce4:	30 e0       	ldi	r19, 0x00	; 0
    1ce6:	40 e0       	ldi	r20, 0x00	; 0
    1ce8:	50 e0       	ldi	r21, 0x00	; 0
    1cea:	0e 94 16 44 	call	0x882c	; 0x882c <__divmodsi4>
    1cee:	2e af       	std	Y+62, r18	; 0x3e
    1cf0:	3f af       	std	Y+63, r19	; 0x3f
	sei();
    1cf2:	78 94       	sei
}
    1cf4:	df 91       	pop	r29
    1cf6:	cf 91       	pop	r28
    1cf8:	08 95       	ret

00001cfa <InitPWM_BackLight>:
//	Initialize TimerType4 on PortC as the 1000 HZ Timebase for LCD backlight PWM.
//-----------------------------------------------------------------------------
{
	// Set the port output for CH_D.
	//
	TCC4.CTRLE = TC45_CCDMODE_COMP_gc;			// Enable Output Compare bit CCD.
    1cfa:	e0 e0       	ldi	r30, 0x00	; 0
    1cfc:	f8 e0       	ldi	r31, 0x08	; 8
    1cfe:	80 e4       	ldi	r24, 0x40	; 64
    1d00:	84 83       	std	Z+4, r24	; 0x04
	
	//	Set the TimerCounter for Single Slope PWM operation. PERiod Buffer is the
	//	top or counter reset when counting UP.
	//
	TCC4.CTRLB = TC45_WGMODE_SINGLESLOPE_gc;	// Interrupt on PER Top.
    1d02:	83 e0       	ldi	r24, 0x03	; 3
    1d04:	81 83       	std	Z+1, r24	; 0x01
	
	// Setup coarse and fine divisor for counter.
	//
	TCC4.CTRLA = TC45_CLKSEL_DIV8_gc;			// 32MHz/8 = 4MHz
    1d06:	84 e0       	ldi	r24, 0x04	; 4
    1d08:	80 83       	st	Z, r24
	TCC4.PERBUF = 4000;								// 4MHz/4000 = 1000Hz (1mSec)
    1d0a:	80 ea       	ldi	r24, 0xA0	; 160
    1d0c:	9f e0       	ldi	r25, 0x0F	; 15
    1d0e:	86 ab       	std	Z+54, r24	; 0x36
    1d10:	97 ab       	std	Z+55, r25	; 0x37
	
	//	Set the duty cycle based on the initial default in SYSdata.
	//
	TCC4.CCD = 0;
    1d12:	16 a6       	std	Z+46, r1	; 0x2e
    1d14:	17 a6       	std	Z+47, r1	; 0x2f
	BackLightDutyCycle(SYSdata.BackLight);
    1d16:	80 91 85 26 	lds	r24, 0x2685	; 0x802685 <SYSdata+0x11>
    1d1a:	90 e0       	ldi	r25, 0x00	; 0
    1d1c:	0e 94 66 0e 	call	0x1ccc	; 0x1ccc <BackLightDutyCycle>
    1d20:	08 95       	ret

00001d22 <InitTCC4>:
// TCC4 is used to generate a 1mS interrupt for system timer using OVF IF.  
//	Compare register TCC4.CCD resets the output pin to control the duty cycle
//	of the LCD backlight drive.
//------------------------------------------------------------------------------
{
	InitPWM_BackLight();
    1d22:	0e 94 7d 0e 	call	0x1cfa	; 0x1cfa <InitPWM_BackLight>
	//
	//	Enable ISR for counter Overflow.
	//
	TCC4.INTCTRLA = TC45_OVFINTLVL_LO_gc;	// Low priority ISR on timer overflow.
    1d26:	81 e0       	ldi	r24, 0x01	; 1
    1d28:	80 93 06 08 	sts	0x0806, r24	; 0x800806 <__TEXT_REGION_LENGTH__+0x700806>
    1d2c:	08 95       	ret

00001d2e <InitTCC5>:
//------------------------------------------------------------------------------
// Initialize TimerType5 on PortC.  This timer is used to trigger ADC conversion
//	and is modified as needed at the end of each interval.
//------------------------------------------------------------------------------
{
	TCC5.CTRLA = TC45_CLKSEL_DIV1_gc;				// 16MHz.   ?????
    1d2e:	e0 e4       	ldi	r30, 0x40	; 64
    1d30:	f8 e0       	ldi	r31, 0x08	; 8
    1d32:	81 e0       	ldi	r24, 0x01	; 1
    1d34:	80 83       	st	Z, r24
	TCC5.CTRLB = TC45_WGMODE_NORMAL_gc;
    1d36:	11 82       	std	Z+1, r1	; 0x01
	TCC5.CNT = 0;
    1d38:	10 a2       	std	Z+32, r1	; 0x20
    1d3a:	11 a2       	std	Z+33, r1	; 0x21
	TCC5.PERBUF = 1333;								// adctimer_rate >> 16;
    1d3c:	25 e3       	ldi	r18, 0x35	; 53
    1d3e:	35 e0       	ldi	r19, 0x05	; 5
    1d40:	26 ab       	std	Z+54, r18	; 0x36
    1d42:	37 ab       	std	Z+55, r19	; 0x37
	TCC5.INTFLAGS = TC5_OVFIF_bm;
    1d44:	84 87       	std	Z+12, r24	; 0x0c
    1d46:	08 95       	ret

00001d48 <InitTCD5>:
//
//		Interrupt level for CCA/CCB will enable ISR service only during tone
//		transmission.
//------------------------------------------------------------------------------
{
	TCD5.CTRLA = TC45_CLKSEL_DIV4_gc;			// 32MHz/4 = 8MHz resolution, 125nS
    1d48:	e0 e4       	ldi	r30, 0x40	; 64
    1d4a:	f9 e0       	ldi	r31, 0x09	; 9
    1d4c:	83 e0       	ldi	r24, 0x03	; 3
    1d4e:	80 83       	st	Z, r24
	TCD5.CTRLB = TC45_WGMODE_SINGLESLOPE_gc;	//	When CNT == PER, ISR OVFL;
    1d50:	81 83       	std	Z+1, r24	; 0x01
	SetSineFreq(577);									// Updates PERBUF/PER
    1d52:	81 e4       	ldi	r24, 0x41	; 65
    1d54:	92 e0       	ldi	r25, 0x02	; 2
    1d56:	0e 94 ca 34 	call	0x6994	; 0x6994 <SetSineFreq>
    1d5a:	08 95       	ret

00001d5c <InitSPI_C>:
//	With PSADIV = 4, PSBCDIV = 1, CLKper == 8MHz.
//-----------------------------------------------------------------------------
{
	uint8_t Data;

	SPIC_CTRL = 0;
    1d5c:	e0 ee       	ldi	r30, 0xE0	; 224
    1d5e:	f8 e0       	ldi	r31, 0x08	; 8
    1d60:	10 82       	st	Z, r1
	Data = SPIC_STATUS;
    1d62:	80 91 e2 08 	lds	r24, 0x08E2	; 0x8008e2 <__TEXT_REGION_LENGTH__+0x7008e2>
	Data = SPIC_DATA;
    1d66:	80 91 e3 08 	lds	r24, 0x08E3	; 0x8008e3 <__TEXT_REGION_LENGTH__+0x7008e3>
	SPIC_CTRL |= (0x00 << SPI_PRESCALER_gp);	// CLKper/4.
    1d6a:	80 81       	ld	r24, Z
    1d6c:	80 83       	st	Z, r24
	SPIC_CTRL &= ~(1<< SPI_DORD_bp);				// MSB Bit transmitted first.
    1d6e:	80 81       	ld	r24, Z
    1d70:	8f 7d       	andi	r24, 0xDF	; 223
    1d72:	80 83       	st	Z, r24
	SPIC_CTRL |= (0x03 << SPI_MODE_gp);			// Mode 3, Rising Edge CLock
    1d74:	80 81       	ld	r24, Z
    1d76:	8c 60       	ori	r24, 0x0C	; 12
    1d78:	80 83       	st	Z, r24
	SPIC_CTRL |= (1 << SPI_MASTER_bp);			// Master Operation.
    1d7a:	80 81       	ld	r24, Z
    1d7c:	80 61       	ori	r24, 0x10	; 16
    1d7e:	80 83       	st	Z, r24
	SPIC_CTRL |= (1 << SPI_ENABLE_bp);			// Enable SPI "C".
    1d80:	80 81       	ld	r24, Z
    1d82:	80 64       	ori	r24, 0x40	; 64
    1d84:	80 83       	st	Z, r24
	SPIinfo.Status = COMPLETE;
    1d86:	10 92 89 2e 	sts	0x2E89, r1	; 0x802e89 <SPIinfo+0x2>
    1d8a:	08 95       	ret

00001d8c <InitDAC_A>:
//------------------------------------------------------------------------------
// Initialize DAC0 on PORTA for 12 bit Sine Generator.
//	Initialize DAC1 on PORTA for 12 bit Beeper operation.  (DAC_REFSEL_AREFA_gc)
//------------------------------------------------------------------------------
{
	DACA_CTRLA |= (1 << DAC_CH0EN_bp);			// Output Enable for CHannel 0.
    1d8c:	e0 e0       	ldi	r30, 0x00	; 0
    1d8e:	f3 e0       	ldi	r31, 0x03	; 3
    1d90:	80 81       	ld	r24, Z
    1d92:	84 60       	ori	r24, 0x04	; 4
    1d94:	80 83       	st	Z, r24
	DACA_CTRLA |= (1 << DAC_CH1EN_bp);			// Output Enable for CHannel 1.
    1d96:	80 81       	ld	r24, Z
    1d98:	88 60       	ori	r24, 0x08	; 8
    1d9a:	80 83       	st	Z, r24
	DACA_CTRLA |= (1 << DAC_ENABLE_bp);			// Enable DAC on Port "A"
    1d9c:	80 81       	ld	r24, Z
    1d9e:	81 60       	ori	r24, 0x01	; 1
    1da0:	80 83       	st	Z, r24

	DACA_CTRLB = DAC_CHSEL_DUAL_gc;				//	Activate both CH0 and CH1.
    1da2:	80 e4       	ldi	r24, 0x40	; 64
    1da4:	80 93 01 03 	sts	0x0301, r24	; 0x800301 <__TEXT_REGION_LENGTH__+0x700301>

	DACA_CTRLC &= ~(1 << DAC_LEFTADJ_bp);		// Make sure it's RIGHT Adjusted..
    1da8:	e2 e0       	ldi	r30, 0x02	; 2
    1daa:	f3 e0       	ldi	r31, 0x03	; 3
    1dac:	80 81       	ld	r24, Z
    1dae:	8e 7f       	andi	r24, 0xFE	; 254
    1db0:	80 83       	st	Z, r24
	DACA_CTRLC |= (0x01 << DAC_REFSEL_gp);		// AVCC reference
    1db2:	80 81       	ld	r24, Z
    1db4:	88 60       	ori	r24, 0x08	; 8
    1db6:	80 83       	st	Z, r24

	DACA_CH0DATA = 2048;								// SineWave Generator.
    1db8:	80 e0       	ldi	r24, 0x00	; 0
    1dba:	98 e0       	ldi	r25, 0x08	; 8
    1dbc:	80 93 18 03 	sts	0x0318, r24	; 0x800318 <__TEXT_REGION_LENGTH__+0x700318>
    1dc0:	90 93 19 03 	sts	0x0319, r25	; 0x800319 <__TEXT_REGION_LENGTH__+0x700319>
	DACA_CH1DATA = 2048;								// I_SRC ohmmeter.
    1dc4:	80 93 1a 03 	sts	0x031A, r24	; 0x80031a <__TEXT_REGION_LENGTH__+0x70031a>
    1dc8:	90 93 1b 03 	sts	0x031B, r25	; 0x80031b <__TEXT_REGION_LENGTH__+0x70031b>
    1dcc:	08 95       	ret

00001dce <InitADC_A>:
//------------------------------------------------------------------------------
//	Setup the A2D for operation.  The trigger source will be TCC5 on
//	it's overflow via event channel 0.
//
//------------------------------------------------------------------------------
{
    1dce:	cf 93       	push	r28
	uint8_t ADC_Channel, Gain;
	uint8_t POSmux, NEGmux;
	
	ADCA.PRESCALER &= ~ADC_PRESCALER_gm;
    1dd0:	e0 e0       	ldi	r30, 0x00	; 0
    1dd2:	f2 e0       	ldi	r31, 0x02	; 2
    1dd4:	84 81       	ldd	r24, Z+4	; 0x04
    1dd6:	88 7f       	andi	r24, 0xF8	; 248
    1dd8:	84 83       	std	Z+4, r24	; 0x04
	ADCA.PRESCALER |= ADC_PRESCALER_DIV32_gc;
    1dda:	84 81       	ldd	r24, Z+4	; 0x04
    1ddc:	83 60       	ori	r24, 0x03	; 3
    1dde:	84 83       	std	Z+4, r24	; 0x04
	
//	ADCA.REFCTRL &= ~ADC_REFSEL_gm;			// PortA0 Vref.
//	ADCA.REFCTRL |= ADC_REFSEL_AREFA_gc;
	
	ADCA.CTRLB &= ~ADC_CONMODE_bm;
    1de0:	81 81       	ldd	r24, Z+1	; 0x01
    1de2:	8f 7e       	andi	r24, 0xEF	; 239
    1de4:	81 83       	std	Z+1, r24	; 0x01
	ADCA.CTRLB |= (1 << ADC_CONMODE_bp);	// Differential Mode.
    1de6:	81 81       	ldd	r24, Z+1	; 0x01
    1de8:	80 61       	ori	r24, 0x10	; 16
    1dea:	81 83       	std	Z+1, r24	; 0x01
	ADCA.CTRLB &= ~ADC_RESOLUTION_gm;		// Resolution 12 Bit Right Justified.
    1dec:	81 81       	ldd	r24, Z+1	; 0x01
    1dee:	89 7f       	andi	r24, 0xF9	; 249
    1df0:	81 83       	std	Z+1, r24	; 0x01

	//	Event Channel 1, Event Action Trigger ADC CH0.
	//
	ADCA.EVCTRL = (ADC_EVSEL_1_gc | ADC_EVACT_CH0_gc);
    1df2:	c9 e0       	ldi	r28, 0x09	; 9
    1df4:	c3 83       	std	Z+3, r28	; 0x03
	ADCA.CTRLA = ADC_ENABLE_bm;
    1df6:	81 e0       	ldi	r24, 0x01	; 1
    1df8:	80 83       	st	Z, r24
	ADCA.CH0.INTCTRL = ADC_CH_INTLVL_MED_gc;		// 0x02, Interrupt level 2.
    1dfa:	82 e0       	ldi	r24, 0x02	; 2
    1dfc:	82 a3       	std	Z+34, r24	; 0x22
	
	InitTCC5();									// TCC5 Overflow initiates conversion.
    1dfe:	0e 94 97 0e 	call	0x1d2e	; 0x1d2e <InitTCC5>
	//---------------------------------------------------------------------------
	//	Begin Sampling process.  Each sample is trigger by TCC1 CCA.
	//
	EVSYS.CH1MUX = EVSYS_CHMUX_TCC5_OVF_gc;	// Puts TCC5 OVF Flag on EVent CH 1
    1e02:	88 ec       	ldi	r24, 0xC8	; 200
    1e04:	80 93 81 01 	sts	0x0181, r24	; 0x800181 <__TEXT_REGION_LENGTH__+0x700181>
	TCC5.CTRLD	= TC45_EVSEL_CH1_gc;				// Overflow will be event 1.
    1e08:	c0 93 43 08 	sts	0x0843, r28	; 0x800843 <__TEXT_REGION_LENGTH__+0x700843>
}
    1e0c:	cf 91       	pop	r28
    1e0e:	08 95       	ret

00001e10 <InitComb>:
// Initialize the Comb Filter for operation.
//------------------------------------------------------------------------------
{
	uint16_t Index;
	
	InitADC_A();
    1e10:	0e 94 e7 0e 	call	0x1dce	; 0x1dce <InitADC_A>
    1e14:	e1 e0       	ldi	r30, 0x01	; 1
    1e16:	f3 e2       	ldi	r31, 0x23	; 35
    1e18:	21 e2       	ldi	r18, 0x21	; 33
    1e1a:	36 e2       	ldi	r19, 0x26	; 38
//	CalData.adctimer_rate = INITIAL_ADCTIMER_RATE;
//	CalData.adctimer_carry = 0;

	for(Index=0; Index < SAMPLES_PER_CYCLE; Index++)
	{
		waveform[Index] = 0x8000;
    1e1c:	80 e0       	ldi	r24, 0x00	; 0
    1e1e:	90 e8       	ldi	r25, 0x80	; 128
    1e20:	81 93       	st	Z+, r24
    1e22:	91 93       	st	Z+, r25
	
	InitADC_A();
//	CalData.adctimer_rate = INITIAL_ADCTIMER_RATE;
//	CalData.adctimer_carry = 0;

	for(Index=0; Index < SAMPLES_PER_CYCLE; Index++)
    1e24:	e2 17       	cp	r30, r18
    1e26:	f3 07       	cpc	r31, r19
    1e28:	d9 f7       	brne	.-10     	; 0x1e20 <InitComb+0x10>
	{
		waveform[Index] = 0x8000;
	}
	wave_idx = 0;							// Global index into Comb Buffer "waveform".
    1e2a:	10 92 d8 26 	sts	0x26D8, r1	; 0x8026d8 <wave_idx>
    1e2e:	10 92 d9 26 	sts	0x26D9, r1	; 0x8026d9 <wave_idx+0x1>
    1e32:	08 95       	ret

00001e34 <InitA2D>:
//					ADC2				// Xmit Voltage
//					ADC1				// Amplifier Current
//					ADC0				// VBAT
//------------------------------------------------------------------------------
{
	ADCA.PRESCALER &= ~ADC_PRESCALER_gm;
    1e34:	e0 e0       	ldi	r30, 0x00	; 0
    1e36:	f2 e0       	ldi	r31, 0x02	; 2
    1e38:	84 81       	ldd	r24, Z+4	; 0x04
    1e3a:	88 7f       	andi	r24, 0xF8	; 248
    1e3c:	84 83       	std	Z+4, r24	; 0x04
	ADCA.PRESCALER |= ADC_PRESCALER_DIV32_gc;
    1e3e:	84 81       	ldd	r24, Z+4	; 0x04
    1e40:	83 60       	ori	r24, 0x03	; 3
    1e42:	84 83       	std	Z+4, r24	; 0x04
	
	ADCA.REFCTRL &= ~ADC_REFSEL_gm;			// PortA0 Vref.
    1e44:	82 81       	ldd	r24, Z+2	; 0x02
    1e46:	8f 78       	andi	r24, 0x8F	; 143
    1e48:	82 83       	std	Z+2, r24	; 0x02
	ADCA.REFCTRL |= ADC_REFSEL_AREFD_gc;
    1e4a:	82 81       	ldd	r24, Z+2	; 0x02
    1e4c:	80 63       	ori	r24, 0x30	; 48
    1e4e:	82 83       	std	Z+2, r24	; 0x02
	
	ADCA.CTRLB &= ~ADC_CONMODE_bm;
    1e50:	81 81       	ldd	r24, Z+1	; 0x01
    1e52:	8f 7e       	andi	r24, 0xEF	; 239
    1e54:	81 83       	std	Z+1, r24	; 0x01
	ADCA.CTRLB |= (1 << ADC_CONMODE_bp);	// Differential Mode.
    1e56:	81 81       	ldd	r24, Z+1	; 0x01
    1e58:	80 61       	ori	r24, 0x10	; 16
    1e5a:	81 83       	std	Z+1, r24	; 0x01
	ADCA.CTRLB &= ~ADC_RESOLUTION_gm;		// Resolution 12 Bit Right Justified.
    1e5c:	81 81       	ldd	r24, Z+1	; 0x01
    1e5e:	89 7f       	andi	r24, 0xF9	; 249
    1e60:	81 83       	std	Z+1, r24	; 0x01
	
	//	Event Channel 0, Event Action Trigger ADC CH0.
	//
	ADCA.EVCTRL = (ADC_EVSEL_1_gc | ADC_EVACT_CH0_gc);
    1e62:	89 e0       	ldi	r24, 0x09	; 9
    1e64:	83 83       	std	Z+3, r24	; 0x03
	EVSYS.CH1MUX = EVSYS_CHMUX_TCC5_CCA_gc;
    1e66:	8c ec       	ldi	r24, 0xCC	; 204
    1e68:	80 93 81 01 	sts	0x0181, r24	; 0x800181 <__TEXT_REGION_LENGTH__+0x700181>
    1e6c:	08 95       	ret

00001e6e <LCD_init>:
//				0b1010 0011			//
//
//				0b1110 0000			// Sets Column Read/Write Modify Start address.
//				0b1110 1110			// Last Column in Read/Write scheme
//------------------------------------------------------------------------------
{
    1e6e:	0f 93       	push	r16
    1e70:	1f 93       	push	r17
    1e72:	cf 93       	push	r28
    1e74:	df 93       	push	r29
 * \note this funtions should not be confused with the \ref LCD_soft_reset()
 * function, this command will control the RST pin.
 */
static inline void LCD_hard_reset(void)
{
	sLCD_RST;
    1e76:	c0 e4       	ldi	r28, 0x40	; 64
    1e78:	d6 e0       	ldi	r29, 0x06	; 6
    1e7a:	12 e0       	ldi	r17, 0x02	; 2
    1e7c:	1e 83       	std	Y+6, r17	; 0x06
	DelayMS(2);
    1e7e:	82 e0       	ldi	r24, 0x02	; 2
    1e80:	90 e0       	ldi	r25, 0x00	; 0
    1e82:	0e 94 8a 35 	call	0x6b14	; 0x6b14 <DelayMS>
	rLCD_RST;
    1e86:	1d 83       	std	Y+5, r17	; 0x05
	DelayMS(2);
    1e88:	82 e0       	ldi	r24, 0x02	; 2
    1e8a:	90 e0       	ldi	r25, 0x00	; 0
    1e8c:	0e 94 8a 35 	call	0x6b14	; 0x6b14 <DelayMS>
	//
	LCD_hard_reset();

	// Initialize SPI port.
	//
	InitSPI_C();
    1e90:	0e 94 ae 0e 	call	0x1d5c	; 0x1d5c <InitSPI_C>
//	before returning to the calling program.
//-----------------------------------------------------------------------------
{
	int delay;

	SetSPI_Mode3();
    1e94:	0e 94 b6 39 	call	0x736c	; 0x736c <SetSPI_Mode3>
	SPIC_STATUS |= SPI_IF_bm;	
    1e98:	e2 ee       	ldi	r30, 0xE2	; 226
    1e9a:	f8 e0       	ldi	r31, 0x08	; 8
    1e9c:	80 81       	ld	r24, Z
    1e9e:	80 68       	ori	r24, 0x80	; 128
    1ea0:	80 83       	st	Z, r24
	sLCD_CMD;
    1ea2:	84 e0       	ldi	r24, 0x04	; 4
    1ea4:	8e 83       	std	Y+6, r24	; 0x06
	sLCD_CS;
    1ea6:	81 e0       	ldi	r24, 0x01	; 1
    1ea8:	8e 83       	std	Y+6, r24	; 0x06
	SPIC_DATA = command;
    1eaa:	82 ea       	ldi	r24, 0xA2	; 162
    1eac:	80 93 e3 08 	sts	0x08E3, r24	; 0x8008e3 <__TEXT_REGION_LENGTH__+0x7008e3>
	for(delay = 2; delay; delay--);
	while((SPIC_STATUS & SPI_IF_bm) == 0);
    1eb0:	80 81       	ld	r24, Z
    1eb2:	88 23       	and	r24, r24
    1eb4:	ec f7       	brge	.-6      	; 0x1eb0 <LCD_init+0x42>
	rLCD_CS;
    1eb6:	c0 e4       	ldi	r28, 0x40	; 64
    1eb8:	d6 e0       	ldi	r29, 0x06	; 6
    1eba:	11 e0       	ldi	r17, 0x01	; 1
    1ebc:	1d 83       	std	Y+5, r17	; 0x05
//	before returning to the calling program.
//-----------------------------------------------------------------------------
{
	int delay;

	SetSPI_Mode3();
    1ebe:	0e 94 b6 39 	call	0x736c	; 0x736c <SetSPI_Mode3>
	SPIC_STATUS |= SPI_IF_bm;	
    1ec2:	e2 ee       	ldi	r30, 0xE2	; 226
    1ec4:	f8 e0       	ldi	r31, 0x08	; 8
    1ec6:	80 81       	ld	r24, Z
    1ec8:	80 68       	ori	r24, 0x80	; 128
    1eca:	80 83       	st	Z, r24
	sLCD_CMD;
    1ecc:	84 e0       	ldi	r24, 0x04	; 4
    1ece:	8e 83       	std	Y+6, r24	; 0x06
	sLCD_CS;
    1ed0:	1e 83       	std	Y+6, r17	; 0x06
	SPIC_DATA = command;
    1ed2:	81 ea       	ldi	r24, 0xA1	; 161
    1ed4:	80 93 e3 08 	sts	0x08E3, r24	; 0x8008e3 <__TEXT_REGION_LENGTH__+0x7008e3>
	for(delay = 2; delay; delay--);
	while((SPIC_STATUS & SPI_IF_bm) == 0);
    1ed8:	80 81       	ld	r24, Z
    1eda:	88 23       	and	r24, r24
    1edc:	ec f7       	brge	.-6      	; 0x1ed8 <LCD_init+0x6a>
	rLCD_CS;
    1ede:	c0 e4       	ldi	r28, 0x40	; 64
    1ee0:	d6 e0       	ldi	r29, 0x06	; 6
    1ee2:	11 e0       	ldi	r17, 0x01	; 1
    1ee4:	1d 83       	std	Y+5, r17	; 0x05
//	before returning to the calling program.
//-----------------------------------------------------------------------------
{
	int delay;

	SetSPI_Mode3();
    1ee6:	0e 94 b6 39 	call	0x736c	; 0x736c <SetSPI_Mode3>
	SPIC_STATUS |= SPI_IF_bm;	
    1eea:	e2 ee       	ldi	r30, 0xE2	; 226
    1eec:	f8 e0       	ldi	r31, 0x08	; 8
    1eee:	80 81       	ld	r24, Z
    1ef0:	80 68       	ori	r24, 0x80	; 128
    1ef2:	80 83       	st	Z, r24
	sLCD_CMD;
    1ef4:	84 e0       	ldi	r24, 0x04	; 4
    1ef6:	8e 83       	std	Y+6, r24	; 0x06
	sLCD_CS;
    1ef8:	1e 83       	std	Y+6, r17	; 0x06
	SPIC_DATA = command;
    1efa:	80 ec       	ldi	r24, 0xC0	; 192
    1efc:	80 93 e3 08 	sts	0x08E3, r24	; 0x8008e3 <__TEXT_REGION_LENGTH__+0x7008e3>
	for(delay = 2; delay; delay--);
	while((SPIC_STATUS & SPI_IF_bm) == 0);
    1f00:	80 81       	ld	r24, Z
    1f02:	88 23       	and	r24, r24
    1f04:	ec f7       	brge	.-6      	; 0x1f00 <LCD_init+0x92>
	rLCD_CS;
    1f06:	c0 e4       	ldi	r28, 0x40	; 64
    1f08:	d6 e0       	ldi	r29, 0x06	; 6
    1f0a:	11 e0       	ldi	r17, 0x01	; 1
    1f0c:	1d 83       	std	Y+5, r17	; 0x05
//	before returning to the calling program.
//-----------------------------------------------------------------------------
{
	int delay;

	SetSPI_Mode3();
    1f0e:	0e 94 b6 39 	call	0x736c	; 0x736c <SetSPI_Mode3>
	SPIC_STATUS |= SPI_IF_bm;	
    1f12:	e2 ee       	ldi	r30, 0xE2	; 226
    1f14:	f8 e0       	ldi	r31, 0x08	; 8
    1f16:	80 81       	ld	r24, Z
    1f18:	80 68       	ori	r24, 0x80	; 128
    1f1a:	80 83       	st	Z, r24
	sLCD_CMD;
    1f1c:	84 e0       	ldi	r24, 0x04	; 4
    1f1e:	8e 83       	std	Y+6, r24	; 0x06
	sLCD_CS;
    1f20:	1e 83       	std	Y+6, r17	; 0x06
	SPIC_DATA = command;
    1f22:	80 e4       	ldi	r24, 0x40	; 64
    1f24:	80 93 e3 08 	sts	0x08E3, r24	; 0x8008e3 <__TEXT_REGION_LENGTH__+0x7008e3>
	for(delay = 2; delay; delay--);
	while((SPIC_STATUS & SPI_IF_bm) == 0);
    1f28:	80 81       	ld	r24, Z
    1f2a:	88 23       	and	r24, r24
    1f2c:	ec f7       	brge	.-6      	; 0x1f28 <LCD_init+0xba>
	rLCD_CS;
    1f2e:	c0 e4       	ldi	r28, 0x40	; 64
    1f30:	d6 e0       	ldi	r29, 0x06	; 6
    1f32:	11 e0       	ldi	r17, 0x01	; 1
    1f34:	1d 83       	std	Y+5, r17	; 0x05
//	before returning to the calling program.
//-----------------------------------------------------------------------------
{
	int delay;

	SetSPI_Mode3();
    1f36:	0e 94 b6 39 	call	0x736c	; 0x736c <SetSPI_Mode3>
	SPIC_STATUS |= SPI_IF_bm;	
    1f3a:	e2 ee       	ldi	r30, 0xE2	; 226
    1f3c:	f8 e0       	ldi	r31, 0x08	; 8
    1f3e:	80 81       	ld	r24, Z
    1f40:	80 68       	ori	r24, 0x80	; 128
    1f42:	80 83       	st	Z, r24
	sLCD_CMD;
    1f44:	84 e0       	ldi	r24, 0x04	; 4
    1f46:	8e 83       	std	Y+6, r24	; 0x06
	sLCD_CS;
    1f48:	1e 83       	std	Y+6, r17	; 0x06
	SPIC_DATA = command;
    1f4a:	85 e2       	ldi	r24, 0x25	; 37
    1f4c:	80 93 e3 08 	sts	0x08E3, r24	; 0x8008e3 <__TEXT_REGION_LENGTH__+0x7008e3>
	for(delay = 2; delay; delay--);
	while((SPIC_STATUS & SPI_IF_bm) == 0);
    1f50:	80 81       	ld	r24, Z
    1f52:	88 23       	and	r24, r24
    1f54:	ec f7       	brge	.-6      	; 0x1f50 <LCD_init+0xe2>
	rLCD_CS;
    1f56:	c0 e4       	ldi	r28, 0x40	; 64
    1f58:	d6 e0       	ldi	r29, 0x06	; 6
    1f5a:	11 e0       	ldi	r17, 0x01	; 1
    1f5c:	1d 83       	std	Y+5, r17	; 0x05
//	before returning to the calling program.
//-----------------------------------------------------------------------------
{
	int delay;

	SetSPI_Mode3();
    1f5e:	0e 94 b6 39 	call	0x736c	; 0x736c <SetSPI_Mode3>
	SPIC_STATUS |= SPI_IF_bm;	
    1f62:	e2 ee       	ldi	r30, 0xE2	; 226
    1f64:	f8 e0       	ldi	r31, 0x08	; 8
    1f66:	80 81       	ld	r24, Z
    1f68:	80 68       	ori	r24, 0x80	; 128
    1f6a:	80 83       	st	Z, r24
	sLCD_CMD;
    1f6c:	84 e0       	ldi	r24, 0x04	; 4
    1f6e:	8e 83       	std	Y+6, r24	; 0x06
	sLCD_CS;
    1f70:	1e 83       	std	Y+6, r17	; 0x06
	SPIC_DATA = command;
    1f72:	81 e8       	ldi	r24, 0x81	; 129
    1f74:	80 93 e3 08 	sts	0x08E3, r24	; 0x8008e3 <__TEXT_REGION_LENGTH__+0x7008e3>
	for(delay = 2; delay; delay--);
	while((SPIC_STATUS & SPI_IF_bm) == 0);
    1f78:	80 81       	ld	r24, Z
    1f7a:	88 23       	and	r24, r24
    1f7c:	ec f7       	brge	.-6      	; 0x1f78 <LCD_init+0x10a>
	rLCD_CS;
    1f7e:	c0 e4       	ldi	r28, 0x40	; 64
    1f80:	d6 e0       	ldi	r29, 0x06	; 6
    1f82:	11 e0       	ldi	r17, 0x01	; 1
    1f84:	1d 83       	std	Y+5, r17	; 0x05
	
	LCD_CmdWrite(LCD_CMD_START_LINE_SET(0));				// Line Start = 0.
	LCD_CmdWrite(LCD_CMD_VOLTAGE_RESISTOR_RATIO_5);		// Voltage Regulator Setting.

	LCD_CmdWrite(LCD_CMD_ELECTRONIC_VOLUME_MODE_SET);	//	Contrast MODE Set
	LCD_CmdWrite(SYSdata.Contrast);							// Contrast Setting
    1f86:	00 91 86 26 	lds	r16, 0x2686	; 0x802686 <SYSdata+0x12>
//	before returning to the calling program.
//-----------------------------------------------------------------------------
{
	int delay;

	SetSPI_Mode3();
    1f8a:	0e 94 b6 39 	call	0x736c	; 0x736c <SetSPI_Mode3>
	SPIC_STATUS |= SPI_IF_bm;	
    1f8e:	e2 ee       	ldi	r30, 0xE2	; 226
    1f90:	f8 e0       	ldi	r31, 0x08	; 8
    1f92:	80 81       	ld	r24, Z
    1f94:	80 68       	ori	r24, 0x80	; 128
    1f96:	80 83       	st	Z, r24
	sLCD_CMD;
    1f98:	84 e0       	ldi	r24, 0x04	; 4
    1f9a:	8e 83       	std	Y+6, r24	; 0x06
	sLCD_CS;
    1f9c:	1e 83       	std	Y+6, r17	; 0x06
	SPIC_DATA = command;
    1f9e:	00 93 e3 08 	sts	0x08E3, r16	; 0x8008e3 <__TEXT_REGION_LENGTH__+0x7008e3>
	for(delay = 2; delay; delay--);
	while((SPIC_STATUS & SPI_IF_bm) == 0);
    1fa2:	80 81       	ld	r24, Z
    1fa4:	88 23       	and	r24, r24
    1fa6:	ec f7       	brge	.-6      	; 0x1fa2 <LCD_init+0x134>
	rLCD_CS;
    1fa8:	c0 e4       	ldi	r28, 0x40	; 64
    1faa:	d6 e0       	ldi	r29, 0x06	; 6
    1fac:	11 e0       	ldi	r17, 0x01	; 1
    1fae:	1d 83       	std	Y+5, r17	; 0x05
//	before returning to the calling program.
//-----------------------------------------------------------------------------
{
	int delay;

	SetSPI_Mode3();
    1fb0:	0e 94 b6 39 	call	0x736c	; 0x736c <SetSPI_Mode3>
	SPIC_STATUS |= SPI_IF_bm;	
    1fb4:	e2 ee       	ldi	r30, 0xE2	; 226
    1fb6:	f8 e0       	ldi	r31, 0x08	; 8
    1fb8:	80 81       	ld	r24, Z
    1fba:	80 68       	ori	r24, 0x80	; 128
    1fbc:	80 83       	st	Z, r24
	sLCD_CMD;
    1fbe:	84 e0       	ldi	r24, 0x04	; 4
    1fc0:	8e 83       	std	Y+6, r24	; 0x06
	sLCD_CS;
    1fc2:	1e 83       	std	Y+6, r17	; 0x06
	SPIC_DATA = command;
    1fc4:	8f e2       	ldi	r24, 0x2F	; 47
    1fc6:	80 93 e3 08 	sts	0x08E3, r24	; 0x8008e3 <__TEXT_REGION_LENGTH__+0x7008e3>
	for(delay = 2; delay; delay--);
	while((SPIC_STATUS & SPI_IF_bm) == 0);
    1fca:	80 81       	ld	r24, Z
    1fcc:	88 23       	and	r24, r24
    1fce:	ec f7       	brge	.-6      	; 0x1fca <LCD_init+0x15c>
	rLCD_CS;
    1fd0:	c0 e4       	ldi	r28, 0x40	; 64
    1fd2:	d6 e0       	ldi	r29, 0x06	; 6
    1fd4:	11 e0       	ldi	r17, 0x01	; 1
    1fd6:	1d 83       	std	Y+5, r17	; 0x05
//	before returning to the calling program.
//-----------------------------------------------------------------------------
{
	int delay;

	SetSPI_Mode3();
    1fd8:	0e 94 b6 39 	call	0x736c	; 0x736c <SetSPI_Mode3>
	SPIC_STATUS |= SPI_IF_bm;	
    1fdc:	e2 ee       	ldi	r30, 0xE2	; 226
    1fde:	f8 e0       	ldi	r31, 0x08	; 8
    1fe0:	80 81       	ld	r24, Z
    1fe2:	80 68       	ori	r24, 0x80	; 128
    1fe4:	80 83       	st	Z, r24
	sLCD_CMD;
    1fe6:	84 e0       	ldi	r24, 0x04	; 4
    1fe8:	8e 83       	std	Y+6, r24	; 0x06
	sLCD_CS;
    1fea:	1e 83       	std	Y+6, r17	; 0x06
	SPIC_DATA = command;
    1fec:	8f ea       	ldi	r24, 0xAF	; 175
    1fee:	80 93 e3 08 	sts	0x08E3, r24	; 0x8008e3 <__TEXT_REGION_LENGTH__+0x7008e3>
	for(delay = 2; delay; delay--);
	while((SPIC_STATUS & SPI_IF_bm) == 0);
    1ff2:	80 81       	ld	r24, Z
    1ff4:	88 23       	and	r24, r24
    1ff6:	ec f7       	brge	.-6      	; 0x1ff2 <LCD_init+0x184>
	rLCD_CS;
    1ff8:	81 e0       	ldi	r24, 0x01	; 1
    1ffa:	80 93 45 06 	sts	0x0645, r24	; 0x800645 <__TEXT_REGION_LENGTH__+0x700645>
	
	LCD_CmdWrite(LCD_CMD_POWER_CTRL_ALL_ON);				// Power Control Settings.
	LCD_CmdWrite(LCD_CMD_DISPLAY_ON);						// Display ON....0xae = OFF

	LCD_ClearDspl();
    1ffe:	0e 94 0c 15 	call	0x2a18	; 0x2a18 <LCD_ClearDspl>
}
    2002:	df 91       	pop	r29
    2004:	cf 91       	pop	r28
    2006:	1f 91       	pop	r17
    2008:	0f 91       	pop	r16
    200a:	08 95       	ret

0000200c <PowerDown>:
void PowerDown(void)
//------------------------------------------------------------------------------
//	The system is ON and the user wants to turn it off.  Setup the Wake-Up
//	register before snoozing.
//------------------------------------------------------------------------------
{
    200c:	2f 92       	push	r2
    200e:	3f 92       	push	r3
    2010:	4f 92       	push	r4
    2012:	5f 92       	push	r5
    2014:	6f 92       	push	r6
    2016:	7f 92       	push	r7
    2018:	8f 92       	push	r8
    201a:	9f 92       	push	r9
    201c:	af 92       	push	r10
    201e:	bf 92       	push	r11
    2020:	cf 92       	push	r12
    2022:	df 92       	push	r13
    2024:	ef 92       	push	r14
    2026:	ff 92       	push	r15
    2028:	0f 93       	push	r16
    202a:	1f 93       	push	r17
    202c:	cf 93       	push	r28
    202e:	df 93       	push	r29
    2030:	1f 92       	push	r1
    2032:	cd b7       	in	r28, 0x3d	; 61
    2034:	de b7       	in	r29, 0x3e	; 62
	unsigned char Wait, PreviousBatteryState, Percent;

	PreviousBatteryState = Bstat;						// State of Battery at PowerDown.
    2036:	80 91 ba 26 	lds	r24, 0x26BA	; 0x8026ba <Bstat>
    203a:	89 83       	std	Y+1, r24	; 0x01
	SpkrAlert(PwrDwnSound);
    203c:	81 ed       	ldi	r24, 0xD1	; 209
    203e:	90 e2       	ldi	r25, 0x20	; 32
    2040:	0e 94 a3 35 	call	0x6b46	; 0x6b46 <SpkrAlert>
 * \note this funtions should not be confused with the \ref LCD_soft_reset()
 * function, this command will control the RST pin.
 */
static inline void LCD_hard_reset(void)
{
	sLCD_RST;
    2044:	12 e0       	ldi	r17, 0x02	; 2
    2046:	10 93 46 06 	sts	0x0646, r17	; 0x800646 <__TEXT_REGION_LENGTH__+0x700646>
	DelayMS(2);
    204a:	82 e0       	ldi	r24, 0x02	; 2
    204c:	90 e0       	ldi	r25, 0x00	; 0
    204e:	0e 94 8a 35 	call	0x6b14	; 0x6b14 <DelayMS>
	rLCD_RST;
    2052:	10 93 45 06 	sts	0x0645, r17	; 0x800645 <__TEXT_REGION_LENGTH__+0x700645>
	DelayMS(2);
    2056:	82 e0       	ldi	r24, 0x02	; 2
    2058:	90 e0       	ldi	r25, 0x00	; 0
    205a:	0e 94 8a 35 	call	0x6b14	; 0x6b14 <DelayMS>

	// Turn off the LCD BackLight, then wait for the Keypress to
	//	be released.
	//
	LCD_hard_reset();
	rLCD_BKLT;
    205e:	88 e0       	ldi	r24, 0x08	; 8
    2060:	80 93 46 06 	sts	0x0646, r24	; 0x800646 <__TEXT_REGION_LENGTH__+0x700646>
	Percent = 1;
	BackLightDutyCycle(Percent);
    2064:	81 e0       	ldi	r24, 0x01	; 1
    2066:	0e 94 66 0e 	call	0x1ccc	; 0x1ccc <BackLightDutyCycle>

	Wait = ON;
    206a:	55 24       	eor	r5, r5
    206c:	53 94       	inc	r5
		{
			cli();								// Disable System Interrupts.
			
			// Disable PWR to Peripherals.
			//
			rPWR_EN;
    206e:	00 ee       	ldi	r16, 0xE0	; 224
    2070:	17 e0       	ldi	r17, 0x07	; 7
    2072:	68 94       	set
    2074:	44 24       	eor	r4, r4
    2076:	41 f8       	bld	r4, 1
			rSPKR_EN;
    2078:	0f 2e       	mov	r0, r31
    207a:	f3 e7       	ldi	r31, 0x73	; 115
    207c:	ef 2e       	mov	r14, r31
    207e:	f6 e2       	ldi	r31, 0x26	; 38
    2080:	ff 2e       	mov	r15, r31
    2082:	f0 2d       	mov	r31, r0
			//	Force INPUT (float) on all drive ports.
			//
			PORTA.DIR		= 0b00000000;	
    2084:	0f 2e       	mov	r0, r31
    2086:	a1 2c       	mov	r10, r1
    2088:	f6 e0       	ldi	r31, 0x06	; 6
    208a:	bf 2e       	mov	r11, r31
    208c:	f0 2d       	mov	r31, r0
			PORTC.DIR		= 0b00000000;
    208e:	0f 2e       	mov	r0, r31
    2090:	f0 e4       	ldi	r31, 0x40	; 64
    2092:	cf 2e       	mov	r12, r31
    2094:	f6 e0       	ldi	r31, 0x06	; 6
    2096:	df 2e       	mov	r13, r31
    2098:	f0 2d       	mov	r31, r0
			PORTD.DIR		= 0b00010000;		// Power button drive must remain Low.
    209a:	68 94       	set
    209c:	33 24       	eor	r3, r3
    209e:	34 f8       	bld	r3, 4
			PORTR.DIR		= 0b00000010;		// Power Enable must be keep Low.
			
			// Setup Wake Interrupt.
			//
			PORTCFG.MPCMASK = ((1 << ROW2_bp) | (1 << ROW3_bp));
    20a0:	0f 2e       	mov	r0, r31
    20a2:	f0 eb       	ldi	r31, 0xB0	; 176
    20a4:	8f 2e       	mov	r8, r31
    20a6:	91 2c       	mov	r9, r1
    20a8:	f0 2d       	mov	r31, r0
			//
			PORTD.DIR		= (1 << COL1_bp);		//	On/Off Column Key LOW.
			PORTD.OUTCLR	= (1 << COL1_bp);
			
			PORTD.PIN7CTRL = PORT_ISC_BOTHEDGES_gc;
			PORTD.INTMASK = PORT_INT7IF_bm;
    20aa:	68 94       	set
    20ac:	22 24       	eor	r2, r2
    20ae:	27 f8       	bld	r2, 7

			// In the PWR_DOWN mode all peripheral clocks are stopped.
			//
			wdt_disable();					// Kill the Dog.

			set_sleep_mode(SLEEP_MODE_PWR_SAVE);
    20b0:	0f 2e       	mov	r0, r31
    20b2:	f8 e4       	ldi	r31, 0x48	; 72
    20b4:	6f 2e       	mov	r6, r31
    20b6:	71 2c       	mov	r7, r1
    20b8:	f0 2d       	mov	r31, r0
    20ba:	01 c0       	rjmp	.+2      	; 0x20be <PowerDown+0xb2>
	rLCD_BKLT;
	Percent = 1;
	BackLightDutyCycle(Percent);

	Wait = ON;
	while(Wait)
    20bc:	58 2e       	mov	r5, r24
	{
		
		while(PWRKEY);							// Wait for KeyPush Release.
    20be:	80 91 68 06 	lds	r24, 0x0668	; 0x800668 <__TEXT_REGION_LENGTH__+0x700668>
    20c2:	88 23       	and	r24, r24
    20c4:	e4 f7       	brge	.-8      	; 0x20be <PowerDown+0xb2>
		DelayMS(1000);
    20c6:	88 ee       	ldi	r24, 0xE8	; 232
    20c8:	93 e0       	ldi	r25, 0x03	; 3
    20ca:	0e 94 8a 35 	call	0x6b14	; 0x6b14 <DelayMS>

		if(!PWRKEY)								// If Power Keypush has been released.
    20ce:	80 91 68 06 	lds	r24, 0x0668	; 0x800668 <__TEXT_REGION_LENGTH__+0x700668>
    20d2:	88 23       	and	r24, r24
    20d4:	0c f0       	brlt	.+2      	; 0x20d8 <PowerDown+0xcc>
    20d6:	85 c0       	rjmp	.+266    	; 0x21e2 <PowerDown+0x1d6>
		{
			cli();								// Disable System Interrupts.
    20d8:	f8 94       	cli
			
			// Disable PWR to Peripherals.
			//
			rPWR_EN;
    20da:	f8 01       	movw	r30, r16
    20dc:	46 82       	std	Z+6, r4	; 0x06
			rSPKR_EN;
    20de:	40 92 66 06 	sts	0x0666, r4	; 0x800666 <__TEXT_REGION_LENGTH__+0x700666>
    20e2:	f7 01       	movw	r30, r14
    20e4:	80 81       	ld	r24, Z
    20e6:	8d 7f       	andi	r24, 0xFD	; 253
    20e8:	80 83       	st	Z, r24
			//	Force INPUT (float) on all drive ports.
			//
			PORTA.DIR		= 0b00000000;	
    20ea:	f5 01       	movw	r30, r10
    20ec:	10 82       	st	Z, r1
			PORTC.DIR		= 0b00000000;
    20ee:	f6 01       	movw	r30, r12
    20f0:	10 82       	st	Z, r1
			PORTD.DIR		= 0b00010000;		// Power button drive must remain Low.
    20f2:	e0 e6       	ldi	r30, 0x60	; 96
    20f4:	f6 e0       	ldi	r31, 0x06	; 6
    20f6:	30 82       	st	Z, r3
			PORTR.DIR		= 0b00000010;		// Power Enable must be keep Low.
    20f8:	f8 01       	movw	r30, r16
    20fa:	40 82       	st	Z, r4
			
			// Setup Wake Interrupt.
			//
			PORTCFG.MPCMASK = ((1 << ROW2_bp) | (1 << ROW3_bp));
    20fc:	80 e6       	ldi	r24, 0x60	; 96
    20fe:	f4 01       	movw	r30, r8
    2100:	80 83       	st	Z, r24
			PORTD.PIN1CTRL	= PORT_OPC_TOTEM_gc;		// Remove Pull-ups on Two Rows.
    2102:	10 92 71 06 	sts	0x0671, r1	; 0x800671 <__TEXT_REGION_LENGTH__+0x700671>

			// Keep Pull-up for On/Off Key and enable ISR on desired edge. MPCMASK
			// determines actual pin.
			//
			PORTD.DIR		= (1 << COL1_bp);		//	On/Off Column Key LOW.
    2106:	e0 e6       	ldi	r30, 0x60	; 96
    2108:	f6 e0       	ldi	r31, 0x06	; 6
    210a:	30 82       	st	Z, r3
			PORTD.OUTCLR	= (1 << COL1_bp);
    210c:	30 92 66 06 	sts	0x0666, r3	; 0x800666 <__TEXT_REGION_LENGTH__+0x700666>
			
			PORTD.PIN7CTRL = PORT_ISC_BOTHEDGES_gc;
    2110:	10 92 77 06 	sts	0x0677, r1	; 0x800677 <__TEXT_REGION_LENGTH__+0x700677>
			PORTD.INTMASK = PORT_INT7IF_bm;
    2114:	20 92 6a 06 	sts	0x066A, r2	; 0x80066a <__TEXT_REGION_LENGTH__+0x70066a>
			PORTD.INTCTRL	= PORT_INTLVL_LO_gc;
    2118:	81 e0       	ldi	r24, 0x01	; 1
    211a:	80 93 69 06 	sts	0x0669, r24	; 0x800669 <__TEXT_REGION_LENGTH__+0x700669>
			PORTD.INTFLAGS = (1 << PORT_INT7IF_bp);
    211e:	20 92 6c 06 	sts	0x066C, r2	; 0x80066c <__TEXT_REGION_LENGTH__+0x70066c>

			// In the PWR_DOWN mode all peripheral clocks are stopped.
			//
			wdt_disable();					// Kill the Dog.
    2122:	9d ef       	ldi	r25, 0xFD	; 253
    2124:	88 ed       	ldi	r24, 0xD8	; 216
    2126:	08 b6       	in	r0, 0x38	; 56
    2128:	18 be       	out	0x38, r1	; 56
    212a:	84 bf       	out	0x34, r24	; 52
    212c:	90 93 80 00 	sts	0x0080, r25	; 0x800080 <__TEXT_REGION_LENGTH__+0x700080>
    2130:	08 be       	out	0x38, r0	; 56

			set_sleep_mode(SLEEP_MODE_PWR_SAVE);
    2132:	f3 01       	movw	r30, r6
    2134:	80 81       	ld	r24, Z
    2136:	81 7f       	andi	r24, 0xF1	; 241
    2138:	86 60       	ori	r24, 0x06	; 6
    213a:	80 83       	st	Z, r24
			sleep_enable();
    213c:	80 81       	ld	r24, Z
    213e:	81 60       	ori	r24, 0x01	; 1
    2140:	80 83       	st	Z, r24
			sei();							// Global Interrupts ON.
    2142:	78 94       	sei
			sleep_cpu();
    2144:	88 95       	sleep
			sleep_disable();
    2146:	80 81       	ld	r24, Z
    2148:	8e 7f       	andi	r24, 0xFE	; 254
    214a:	80 83       	st	Z, r24
			
			InitPorts();
    214c:	0e 94 48 0e 	call	0x1c90	; 0x1c90 <InitPorts>
			InitSPI_C();
    2150:	0e 94 ae 0e 	call	0x1d5c	; 0x1d5c <InitSPI_C>
			
			//	PushButton Should remain ON for "ONWAITTM".  If released
			//	prior, continue to sleep.
			//
			DelayMS(ONWAITTM);
    2154:	88 ee       	ldi	r24, 0xE8	; 232
    2156:	93 e0       	ldi	r25, 0x03	; 3
    2158:	0e 94 8a 35 	call	0x6b14	; 0x6b14 <DelayMS>
			if(PWRKEY)
    215c:	80 91 68 06 	lds	r24, 0x0668	; 0x800668 <__TEXT_REGION_LENGTH__+0x700668>
    2160:	88 23       	and	r24, r24
    2162:	0c f4       	brge	.+2      	; 0x2166 <PowerDown+0x15a>
    2164:	3a c0       	rjmp	.+116    	; 0x21da <PowerDown+0x1ce>
			{
				sPWR_EN;
    2166:	f8 01       	movw	r30, r16
    2168:	45 82       	std	Z+5, r4	; 0x05
				BackLightDutyCycle(SYSdata.BackLight);
    216a:	80 91 85 26 	lds	r24, 0x2685	; 0x802685 <SYSdata+0x11>
    216e:	0e 94 66 0e 	call	0x1ccc	; 0x1ccc <BackLightDutyCycle>
				DelayMS(100);
    2172:	84 e6       	ldi	r24, 0x64	; 100
    2174:	90 e0       	ldi	r25, 0x00	; 0
    2176:	0e 94 8a 35 	call	0x6b14	; 0x6b14 <DelayMS>
				GetBatteryVoltage();			// Update current Battery Status.
    217a:	0e 94 ea 25 	call	0x4bd4	; 0x4bd4 <GetBatteryVoltage>
				//
				//	If the current status isn't healthy, just keep the system off.
				// 
				if((Bstat == BSHUTDOWN) || (Bstat == BCRITICAL))
    217e:	80 91 ba 26 	lds	r24, 0x26BA	; 0x8026ba <Bstat>
    2182:	9c ef       	ldi	r25, 0xFC	; 252
    2184:	98 0f       	add	r25, r24
    2186:	92 30       	cpi	r25, 0x02	; 2
    2188:	20 f4       	brcc	.+8      	; 0x2192 <PowerDown+0x186>
				{
					rPWR_EN;
    218a:	f8 01       	movw	r30, r16
    218c:	46 82       	std	Z+6, r4	; 0x06
    218e:	85 2d       	mov	r24, r5
    2190:	25 c0       	rjmp	.+74     	; 0x21dc <PowerDown+0x1d0>
				}
				//
				//	IF previous Bstat forced shutdown, and battery is now in better
				//	state, restart system at Main.
				//
				else if((Bstat != BSHUTDOWN) && (Bstat != BCRITICAL) &&
    2192:	99 81       	ldd	r25, Y+1	; 0x01
    2194:	94 50       	subi	r25, 0x04	; 4
    2196:	92 30       	cpi	r25, 0x02	; 2
    2198:	68 f4       	brcc	.+26     	; 0x21b4 <PowerDown+0x1a8>
				((PreviousBatteryState == BSHUTDOWN) || (PreviousBatteryState ==BCRITICAL)))
				{
					wdt_enable(WDT_PER_1KCLK_gc);		// Reset on calls to GetKP.
    219a:	9f e1       	ldi	r25, 0x1F	; 31
    219c:	88 ed       	ldi	r24, 0xD8	; 216
    219e:	08 b6       	in	r0, 0x38	; 56
    21a0:	18 be       	out	0x38, r1	; 56
    21a2:	84 bf       	out	0x34, r24	; 52
    21a4:	90 93 80 00 	sts	0x0080, r25	; 0x800080 <__TEXT_REGION_LENGTH__+0x700080>
    21a8:	80 91 82 00 	lds	r24, 0x0082	; 0x800082 <__TEXT_REGION_LENGTH__+0x700082>
    21ac:	81 fd       	sbrc	r24, 1
    21ae:	fc cf       	rjmp	.-8      	; 0x21a8 <PowerDown+0x19c>
    21b0:	08 be       	out	0x38, r0	; 56
    21b2:	ff cf       	rjmp	.-2      	; 0x21b2 <PowerDown+0x1a6>
				//	If last power down wasn't forced, and all is OK now, do a normal
				//	startup.
				//
				else if((Bstat != BSHUTDOWN) && (Bstat != BCRITICAL)) 
				{
					PreviousBstat = ~Bstat;	// Force update for battery status indicator. 
    21b4:	80 95       	com	r24
    21b6:	80 93 66 26 	sts	0x2666, r24	; 0x802666 <PreviousBstat>
					while(PWRKEY);							// Wait for KeyPush Release.
    21ba:	e0 e6       	ldi	r30, 0x60	; 96
    21bc:	f6 e0       	ldi	r31, 0x06	; 6
    21be:	80 85       	ldd	r24, Z+8	; 0x08
    21c0:	88 23       	and	r24, r24
    21c2:	ec f7       	brge	.-6      	; 0x21be <PowerDown+0x1b2>
					Wait = OFF;
					KyReg = 0;
    21c4:	10 92 d4 26 	sts	0x26D4, r1	; 0x8026d4 <KyReg>
    21c8:	10 92 d5 26 	sts	0x26D5, r1	; 0x8026d5 <KyReg+0x1>
					FKey = 0;				// Clear all KeyPresses.
    21cc:	10 92 bb 26 	sts	0x26BB, r1	; 0x8026bb <FKey>
    21d0:	10 92 bc 26 	sts	0x26BC, r1	; 0x8026bc <FKey+0x1>
					WarmStart();
    21d4:	0e 94 70 39 	call	0x72e0	; 0x72e0 <WarmStart>
    21d8:	06 c0       	rjmp	.+12     	; 0x21e6 <PowerDown+0x1da>
    21da:	85 2d       	mov	r24, r5
	rLCD_BKLT;
	Percent = 1;
	BackLightDutyCycle(Percent);

	Wait = ON;
	while(Wait)
    21dc:	51 10       	cpse	r5, r1
    21de:	6e cf       	rjmp	.-292    	; 0x20bc <PowerDown+0xb0>
    21e0:	02 c0       	rjmp	.+4      	; 0x21e6 <PowerDown+0x1da>
    21e2:	51 10       	cpse	r5, r1
    21e4:	6c cf       	rjmp	.-296    	; 0x20be <PowerDown+0xb2>
					WarmStart();
				}
			}
		}
	}
}
    21e6:	0f 90       	pop	r0
    21e8:	df 91       	pop	r29
    21ea:	cf 91       	pop	r28
    21ec:	1f 91       	pop	r17
    21ee:	0f 91       	pop	r16
    21f0:	ff 90       	pop	r15
    21f2:	ef 90       	pop	r14
    21f4:	df 90       	pop	r13
    21f6:	cf 90       	pop	r12
    21f8:	bf 90       	pop	r11
    21fa:	af 90       	pop	r10
    21fc:	9f 90       	pop	r9
    21fe:	8f 90       	pop	r8
    2200:	7f 90       	pop	r7
    2202:	6f 90       	pop	r6
    2204:	5f 90       	pop	r5
    2206:	4f 90       	pop	r4
    2208:	3f 90       	pop	r3
    220a:	2f 90       	pop	r2
    220c:	08 95       	ret

0000220e <__vector_12>:
//			- Sync Beeper Enable, and Duration update
//
//	NOTE: Priority of this interrupt is set LOW to allow the 16x ISR to interrupt
//			when updating the SineWave generator.
//-----------------------------------------------------------------------------
{
    220e:	1f 92       	push	r1
    2210:	0f 92       	push	r0
    2212:	0f b6       	in	r0, 0x3f	; 63
    2214:	0f 92       	push	r0
    2216:	11 24       	eor	r1, r1
    2218:	2f 93       	push	r18
    221a:	3f 93       	push	r19
    221c:	4f 93       	push	r20
    221e:	5f 93       	push	r21
    2220:	6f 93       	push	r22
    2222:	7f 93       	push	r23
    2224:	8f 93       	push	r24
    2226:	9f 93       	push	r25
    2228:	af 93       	push	r26
    222a:	bf 93       	push	r27
    222c:	ef 93       	push	r30
    222e:	ff 93       	push	r31
	uint8_t DelayLoop;
	
	TCC4.INTFLAGS = TC4_OVFIF_bm;
    2230:	81 e0       	ldi	r24, 0x01	; 1
    2232:	80 93 0c 08 	sts	0x080C, r24	; 0x80080c <__TEXT_REGION_LENGTH__+0x70080c>
	//--------------------------------------------------------------------------
	//	Service the interval ISRentry counters.  Status flags are used rather than
	//	register values in the event an ISR occurs during the fetch/test of the
	//	counter registers.
	//
	if(ISRcount1)
    2236:	80 91 7e 2a 	lds	r24, 0x2A7E	; 0x802a7e <ISRcount1>
    223a:	90 91 7f 2a 	lds	r25, 0x2A7F	; 0x802a7f <ISRcount1+0x1>
    223e:	89 2b       	or	r24, r25
    2240:	51 f0       	breq	.+20     	; 0x2256 <__vector_12+0x48>
	{
		ISRcount1--;
    2242:	80 91 7e 2a 	lds	r24, 0x2A7E	; 0x802a7e <ISRcount1>
    2246:	90 91 7f 2a 	lds	r25, 0x2A7F	; 0x802a7f <ISRcount1+0x1>
    224a:	01 97       	sbiw	r24, 0x01	; 1
    224c:	80 93 7e 2a 	sts	0x2A7E, r24	; 0x802a7e <ISRcount1>
    2250:	90 93 7f 2a 	sts	0x2A7F, r25	; 0x802a7f <ISRcount1+0x1>
    2254:	06 c0       	rjmp	.+12     	; 0x2262 <__vector_12+0x54>
	}
	else if(ISRcountStatus1 == ACTIVE)
    2256:	80 91 23 26 	lds	r24, 0x2623	; 0x802623 <ISRcountStatus1>
    225a:	81 30       	cpi	r24, 0x01	; 1
    225c:	11 f4       	brne	.+4      	; 0x2262 <__vector_12+0x54>
	{
		ISRcountStatus1 = COMPLETE;
    225e:	10 92 23 26 	sts	0x2623, r1	; 0x802623 <ISRcountStatus1>
	}

	if(ISRcount2)
    2262:	80 91 77 2a 	lds	r24, 0x2A77	; 0x802a77 <ISRcount2>
    2266:	90 91 78 2a 	lds	r25, 0x2A78	; 0x802a78 <ISRcount2+0x1>
    226a:	89 2b       	or	r24, r25
    226c:	51 f0       	breq	.+20     	; 0x2282 <__vector_12+0x74>
	{
		ISRcount2--;
    226e:	80 91 77 2a 	lds	r24, 0x2A77	; 0x802a77 <ISRcount2>
    2272:	90 91 78 2a 	lds	r25, 0x2A78	; 0x802a78 <ISRcount2+0x1>
    2276:	01 97       	sbiw	r24, 0x01	; 1
    2278:	80 93 77 2a 	sts	0x2A77, r24	; 0x802a77 <ISRcount2>
    227c:	90 93 78 2a 	sts	0x2A78, r25	; 0x802a78 <ISRcount2+0x1>
    2280:	06 c0       	rjmp	.+12     	; 0x228e <__vector_12+0x80>
	}
	else if(ISRcountStatus2 == ACTIVE)
    2282:	80 91 d3 26 	lds	r24, 0x26D3	; 0x8026d3 <ISRcountStatus2>
    2286:	81 30       	cpi	r24, 0x01	; 1
    2288:	11 f4       	brne	.+4      	; 0x228e <__vector_12+0x80>
	{
		ISRcountStatus2 = COMPLETE;
    228a:	10 92 d3 26 	sts	0x26D3, r1	; 0x8026d3 <ISRcountStatus2>
	// each column is taken high until the Row input goes back high.
	//
	// Consecutive passes equal to KEYDEBOUNCE with the same value results in
	// a key closure.
	//
	KyRow = (~PORTD.IN & ROW_MASK_gm) >> ROW_MASK_bp;		// 3 LSBits..
    228e:	80 91 68 06 	lds	r24, 0x0668	; 0x800668 <__TEXT_REGION_LENGTH__+0x700668>
    2292:	90 e0       	ldi	r25, 0x00	; 0
    2294:	80 95       	com	r24
    2296:	90 95       	com	r25
    2298:	80 7e       	andi	r24, 0xE0	; 224
    229a:	99 27       	eor	r25, r25
    229c:	95 95       	asr	r25
    229e:	87 95       	ror	r24
    22a0:	95 95       	asr	r25
    22a2:	87 95       	ror	r24
    22a4:	95 95       	asr	r25
    22a6:	87 95       	ror	r24
    22a8:	95 95       	asr	r25
    22aa:	87 95       	ror	r24
    22ac:	95 95       	asr	r25
    22ae:	87 95       	ror	r24
    22b0:	38 2f       	mov	r19, r24
    22b2:	80 93 82 2a 	sts	0x2A82, r24	; 0x802a82 <KyRow>
	if(KyRow)
    22b6:	88 23       	and	r24, r24
    22b8:	09 f4       	brne	.+2      	; 0x22bc <__vector_12+0xae>
    22ba:	9f c0       	rjmp	.+318    	; 0x23fa <__vector_12+0x1ec>
	//---------------------------------------------------------------------------
	//	Rotate through all columns until KyRow goes back high.
	{
		ToneInfo.SpkrEnable = 0;
    22bc:	10 92 a0 26 	sts	0x26A0, r1	; 0x8026a0 <ToneInfo+0x4>
		if(SpkrTone.Flag.Bit.Enabled)
    22c0:	80 91 73 26 	lds	r24, 0x2673	; 0x802673 <SpkrTone+0xb>
    22c4:	81 ff       	sbrs	r24, 1
    22c6:	03 c0       	rjmp	.+6      	; 0x22ce <__vector_12+0xc0>
		{
			ToneInfo.SpkrEnable = (1 << SPKR_EN_bp);
    22c8:	82 e0       	ldi	r24, 0x02	; 2
    22ca:	80 93 a0 26 	sts	0x26A0, r24	; 0x8026a0 <ToneInfo+0x4>
		}
		KyColumn = (1 << COLUMN_MASK_bp);		//	Start with first bit position.
    22ce:	84 e0       	ldi	r24, 0x04	; 4
    22d0:	80 93 79 2a 	sts	0x2A79, r24	; 0x802a79 <KyColumn>
		ColumnShift = RowShift = 0;
    22d4:	10 92 71 2a 	sts	0x2A71, r1	; 0x802a71 <RowShift>
    22d8:	10 92 81 2a 	sts	0x2A81, r1	; 0x802a81 <ColumnShift>
    22dc:	40 e0       	ldi	r20, 0x00	; 0
    22de:	24 e0       	ldi	r18, 0x04	; 4
		do
		{
			PORTD.OUT = KyColumn | ToneInfo.SpkrEnable;
    22e0:	ac e9       	ldi	r26, 0x9C	; 156
    22e2:	b6 e2       	ldi	r27, 0x26	; 38
    22e4:	e0 e6       	ldi	r30, 0x60	; 96
    22e6:	f6 e0       	ldi	r31, 0x06	; 6
    22e8:	01 c0       	rjmp	.+2      	; 0x22ec <__vector_12+0xde>
			ColumnShift++;
    22ea:	45 2f       	mov	r20, r21
		}
		KyColumn = (1 << COLUMN_MASK_bp);		//	Start with first bit position.
		ColumnShift = RowShift = 0;
		do
		{
			PORTD.OUT = KyColumn | ToneInfo.SpkrEnable;
    22ec:	14 96       	adiw	r26, 0x04	; 4
    22ee:	8c 91       	ld	r24, X
    22f0:	14 97       	sbiw	r26, 0x04	; 4
    22f2:	82 2b       	or	r24, r18
    22f4:	84 83       	std	Z+4, r24	; 0x04
			ColumnShift++;
    22f6:	51 e0       	ldi	r21, 0x01	; 1
    22f8:	54 0f       	add	r21, r20
			KyColumn <<= 1;
    22fa:	22 0f       	add	r18, r18
    22fc:	84 e1       	ldi	r24, 0x14	; 20
    22fe:	81 50       	subi	r24, 0x01	; 1
			for(DelayLoop = 0; DelayLoop < 20; DelayLoop++);
    2300:	f1 f7       	brne	.-4      	; 0x22fe <__vector_12+0xf0>
		}
		while(((~PORTD.IN & ROW_MASK_gm) >> ROW_MASK_bp) && (KyColumn & COLUMN_MASK_gm));
    2302:	80 85       	ldd	r24, Z+8	; 0x08
    2304:	90 e0       	ldi	r25, 0x00	; 0
    2306:	80 95       	com	r24
    2308:	90 95       	com	r25
    230a:	80 7e       	andi	r24, 0xE0	; 224
    230c:	99 27       	eor	r25, r25
    230e:	89 2b       	or	r24, r25
    2310:	09 f4       	brne	.+2      	; 0x2314 <__vector_12+0x106>
    2312:	f3 c0       	rjmp	.+486    	; 0x24fa <__vector_12+0x2ec>
    2314:	82 2f       	mov	r24, r18
    2316:	8c 71       	andi	r24, 0x1C	; 28
    2318:	41 f7       	brne	.-48     	; 0x22ea <__vector_12+0xdc>
    231a:	20 93 79 2a 	sts	0x2A79, r18	; 0x802a79 <KyColumn>
    231e:	ef c0       	rjmp	.+478    	; 0x24fe <__vector_12+0x2f0>
		PORTD.OUT = ToneInfo.SpkrEnable;				// For Next ISR.

		while(KyRow)
		{
			RowShift++;
    2320:	e8 2f       	mov	r30, r24
    2322:	81 e0       	ldi	r24, 0x01	; 1
    2324:	8e 0f       	add	r24, r30
			KyRow >>= 1;
    2326:	36 95       	lsr	r19
			for(DelayLoop = 0; DelayLoop < 20; DelayLoop++);
		}
		while(((~PORTD.IN & ROW_MASK_gm) >> ROW_MASK_bp) && (KyColumn & COLUMN_MASK_gm));
		PORTD.OUT = ToneInfo.SpkrEnable;				// For Next ISR.

		while(KyRow)
    2328:	d9 f7       	brne	.-10     	; 0x2320 <__vector_12+0x112>
    232a:	10 92 82 2a 	sts	0x2A82, r1	; 0x802a82 <KyRow>
		{
			RowShift++;
			KyRow >>= 1;
		}

		RowShift -= 1;							// xxxx RRRCCC
    232e:	e0 93 71 2a 	sts	0x2A71, r30	; 0x802a71 <RowShift>
		ColumnShift -=1;
		ColumnShift |= (RowShift << 2);
    2332:	ee 0f       	add	r30, r30
    2334:	ee 0f       	add	r30, r30
    2336:	4e 2b       	or	r20, r30
    2338:	40 93 81 2a 	sts	0x2A81, r20	; 0x802a81 <ColumnShift>
		Keys = KeyXlate[ColumnShift];
    233c:	e4 2f       	mov	r30, r20
    233e:	f0 e0       	ldi	r31, 0x00	; 0
    2340:	ee 0f       	add	r30, r30
    2342:	ff 1f       	adc	r31, r31
    2344:	e8 5c       	subi	r30, 0xC8	; 200
    2346:	ff 4d       	sbci	r31, 0xDF	; 223
    2348:	80 81       	ld	r24, Z
    234a:	91 81       	ldd	r25, Z+1	; 0x01
    234c:	80 93 7d 2a 	sts	0x2A7D, r24	; 0x802a7d <Keys>
		if(Keys == PreviousKeys)
    2350:	20 91 76 2a 	lds	r18, 0x2A76	; 0x802a76 <PreviousKeys>
    2354:	28 13       	cpse	r18, r24
    2356:	46 c0       	rjmp	.+140    	; 0x23e4 <__vector_12+0x1d6>
		{
			DebounceQty++;
    2358:	20 91 72 2a 	lds	r18, 0x2A72	; 0x802a72 <DebounceQty>
    235c:	2f 5f       	subi	r18, 0xFF	; 255
    235e:	20 93 72 2a 	sts	0x2A72, r18	; 0x802a72 <DebounceQty>
			if(DebounceQty > DEBI)
    2362:	2d 33       	cpi	r18, 0x3D	; 61
    2364:	08 f4       	brcc	.+2      	; 0x2368 <__vector_12+0x15a>
    2366:	53 c0       	rjmp	.+166    	; 0x240e <__vector_12+0x200>
			{
				if(Repeat == OFF)
    2368:	20 91 6f 2a 	lds	r18, 0x2A6F	; 0x802a6f <Repeat>
    236c:	30 91 70 2a 	lds	r19, 0x2A70	; 0x802a70 <Repeat+0x1>
    2370:	21 15       	cp	r18, r1
    2372:	31 05       	cpc	r19, r1
    2374:	91 f4       	brne	.+36     	; 0x239a <__vector_12+0x18c>
				{
					KyReg = Keys;				// Pass Debounced Key to service routine.
    2376:	99 27       	eor	r25, r25
    2378:	80 93 d4 26 	sts	0x26D4, r24	; 0x8026d4 <KyReg>
    237c:	90 93 d5 26 	sts	0x26D5, r25	; 0x8026d5 <KyReg+0x1>
					Repeat = ON;				//	Pass here only once per KeyValue.
    2380:	81 e0       	ldi	r24, 0x01	; 1
    2382:	90 e0       	ldi	r25, 0x00	; 0
    2384:	80 93 6f 2a 	sts	0x2A6F, r24	; 0x802a6f <Repeat>
    2388:	90 93 70 2a 	sts	0x2A70, r25	; 0x802a70 <Repeat+0x1>
					RepeatTm = KEY_RPT_TM1;	// Wait period for re-loading KeyValue.
    238c:	8c ed       	ldi	r24, 0xDC	; 220
    238e:	95 e0       	ldi	r25, 0x05	; 5
    2390:	80 93 74 2a 	sts	0x2A74, r24	; 0x802a74 <RepeatTm>
    2394:	90 93 75 2a 	sts	0x2A75, r25	; 0x802a75 <RepeatTm+0x1>
    2398:	0b c0       	rjmp	.+22     	; 0x23b0 <__vector_12+0x1a2>
					RepeatCnt = 0;
				}
				if(RepeatCnt != RepeatTm)
    239a:	20 91 7b 2a 	lds	r18, 0x2A7B	; 0x802a7b <RepeatCnt>
    239e:	30 91 7c 2a 	lds	r19, 0x2A7C	; 0x802a7c <RepeatCnt+0x1>
    23a2:	40 91 74 2a 	lds	r20, 0x2A74	; 0x802a74 <RepeatTm>
    23a6:	50 91 75 2a 	lds	r21, 0x2A75	; 0x802a75 <RepeatTm+0x1>
    23aa:	24 17       	cp	r18, r20
    23ac:	35 07       	cpc	r19, r21
    23ae:	39 f0       	breq	.+14     	; 0x23be <__vector_12+0x1b0>
				{
					RepeatCnt++;
    23b0:	2f 5f       	subi	r18, 0xFF	; 255
    23b2:	3f 4f       	sbci	r19, 0xFF	; 255
    23b4:	20 93 7b 2a 	sts	0x2A7B, r18	; 0x802a7b <RepeatCnt>
    23b8:	30 93 7c 2a 	sts	0x2A7C, r19	; 0x802a7c <RepeatCnt+0x1>
    23bc:	28 c0       	rjmp	.+80     	; 0x240e <__vector_12+0x200>
				}
				else
				{
					KyReg = Keys;					// Log Repeated KeyPress, and wait for another.
    23be:	99 27       	eor	r25, r25
    23c0:	80 93 d4 26 	sts	0x26D4, r24	; 0x8026d4 <KyReg>
    23c4:	90 93 d5 26 	sts	0x26D5, r25	; 0x8026d5 <KyReg+0x1>
					RepeatCnt = 0;
    23c8:	10 92 7b 2a 	sts	0x2A7B, r1	; 0x802a7b <RepeatCnt>
    23cc:	10 92 7c 2a 	sts	0x2A7C, r1	; 0x802a7c <RepeatCnt+0x1>
					RepeatFlag = ON;
    23d0:	81 e0       	ldi	r24, 0x01	; 1
    23d2:	80 93 80 2a 	sts	0x2A80, r24	; 0x802a80 <RepeatFlag>
					RepeatTm = KEY_RPT_TM2;		// Successive repeat Key press time.
    23d6:	82 ec       	ldi	r24, 0xC2	; 194
    23d8:	91 e0       	ldi	r25, 0x01	; 1
    23da:	80 93 74 2a 	sts	0x2A74, r24	; 0x802a74 <RepeatTm>
    23de:	90 93 75 2a 	sts	0x2A75, r25	; 0x802a75 <RepeatTm+0x1>
    23e2:	15 c0       	rjmp	.+42     	; 0x240e <__vector_12+0x200>
				}
			}
		}
		else
		{
			DebounceQty = 0;					// Different Key, reset registers.
    23e4:	10 92 72 2a 	sts	0x2A72, r1	; 0x802a72 <DebounceQty>
			Repeat = OFF;
    23e8:	10 92 6f 2a 	sts	0x2A6F, r1	; 0x802a6f <Repeat>
    23ec:	10 92 70 2a 	sts	0x2A70, r1	; 0x802a70 <Repeat+0x1>
			RepeatFlag = OFF;
    23f0:	10 92 80 2a 	sts	0x2A80, r1	; 0x802a80 <RepeatFlag>
			PreviousKeys = Keys;
    23f4:	80 93 76 2a 	sts	0x2A76, r24	; 0x802a76 <PreviousKeys>
    23f8:	0a c0       	rjmp	.+20     	; 0x240e <__vector_12+0x200>
		}
	}
	else
	{
		PreviousKeys = 0;
    23fa:	10 92 76 2a 	sts	0x2A76, r1	; 0x802a76 <PreviousKeys>
		Repeat = OFF;
    23fe:	10 92 6f 2a 	sts	0x2A6F, r1	; 0x802a6f <Repeat>
    2402:	10 92 70 2a 	sts	0x2A70, r1	; 0x802a70 <Repeat+0x1>
		RepeatFlag = OFF;
    2406:	10 92 80 2a 	sts	0x2A80, r1	; 0x802a80 <RepeatFlag>
		DebounceQty = 0;
    240a:	10 92 72 2a 	sts	0x2A72, r1	; 0x802a72 <DebounceQty>
	//--------------------------------------------------------------------------
	//	Duration flags are loaded with multiple 1mSec quantities and decremented
	//	on each ISR pass.  Once they reach ZERO the active function will be
	//	flagged to load MID_SCALE values into the associated SineTable.
	//
	if(ToneInfo.BeepStringFlag)
    240e:	80 91 9f 26 	lds	r24, 0x269F	; 0x80269f <ToneInfo+0x3>
    2412:	88 23       	and	r24, r24
    2414:	51 f1       	breq	.+84     	; 0x246a <__vector_12+0x25c>
	{
		if(ToneInfo.BeepDuration)
    2416:	80 91 a1 26 	lds	r24, 0x26A1	; 0x8026a1 <ToneInfo+0x5>
    241a:	90 91 a2 26 	lds	r25, 0x26A2	; 0x8026a2 <ToneInfo+0x6>
    241e:	89 2b       	or	r24, r25
    2420:	21 f1       	breq	.+72     	; 0x246a <__vector_12+0x25c>
		//
		// Indicates BeepDuration has been loaded..
		{
			ToneInfo.BeepDuration--;
    2422:	ec e9       	ldi	r30, 0x9C	; 156
    2424:	f6 e2       	ldi	r31, 0x26	; 38
    2426:	85 81       	ldd	r24, Z+5	; 0x05
    2428:	96 81       	ldd	r25, Z+6	; 0x06
    242a:	01 97       	sbiw	r24, 0x01	; 1
    242c:	85 83       	std	Z+5, r24	; 0x05
    242e:	96 83       	std	Z+6, r25	; 0x06
			if(ToneInfo.BeepDuration == 0)			// Sequence tone set.
    2430:	85 81       	ldd	r24, Z+5	; 0x05
    2432:	96 81       	ldd	r25, Z+6	; 0x06
    2434:	89 2b       	or	r24, r25
    2436:	c9 f4       	brne	.+50     	; 0x246a <__vector_12+0x25c>
			{
				ToneInfo.pSound += 2;
    2438:	81 81       	ldd	r24, Z+1	; 0x01
    243a:	92 81       	ldd	r25, Z+2	; 0x02
    243c:	04 96       	adiw	r24, 0x04	; 4
    243e:	81 83       	std	Z+1, r24	; 0x01
    2440:	92 83       	std	Z+2, r25	; 0x02
				if (*(ToneInfo.pSound+1))
    2442:	01 80       	ldd	r0, Z+1	; 0x01
    2444:	f2 81       	ldd	r31, Z+2	; 0x02
    2446:	e0 2d       	mov	r30, r0
    2448:	82 81       	ldd	r24, Z+2	; 0x02
    244a:	93 81       	ldd	r25, Z+3	; 0x03
    244c:	89 2b       	or	r24, r25
    244e:	19 f0       	breq	.+6      	; 0x2456 <__vector_12+0x248>
					SpkrBeeper();					// New freq and duration setup.
    2450:	0e 94 3f 35 	call	0x6a7e	; 0x6a7e <SpkrBeeper>
    2454:	0a c0       	rjmp	.+20     	; 0x246a <__vector_12+0x25c>
				else
				{
					ToneInfo.BeepStringFlag = OFF;	// Does NOT turn off TONE..!!..
    2456:	10 92 9f 26 	sts	0x269F, r1	; 0x80269f <ToneInfo+0x3>
					rSPKR_EN;
    245a:	82 e0       	ldi	r24, 0x02	; 2
    245c:	80 93 66 06 	sts	0x0666, r24	; 0x800666 <__TEXT_REGION_LENGTH__+0x700666>
    2460:	e3 e7       	ldi	r30, 0x73	; 115
    2462:	f6 e2       	ldi	r31, 0x26	; 38
    2464:	80 81       	ld	r24, Z
    2466:	8d 7f       	andi	r24, 0xFD	; 253
    2468:	80 83       	st	Z, r24
		}
	}
	//---------------------------------------------------------------------------
	// Service Xmit Tone Flags.
	//
	if(XmitTone.Flag.Bit.Enabled == ON)
    246a:	80 91 f7 26 	lds	r24, 0x26F7	; 0x8026f7 <XmitTone+0xb>
    246e:	81 ff       	sbrs	r24, 1
    2470:	4d c0       	rjmp	.+154    	; 0x250c <__vector_12+0x2fe>
	{
		if(XmitTone.Flag.Bit.EoT == OFF)
    2472:	80 91 f7 26 	lds	r24, 0x26F7	; 0x8026f7 <XmitTone+0xb>
    2476:	83 fd       	sbrc	r24, 3
    2478:	1e c0       	rjmp	.+60     	; 0x24b6 <__vector_12+0x2a8>
		{
			if(XmitTone.ActiveCnt == XmitTone.ActiveTm) 
    247a:	ec ee       	ldi	r30, 0xEC	; 236
    247c:	f6 e2       	ldi	r31, 0x26	; 38
    247e:	26 81       	ldd	r18, Z+6	; 0x06
    2480:	37 81       	ldd	r19, Z+7	; 0x07
    2482:	82 81       	ldd	r24, Z+2	; 0x02
    2484:	93 81       	ldd	r25, Z+3	; 0x03
    2486:	28 17       	cp	r18, r24
    2488:	39 07       	cpc	r19, r25
    248a:	71 f4       	brne	.+28     	; 0x24a8 <__vector_12+0x29a>
			{
				XmitTone.Flag.Bit.EoT = ON;
    248c:	e7 ef       	ldi	r30, 0xF7	; 247
    248e:	f6 e2       	ldi	r31, 0x26	; 38
    2490:	80 81       	ld	r24, Z
    2492:	88 60       	ori	r24, 0x08	; 8
    2494:	80 83       	st	Z, r24
				rSPKR_EN;
    2496:	82 e0       	ldi	r24, 0x02	; 2
    2498:	80 93 66 06 	sts	0x0666, r24	; 0x800666 <__TEXT_REGION_LENGTH__+0x700666>
    249c:	e3 e7       	ldi	r30, 0x73	; 115
    249e:	f6 e2       	ldi	r31, 0x26	; 38
    24a0:	80 81       	ld	r24, Z
    24a2:	8d 7f       	andi	r24, 0xFD	; 253
    24a4:	80 83       	st	Z, r24
    24a6:	07 c0       	rjmp	.+14     	; 0x24b6 <__vector_12+0x2a8>
			}
			else
			{
				XmitTone.ActiveCnt++;
    24a8:	ec ee       	ldi	r30, 0xEC	; 236
    24aa:	f6 e2       	ldi	r31, 0x26	; 38
    24ac:	86 81       	ldd	r24, Z+6	; 0x06
    24ae:	97 81       	ldd	r25, Z+7	; 0x07
    24b0:	01 96       	adiw	r24, 0x01	; 1
    24b2:	86 83       	std	Z+6, r24	; 0x06
    24b4:	97 83       	std	Z+7, r25	; 0x07
			}
		}
		//------------------------------------------------------------------------
		if((XmitTone.Flag.Bit.EoT == ON) && (XmitTone.Flag.Bit.EoS == OFF))
    24b6:	80 91 f7 26 	lds	r24, 0x26F7	; 0x8026f7 <XmitTone+0xb>
    24ba:	83 ff       	sbrs	r24, 3
    24bc:	27 c0       	rjmp	.+78     	; 0x250c <__vector_12+0x2fe>
    24be:	80 91 f7 26 	lds	r24, 0x26F7	; 0x8026f7 <XmitTone+0xb>
    24c2:	85 fd       	sbrc	r24, 5
    24c4:	23 c0       	rjmp	.+70     	; 0x250c <__vector_12+0x2fe>
		{
			if(XmitTone.IdleCnt == XmitTone.IdleTm)
    24c6:	ec ee       	ldi	r30, 0xEC	; 236
    24c8:	f6 e2       	ldi	r31, 0x26	; 38
    24ca:	20 85       	ldd	r18, Z+8	; 0x08
    24cc:	31 85       	ldd	r19, Z+9	; 0x09
    24ce:	84 81       	ldd	r24, Z+4	; 0x04
    24d0:	95 81       	ldd	r25, Z+5	; 0x05
    24d2:	28 17       	cp	r18, r24
    24d4:	39 07       	cpc	r19, r25
    24d6:	49 f4       	brne	.+18     	; 0x24ea <__vector_12+0x2dc>
			{ 
				XmitTone.Flag.Bit.EoS = ON;
    24d8:	e7 ef       	ldi	r30, 0xF7	; 247
    24da:	f6 e2       	ldi	r31, 0x26	; 38
    24dc:	80 81       	ld	r24, Z
    24de:	80 62       	ori	r24, 0x20	; 32
    24e0:	80 83       	st	Z, r24
				XmitTone.Flag.Bit.SoS = OFF;
    24e2:	80 81       	ld	r24, Z
    24e4:	8f 7e       	andi	r24, 0xEF	; 239
    24e6:	80 83       	st	Z, r24
    24e8:	11 c0       	rjmp	.+34     	; 0x250c <__vector_12+0x2fe>
			}
			else
			{
				XmitTone.IdleCnt++;
    24ea:	ec ee       	ldi	r30, 0xEC	; 236
    24ec:	f6 e2       	ldi	r31, 0x26	; 38
    24ee:	80 85       	ldd	r24, Z+8	; 0x08
    24f0:	91 85       	ldd	r25, Z+9	; 0x09
    24f2:	01 96       	adiw	r24, 0x01	; 1
    24f4:	80 87       	std	Z+8, r24	; 0x08
    24f6:	91 87       	std	Z+9, r25	; 0x09
		}
	}
	//
	//---------------------------------------------------------------------------

}
    24f8:	09 c0       	rjmp	.+18     	; 0x250c <__vector_12+0x2fe>
    24fa:	20 93 79 2a 	sts	0x2A79, r18	; 0x802a79 <KyColumn>
			ColumnShift++;
			KyColumn <<= 1;
			for(DelayLoop = 0; DelayLoop < 20; DelayLoop++);
		}
		while(((~PORTD.IN & ROW_MASK_gm) >> ROW_MASK_bp) && (KyColumn & COLUMN_MASK_gm));
		PORTD.OUT = ToneInfo.SpkrEnable;				// For Next ISR.
    24fe:	80 91 a0 26 	lds	r24, 0x26A0	; 0x8026a0 <ToneInfo+0x4>
    2502:	80 93 64 06 	sts	0x0664, r24	; 0x800664 <__TEXT_REGION_LENGTH__+0x700664>
    2506:	e0 91 71 2a 	lds	r30, 0x2A71	; 0x802a71 <RowShift>
    250a:	0b cf       	rjmp	.-490    	; 0x2322 <__vector_12+0x114>
		}
	}
	//
	//---------------------------------------------------------------------------

}
    250c:	ff 91       	pop	r31
    250e:	ef 91       	pop	r30
    2510:	bf 91       	pop	r27
    2512:	af 91       	pop	r26
    2514:	9f 91       	pop	r25
    2516:	8f 91       	pop	r24
    2518:	7f 91       	pop	r23
    251a:	6f 91       	pop	r22
    251c:	5f 91       	pop	r21
    251e:	4f 91       	pop	r20
    2520:	3f 91       	pop	r19
    2522:	2f 91       	pop	r18
    2524:	0f 90       	pop	r0
    2526:	0f be       	out	0x3f, r0	; 63
    2528:	0f 90       	pop	r0
    252a:	1f 90       	pop	r1
    252c:	18 95       	reti

0000252e <__vector_38>:
ISR(TCD5_CCA_vect)
//-----------------------------------------------------------------------------
//	This ISR when enabled will output SineTable value until active tone sequence
//	has turned off ToneInfo.BeepStringFlag.
//-----------------------------------------------------------------------------
{
    252e:	1f 92       	push	r1
    2530:	0f 92       	push	r0
    2532:	0f b6       	in	r0, 0x3f	; 63
    2534:	0f 92       	push	r0
    2536:	11 24       	eor	r1, r1
    2538:	8f 93       	push	r24
    253a:	9f 93       	push	r25
    253c:	af 93       	push	r26
    253e:	bf 93       	push	r27
    2540:	ef 93       	push	r30
    2542:	ff 93       	push	r31
	TCD5.INTFLAGS = TC5_CCAIF_bm;
    2544:	80 e1       	ldi	r24, 0x10	; 16
    2546:	80 93 4c 09 	sts	0x094C, r24	; 0x80094c <__TEXT_REGION_LENGTH__+0x70094c>
	if((SpkrTone.SineIndex) || (ToneInfo.BeepStringFlag == ON)) 
    254a:	80 91 72 26 	lds	r24, 0x2672	; 0x802672 <SpkrTone+0xa>
    254e:	81 11       	cpse	r24, r1
    2550:	04 c0       	rjmp	.+8      	; 0x255a <__vector_38+0x2c>
    2552:	80 91 9f 26 	lds	r24, 0x269F	; 0x80269f <ToneInfo+0x3>
    2556:	81 30       	cpi	r24, 0x01	; 1
    2558:	c1 f4       	brne	.+48     	; 0x258a <__vector_38+0x5c>
	{
		DACA_CH1DATA = SpkrSineTable[SpkrTone.SineIndex];
    255a:	a8 e6       	ldi	r26, 0x68	; 104
    255c:	b6 e2       	ldi	r27, 0x26	; 38
    255e:	1a 96       	adiw	r26, 0x0a	; 10
    2560:	ec 91       	ld	r30, X
    2562:	1a 97       	sbiw	r26, 0x0a	; 10
    2564:	f0 e0       	ldi	r31, 0x00	; 0
    2566:	ee 0f       	add	r30, r30
    2568:	ff 1f       	adc	r31, r31
    256a:	e2 50       	subi	r30, 0x02	; 2
    256c:	f9 4d       	sbci	r31, 0xD9	; 217
    256e:	80 81       	ld	r24, Z
    2570:	91 81       	ldd	r25, Z+1	; 0x01
    2572:	80 93 1a 03 	sts	0x031A, r24	; 0x80031a <__TEXT_REGION_LENGTH__+0x70031a>
    2576:	90 93 1b 03 	sts	0x031B, r25	; 0x80031b <__TEXT_REGION_LENGTH__+0x70031b>
		SpkrTone.SineIndex = (SpkrTone.SineIndex +1) & 0x0F;		// Advance to next step.
    257a:	1a 96       	adiw	r26, 0x0a	; 10
    257c:	8c 91       	ld	r24, X
    257e:	1a 97       	sbiw	r26, 0x0a	; 10
    2580:	8f 5f       	subi	r24, 0xFF	; 255
    2582:	8f 70       	andi	r24, 0x0F	; 15
    2584:	1a 96       	adiw	r26, 0x0a	; 10
    2586:	8c 93       	st	X, r24
    2588:	13 c0       	rjmp	.+38     	; 0x25b0 <__vector_38+0x82>
	} 
	else if((SpkrTone.SineIndex == 0) && (ToneInfo.BeepStringFlag == OFF)) 
    258a:	80 91 72 26 	lds	r24, 0x2672	; 0x802672 <SpkrTone+0xa>
    258e:	81 11       	cpse	r24, r1
    2590:	0f c0       	rjmp	.+30     	; 0x25b0 <__vector_38+0x82>
    2592:	80 91 9f 26 	lds	r24, 0x269F	; 0x80269f <ToneInfo+0x3>
    2596:	81 11       	cpse	r24, r1
    2598:	0b c0       	rjmp	.+22     	; 0x25b0 <__vector_38+0x82>
	{
		TCD5.INTCTRLB &= ~TC45_CCAINTLVL_HI_gc;			// Turn OFF Future ISR's
    259a:	e0 e4       	ldi	r30, 0x40	; 64
    259c:	f9 e0       	ldi	r31, 0x09	; 9
    259e:	87 81       	ldd	r24, Z+7	; 0x07
    25a0:	8c 7f       	andi	r24, 0xFC	; 252
    25a2:	87 83       	std	Z+7, r24	; 0x07
		DACA_CH1DATA = SINE_MIDSCALE;
    25a4:	8f ef       	ldi	r24, 0xFF	; 255
    25a6:	97 e0       	ldi	r25, 0x07	; 7
    25a8:	80 93 1a 03 	sts	0x031A, r24	; 0x80031a <__TEXT_REGION_LENGTH__+0x70031a>
    25ac:	90 93 1b 03 	sts	0x031B, r25	; 0x80031b <__TEXT_REGION_LENGTH__+0x70031b>
	}
	
}
    25b0:	ff 91       	pop	r31
    25b2:	ef 91       	pop	r30
    25b4:	bf 91       	pop	r27
    25b6:	af 91       	pop	r26
    25b8:	9f 91       	pop	r25
    25ba:	8f 91       	pop	r24
    25bc:	0f 90       	pop	r0
    25be:	0f be       	out	0x3f, r0	; 63
    25c0:	0f 90       	pop	r0
    25c2:	1f 90       	pop	r1
    25c4:	18 95       	reti

000025c6 <__vector_39>:
ISR(TCD5_CCB_vect)
//-----------------------------------------------------------------------------
//	This ISR when enabled will output SineTable value until active tone length
//	is less than Sync.EoT for XmitTone.
//-----------------------------------------------------------------------------
{
    25c6:	1f 92       	push	r1
    25c8:	0f 92       	push	r0
    25ca:	0f b6       	in	r0, 0x3f	; 63
    25cc:	0f 92       	push	r0
    25ce:	11 24       	eor	r1, r1
    25d0:	8f 93       	push	r24
    25d2:	9f 93       	push	r25
    25d4:	af 93       	push	r26
    25d6:	bf 93       	push	r27
    25d8:	ef 93       	push	r30
    25da:	ff 93       	push	r31
//		sDEBUG;



	TCD5.INTFLAGS = TC5_CCBIF_bm;
    25dc:	80 e2       	ldi	r24, 0x20	; 32
    25de:	80 93 4c 09 	sts	0x094C, r24	; 0x80094c <__TEXT_REGION_LENGTH__+0x70094c>
	if((XmitTone.Flag.Bit.EoT == OFF) || (XmitTone.SineIndex))
    25e2:	80 91 f7 26 	lds	r24, 0x26F7	; 0x8026f7 <XmitTone+0xb>
    25e6:	83 ff       	sbrs	r24, 3
    25e8:	04 c0       	rjmp	.+8      	; 0x25f2 <__vector_39+0x2c>
    25ea:	80 91 f6 26 	lds	r24, 0x26F6	; 0x8026f6 <XmitTone+0xa>
    25ee:	88 23       	and	r24, r24
    25f0:	b9 f0       	breq	.+46     	; 0x2620 <__vector_39+0x5a>
	{
		DACA_CH0DATA = XmitSineTable[XmitTone.SineIndex];
    25f2:	ac ee       	ldi	r26, 0xEC	; 236
    25f4:	b6 e2       	ldi	r27, 0x26	; 38
    25f6:	1a 96       	adiw	r26, 0x0a	; 10
    25f8:	ec 91       	ld	r30, X
    25fa:	1a 97       	sbiw	r26, 0x0a	; 10
    25fc:	f0 e0       	ldi	r31, 0x00	; 0
    25fe:	ee 0f       	add	r30, r30
    2600:	ff 1f       	adc	r31, r31
    2602:	e6 5d       	subi	r30, 0xD6	; 214
    2604:	f9 4d       	sbci	r31, 0xD9	; 217
    2606:	80 81       	ld	r24, Z
    2608:	91 81       	ldd	r25, Z+1	; 0x01
    260a:	80 93 18 03 	sts	0x0318, r24	; 0x800318 <__TEXT_REGION_LENGTH__+0x700318>
    260e:	90 93 19 03 	sts	0x0319, r25	; 0x800319 <__TEXT_REGION_LENGTH__+0x700319>
		XmitTone.SineIndex = (XmitTone.SineIndex +1) & 0x0F;		// Advance to next step.
    2612:	1a 96       	adiw	r26, 0x0a	; 10
    2614:	8c 91       	ld	r24, X
    2616:	1a 97       	sbiw	r26, 0x0a	; 10
    2618:	8f 5f       	subi	r24, 0xFF	; 255
    261a:	8f 70       	andi	r24, 0x0F	; 15
    261c:	1a 96       	adiw	r26, 0x0a	; 10
    261e:	8c 93       	st	X, r24
	} 
	if((XmitTone.SineIndex == 0) && (XmitTone.Flag.Bit.EoT == ON))
    2620:	80 91 f6 26 	lds	r24, 0x26F6	; 0x8026f6 <XmitTone+0xa>
    2624:	81 11       	cpse	r24, r1
    2626:	0f c0       	rjmp	.+30     	; 0x2646 <__vector_39+0x80>
    2628:	80 91 f7 26 	lds	r24, 0x26F7	; 0x8026f7 <XmitTone+0xb>
    262c:	83 ff       	sbrs	r24, 3
    262e:	0b c0       	rjmp	.+22     	; 0x2646 <__vector_39+0x80>
	{
		TCD5.INTCTRLB &= ~TC45_CCBINTLVL_HI_gc;
    2630:	e0 e4       	ldi	r30, 0x40	; 64
    2632:	f9 e0       	ldi	r31, 0x09	; 9
    2634:	87 81       	ldd	r24, Z+7	; 0x07
    2636:	83 7f       	andi	r24, 0xF3	; 243
    2638:	87 83       	std	Z+7, r24	; 0x07
		DACA_CH0DATA = SINE_MIDSCALE;
    263a:	8f ef       	ldi	r24, 0xFF	; 255
    263c:	97 e0       	ldi	r25, 0x07	; 7
    263e:	80 93 18 03 	sts	0x0318, r24	; 0x800318 <__TEXT_REGION_LENGTH__+0x700318>
    2642:	90 93 19 03 	sts	0x0319, r25	; 0x800319 <__TEXT_REGION_LENGTH__+0x700319>
	}

//	rDEBUG;	
}
    2646:	ff 91       	pop	r31
    2648:	ef 91       	pop	r30
    264a:	bf 91       	pop	r27
    264c:	af 91       	pop	r26
    264e:	9f 91       	pop	r25
    2650:	8f 91       	pop	r24
    2652:	0f 90       	pop	r0
    2654:	0f be       	out	0x3f, r0	; 63
    2656:	0f 90       	pop	r0
    2658:	1f 90       	pop	r1
    265a:	18 95       	reti

0000265c <__vector_22>:

ISR(SPIC_INT_vect)
//-----------------------------------------------------------------------------
//	Program execution here due to empty SPI xmit buffer.
//-----------------------------------------------------------------------------
{
    265c:	1f 92       	push	r1
    265e:	0f 92       	push	r0
    2660:	0f b6       	in	r0, 0x3f	; 63
    2662:	0f 92       	push	r0
    2664:	11 24       	eor	r1, r1
    2666:	8f 93       	push	r24
    2668:	9f 93       	push	r25
    266a:	af 93       	push	r26
    266c:	bf 93       	push	r27
    266e:	ef 93       	push	r30
    2670:	ff 93       	push	r31
	if(SPIinfo.XmitCnt != SPIinfo.ByteCnt)
    2672:	e7 e8       	ldi	r30, 0x87	; 135
    2674:	fe e2       	ldi	r31, 0x2E	; 46
    2676:	90 81       	ld	r25, Z
    2678:	81 81       	ldd	r24, Z+1	; 0x01
    267a:	98 17       	cp	r25, r24
    267c:	61 f0       	breq	.+24     	; 0x2696 <__vector_22+0x3a>
	{
		SPIC_DATA = SPIinfo.Buffer[SPIinfo.XmitCnt];
    267e:	df 01       	movw	r26, r30
    2680:	e0 81       	ld	r30, Z
    2682:	f0 e0       	ldi	r31, 0x00	; 0
    2684:	e9 57       	subi	r30, 0x79	; 121
    2686:	f1 4d       	sbci	r31, 0xD1	; 209
    2688:	83 81       	ldd	r24, Z+3	; 0x03
    268a:	80 93 e3 08 	sts	0x08E3, r24	; 0x8008e3 <__TEXT_REGION_LENGTH__+0x7008e3>
		SPIinfo.XmitCnt++;
    268e:	8c 91       	ld	r24, X
    2690:	8f 5f       	subi	r24, 0xFF	; 255
    2692:	8c 93       	st	X, r24
    2694:	02 c0       	rjmp	.+4      	; 0x269a <__vector_22+0x3e>
	}
	else
	{
		SPIinfo.Status = COMPLETE;
    2696:	10 92 89 2e 	sts	0x2E89, r1	; 0x802e89 <SPIinfo+0x2>
	}
}
    269a:	ff 91       	pop	r31
    269c:	ef 91       	pop	r30
    269e:	bf 91       	pop	r27
    26a0:	af 91       	pop	r26
    26a2:	9f 91       	pop	r25
    26a4:	8f 91       	pop	r24
    26a6:	0f 90       	pop	r0
    26a8:	0f be       	out	0x3f, r0	; 63
    26aa:	0f 90       	pop	r0
    26ac:	1f 90       	pop	r1
    26ae:	18 95       	reti

000026b0 <__vector_35>:
// The POWER KeyPush change on Port A Caused this interrupt.
// Reset the interrupt flag and service depending on request.
//	
//	ISR Level: MEDIUM....
//-----------------------------------------------------------------------------
{
    26b0:	1f 92       	push	r1
    26b2:	0f 92       	push	r0
    26b4:	0f b6       	in	r0, 0x3f	; 63
    26b6:	0f 92       	push	r0
    26b8:	11 24       	eor	r1, r1
    26ba:	8f 93       	push	r24
	PORTD.INTFLAGS = PORT_INT7IF_bm;			// Release Interrupt flag.
    26bc:	80 e8       	ldi	r24, 0x80	; 128
    26be:	80 93 6c 06 	sts	0x066C, r24	; 0x80066c <__TEXT_REGION_LENGTH__+0x70066c>

}
    26c2:	8f 91       	pop	r24
    26c4:	0f 90       	pop	r0
    26c6:	0f be       	out	0x3f, r0	; 63
    26c8:	0f 90       	pop	r0
    26ca:	1f 90       	pop	r1
    26cc:	18 95       	reti

000026ce <__vector_34>:
#define VRAIL 100							// +/- Binary Rails.
ISR(ADCA_CH0_vect)
//------------------------------------------------------------------------------
//
//------------------------------------------------------------------------------
{
    26ce:	1f 92       	push	r1
    26d0:	0f 92       	push	r0
    26d2:	0f b6       	in	r0, 0x3f	; 63
    26d4:	0f 92       	push	r0
    26d6:	11 24       	eor	r1, r1
    26d8:	0f 93       	push	r16
    26da:	1f 93       	push	r17
    26dc:	2f 93       	push	r18
    26de:	3f 93       	push	r19
    26e0:	4f 93       	push	r20
    26e2:	5f 93       	push	r21
    26e4:	6f 93       	push	r22
    26e6:	7f 93       	push	r23
    26e8:	8f 93       	push	r24
    26ea:	9f 93       	push	r25
    26ec:	af 93       	push	r26
    26ee:	bf 93       	push	r27
    26f0:	ef 93       	push	r30
    26f2:	ff 93       	push	r31
    26f4:	cf 93       	push	r28
    26f6:	df 93       	push	r29
    26f8:	cd b7       	in	r28, 0x3d	; 61
    26fa:	de b7       	in	r29, 0x3e	; 62
    26fc:	26 97       	sbiw	r28, 0x06	; 6
    26fe:	cd bf       	out	0x3d, r28	; 61
    2700:	de bf       	out	0x3e, r29	; 62
	volatile int16_t DiffValue;
	volatile uint16_t Value, Value_Real;
	uint16_t *p = waveform + wave_idx;
    2702:	e0 91 d8 26 	lds	r30, 0x26D8	; 0x8026d8 <wave_idx>
    2706:	f0 91 d9 26 	lds	r31, 0x26D9	; 0x8026d9 <wave_idx+0x1>
    270a:	ee 0f       	add	r30, r30
    270c:	ff 1f       	adc	r31, r31
    270e:	ef 5f       	subi	r30, 0xFF	; 255
    2710:	fc 4d       	sbci	r31, 0xDC	; 220
	uint16_t w = *p;
    2712:	80 81       	ld	r24, Z
    2714:	91 81       	ldd	r25, Z+1	; 0x01
	

	DiffValue = ADCA.CH0.RES;						// +/-2047....
    2716:	20 91 24 02 	lds	r18, 0x0224	; 0x800224 <__TEXT_REGION_LENGTH__+0x700224>
    271a:	30 91 25 02 	lds	r19, 0x0225	; 0x800225 <__TEXT_REGION_LENGTH__+0x700225>
    271e:	29 83       	std	Y+1, r18	; 0x01
    2720:	3a 83       	std	Y+2, r19	; 0x02
	DiffValue += 2047;								// 1-> 4095
    2722:	29 81       	ldd	r18, Y+1	; 0x01
    2724:	3a 81       	ldd	r19, Y+2	; 0x02
    2726:	21 50       	subi	r18, 0x01	; 1
    2728:	38 4f       	sbci	r19, 0xF8	; 248
    272a:	29 83       	std	Y+1, r18	; 0x01
    272c:	3a 83       	std	Y+2, r19	; 0x02
	Value = (uint16_t)(DiffValue & 0x0fff);
    272e:	29 81       	ldd	r18, Y+1	; 0x01
    2730:	3a 81       	ldd	r19, Y+2	; 0x02
    2732:	3f 70       	andi	r19, 0x0F	; 15
    2734:	2b 83       	std	Y+3, r18	; 0x03
    2736:	3c 83       	std	Y+4, r19	; 0x04
	
	Comb.ADC_in = Value;								// Used for SPI request.
    2738:	2b 81       	ldd	r18, Y+3	; 0x03
    273a:	3c 81       	ldd	r19, Y+4	; 0x04
    273c:	20 93 1e 27 	sts	0x271E, r18	; 0x80271e <Comb>
    2740:	30 93 1f 27 	sts	0x271F, r19	; 0x80271f <Comb+0x1>

	if(Value < 20 || Value > ADC_MAX-20) clipped = 1;
    2744:	2b 81       	ldd	r18, Y+3	; 0x03
    2746:	3c 81       	ldd	r19, Y+4	; 0x04
    2748:	24 31       	cpi	r18, 0x14	; 20
    274a:	31 05       	cpc	r19, r1
    274c:	28 f0       	brcs	.+10     	; 0x2758 <__vector_34+0x8a>
    274e:	2b 81       	ldd	r18, Y+3	; 0x03
    2750:	3c 81       	ldd	r19, Y+4	; 0x04
    2752:	2c 3e       	cpi	r18, 0xEC	; 236
    2754:	3f 40       	sbci	r19, 0x0F	; 15
    2756:	18 f0       	brcs	.+6      	; 0x275e <__vector_34+0x90>
    2758:	21 e0       	ldi	r18, 0x01	; 1
    275a:	20 93 fc 26 	sts	0x26FC, r18	; 0x8026fc <clipped>

	if(data_available) overrun++;					// Main Loop clears data_available
    275e:	20 91 ea 26 	lds	r18, 0x26EA	; 0x8026ea <data_available>
    2762:	22 23       	and	r18, r18
    2764:	29 f0       	breq	.+10     	; 0x2770 <__vector_34+0xa2>
    2766:	20 91 fd 26 	lds	r18, 0x26FD	; 0x8026fd <overrun>
    276a:	2f 5f       	subi	r18, 0xFF	; 255
    276c:	20 93 fd 26 	sts	0x26FD, r18	; 0x8026fd <overrun>

	// There are 400 data points taken within a 60Hz cycle.  Summation of cycle
	//	data previous points within the cycle, current point in cycle, and previous
	// cycle points are used to lock onto the 60Hz multiple.  
	if(wave_idx >= CORR_DELTA && wave_idx < SAMPLES_PER_CYCLE-CORR_DELTA)
    2770:	20 91 d8 26 	lds	r18, 0x26D8	; 0x8026d8 <wave_idx>
    2774:	30 91 d9 26 	lds	r19, 0x26D9	; 0x8026d9 <wave_idx+0x1>
    2778:	22 30       	cpi	r18, 0x02	; 2
    277a:	31 05       	cpc	r19, r1
    277c:	08 f4       	brcc	.+2      	; 0x2780 <__vector_34+0xb2>
    277e:	72 c0       	rjmp	.+228    	; 0x2864 <__vector_34+0x196>
    2780:	20 91 d8 26 	lds	r18, 0x26D8	; 0x8026d8 <wave_idx>
    2784:	30 91 d9 26 	lds	r19, 0x26D9	; 0x8026d9 <wave_idx+0x1>
    2788:	2e 38       	cpi	r18, 0x8E	; 142
    278a:	31 40       	sbci	r19, 0x01	; 1
    278c:	08 f0       	brcs	.+2      	; 0x2790 <__vector_34+0xc2>
    278e:	6a c0       	rjmp	.+212    	; 0x2864 <__vector_34+0x196>
	{
		Value_Real  = Value >> (ADC_BITS-8);
    2790:	2b 81       	ldd	r18, Y+3	; 0x03
    2792:	3c 81       	ldd	r19, Y+4	; 0x04
    2794:	32 95       	swap	r19
    2796:	22 95       	swap	r18
    2798:	2f 70       	andi	r18, 0x0F	; 15
    279a:	23 27       	eor	r18, r19
    279c:	3f 70       	andi	r19, 0x0F	; 15
    279e:	23 27       	eor	r18, r19
    27a0:	2d 83       	std	Y+5, r18	; 0x05
    27a2:	3e 83       	std	Y+6, r19	; 0x06
		#define corr_accum(accum, delta) accum += Value_Real * (p[delta] >> 8);
		corr_accum(corr_mid, 0)						// Current sample point sum.
    27a4:	ad 81       	ldd	r26, Y+5	; 0x05
    27a6:	be 81       	ldd	r27, Y+6	; 0x06
    27a8:	40 91 f8 26 	lds	r20, 0x26F8	; 0x8026f8 <corr_mid>
    27ac:	50 91 f9 26 	lds	r21, 0x26F9	; 0x8026f9 <corr_mid+0x1>
    27b0:	60 91 fa 26 	lds	r22, 0x26FA	; 0x8026fa <corr_mid+0x2>
    27b4:	70 91 fb 26 	lds	r23, 0x26FB	; 0x8026fb <corr_mid+0x3>
    27b8:	09 2f       	mov	r16, r25
    27ba:	11 27       	eor	r17, r17
    27bc:	0a 9f       	mul	r16, r26
    27be:	90 01       	movw	r18, r0
    27c0:	0b 9f       	mul	r16, r27
    27c2:	30 0d       	add	r19, r0
    27c4:	1a 9f       	mul	r17, r26
    27c6:	30 0d       	add	r19, r0
    27c8:	11 24       	eor	r1, r1
    27ca:	42 0f       	add	r20, r18
    27cc:	53 1f       	adc	r21, r19
    27ce:	61 1d       	adc	r22, r1
    27d0:	71 1d       	adc	r23, r1
    27d2:	40 93 f8 26 	sts	0x26F8, r20	; 0x8026f8 <corr_mid>
    27d6:	50 93 f9 26 	sts	0x26F9, r21	; 0x8026f9 <corr_mid+0x1>
    27da:	60 93 fa 26 	sts	0x26FA, r22	; 0x8026fa <corr_mid+0x2>
    27de:	70 93 fb 26 	sts	0x26FB, r23	; 0x8026fb <corr_mid+0x3>
		corr_accum(corr_left, -CORR_DELTA)		// Same Cycle current sample point.
    27e2:	0d 81       	ldd	r16, Y+5	; 0x05
    27e4:	1e 81       	ldd	r17, Y+6	; 0x06
    27e6:	40 91 f7 22 	lds	r20, 0x22F7	; 0x8022f7 <corr_left>
    27ea:	50 91 f8 22 	lds	r21, 0x22F8	; 0x8022f8 <corr_left+0x1>
    27ee:	60 91 f9 22 	lds	r22, 0x22F9	; 0x8022f9 <corr_left+0x2>
    27f2:	70 91 fa 22 	lds	r23, 0x22FA	; 0x8022fa <corr_left+0x3>
    27f6:	df 01       	movw	r26, r30
    27f8:	14 97       	sbiw	r26, 0x04	; 4
    27fa:	11 96       	adiw	r26, 0x01	; 1
    27fc:	2c 91       	ld	r18, X
    27fe:	30 e0       	ldi	r19, 0x00	; 0
    2800:	20 9f       	mul	r18, r16
    2802:	d0 01       	movw	r26, r0
    2804:	21 9f       	mul	r18, r17
    2806:	b0 0d       	add	r27, r0
    2808:	30 9f       	mul	r19, r16
    280a:	b0 0d       	add	r27, r0
    280c:	11 24       	eor	r1, r1
    280e:	4a 0f       	add	r20, r26
    2810:	5b 1f       	adc	r21, r27
    2812:	61 1d       	adc	r22, r1
    2814:	71 1d       	adc	r23, r1
    2816:	40 93 f7 22 	sts	0x22F7, r20	; 0x8022f7 <corr_left>
    281a:	50 93 f8 22 	sts	0x22F8, r21	; 0x8022f8 <corr_left+0x1>
    281e:	60 93 f9 22 	sts	0x22F9, r22	; 0x8022f9 <corr_left+0x2>
    2822:	70 93 fa 22 	sts	0x22FA, r23	; 0x8022fa <corr_left+0x3>
		corr_accum(corr_right, CORR_DELTA)		// Previous Cycle advanced by Delta.
    2826:	0d 81       	ldd	r16, Y+5	; 0x05
    2828:	1e 81       	ldd	r17, Y+6	; 0x06
    282a:	40 91 24 26 	lds	r20, 0x2624	; 0x802624 <corr_right>
    282e:	50 91 25 26 	lds	r21, 0x2625	; 0x802625 <corr_right+0x1>
    2832:	60 91 26 26 	lds	r22, 0x2626	; 0x802626 <corr_right+0x2>
    2836:	70 91 27 26 	lds	r23, 0x2627	; 0x802627 <corr_right+0x3>
    283a:	25 81       	ldd	r18, Z+5	; 0x05
    283c:	30 e0       	ldi	r19, 0x00	; 0
    283e:	20 9f       	mul	r18, r16
    2840:	d0 01       	movw	r26, r0
    2842:	21 9f       	mul	r18, r17
    2844:	b0 0d       	add	r27, r0
    2846:	30 9f       	mul	r19, r16
    2848:	b0 0d       	add	r27, r0
    284a:	11 24       	eor	r1, r1
    284c:	4a 0f       	add	r20, r26
    284e:	5b 1f       	adc	r21, r27
    2850:	61 1d       	adc	r22, r1
    2852:	71 1d       	adc	r23, r1
    2854:	40 93 24 26 	sts	0x2624, r20	; 0x802624 <corr_right>
    2858:	50 93 25 26 	sts	0x2625, r21	; 0x802625 <corr_right+0x1>
    285c:	60 93 26 26 	sts	0x2626, r22	; 0x802626 <corr_right+0x2>
    2860:	70 93 27 26 	sts	0x2627, r23	; 0x802627 <corr_right+0x3>
	}

	w -= (w >> relax_bits);
    2864:	20 91 67 26 	lds	r18, 0x2667	; 0x802667 <relax_bits>
    2868:	bc 01       	movw	r22, r24
    286a:	02 c0       	rjmp	.+4      	; 0x2870 <__vector_34+0x1a2>
    286c:	76 95       	lsr	r23
    286e:	67 95       	ror	r22
    2870:	2a 95       	dec	r18
    2872:	e2 f7       	brpl	.-8      	; 0x286c <__vector_34+0x19e>
	w += Value << (EXTRA_BITS-relax_bits);
    2874:	2b 81       	ldd	r18, Y+3	; 0x03
    2876:	3c 81       	ldd	r19, Y+4	; 0x04
    2878:	a0 91 67 26 	lds	r26, 0x2667	; 0x802667 <relax_bits>
    287c:	44 e0       	ldi	r20, 0x04	; 4
    287e:	50 e0       	ldi	r21, 0x00	; 0
    2880:	4a 1b       	sub	r20, r26
    2882:	51 09       	sbc	r21, r1
    2884:	02 c0       	rjmp	.+4      	; 0x288a <__vector_34+0x1bc>
    2886:	22 0f       	add	r18, r18
    2888:	33 1f       	adc	r19, r19
    288a:	4a 95       	dec	r20
    288c:	e2 f7       	brpl	.-8      	; 0x2886 <__vector_34+0x1b8>
    288e:	82 0f       	add	r24, r18
    2890:	93 1f       	adc	r25, r19
    2892:	86 1b       	sub	r24, r22
    2894:	97 0b       	sbc	r25, r23
	*p = w;
    2896:	80 83       	st	Z, r24
    2898:	91 83       	std	Z+1, r25	; 0x01
	//
	//---------------------------------------------------------------------------
	//	If received command was "BandPass" compute the current value to be sent
	//	to the DAC. 
	if(Comb.FilterAction == CMD_BANDPASS)
    289a:	20 91 24 27 	lds	r18, 0x2724	; 0x802724 <Comb+0x6>
    289e:	21 11       	cpse	r18, r1
    28a0:	59 c0       	rjmp	.+178    	; 0x2954 <__vector_34+0x286>
	{
		clean = (int16_t)(signal_in - signal_smoothed) << (1+ Comb.Gain);
    28a2:	20 91 21 26 	lds	r18, 0x2621	; 0x802621 <signal_in>
    28a6:	30 91 22 26 	lds	r19, 0x2622	; 0x802622 <signal_in+0x1>
    28aa:	60 91 bd 26 	lds	r22, 0x26BD	; 0x8026bd <signal_smoothed>
    28ae:	70 91 be 26 	lds	r23, 0x26BE	; 0x8026be <signal_smoothed+0x1>
    28b2:	40 91 22 27 	lds	r20, 0x2722	; 0x802722 <Comb+0x4>
    28b6:	26 1b       	sub	r18, r22
    28b8:	37 0b       	sbc	r19, r23
    28ba:	4f 5f       	subi	r20, 0xFF	; 255
    28bc:	02 c0       	rjmp	.+4      	; 0x28c2 <__vector_34+0x1f4>
    28be:	22 0f       	add	r18, r18
    28c0:	33 1f       	adc	r19, r19
    28c2:	4a 95       	dec	r20
    28c4:	e2 f7       	brpl	.-8      	; 0x28be <__vector_34+0x1f0>
    28c6:	20 93 9a 26 	sts	0x269A, r18	; 0x80269a <clean>
    28ca:	30 93 9b 26 	sts	0x269B, r19	; 0x80269b <clean+0x1>
		if(clean < -(2047 +VRAIL)) clean = -(2047 -VRAIL);
    28ce:	2d 39       	cpi	r18, 0x9D	; 157
    28d0:	77 ef       	ldi	r23, 0xF7	; 247
    28d2:	37 07       	cpc	r19, r23
    28d4:	3c f4       	brge	.+14     	; 0x28e4 <__vector_34+0x216>
    28d6:	25 e6       	ldi	r18, 0x65	; 101
    28d8:	38 ef       	ldi	r19, 0xF8	; 248
    28da:	20 93 9a 26 	sts	0x269A, r18	; 0x80269a <clean>
    28de:	30 93 9b 26 	sts	0x269B, r19	; 0x80269b <clean+0x1>
    28e2:	09 c0       	rjmp	.+18     	; 0x28f6 <__vector_34+0x228>
		if(clean > (2047 -VRAIL)) clean = (2047 -VRAIL);
    28e4:	2c 39       	cpi	r18, 0x9C	; 156
    28e6:	37 40       	sbci	r19, 0x07	; 7
    28e8:	34 f0       	brlt	.+12     	; 0x28f6 <__vector_34+0x228>
    28ea:	2b e9       	ldi	r18, 0x9B	; 155
    28ec:	37 e0       	ldi	r19, 0x07	; 7
    28ee:	20 93 9a 26 	sts	0x269A, r18	; 0x80269a <clean>
    28f2:	30 93 9b 26 	sts	0x269B, r19	; 0x80269b <clean+0x1>
		pwm_out = clean +2048;
    28f6:	20 91 9a 26 	lds	r18, 0x269A	; 0x80269a <clean>
    28fa:	30 91 9b 26 	lds	r19, 0x269B	; 0x80269b <clean+0x1>
    28fe:	38 5f       	subi	r19, 0xF8	; 248
    2900:	20 93 bf 26 	sts	0x26BF, r18	; 0x8026bf <pwm_out>
    2904:	30 93 c0 26 	sts	0x26C0, r19	; 0x8026c0 <pwm_out+0x1>
		if(SYSdata.MonitorLevel != OFF)
    2908:	20 91 7a 26 	lds	r18, 0x267A	; 0x80267a <SYSdata+0x6>
    290c:	22 23       	and	r18, r18
    290e:	99 f0       	breq	.+38     	; 0x2936 <__vector_34+0x268>
		{
			// out value to the speaker.
			DACA_CH1DATA = pwm_out >> (HIGH_VOL - SYSdata.MonitorLevel);
    2910:	40 91 bf 26 	lds	r20, 0x26BF	; 0x8026bf <pwm_out>
    2914:	50 91 c0 26 	lds	r21, 0x26C0	; 0x8026c0 <pwm_out+0x1>
    2918:	62 e0       	ldi	r22, 0x02	; 2
    291a:	70 e0       	ldi	r23, 0x00	; 0
    291c:	fb 01       	movw	r30, r22
    291e:	e2 1b       	sub	r30, r18
    2920:	f1 09       	sbc	r31, r1
    2922:	ba 01       	movw	r22, r20
    2924:	02 c0       	rjmp	.+4      	; 0x292a <__vector_34+0x25c>
    2926:	76 95       	lsr	r23
    2928:	67 95       	ror	r22
    292a:	ea 95       	dec	r30
    292c:	e2 f7       	brpl	.-8      	; 0x2926 <__vector_34+0x258>
    292e:	60 93 1a 03 	sts	0x031A, r22	; 0x80031a <__TEXT_REGION_LENGTH__+0x70031a>
    2932:	70 93 1b 03 	sts	0x031B, r23	; 0x80031b <__TEXT_REGION_LENGTH__+0x70031b>
		}
		A2Dbuffer[wave_idx] = pwm_out; 
    2936:	e0 91 d8 26 	lds	r30, 0x26D8	; 0x8026d8 <wave_idx>
    293a:	f0 91 d9 26 	lds	r31, 0x26D9	; 0x8026d9 <wave_idx+0x1>
    293e:	20 91 bf 26 	lds	r18, 0x26BF	; 0x8026bf <pwm_out>
    2942:	30 91 c0 26 	lds	r19, 0x26C0	; 0x8026c0 <pwm_out+0x1>
    2946:	ee 0f       	add	r30, r30
    2948:	ff 1f       	adc	r31, r31
    294a:	ea 5b       	subi	r30, 0xBA	; 186
    294c:	f8 4d       	sbci	r31, 0xD8	; 216
    294e:	20 83       	st	Z, r18
    2950:	31 83       	std	Z+1, r19	; 0x01
    2952:	0c c0       	rjmp	.+24     	; 0x296c <__vector_34+0x29e>
	}
	//	For Vdc values averaging will be done over the 60Hz period outsid of this
	//	ISR.
	else
	{
		A2Dbuffer[wave_idx] = Value;				// Synchronous throughput for Vdc.
    2954:	e0 91 d8 26 	lds	r30, 0x26D8	; 0x8026d8 <wave_idx>
    2958:	f0 91 d9 26 	lds	r31, 0x26D9	; 0x8026d9 <wave_idx+0x1>
    295c:	2b 81       	ldd	r18, Y+3	; 0x03
    295e:	3c 81       	ldd	r19, Y+4	; 0x04
    2960:	ee 0f       	add	r30, r30
    2962:	ff 1f       	adc	r31, r31
    2964:	ea 5b       	subi	r30, 0xBA	; 186
    2966:	f8 4d       	sbci	r31, 0xD8	; 216
    2968:	20 83       	st	Z, r18
    296a:	31 83       	std	Z+1, r19	; 0x01
	
	//
	//	Advance pointer to the next sample bin for data logging.
	//
	//------------------------------------------------------------------------
	wave_idx++;
    296c:	20 91 d8 26 	lds	r18, 0x26D8	; 0x8026d8 <wave_idx>
    2970:	30 91 d9 26 	lds	r19, 0x26D9	; 0x8026d9 <wave_idx+0x1>
    2974:	2f 5f       	subi	r18, 0xFF	; 255
    2976:	3f 4f       	sbci	r19, 0xFF	; 255
    2978:	20 93 d8 26 	sts	0x26D8, r18	; 0x8026d8 <wave_idx>
    297c:	30 93 d9 26 	sts	0x26D9, r19	; 0x8026d9 <wave_idx+0x1>
	if(wave_idx == SAMPLES_PER_CYCLE)
    2980:	20 91 d8 26 	lds	r18, 0x26D8	; 0x8026d8 <wave_idx>
    2984:	30 91 d9 26 	lds	r19, 0x26D9	; 0x8026d9 <wave_idx+0x1>
    2988:	20 39       	cpi	r18, 0x90	; 144
    298a:	31 40       	sbci	r19, 0x01	; 1
    298c:	81 f4       	brne	.+32     	; 0x29ae <__vector_34+0x2e0>
	{
		wave_idx = 0;
    298e:	10 92 d8 26 	sts	0x26D8, r1	; 0x8026d8 <wave_idx>
    2992:	10 92 d9 26 	sts	0x26D9, r1	; 0x8026d9 <wave_idx+0x1>
		cycle_complete = 1;
    2996:	21 e0       	ldi	r18, 0x01	; 1
    2998:	20 93 66 2a 	sts	0x2A66, r18	; 0x802a66 <cycle_complete>
		if(relax_bits < RELAX_BITS) relax_bits++;
    299c:	20 91 67 26 	lds	r18, 0x2667	; 0x802667 <relax_bits>
    29a0:	21 11       	cpse	r18, r1
    29a2:	05 c0       	rjmp	.+10     	; 0x29ae <__vector_34+0x2e0>
    29a4:	20 91 67 26 	lds	r18, 0x2667	; 0x802667 <relax_bits>
    29a8:	2f 5f       	subi	r18, 0xFF	; 255
    29aa:	20 93 67 26 	sts	0x2667, r18	; 0x802667 <relax_bits>
	}
	
	signal_in = Value;
    29ae:	2b 81       	ldd	r18, Y+3	; 0x03
    29b0:	3c 81       	ldd	r19, Y+4	; 0x04
    29b2:	20 93 21 26 	sts	0x2621, r18	; 0x802621 <signal_in>
    29b6:	30 93 22 26 	sts	0x2622, r19	; 0x802622 <signal_in+0x1>
	signal_smoothed = (w >> EXTRA_BITS);	// "w" == previous CYCLE value.
    29ba:	92 95       	swap	r25
    29bc:	82 95       	swap	r24
    29be:	8f 70       	andi	r24, 0x0F	; 15
    29c0:	89 27       	eor	r24, r25
    29c2:	9f 70       	andi	r25, 0x0F	; 15
    29c4:	89 27       	eor	r24, r25
    29c6:	80 93 bd 26 	sts	0x26BD, r24	; 0x8026bd <signal_smoothed>
    29ca:	90 93 be 26 	sts	0x26BE, r25	; 0x8026be <signal_smoothed+0x1>

	data_available = 1;
    29ce:	81 e0       	ldi	r24, 0x01	; 1
    29d0:	80 93 ea 26 	sts	0x26EA, r24	; 0x8026ea <data_available>
}
    29d4:	26 96       	adiw	r28, 0x06	; 6
    29d6:	cd bf       	out	0x3d, r28	; 61
    29d8:	de bf       	out	0x3e, r29	; 62
    29da:	df 91       	pop	r29
    29dc:	cf 91       	pop	r28
    29de:	ff 91       	pop	r31
    29e0:	ef 91       	pop	r30
    29e2:	bf 91       	pop	r27
    29e4:	af 91       	pop	r26
    29e6:	9f 91       	pop	r25
    29e8:	8f 91       	pop	r24
    29ea:	7f 91       	pop	r23
    29ec:	6f 91       	pop	r22
    29ee:	5f 91       	pop	r21
    29f0:	4f 91       	pop	r20
    29f2:	3f 91       	pop	r19
    29f4:	2f 91       	pop	r18
    29f6:	1f 91       	pop	r17
    29f8:	0f 91       	pop	r16
    29fa:	0f 90       	pop	r0
    29fc:	0f be       	out	0x3f, r0	; 63
    29fe:	0f 90       	pop	r0
    2a00:	1f 90       	pop	r1
    2a02:	18 95       	reti

00002a04 <__vector_18>:

ISR(TCC5_OVF_vect)
//------------------------------------------------------------------------------
// Sampling Rate Adjustment
//------------------------------------------------------------------------------
{
    2a04:	1f 92       	push	r1
    2a06:	0f 92       	push	r0
    2a08:	0f b6       	in	r0, 0x3f	; 63
    2a0a:	0f 92       	push	r0
    2a0c:	11 24       	eor	r1, r1
	CalData.PerCnt = val >> 16;
	//	TCC5.PERBUF = CalData.PerCnt;
	TCC5.PERBUF =1333;					// Ideal sampling time for 400 points at 60Hz.
	TCC5.INTFLAGS = TC5_OVFIF_bm;
	*/
}
    2a0e:	0f 90       	pop	r0
    2a10:	0f be       	out	0x3f, r0	; 63
    2a12:	0f 90       	pop	r0
    2a14:	1f 90       	pop	r1
    2a16:	18 95       	reti

00002a18 <LCD_ClearDspl>:
// Put the "RETEST" message on the F3 window position.
//------------------------------------------------------------------------------
{
	SwapWindow();			// Save active window.
	WriteFunctionWindow("RETEST", WF3, STD);
	SwapWindow();
    2a18:	6f 92       	push	r6
    2a1a:	7f 92       	push	r7
    2a1c:	8f 92       	push	r8
    2a1e:	9f 92       	push	r9
    2a20:	af 92       	push	r10
    2a22:	bf 92       	push	r11
    2a24:	cf 92       	push	r12
    2a26:	df 92       	push	r13
    2a28:	ef 92       	push	r14
    2a2a:	ff 92       	push	r15
    2a2c:	0f 93       	push	r16
    2a2e:	1f 93       	push	r17
    2a30:	cf 93       	push	r28
    2a32:	df 93       	push	r29
    2a34:	0f 2e       	mov	r0, r31
    2a36:	f6 e8       	ldi	r31, 0x86	; 134
    2a38:	ef 2e       	mov	r14, r31
    2a3a:	fa e2       	ldi	r31, 0x2A	; 42
    2a3c:	ff 2e       	mov	r15, r31
    2a3e:	f0 2d       	mov	r31, r0
    2a40:	71 2c       	mov	r7, r1
    2a42:	c2 ee       	ldi	r28, 0xE2	; 226
    2a44:	d8 e0       	ldi	r29, 0x08	; 8
    2a46:	00 e4       	ldi	r16, 0x40	; 64
    2a48:	16 e0       	ldi	r17, 0x06	; 6
    2a4a:	68 94       	set
    2a4c:	88 24       	eor	r8, r8
    2a4e:	82 f8       	bld	r8, 2
    2a50:	99 24       	eor	r9, r9
    2a52:	93 94       	inc	r9
    2a54:	0f 2e       	mov	r0, r31
    2a56:	f3 ee       	ldi	r31, 0xE3	; 227
    2a58:	cf 2e       	mov	r12, r31
    2a5a:	f8 e0       	ldi	r31, 0x08	; 8
    2a5c:	df 2e       	mov	r13, r31
    2a5e:	f0 2d       	mov	r31, r0
    2a60:	68 94       	set
    2a62:	66 24       	eor	r6, r6
    2a64:	64 f8       	bld	r6, 4
    2a66:	87 2d       	mov	r24, r7
    2a68:	8f 70       	andi	r24, 0x0F	; 15
    2a6a:	80 6b       	ori	r24, 0xB0	; 176
    2a6c:	b8 2e       	mov	r11, r24
    2a6e:	0e 94 b6 39 	call	0x736c	; 0x736c <SetSPI_Mode3>
    2a72:	88 81       	ld	r24, Y
    2a74:	80 68       	ori	r24, 0x80	; 128
    2a76:	88 83       	st	Y, r24
    2a78:	f8 01       	movw	r30, r16
    2a7a:	86 82       	std	Z+6, r8	; 0x06
    2a7c:	96 82       	std	Z+6, r9	; 0x06
    2a7e:	f6 01       	movw	r30, r12
    2a80:	b0 82       	st	Z, r11
    2a82:	88 81       	ld	r24, Y
    2a84:	88 23       	and	r24, r24
    2a86:	ec f7       	brge	.-6      	; 0x2a82 <LCD_ClearDspl+0x6a>
    2a88:	f8 01       	movw	r30, r16
    2a8a:	95 82       	std	Z+5, r9	; 0x05
    2a8c:	0e 94 b6 39 	call	0x736c	; 0x736c <SetSPI_Mode3>
    2a90:	88 81       	ld	r24, Y
    2a92:	80 68       	ori	r24, 0x80	; 128
    2a94:	88 83       	st	Y, r24
    2a96:	f8 01       	movw	r30, r16
    2a98:	86 82       	std	Z+6, r8	; 0x06
    2a9a:	96 82       	std	Z+6, r9	; 0x06
    2a9c:	f6 01       	movw	r30, r12
    2a9e:	60 82       	st	Z, r6
    2aa0:	88 81       	ld	r24, Y
    2aa2:	88 23       	and	r24, r24
    2aa4:	ec f7       	brge	.-6      	; 0x2aa0 <LCD_ClearDspl+0x88>
    2aa6:	f8 01       	movw	r30, r16
    2aa8:	95 82       	std	Z+5, r9	; 0x05
    2aaa:	0e 94 b6 39 	call	0x736c	; 0x736c <SetSPI_Mode3>
    2aae:	88 81       	ld	r24, Y
    2ab0:	80 68       	ori	r24, 0x80	; 128
    2ab2:	88 83       	st	Y, r24
    2ab4:	f8 01       	movw	r30, r16
    2ab6:	86 82       	std	Z+6, r8	; 0x06
    2ab8:	96 82       	std	Z+6, r9	; 0x06
    2aba:	f6 01       	movw	r30, r12
    2abc:	80 82       	st	Z, r8
    2abe:	88 81       	ld	r24, Y
    2ac0:	88 23       	and	r24, r24
    2ac2:	ec f7       	brge	.-6      	; 0x2abe <LCD_ClearDspl+0xa6>
    2ac4:	f8 01       	movw	r30, r16
    2ac6:	95 82       	std	Z+5, r9	; 0x05
    2ac8:	57 01       	movw	r10, r14
    2aca:	f0 e8       	ldi	r31, 0x80	; 128
    2acc:	af 0e       	add	r10, r31
    2ace:	b1 1c       	adc	r11, r1
    2ad0:	f7 01       	movw	r30, r14
    2ad2:	11 92       	st	Z+, r1
    2ad4:	7f 01       	movw	r14, r30
    2ad6:	0e 94 b6 39 	call	0x736c	; 0x736c <SetSPI_Mode3>
    2ada:	88 81       	ld	r24, Y
    2adc:	80 68       	ori	r24, 0x80	; 128
    2ade:	88 83       	st	Y, r24
    2ae0:	f8 01       	movw	r30, r16
    2ae2:	85 82       	std	Z+5, r8	; 0x05
    2ae4:	96 82       	std	Z+6, r9	; 0x06
    2ae6:	f6 01       	movw	r30, r12
    2ae8:	10 82       	st	Z, r1
    2aea:	88 81       	ld	r24, Y
    2aec:	88 23       	and	r24, r24
    2aee:	ec f7       	brge	.-6      	; 0x2aea <LCD_ClearDspl+0xd2>
    2af0:	f8 01       	movw	r30, r16
    2af2:	95 82       	std	Z+5, r9	; 0x05
    2af4:	ea 14       	cp	r14, r10
    2af6:	fb 04       	cpc	r15, r11
    2af8:	59 f7       	brne	.-42     	; 0x2ad0 <LCD_ClearDspl+0xb8>
    2afa:	73 94       	inc	r7
    2afc:	75 01       	movw	r14, r10
    2afe:	f8 e0       	ldi	r31, 0x08	; 8
    2b00:	7f 12       	cpse	r7, r31
    2b02:	b1 cf       	rjmp	.-158    	; 0x2a66 <LCD_ClearDspl+0x4e>
    2b04:	df 91       	pop	r29
    2b06:	cf 91       	pop	r28
    2b08:	1f 91       	pop	r17
    2b0a:	0f 91       	pop	r16
    2b0c:	ff 90       	pop	r15
    2b0e:	ef 90       	pop	r14
    2b10:	df 90       	pop	r13
    2b12:	cf 90       	pop	r12
    2b14:	bf 90       	pop	r11
    2b16:	af 90       	pop	r10
    2b18:	9f 90       	pop	r9
    2b1a:	8f 90       	pop	r8
    2b1c:	7f 90       	pop	r7
    2b1e:	6f 90       	pop	r6
    2b20:	08 95       	ret

00002b22 <LCD_ClearWindow>:
    2b22:	2f 92       	push	r2
    2b24:	3f 92       	push	r3
    2b26:	4f 92       	push	r4
    2b28:	5f 92       	push	r5
    2b2a:	6f 92       	push	r6
    2b2c:	7f 92       	push	r7
    2b2e:	8f 92       	push	r8
    2b30:	9f 92       	push	r9
    2b32:	af 92       	push	r10
    2b34:	bf 92       	push	r11
    2b36:	cf 92       	push	r12
    2b38:	df 92       	push	r13
    2b3a:	ef 92       	push	r14
    2b3c:	ff 92       	push	r15
    2b3e:	0f 93       	push	r16
    2b40:	1f 93       	push	r17
    2b42:	cf 93       	push	r28
    2b44:	df 93       	push	r29
    2b46:	cd b7       	in	r28, 0x3d	; 61
    2b48:	de b7       	in	r29, 0x3e	; 62
    2b4a:	67 97       	sbiw	r28, 0x17	; 23
    2b4c:	cd bf       	out	0x3d, r28	; 61
    2b4e:	de bf       	out	0x3e, r29	; 62
    2b50:	21 e0       	ldi	r18, 0x01	; 1
    2b52:	90 e0       	ldi	r25, 0x00	; 0
    2b54:	81 11       	cpse	r24, r1
    2b56:	20 e0       	ldi	r18, 0x00	; 0
    2b58:	42 2f       	mov	r20, r18
    2b5a:	59 2f       	mov	r21, r25
    2b5c:	ce 01       	movw	r24, r28
    2b5e:	41 96       	adiw	r24, 0x11	; 17
    2b60:	fe 01       	movw	r30, r28
    2b62:	31 96       	adiw	r30, 0x01	; 1
    2b64:	11 92       	st	Z+, r1
    2b66:	11 92       	st	Z+, r1
    2b68:	8e 17       	cp	r24, r30
    2b6a:	9f 07       	cpc	r25, r31
    2b6c:	d9 f7       	brne	.-10     	; 0x2b64 <LCD_ClearWindow+0x42>
    2b6e:	ea ed       	ldi	r30, 0xDA	; 218
    2b70:	f6 e2       	ldi	r31, 0x26	; 38
    2b72:	a4 81       	ldd	r26, Z+4	; 0x04
    2b74:	b5 81       	ldd	r27, Z+5	; 0x05
    2b76:	cd 01       	movw	r24, r26
    2b78:	84 0f       	add	r24, r20
    2b7a:	95 1f       	adc	r25, r21
    2b7c:	20 85       	ldd	r18, Z+8	; 0x08
    2b7e:	31 85       	ldd	r19, Z+9	; 0x09
    2b80:	a2 0f       	add	r26, r18
    2b82:	b3 1f       	adc	r27, r19
    2b84:	a4 1b       	sub	r26, r20
    2b86:	b5 0b       	sbc	r27, r21
    2b88:	8a 17       	cp	r24, r26
    2b8a:	9b 07       	cpc	r25, r27
    2b8c:	20 f5       	brcc	.+72     	; 0x2bd6 <LCD_ClearWindow+0xb4>
    2b8e:	01 e0       	ldi	r16, 0x01	; 1
    2b90:	10 e0       	ldi	r17, 0x00	; 0
    2b92:	fc 01       	movw	r30, r24
    2b94:	f6 95       	lsr	r31
    2b96:	e7 95       	ror	r30
    2b98:	f6 95       	lsr	r31
    2b9a:	e7 95       	ror	r30
    2b9c:	f6 95       	lsr	r31
    2b9e:	e7 95       	ror	r30
    2ba0:	ee 0f       	add	r30, r30
    2ba2:	ff 1f       	adc	r31, r31
    2ba4:	21 e0       	ldi	r18, 0x01	; 1
    2ba6:	30 e0       	ldi	r19, 0x00	; 0
    2ba8:	2c 0f       	add	r18, r28
    2baa:	3d 1f       	adc	r19, r29
    2bac:	e2 0f       	add	r30, r18
    2bae:	f3 1f       	adc	r31, r19
    2bb0:	9c 01       	movw	r18, r24
    2bb2:	27 70       	andi	r18, 0x07	; 7
    2bb4:	33 27       	eor	r19, r19
    2bb6:	78 01       	movw	r14, r16
    2bb8:	02 c0       	rjmp	.+4      	; 0x2bbe <LCD_ClearWindow+0x9c>
    2bba:	ee 0c       	add	r14, r14
    2bbc:	ff 1c       	adc	r15, r15
    2bbe:	2a 95       	dec	r18
    2bc0:	e2 f7       	brpl	.-8      	; 0x2bba <LCD_ClearWindow+0x98>
    2bc2:	20 81       	ld	r18, Z
    2bc4:	31 81       	ldd	r19, Z+1	; 0x01
    2bc6:	2e 29       	or	r18, r14
    2bc8:	3f 29       	or	r19, r15
    2bca:	20 83       	st	Z, r18
    2bcc:	31 83       	std	Z+1, r19	; 0x01
    2bce:	01 96       	adiw	r24, 0x01	; 1
    2bd0:	a8 17       	cp	r26, r24
    2bd2:	b9 07       	cpc	r27, r25
    2bd4:	f1 f6       	brne	.-68     	; 0x2b92 <LCD_ClearWindow+0x70>
    2bd6:	ea ed       	ldi	r30, 0xDA	; 218
    2bd8:	f6 e2       	ldi	r31, 0x26	; 38
    2bda:	22 81       	ldd	r18, Z+2	; 0x02
    2bdc:	33 81       	ldd	r19, Z+3	; 0x03
    2bde:	c9 01       	movw	r24, r18
    2be0:	84 0f       	add	r24, r20
    2be2:	95 1f       	adc	r25, r21
    2be4:	89 8b       	std	Y+17, r24	; 0x11
    2be6:	9a 8b       	std	Y+18, r25	; 0x12
    2be8:	86 81       	ldd	r24, Z+6	; 0x06
    2bea:	97 81       	ldd	r25, Z+7	; 0x07
    2bec:	82 0f       	add	r24, r18
    2bee:	93 1f       	adc	r25, r19
    2bf0:	fc 01       	movw	r30, r24
    2bf2:	e4 1b       	sub	r30, r20
    2bf4:	f5 0b       	sbc	r31, r21
    2bf6:	ee 8b       	std	Y+22, r30	; 0x16
    2bf8:	ff 8b       	std	Y+23, r31	; 0x17
    2bfa:	29 89       	ldd	r18, Y+17	; 0x11
    2bfc:	3a 89       	ldd	r19, Y+18	; 0x12
    2bfe:	2e 17       	cp	r18, r30
    2c00:	3f 07       	cpc	r19, r31
    2c02:	08 f4       	brcc	.+2      	; 0x2c06 <LCD_ClearWindow+0xe4>
    2c04:	75 c0       	rjmp	.+234    	; 0x2cf0 <LCD_ClearWindow+0x1ce>
    2c06:	9c c0       	rjmp	.+312    	; 0x2d40 <LCD_ClearWindow+0x21e>
    2c08:	f4 01       	movw	r30, r8
    2c0a:	c1 90       	ld	r12, Z+
    2c0c:	d1 90       	ld	r13, Z+
    2c0e:	4f 01       	movw	r8, r30
    2c10:	c1 14       	cp	r12, r1
    2c12:	d1 04       	cpc	r13, r1
    2c14:	09 f4       	brne	.+2      	; 0x2c18 <LCD_ClearWindow+0xf6>
    2c16:	5a c0       	rjmp	.+180    	; 0x2ccc <LCD_ClearWindow+0x1aa>
    2c18:	0e 94 b6 39 	call	0x736c	; 0x736c <SetSPI_Mode3>
    2c1c:	f8 01       	movw	r30, r16
    2c1e:	80 81       	ld	r24, Z
    2c20:	80 68       	ori	r24, 0x80	; 128
    2c22:	80 83       	st	Z, r24
    2c24:	f7 01       	movw	r30, r14
    2c26:	36 82       	std	Z+6, r3	; 0x06
    2c28:	46 82       	std	Z+6, r4	; 0x06
    2c2a:	2c 89       	ldd	r18, Y+20	; 0x14
    2c2c:	f3 01       	movw	r30, r6
    2c2e:	20 83       	st	Z, r18
    2c30:	f8 01       	movw	r30, r16
    2c32:	80 81       	ld	r24, Z
    2c34:	88 23       	and	r24, r24
    2c36:	e4 f7       	brge	.-8      	; 0x2c30 <LCD_ClearWindow+0x10e>
    2c38:	f7 01       	movw	r30, r14
    2c3a:	45 82       	std	Z+5, r4	; 0x05
    2c3c:	0e 94 b6 39 	call	0x736c	; 0x736c <SetSPI_Mode3>
    2c40:	f8 01       	movw	r30, r16
    2c42:	80 81       	ld	r24, Z
    2c44:	80 68       	ori	r24, 0x80	; 128
    2c46:	80 83       	st	Z, r24
    2c48:	f7 01       	movw	r30, r14
    2c4a:	36 82       	std	Z+6, r3	; 0x06
    2c4c:	46 82       	std	Z+6, r4	; 0x06
    2c4e:	2d 89       	ldd	r18, Y+21	; 0x15
    2c50:	f3 01       	movw	r30, r6
    2c52:	20 83       	st	Z, r18
    2c54:	f8 01       	movw	r30, r16
    2c56:	80 81       	ld	r24, Z
    2c58:	88 23       	and	r24, r24
    2c5a:	e4 f7       	brge	.-8      	; 0x2c54 <LCD_ClearWindow+0x132>
    2c5c:	f7 01       	movw	r30, r14
    2c5e:	45 82       	std	Z+5, r4	; 0x05
    2c60:	85 2d       	mov	r24, r5
    2c62:	8f 70       	andi	r24, 0x0F	; 15
    2c64:	80 6b       	ori	r24, 0xB0	; 176
    2c66:	8b 8b       	std	Y+19, r24	; 0x13
    2c68:	0e 94 b6 39 	call	0x736c	; 0x736c <SetSPI_Mode3>
    2c6c:	f8 01       	movw	r30, r16
    2c6e:	80 81       	ld	r24, Z
    2c70:	80 68       	ori	r24, 0x80	; 128
    2c72:	80 83       	st	Z, r24
    2c74:	f7 01       	movw	r30, r14
    2c76:	36 82       	std	Z+6, r3	; 0x06
    2c78:	46 82       	std	Z+6, r4	; 0x06
    2c7a:	2b 89       	ldd	r18, Y+19	; 0x13
    2c7c:	f3 01       	movw	r30, r6
    2c7e:	20 83       	st	Z, r18
    2c80:	f8 01       	movw	r30, r16
    2c82:	80 81       	ld	r24, Z
    2c84:	88 23       	and	r24, r24
    2c86:	e4 f7       	brge	.-8      	; 0x2c80 <LCD_ClearWindow+0x15e>
    2c88:	f7 01       	movw	r30, r14
    2c8a:	45 82       	std	Z+5, r4	; 0x05
    2c8c:	21 10       	cpse	r2, r1
    2c8e:	07 c0       	rjmp	.+14     	; 0x2c9e <LCD_ClearWindow+0x17c>
    2c90:	c0 94       	com	r12
    2c92:	d0 94       	com	r13
    2c94:	f5 01       	movw	r30, r10
    2c96:	80 81       	ld	r24, Z
    2c98:	c8 22       	and	r12, r24
    2c9a:	c0 82       	st	Z, r12
    2c9c:	04 c0       	rjmp	.+8      	; 0x2ca6 <LCD_ClearWindow+0x184>
    2c9e:	f5 01       	movw	r30, r10
    2ca0:	80 81       	ld	r24, Z
    2ca2:	c8 2a       	or	r12, r24
    2ca4:	c0 82       	st	Z, r12
    2ca6:	f5 01       	movw	r30, r10
    2ca8:	d0 80       	ld	r13, Z
    2caa:	0e 94 b6 39 	call	0x736c	; 0x736c <SetSPI_Mode3>
    2cae:	f8 01       	movw	r30, r16
    2cb0:	80 81       	ld	r24, Z
    2cb2:	80 68       	ori	r24, 0x80	; 128
    2cb4:	80 83       	st	Z, r24
    2cb6:	f7 01       	movw	r30, r14
    2cb8:	35 82       	std	Z+5, r3	; 0x05
    2cba:	46 82       	std	Z+6, r4	; 0x06
    2cbc:	f3 01       	movw	r30, r6
    2cbe:	d0 82       	st	Z, r13
    2cc0:	f8 01       	movw	r30, r16
    2cc2:	80 81       	ld	r24, Z
    2cc4:	88 23       	and	r24, r24
    2cc6:	e4 f7       	brge	.-8      	; 0x2cc0 <LCD_ClearWindow+0x19e>
    2cc8:	f7 01       	movw	r30, r14
    2cca:	45 82       	std	Z+5, r4	; 0x05
    2ccc:	f0 e8       	ldi	r31, 0x80	; 128
    2cce:	af 0e       	add	r10, r31
    2cd0:	b1 1c       	adc	r11, r1
    2cd2:	53 94       	inc	r5
    2cd4:	28 e0       	ldi	r18, 0x08	; 8
    2cd6:	52 12       	cpse	r5, r18
    2cd8:	97 cf       	rjmp	.-210    	; 0x2c08 <LCD_ClearWindow+0xe6>
    2cda:	89 89       	ldd	r24, Y+17	; 0x11
    2cdc:	9a 89       	ldd	r25, Y+18	; 0x12
    2cde:	01 96       	adiw	r24, 0x01	; 1
    2ce0:	89 8b       	std	Y+17, r24	; 0x11
    2ce2:	9a 8b       	std	Y+18, r25	; 0x12
    2ce4:	ee 89       	ldd	r30, Y+22	; 0x16
    2ce6:	ff 89       	ldd	r31, Y+23	; 0x17
    2ce8:	8e 17       	cp	r24, r30
    2cea:	9f 07       	cpc	r25, r31
    2cec:	a8 f0       	brcs	.+42     	; 0x2d18 <LCD_ClearWindow+0x1f6>
    2cee:	28 c0       	rjmp	.+80     	; 0x2d40 <LCD_ClearWindow+0x21e>
    2cf0:	26 2e       	mov	r2, r22
    2cf2:	02 ee       	ldi	r16, 0xE2	; 226
    2cf4:	18 e0       	ldi	r17, 0x08	; 8
    2cf6:	0f 2e       	mov	r0, r31
    2cf8:	f0 e4       	ldi	r31, 0x40	; 64
    2cfa:	ef 2e       	mov	r14, r31
    2cfc:	f6 e0       	ldi	r31, 0x06	; 6
    2cfe:	ff 2e       	mov	r15, r31
    2d00:	f0 2d       	mov	r31, r0
    2d02:	68 94       	set
    2d04:	33 24       	eor	r3, r3
    2d06:	32 f8       	bld	r3, 2
    2d08:	44 24       	eor	r4, r4
    2d0a:	43 94       	inc	r4
    2d0c:	0f 2e       	mov	r0, r31
    2d0e:	f3 ee       	ldi	r31, 0xE3	; 227
    2d10:	6f 2e       	mov	r6, r31
    2d12:	f8 e0       	ldi	r31, 0x08	; 8
    2d14:	7f 2e       	mov	r7, r31
    2d16:	f0 2d       	mov	r31, r0
    2d18:	89 89       	ldd	r24, Y+17	; 0x11
    2d1a:	8f 77       	andi	r24, 0x7F	; 127
    2d1c:	8c 5f       	subi	r24, 0xFC	; 252
    2d1e:	98 2f       	mov	r25, r24
    2d20:	92 95       	swap	r25
    2d22:	9f 70       	andi	r25, 0x0F	; 15
    2d24:	90 61       	ori	r25, 0x10	; 16
    2d26:	9c 8b       	std	Y+20, r25	; 0x14
    2d28:	29 89       	ldd	r18, Y+17	; 0x11
    2d2a:	3a 89       	ldd	r19, Y+18	; 0x12
    2d2c:	2a 57       	subi	r18, 0x7A	; 122
    2d2e:	35 4d       	sbci	r19, 0xD5	; 213
    2d30:	59 01       	movw	r10, r18
    2d32:	fe 01       	movw	r30, r28
    2d34:	31 96       	adiw	r30, 0x01	; 1
    2d36:	4f 01       	movw	r8, r30
    2d38:	51 2c       	mov	r5, r1
    2d3a:	8f 70       	andi	r24, 0x0F	; 15
    2d3c:	8d 8b       	std	Y+21, r24	; 0x15
    2d3e:	64 cf       	rjmp	.-312    	; 0x2c08 <LCD_ClearWindow+0xe6>
    2d40:	67 96       	adiw	r28, 0x17	; 23
    2d42:	cd bf       	out	0x3d, r28	; 61
    2d44:	de bf       	out	0x3e, r29	; 62
    2d46:	df 91       	pop	r29
    2d48:	cf 91       	pop	r28
    2d4a:	1f 91       	pop	r17
    2d4c:	0f 91       	pop	r16
    2d4e:	ff 90       	pop	r15
    2d50:	ef 90       	pop	r14
    2d52:	df 90       	pop	r13
    2d54:	cf 90       	pop	r12
    2d56:	bf 90       	pop	r11
    2d58:	af 90       	pop	r10
    2d5a:	9f 90       	pop	r9
    2d5c:	8f 90       	pop	r8
    2d5e:	7f 90       	pop	r7
    2d60:	6f 90       	pop	r6
    2d62:	5f 90       	pop	r5
    2d64:	4f 90       	pop	r4
    2d66:	3f 90       	pop	r3
    2d68:	2f 90       	pop	r2
    2d6a:	08 95       	ret

00002d6c <LCD_PutCharacter>:
    2d6c:	2f 92       	push	r2
    2d6e:	3f 92       	push	r3
    2d70:	4f 92       	push	r4
    2d72:	5f 92       	push	r5
    2d74:	6f 92       	push	r6
    2d76:	7f 92       	push	r7
    2d78:	8f 92       	push	r8
    2d7a:	9f 92       	push	r9
    2d7c:	af 92       	push	r10
    2d7e:	bf 92       	push	r11
    2d80:	cf 92       	push	r12
    2d82:	df 92       	push	r13
    2d84:	ef 92       	push	r14
    2d86:	ff 92       	push	r15
    2d88:	0f 93       	push	r16
    2d8a:	1f 93       	push	r17
    2d8c:	cf 93       	push	r28
    2d8e:	df 93       	push	r29
    2d90:	cd b7       	in	r28, 0x3d	; 61
    2d92:	de b7       	in	r29, 0x3e	; 62
    2d94:	ed 97       	sbiw	r28, 0x3d	; 61
    2d96:	cd bf       	out	0x3d, r28	; 61
    2d98:	de bf       	out	0x3e, r29	; 62
    2d9a:	fb 01       	movw	r30, r22
    2d9c:	ee 0f       	add	r30, r30
    2d9e:	ff 1f       	adc	r31, r31
    2da0:	ee 0f       	add	r30, r30
    2da2:	ff 1f       	adc	r31, r31
    2da4:	e6 0f       	add	r30, r22
    2da6:	f7 1f       	adc	r31, r23
    2da8:	ec 5e       	subi	r30, 0xEC	; 236
    2daa:	ff 4d       	sbci	r31, 0xDF	; 223
    2dac:	a4 81       	ldd	r26, Z+4	; 0x04
    2dae:	ea 2e       	mov	r14, r26
    2db0:	f1 2c       	mov	r15, r1
    2db2:	ed a6       	std	Y+45, r14	; 0x2d
    2db4:	fe a6       	std	Y+46, r15	; 0x2e
    2db6:	a0 81       	ld	r26, Z
    2db8:	b1 81       	ldd	r27, Z+1	; 0x01
    2dba:	64 30       	cpi	r22, 0x04	; 4
    2dbc:	71 05       	cpc	r23, r1
    2dbe:	31 f0       	breq	.+12     	; 0x2dcc <LCD_PutCharacter+0x60>
    2dc0:	62 30       	cpi	r22, 0x02	; 2
    2dc2:	71 05       	cpc	r23, r1
    2dc4:	21 f5       	brne	.+72     	; 0x2e0e <LCD_PutCharacter+0xa2>
    2dc6:	e6 e0       	ldi	r30, 0x06	; 6
    2dc8:	e9 af       	std	Y+57, r30	; 0x39
    2dca:	02 c0       	rjmp	.+4      	; 0x2dd0 <LCD_PutCharacter+0x64>
    2dcc:	f4 e0       	ldi	r31, 0x04	; 4
    2dce:	f9 af       	std	Y+57, r31	; 0x39
    2dd0:	fc 01       	movw	r30, r24
    2dd2:	80 81       	ld	r24, Z
    2dd4:	90 e0       	ldi	r25, 0x00	; 0
    2dd6:	80 97       	sbiw	r24, 0x20	; 32
    2dd8:	d9 ac       	ldd	r13, Y+57	; 0x39
    2dda:	ed a4       	ldd	r14, Y+45	; 0x2d
    2ddc:	fe a4       	ldd	r15, Y+46	; 0x2e
    2dde:	de 9c       	mul	r13, r14
    2de0:	f0 01       	movw	r30, r0
    2de2:	df 9c       	mul	r13, r15
    2de4:	f0 0d       	add	r31, r0
    2de6:	11 24       	eor	r1, r1
    2de8:	f6 95       	lsr	r31
    2dea:	e7 95       	ror	r30
    2dec:	f6 95       	lsr	r31
    2dee:	e7 95       	ror	r30
    2df0:	f6 95       	lsr	r31
    2df2:	e7 95       	ror	r30
    2df4:	8e 9f       	mul	r24, r30
    2df6:	70 01       	movw	r14, r0
    2df8:	8f 9f       	mul	r24, r31
    2dfa:	f0 0c       	add	r15, r0
    2dfc:	9e 9f       	mul	r25, r30
    2dfe:	f0 0c       	add	r15, r0
    2e00:	11 24       	eor	r1, r1
    2e02:	cd 01       	movw	r24, r26
    2e04:	8e 0d       	add	r24, r14
    2e06:	9f 1d       	adc	r25, r15
    2e08:	8f ab       	std	Y+55, r24	; 0x37
    2e0a:	98 af       	std	Y+56, r25	; 0x38
    2e0c:	62 c0       	rjmp	.+196    	; 0x2ed2 <LCD_PutCharacter+0x166>
    2e0e:	63 30       	cpi	r22, 0x03	; 3
    2e10:	71 05       	cpc	r23, r1
    2e12:	01 f5       	brne	.+64     	; 0x2e54 <LCD_PutCharacter+0xe8>
    2e14:	fc 01       	movw	r30, r24
    2e16:	80 81       	ld	r24, Z
    2e18:	90 e0       	ldi	r25, 0x00	; 0
    2e1a:	80 97       	sbiw	r24, 0x20	; 32
    2e1c:	fc 01       	movw	r30, r24
    2e1e:	ee 0f       	add	r30, r30
    2e20:	ff 1f       	adc	r31, r31
    2e22:	ee 0f       	add	r30, r30
    2e24:	ff 1f       	adc	r31, r31
    2e26:	8e 0f       	add	r24, r30
    2e28:	9f 1f       	adc	r25, r31
    2e2a:	7d 01       	movw	r14, r26
    2e2c:	e8 0e       	add	r14, r24
    2e2e:	f9 1e       	adc	r15, r25
    2e30:	ef aa       	std	Y+55, r14	; 0x37
    2e32:	f8 ae       	std	Y+56, r15	; 0x38
    2e34:	80 91 dc 26 	lds	r24, 0x26DC	; 0x8026dc <Window+0x2>
    2e38:	90 91 dd 26 	lds	r25, 0x26DD	; 0x8026dd <Window+0x3>
    2e3c:	7a 01       	movw	r14, r20
    2e3e:	e8 0e       	add	r14, r24
    2e40:	f9 1e       	adc	r15, r25
    2e42:	eb a6       	std	Y+43, r14	; 0x2b
    2e44:	fc a6       	std	Y+44, r15	; 0x2c
    2e46:	45 e0       	ldi	r20, 0x05	; 5
    2e48:	50 e0       	ldi	r21, 0x00	; 0
    2e4a:	4f a7       	std	Y+47, r20	; 0x2f
    2e4c:	58 ab       	std	Y+48, r21	; 0x30
    2e4e:	55 e0       	ldi	r21, 0x05	; 5
    2e50:	59 af       	std	Y+57, r21	; 0x39
    2e52:	25 c2       	rjmp	.+1098   	; 0x329e <__stack+0x29f>
    2e54:	65 30       	cpi	r22, 0x05	; 5
    2e56:	71 05       	cpc	r23, r1
    2e58:	e1 f4       	brne	.+56     	; 0x2e92 <LCD_PutCharacter+0x126>
    2e5a:	fc 01       	movw	r30, r24
    2e5c:	80 81       	ld	r24, Z
    2e5e:	90 e0       	ldi	r25, 0x00	; 0
    2e60:	8f 35       	cpi	r24, 0x5F	; 95
    2e62:	91 05       	cpc	r25, r1
    2e64:	10 f0       	brcs	.+4      	; 0x2e6a <LCD_PutCharacter+0xfe>
    2e66:	8f e3       	ldi	r24, 0x3F	; 63
    2e68:	90 e0       	ldi	r25, 0x00	; 0
    2e6a:	fc 01       	movw	r30, r24
    2e6c:	ee 0f       	add	r30, r30
    2e6e:	ff 1f       	adc	r31, r31
    2e70:	ee 0f       	add	r30, r30
    2e72:	ff 1f       	adc	r31, r31
    2e74:	ee 0f       	add	r30, r30
    2e76:	ff 1f       	adc	r31, r31
    2e78:	e8 1b       	sub	r30, r24
    2e7a:	f9 0b       	sbc	r31, r25
    2e7c:	e0 5e       	subi	r30, 0xE0	; 224
    2e7e:	f1 09       	sbc	r31, r1
    2e80:	ea 0f       	add	r30, r26
    2e82:	fb 1f       	adc	r31, r27
    2e84:	d4 90       	lpm	r13, Z
    2e86:	d9 ae       	std	Y+57, r13	; 0x39
    2e88:	cf 01       	movw	r24, r30
    2e8a:	01 96       	adiw	r24, 0x01	; 1
    2e8c:	8f ab       	std	Y+55, r24	; 0x37
    2e8e:	98 af       	std	Y+56, r25	; 0x38
    2e90:	20 c0       	rjmp	.+64     	; 0x2ed2 <LCD_PutCharacter+0x166>
    2e92:	fb 01       	movw	r30, r22
    2e94:	ee 0f       	add	r30, r30
    2e96:	ff 1f       	adc	r31, r31
    2e98:	ee 0f       	add	r30, r30
    2e9a:	ff 1f       	adc	r31, r31
    2e9c:	e6 0f       	add	r30, r22
    2e9e:	f7 1f       	adc	r31, r23
    2ea0:	ec 5e       	subi	r30, 0xEC	; 236
    2ea2:	ff 4d       	sbci	r31, 0xDF	; 223
    2ea4:	e2 80       	ldd	r14, Z+2	; 0x02
    2ea6:	f3 80       	ldd	r15, Z+3	; 0x03
    2ea8:	fc 01       	movw	r30, r24
    2eaa:	80 81       	ld	r24, Z
    2eac:	90 e0       	ldi	r25, 0x00	; 0
    2eae:	80 52       	subi	r24, 0x20	; 32
    2eb0:	90 48       	sbci	r25, 0x80	; 128
    2eb2:	88 0f       	add	r24, r24
    2eb4:	99 1f       	adc	r25, r25
    2eb6:	f7 01       	movw	r30, r14
    2eb8:	e8 0f       	add	r30, r24
    2eba:	f9 1f       	adc	r31, r25
    2ebc:	85 91       	lpm	r24, Z+
    2ebe:	94 91       	lpm	r25, Z
    2ec0:	fd 01       	movw	r30, r26
    2ec2:	e8 0f       	add	r30, r24
    2ec4:	f9 1f       	adc	r31, r25
    2ec6:	d4 90       	lpm	r13, Z
    2ec8:	d9 ae       	std	Y+57, r13	; 0x39
    2eca:	cf 01       	movw	r24, r30
    2ecc:	01 96       	adiw	r24, 0x01	; 1
    2ece:	8f ab       	std	Y+55, r24	; 0x37
    2ed0:	98 af       	std	Y+56, r25	; 0x38
    2ed2:	80 91 dc 26 	lds	r24, 0x26DC	; 0x8026dc <Window+0x2>
    2ed6:	90 91 dd 26 	lds	r25, 0x26DD	; 0x8026dd <Window+0x3>
    2eda:	7a 01       	movw	r14, r20
    2edc:	e8 0e       	add	r14, r24
    2ede:	f9 1e       	adc	r15, r25
    2ee0:	eb a6       	std	Y+43, r14	; 0x2b
    2ee2:	fc a6       	std	Y+44, r15	; 0x2c
    2ee4:	f9 ac       	ldd	r15, Y+57	; 0x39
    2ee6:	ef 2c       	mov	r14, r15
    2ee8:	f1 2c       	mov	r15, r1
    2eea:	ef a6       	std	Y+47, r14	; 0x2f
    2eec:	f8 aa       	std	Y+48, r15	; 0x30
    2eee:	ef 28       	or	r14, r15
    2ef0:	09 f0       	breq	.+2      	; 0x2ef4 <LCD_PutCharacter+0x188>
    2ef2:	d5 c1       	rjmp	.+938    	; 0x329e <__stack+0x29f>
    2ef4:	08 c2       	rjmp	.+1040   	; 0x3306 <__stack+0x307>
    2ef6:	11 92       	st	Z+, r1
    2ef8:	11 92       	st	Z+, r1
    2efa:	8e 17       	cp	r24, r30
    2efc:	9f 07       	cpc	r25, r31
    2efe:	d9 f7       	brne	.-10     	; 0x2ef6 <LCD_PutCharacter+0x18a>
    2f00:	a0 90 de 26 	lds	r10, 0x26DE	; 0x8026de <Window+0x4>
    2f04:	b0 90 df 26 	lds	r11, 0x26DF	; 0x8026df <Window+0x5>
    2f08:	c9 a8       	ldd	r12, Y+49	; 0x31
    2f0a:	da a8       	ldd	r13, Y+50	; 0x32
    2f0c:	ca 0c       	add	r12, r10
    2f0e:	db 1c       	adc	r13, r11
    2f10:	c6 01       	movw	r24, r12
    2f12:	0b a9       	ldd	r16, Y+51	; 0x33
    2f14:	1c a9       	ldd	r17, Y+52	; 0x34
    2f16:	03 30       	cpi	r16, 0x03	; 3
    2f18:	11 05       	cpc	r17, r1
    2f1a:	a9 f0       	breq	.+42     	; 0x2f46 <LCD_PutCharacter+0x1da>
    2f1c:	05 30       	cpi	r16, 0x05	; 5
    2f1e:	11 05       	cpc	r17, r1
    2f20:	91 f0       	breq	.+36     	; 0x2f46 <LCD_PutCharacter+0x1da>
    2f22:	ef a4       	ldd	r14, Y+47	; 0x2f
    2f24:	f8 a8       	ldd	r15, Y+48	; 0x30
    2f26:	2d a5       	ldd	r18, Y+45	; 0x2d
    2f28:	3e a5       	ldd	r19, Y+46	; 0x2e
    2f2a:	e2 9e       	mul	r14, r18
    2f2c:	80 01       	movw	r16, r0
    2f2e:	e3 9e       	mul	r14, r19
    2f30:	10 0d       	add	r17, r0
    2f32:	f2 9e       	mul	r15, r18
    2f34:	10 0d       	add	r17, r0
    2f36:	11 24       	eor	r1, r1
    2f38:	e9 a4       	ldd	r14, Y+41	; 0x29
    2f3a:	fa a4       	ldd	r15, Y+42	; 0x2a
    2f3c:	e0 16       	cp	r14, r16
    2f3e:	f1 06       	cpc	r15, r17
    2f40:	08 f4       	brcc	.+2      	; 0x2f44 <LCD_PutCharacter+0x1d8>
    2f42:	4b c0       	rjmp	.+150    	; 0x2fda <LCD_PutCharacter+0x26e>
    2f44:	95 c0       	rjmp	.+298    	; 0x3070 <__stack+0x71>
    2f46:	0f a5       	ldd	r16, Y+47	; 0x2f
    2f48:	18 a9       	ldd	r17, Y+48	; 0x30
    2f4a:	e9 a4       	ldd	r14, Y+41	; 0x29
    2f4c:	fa a4       	ldd	r15, Y+42	; 0x2a
    2f4e:	e0 16       	cp	r14, r16
    2f50:	f1 06       	cpc	r15, r17
    2f52:	08 f0       	brcs	.+2      	; 0x2f56 <LCD_PutCharacter+0x1ea>
    2f54:	89 c0       	rjmp	.+274    	; 0x3068 <__stack+0x69>
    2f56:	ef a9       	ldd	r30, Y+55	; 0x37
    2f58:	f8 ad       	ldd	r31, Y+56	; 0x38
    2f5a:	ee 0d       	add	r30, r14
    2f5c:	ff 1d       	adc	r31, r15
    2f5e:	e4 91       	lpm	r30, Z
    2f60:	ae 2f       	mov	r26, r30
    2f62:	b0 e0       	ldi	r27, 0x00	; 0
    2f64:	20 e0       	ldi	r18, 0x00	; 0
    2f66:	30 e0       	ldi	r19, 0x00	; 0
    2f68:	ea ac       	ldd	r14, Y+58	; 0x3a
    2f6a:	fb ac       	ldd	r15, Y+59	; 0x3b
    2f6c:	6c ad       	ldd	r22, Y+60	; 0x3c
    2f6e:	7d ad       	ldd	r23, Y+61	; 0x3d
    2f70:	ac 01       	movw	r20, r24
    2f72:	42 0f       	add	r20, r18
    2f74:	53 1f       	adc	r21, r19
    2f76:	fb 01       	movw	r30, r22
    2f78:	02 2e       	mov	r0, r18
    2f7a:	02 c0       	rjmp	.+4      	; 0x2f80 <LCD_PutCharacter+0x214>
    2f7c:	ee 0f       	add	r30, r30
    2f7e:	ff 1f       	adc	r31, r31
    2f80:	0a 94       	dec	r0
    2f82:	e2 f7       	brpl	.-8      	; 0x2f7c <LCD_PutCharacter+0x210>
    2f84:	ea 23       	and	r30, r26
    2f86:	fb 23       	and	r31, r27
    2f88:	ef 2b       	or	r30, r31
    2f8a:	e9 f0       	breq	.+58     	; 0x2fc6 <LCD_PutCharacter+0x25a>
    2f8c:	fa 01       	movw	r30, r20
    2f8e:	f6 95       	lsr	r31
    2f90:	e7 95       	ror	r30
    2f92:	f6 95       	lsr	r31
    2f94:	e7 95       	ror	r30
    2f96:	f6 95       	lsr	r31
    2f98:	e7 95       	ror	r30
    2f9a:	ee 0f       	add	r30, r30
    2f9c:	ff 1f       	adc	r31, r31
    2f9e:	01 e0       	ldi	r16, 0x01	; 1
    2fa0:	10 e0       	ldi	r17, 0x00	; 0
    2fa2:	0c 0f       	add	r16, r28
    2fa4:	1d 1f       	adc	r17, r29
    2fa6:	e0 0f       	add	r30, r16
    2fa8:	f1 1f       	adc	r31, r17
    2faa:	47 70       	andi	r20, 0x07	; 7
    2fac:	55 27       	eor	r21, r21
    2fae:	81 01       	movw	r16, r2
    2fb0:	02 c0       	rjmp	.+4      	; 0x2fb6 <LCD_PutCharacter+0x24a>
    2fb2:	00 0f       	add	r16, r16
    2fb4:	11 1f       	adc	r17, r17
    2fb6:	4a 95       	dec	r20
    2fb8:	e2 f7       	brpl	.-8      	; 0x2fb2 <LCD_PutCharacter+0x246>
    2fba:	40 81       	ld	r20, Z
    2fbc:	51 81       	ldd	r21, Z+1	; 0x01
    2fbe:	40 2b       	or	r20, r16
    2fc0:	51 2b       	or	r21, r17
    2fc2:	40 83       	st	Z, r20
    2fc4:	51 83       	std	Z+1, r21	; 0x01
    2fc6:	2f 5f       	subi	r18, 0xFF	; 255
    2fc8:	3f 4f       	sbci	r19, 0xFF	; 255
    2fca:	2e 15       	cp	r18, r14
    2fcc:	3f 05       	cpc	r19, r15
    2fce:	80 f2       	brcs	.-96     	; 0x2f70 <LCD_PutCharacter+0x204>
    2fd0:	ea ac       	ldd	r14, Y+58	; 0x3a
    2fd2:	fb ac       	ldd	r15, Y+59	; 0x3b
    2fd4:	ed a6       	std	Y+45, r14	; 0x2d
    2fd6:	fe a6       	std	Y+46, r15	; 0x2e
    2fd8:	4b c0       	rjmp	.+150    	; 0x3070 <__stack+0x71>
    2fda:	a6 01       	movw	r20, r12
    2fdc:	29 a5       	ldd	r18, Y+41	; 0x29
    2fde:	3a a5       	ldd	r19, Y+42	; 0x2a
    2fe0:	4f a8       	ldd	r4, Y+55	; 0x37
    2fe2:	58 ac       	ldd	r5, Y+56	; 0x38
    2fe4:	ef a4       	ldd	r14, Y+47	; 0x2f
    2fe6:	f8 a8       	ldd	r15, Y+48	; 0x30
    2fe8:	f9 01       	movw	r30, r18
    2fea:	f6 95       	lsr	r31
    2fec:	e7 95       	ror	r30
    2fee:	f6 95       	lsr	r31
    2ff0:	e7 95       	ror	r30
    2ff2:	f6 95       	lsr	r31
    2ff4:	e7 95       	ror	r30
    2ff6:	e4 0d       	add	r30, r4
    2ff8:	f5 1d       	adc	r31, r5
    2ffa:	64 91       	lpm	r22, Z
    2ffc:	f9 01       	movw	r30, r18
    2ffe:	e7 70       	andi	r30, 0x07	; 7
    3000:	ff 27       	eor	r31, r31
    3002:	a0 e8       	ldi	r26, 0x80	; 128
    3004:	b0 e0       	ldi	r27, 0x00	; 0
    3006:	02 c0       	rjmp	.+4      	; 0x300c <__stack+0xd>
    3008:	b5 95       	asr	r27
    300a:	a7 95       	ror	r26
    300c:	ea 95       	dec	r30
    300e:	e2 f7       	brpl	.-8      	; 0x3008 <__stack+0x9>
    3010:	70 e0       	ldi	r23, 0x00	; 0
    3012:	6a 23       	and	r22, r26
    3014:	7b 23       	and	r23, r27
    3016:	67 2b       	or	r22, r23
    3018:	f1 f0       	breq	.+60     	; 0x3056 <__stack+0x57>
    301a:	fa 01       	movw	r30, r20
    301c:	f6 95       	lsr	r31
    301e:	e7 95       	ror	r30
    3020:	f6 95       	lsr	r31
    3022:	e7 95       	ror	r30
    3024:	f6 95       	lsr	r31
    3026:	e7 95       	ror	r30
    3028:	ee 0f       	add	r30, r30
    302a:	ff 1f       	adc	r31, r31
    302c:	61 e0       	ldi	r22, 0x01	; 1
    302e:	70 e0       	ldi	r23, 0x00	; 0
    3030:	6c 0f       	add	r22, r28
    3032:	7d 1f       	adc	r23, r29
    3034:	e6 0f       	add	r30, r22
    3036:	f7 1f       	adc	r31, r23
    3038:	ba 01       	movw	r22, r20
    303a:	67 70       	andi	r22, 0x07	; 7
    303c:	77 27       	eor	r23, r23
    303e:	d1 01       	movw	r26, r2
    3040:	02 c0       	rjmp	.+4      	; 0x3046 <__stack+0x47>
    3042:	aa 0f       	add	r26, r26
    3044:	bb 1f       	adc	r27, r27
    3046:	6a 95       	dec	r22
    3048:	e2 f7       	brpl	.-8      	; 0x3042 <__stack+0x43>
    304a:	60 81       	ld	r22, Z
    304c:	71 81       	ldd	r23, Z+1	; 0x01
    304e:	6a 2b       	or	r22, r26
    3050:	7b 2b       	or	r23, r27
    3052:	60 83       	st	Z, r22
    3054:	71 83       	std	Z+1, r23	; 0x01
    3056:	2e 0d       	add	r18, r14
    3058:	3f 1d       	adc	r19, r15
    305a:	4f 5f       	subi	r20, 0xFF	; 255
    305c:	5f 4f       	sbci	r21, 0xFF	; 255
    305e:	20 17       	cp	r18, r16
    3060:	31 07       	cpc	r19, r17
    3062:	08 f4       	brcc	.+2      	; 0x3066 <__stack+0x67>
    3064:	c1 cf       	rjmp	.-126    	; 0x2fe8 <LCD_PutCharacter+0x27c>
    3066:	04 c0       	rjmp	.+8      	; 0x3070 <__stack+0x71>
    3068:	ea ac       	ldd	r14, Y+58	; 0x3a
    306a:	fb ac       	ldd	r15, Y+59	; 0x3b
    306c:	ed a6       	std	Y+45, r14	; 0x2d
    306e:	fe a6       	std	Y+46, r15	; 0x2e
    3070:	fe 01       	movw	r30, r28
    3072:	71 96       	adiw	r30, 0x11	; 17
    3074:	9e 01       	movw	r18, r28
    3076:	2f 5d       	subi	r18, 0xDF	; 223
    3078:	3f 4f       	sbci	r19, 0xFF	; 255
    307a:	11 92       	st	Z+, r1
    307c:	11 92       	st	Z+, r1
    307e:	e2 17       	cp	r30, r18
    3080:	f3 07       	cpc	r31, r19
    3082:	d9 f7       	brne	.-10     	; 0x307a <__stack+0x7b>
    3084:	76 01       	movw	r14, r12
    3086:	f5 94       	asr	r15
    3088:	e7 94       	ror	r14
    308a:	f5 94       	asr	r15
    308c:	e7 94       	ror	r14
    308e:	f5 94       	asr	r15
    3090:	e7 94       	ror	r14
    3092:	0d a5       	ldd	r16, Y+45	; 0x2d
    3094:	1e a5       	ldd	r17, Y+46	; 0x2e
    3096:	c0 0e       	add	r12, r16
    3098:	d1 1e       	adc	r13, r17
    309a:	86 01       	movw	r16, r12
    309c:	16 95       	lsr	r17
    309e:	07 95       	ror	r16
    30a0:	16 95       	lsr	r17
    30a2:	07 95       	ror	r16
    30a4:	16 95       	lsr	r17
    30a6:	07 95       	ror	r16
    30a8:	0d a3       	std	Y+37, r16	; 0x25
    30aa:	1e a3       	std	Y+38, r17	; 0x26
    30ac:	69 a9       	ldd	r22, Y+49	; 0x31
    30ae:	7a a9       	ldd	r23, Y+50	; 0x32
    30b0:	6a 0d       	add	r22, r10
    30b2:	7b 1d       	adc	r23, r11
    30b4:	0d a5       	ldd	r16, Y+45	; 0x2d
    30b6:	1e a5       	ldd	r17, Y+46	; 0x2e
    30b8:	60 0f       	add	r22, r16
    30ba:	71 1f       	adc	r23, r17
    30bc:	86 17       	cp	r24, r22
    30be:	97 07       	cpc	r25, r23
    30c0:	10 f5       	brcc	.+68     	; 0x3106 <__stack+0x107>
    30c2:	fc 01       	movw	r30, r24
    30c4:	f6 95       	lsr	r31
    30c6:	e7 95       	ror	r30
    30c8:	f6 95       	lsr	r31
    30ca:	e7 95       	ror	r30
    30cc:	f6 95       	lsr	r31
    30ce:	e7 95       	ror	r30
    30d0:	ee 0f       	add	r30, r30
    30d2:	ff 1f       	adc	r31, r31
    30d4:	21 e0       	ldi	r18, 0x01	; 1
    30d6:	30 e0       	ldi	r19, 0x00	; 0
    30d8:	2c 0f       	add	r18, r28
    30da:	3d 1f       	adc	r19, r29
    30dc:	e2 0f       	add	r30, r18
    30de:	f3 1f       	adc	r31, r19
    30e0:	9c 01       	movw	r18, r24
    30e2:	27 70       	andi	r18, 0x07	; 7
    30e4:	33 27       	eor	r19, r19
    30e6:	a1 01       	movw	r20, r2
    30e8:	02 c0       	rjmp	.+4      	; 0x30ee <__stack+0xef>
    30ea:	44 0f       	add	r20, r20
    30ec:	55 1f       	adc	r21, r21
    30ee:	2a 95       	dec	r18
    30f0:	e2 f7       	brpl	.-8      	; 0x30ea <__stack+0xeb>
    30f2:	20 89       	ldd	r18, Z+16	; 0x10
    30f4:	31 89       	ldd	r19, Z+17	; 0x11
    30f6:	24 2b       	or	r18, r20
    30f8:	35 2b       	or	r19, r21
    30fa:	20 8b       	std	Z+16, r18	; 0x10
    30fc:	31 8b       	std	Z+17, r19	; 0x11
    30fe:	01 96       	adiw	r24, 0x01	; 1
    3100:	86 17       	cp	r24, r22
    3102:	97 07       	cpc	r25, r23
    3104:	f1 f6       	brne	.-68     	; 0x30c2 <__stack+0xc3>
    3106:	0d a1       	ldd	r16, Y+37	; 0x25
    3108:	1e a1       	ldd	r17, Y+38	; 0x26
    310a:	0e 15       	cp	r16, r14
    310c:	1f 05       	cpc	r17, r15
    310e:	08 f4       	brcc	.+2      	; 0x3112 <__stack+0x113>
    3110:	b4 c0       	rjmp	.+360    	; 0x327a <__stack+0x27b>
    3112:	8b a5       	ldd	r24, Y+43	; 0x2b
    3114:	8f 77       	andi	r24, 0x7F	; 127
    3116:	8c 5f       	subi	r24, 0xFC	; 252
    3118:	98 2f       	mov	r25, r24
    311a:	92 95       	swap	r25
    311c:	9f 70       	andi	r25, 0x0F	; 15
    311e:	90 61       	ori	r25, 0x10	; 16
    3120:	9f a3       	std	Y+39, r25	; 0x27
    3122:	87 01       	movw	r16, r14
    3124:	16 95       	lsr	r17
    3126:	10 2f       	mov	r17, r16
    3128:	00 27       	eor	r16, r16
    312a:	17 95       	ror	r17
    312c:	07 95       	ror	r16
    312e:	2b a5       	ldd	r18, Y+43	; 0x2b
    3130:	3c a5       	ldd	r19, Y+44	; 0x2c
    3132:	02 0f       	add	r16, r18
    3134:	13 1f       	adc	r17, r19
    3136:	0a 57       	subi	r16, 0x7A	; 122
    3138:	15 4d       	sbci	r17, 0xD5	; 213
    313a:	27 01       	movw	r4, r14
    313c:	44 0c       	add	r4, r4
    313e:	55 1c       	adc	r5, r5
    3140:	0f 2e       	mov	r0, r31
    3142:	f1 e1       	ldi	r31, 0x11	; 17
    3144:	af 2e       	mov	r10, r31
    3146:	b1 2c       	mov	r11, r1
    3148:	f0 2d       	mov	r31, r0
    314a:	ac 0e       	add	r10, r28
    314c:	bd 1e       	adc	r11, r29
    314e:	a4 0c       	add	r10, r4
    3150:	b5 1c       	adc	r11, r5
    3152:	41 e0       	ldi	r20, 0x01	; 1
    3154:	50 e0       	ldi	r21, 0x00	; 0
    3156:	4c 0f       	add	r20, r28
    3158:	5d 1f       	adc	r21, r29
    315a:	44 0e       	add	r4, r20
    315c:	55 1e       	adc	r5, r21
    315e:	68 94       	set
    3160:	dd 24       	eor	r13, r13
    3162:	d2 f8       	bld	r13, 2
    3164:	cc 24       	eor	r12, r12
    3166:	c3 94       	inc	r12
    3168:	8f 70       	andi	r24, 0x0F	; 15
    316a:	88 a7       	std	Y+40, r24	; 0x28
    316c:	2d aa       	std	Y+53, r2	; 0x35
    316e:	3e aa       	std	Y+54, r3	; 0x36
    3170:	09 a3       	std	Y+33, r16	; 0x21
    3172:	1a a3       	std	Y+34, r17	; 0x22
    3174:	f5 01       	movw	r30, r10
    3176:	20 81       	ld	r18, Z
    3178:	f2 e0       	ldi	r31, 0x02	; 2
    317a:	af 0e       	add	r10, r31
    317c:	b1 1c       	adc	r11, r1
    317e:	82 2f       	mov	r24, r18
    3180:	80 95       	com	r24
    3182:	f8 01       	movw	r30, r16
    3184:	90 81       	ld	r25, Z
    3186:	89 23       	and	r24, r25
    3188:	80 83       	st	Z, r24
    318a:	4b a1       	ldd	r20, Y+35	; 0x23
    318c:	5c a1       	ldd	r21, Y+36	; 0x24
    318e:	45 2b       	or	r20, r21
    3190:	31 f4       	brne	.+12     	; 0x319e <__stack+0x19f>
    3192:	f2 01       	movw	r30, r4
    3194:	90 81       	ld	r25, Z
    3196:	89 2b       	or	r24, r25
    3198:	f8 01       	movw	r30, r16
    319a:	80 83       	st	Z, r24
    319c:	0d c0       	rjmp	.+26     	; 0x31b8 <__stack+0x1b9>
    319e:	4b a1       	ldd	r20, Y+35	; 0x23
    31a0:	5c a1       	ldd	r21, Y+36	; 0x24
    31a2:	4f 3f       	cpi	r20, 0xFF	; 255
    31a4:	51 05       	cpc	r21, r1
    31a6:	41 f4       	brne	.+16     	; 0x31b8 <__stack+0x1b9>
    31a8:	f2 01       	movw	r30, r4
    31aa:	90 81       	ld	r25, Z
    31ac:	90 95       	com	r25
    31ae:	29 23       	and	r18, r25
    31b0:	82 2b       	or	r24, r18
    31b2:	e9 a1       	ldd	r30, Y+33	; 0x21
    31b4:	fa a1       	ldd	r31, Y+34	; 0x22
    31b6:	80 83       	st	Z, r24
    31b8:	0e 94 b6 39 	call	0x736c	; 0x736c <SetSPI_Mode3>
    31bc:	f4 01       	movw	r30, r8
    31be:	80 81       	ld	r24, Z
    31c0:	80 68       	ori	r24, 0x80	; 128
    31c2:	80 83       	st	Z, r24
    31c4:	f3 01       	movw	r30, r6
    31c6:	d6 82       	std	Z+6, r13	; 0x06
    31c8:	c6 82       	std	Z+6, r12	; 0x06
    31ca:	2f a1       	ldd	r18, Y+39	; 0x27
    31cc:	e3 ee       	ldi	r30, 0xE3	; 227
    31ce:	f8 e0       	ldi	r31, 0x08	; 8
    31d0:	20 83       	st	Z, r18
    31d2:	f4 01       	movw	r30, r8
    31d4:	80 81       	ld	r24, Z
    31d6:	88 23       	and	r24, r24
    31d8:	e4 f7       	brge	.-8      	; 0x31d2 <__stack+0x1d3>
    31da:	f3 01       	movw	r30, r6
    31dc:	c5 82       	std	Z+5, r12	; 0x05
    31de:	0e 94 b6 39 	call	0x736c	; 0x736c <SetSPI_Mode3>
    31e2:	f4 01       	movw	r30, r8
    31e4:	80 81       	ld	r24, Z
    31e6:	80 68       	ori	r24, 0x80	; 128
    31e8:	80 83       	st	Z, r24
    31ea:	f3 01       	movw	r30, r6
    31ec:	d6 82       	std	Z+6, r13	; 0x06
    31ee:	c6 82       	std	Z+6, r12	; 0x06
    31f0:	28 a5       	ldd	r18, Y+40	; 0x28
    31f2:	e3 ee       	ldi	r30, 0xE3	; 227
    31f4:	f8 e0       	ldi	r31, 0x08	; 8
    31f6:	20 83       	st	Z, r18
    31f8:	f4 01       	movw	r30, r8
    31fa:	80 81       	ld	r24, Z
    31fc:	88 23       	and	r24, r24
    31fe:	e4 f7       	brge	.-8      	; 0x31f8 <__stack+0x1f9>
    3200:	f3 01       	movw	r30, r6
    3202:	c5 82       	std	Z+5, r12	; 0x05
    3204:	8e 2d       	mov	r24, r14
    3206:	8f 70       	andi	r24, 0x0F	; 15
    3208:	80 6b       	ori	r24, 0xB0	; 176
    320a:	38 2e       	mov	r3, r24
    320c:	0e 94 b6 39 	call	0x736c	; 0x736c <SetSPI_Mode3>
    3210:	f4 01       	movw	r30, r8
    3212:	80 81       	ld	r24, Z
    3214:	80 68       	ori	r24, 0x80	; 128
    3216:	80 83       	st	Z, r24
    3218:	f3 01       	movw	r30, r6
    321a:	d6 82       	std	Z+6, r13	; 0x06
    321c:	c6 82       	std	Z+6, r12	; 0x06
    321e:	e3 ee       	ldi	r30, 0xE3	; 227
    3220:	f8 e0       	ldi	r31, 0x08	; 8
    3222:	30 82       	st	Z, r3
    3224:	f4 01       	movw	r30, r8
    3226:	80 81       	ld	r24, Z
    3228:	88 23       	and	r24, r24
    322a:	e4 f7       	brge	.-8      	; 0x3224 <__stack+0x225>
    322c:	f3 01       	movw	r30, r6
    322e:	c5 82       	std	Z+5, r12	; 0x05
    3230:	e9 a1       	ldd	r30, Y+33	; 0x21
    3232:	fa a1       	ldd	r31, Y+34	; 0x22
    3234:	30 80       	ld	r3, Z
    3236:	0e 94 b6 39 	call	0x736c	; 0x736c <SetSPI_Mode3>
    323a:	f4 01       	movw	r30, r8
    323c:	80 81       	ld	r24, Z
    323e:	80 68       	ori	r24, 0x80	; 128
    3240:	80 83       	st	Z, r24
    3242:	f3 01       	movw	r30, r6
    3244:	d5 82       	std	Z+5, r13	; 0x05
    3246:	c6 82       	std	Z+6, r12	; 0x06
    3248:	e3 ee       	ldi	r30, 0xE3	; 227
    324a:	f8 e0       	ldi	r31, 0x08	; 8
    324c:	30 82       	st	Z, r3
    324e:	f4 01       	movw	r30, r8
    3250:	80 81       	ld	r24, Z
    3252:	88 23       	and	r24, r24
    3254:	e4 f7       	brge	.-8      	; 0x324e <__stack+0x24f>
    3256:	f3 01       	movw	r30, r6
    3258:	c5 82       	std	Z+5, r12	; 0x05
    325a:	ff ef       	ldi	r31, 0xFF	; 255
    325c:	ef 1a       	sub	r14, r31
    325e:	ff 0a       	sbc	r15, r31
    3260:	00 58       	subi	r16, 0x80	; 128
    3262:	1f 4f       	sbci	r17, 0xFF	; 255
    3264:	22 e0       	ldi	r18, 0x02	; 2
    3266:	42 0e       	add	r4, r18
    3268:	51 1c       	adc	r5, r1
    326a:	4d a1       	ldd	r20, Y+37	; 0x25
    326c:	5e a1       	ldd	r21, Y+38	; 0x26
    326e:	4e 15       	cp	r20, r14
    3270:	5f 05       	cpc	r21, r15
    3272:	08 f0       	brcs	.+2      	; 0x3276 <__stack+0x277>
    3274:	7d cf       	rjmp	.-262    	; 0x3170 <__stack+0x171>
    3276:	2d a8       	ldd	r2, Y+53	; 0x35
    3278:	3e a8       	ldd	r3, Y+54	; 0x36
    327a:	0b a5       	ldd	r16, Y+43	; 0x2b
    327c:	1c a5       	ldd	r17, Y+44	; 0x2c
    327e:	0f 5f       	subi	r16, 0xFF	; 255
    3280:	1f 4f       	sbci	r17, 0xFF	; 255
    3282:	0b a7       	std	Y+43, r16	; 0x2b
    3284:	1c a7       	std	Y+44, r17	; 0x2c
    3286:	09 a5       	ldd	r16, Y+41	; 0x29
    3288:	1a a5       	ldd	r17, Y+42	; 0x2a
    328a:	0f 5f       	subi	r16, 0xFF	; 255
    328c:	1f 4f       	sbci	r17, 0xFF	; 255
    328e:	09 a7       	std	Y+41, r16	; 0x29
    3290:	1a a7       	std	Y+42, r17	; 0x2a
    3292:	ef a4       	ldd	r14, Y+47	; 0x2f
    3294:	f8 a8       	ldd	r15, Y+48	; 0x30
    3296:	0e 15       	cp	r16, r14
    3298:	1f 05       	cpc	r17, r15
    329a:	80 f1       	brcs	.+96     	; 0x32fc <__stack+0x2fd>
    329c:	34 c0       	rjmp	.+104    	; 0x3306 <__stack+0x307>
    329e:	63 30       	cpi	r22, 0x03	; 3
    32a0:	71 05       	cpc	r23, r1
    32a2:	19 f4       	brne	.+6      	; 0x32aa <__stack+0x2ab>
    32a4:	47 e0       	ldi	r20, 0x07	; 7
    32a6:	50 e0       	ldi	r21, 0x00	; 0
    32a8:	02 c0       	rjmp	.+4      	; 0x32ae <__stack+0x2af>
    32aa:	45 e0       	ldi	r20, 0x05	; 5
    32ac:	50 e0       	ldi	r21, 0x00	; 0
    32ae:	0b a3       	std	Y+35, r16	; 0x23
    32b0:	1c a3       	std	Y+36, r17	; 0x24
    32b2:	29 ab       	std	Y+49, r18	; 0x31
    32b4:	3a ab       	std	Y+50, r19	; 0x32
    32b6:	6b ab       	std	Y+51, r22	; 0x33
    32b8:	7c ab       	std	Y+52, r23	; 0x34
    32ba:	4a af       	std	Y+58, r20	; 0x3a
    32bc:	5b af       	std	Y+59, r21	; 0x3b
    32be:	88 e0       	ldi	r24, 0x08	; 8
    32c0:	90 e0       	ldi	r25, 0x00	; 0
    32c2:	84 1b       	sub	r24, r20
    32c4:	95 0b       	sbc	r25, r21
    32c6:	21 e0       	ldi	r18, 0x01	; 1
    32c8:	30 e0       	ldi	r19, 0x00	; 0
    32ca:	89 01       	movw	r16, r18
    32cc:	02 c0       	rjmp	.+4      	; 0x32d2 <__stack+0x2d3>
    32ce:	00 0f       	add	r16, r16
    32d0:	11 1f       	adc	r17, r17
    32d2:	8a 95       	dec	r24
    32d4:	e2 f7       	brpl	.-8      	; 0x32ce <__stack+0x2cf>
    32d6:	0c af       	std	Y+60, r16	; 0x3c
    32d8:	1d af       	std	Y+61, r17	; 0x3d
    32da:	19 a6       	std	Y+41, r1	; 0x29
    32dc:	1a a6       	std	Y+42, r1	; 0x2a
    32de:	22 24       	eor	r2, r2
    32e0:	23 94       	inc	r2
    32e2:	31 2c       	mov	r3, r1
    32e4:	0f 2e       	mov	r0, r31
    32e6:	f2 ee       	ldi	r31, 0xE2	; 226
    32e8:	8f 2e       	mov	r8, r31
    32ea:	f8 e0       	ldi	r31, 0x08	; 8
    32ec:	9f 2e       	mov	r9, r31
    32ee:	f0 2d       	mov	r31, r0
    32f0:	0f 2e       	mov	r0, r31
    32f2:	f0 e4       	ldi	r31, 0x40	; 64
    32f4:	6f 2e       	mov	r6, r31
    32f6:	f6 e0       	ldi	r31, 0x06	; 6
    32f8:	7f 2e       	mov	r7, r31
    32fa:	f0 2d       	mov	r31, r0
    32fc:	fe 01       	movw	r30, r28
    32fe:	31 96       	adiw	r30, 0x01	; 1
    3300:	ce 01       	movw	r24, r28
    3302:	41 96       	adiw	r24, 0x11	; 17
    3304:	f8 cd       	rjmp	.-1040   	; 0x2ef6 <LCD_PutCharacter+0x18a>
    3306:	89 ad       	ldd	r24, Y+57	; 0x39
    3308:	ed 96       	adiw	r28, 0x3d	; 61
    330a:	cd bf       	out	0x3d, r28	; 61
    330c:	de bf       	out	0x3e, r29	; 62
    330e:	df 91       	pop	r29
    3310:	cf 91       	pop	r28
    3312:	1f 91       	pop	r17
    3314:	0f 91       	pop	r16
    3316:	ff 90       	pop	r15
    3318:	ef 90       	pop	r14
    331a:	df 90       	pop	r13
    331c:	cf 90       	pop	r12
    331e:	bf 90       	pop	r11
    3320:	af 90       	pop	r10
    3322:	9f 90       	pop	r9
    3324:	8f 90       	pop	r8
    3326:	7f 90       	pop	r7
    3328:	6f 90       	pop	r6
    332a:	5f 90       	pop	r5
    332c:	4f 90       	pop	r4
    332e:	3f 90       	pop	r3
    3330:	2f 90       	pop	r2
    3332:	08 95       	ret

00003334 <LCD_PutString>:
    3334:	6f 92       	push	r6
    3336:	7f 92       	push	r7
    3338:	8f 92       	push	r8
    333a:	9f 92       	push	r9
    333c:	af 92       	push	r10
    333e:	bf 92       	push	r11
    3340:	cf 92       	push	r12
    3342:	df 92       	push	r13
    3344:	ef 92       	push	r14
    3346:	ff 92       	push	r15
    3348:	0f 93       	push	r16
    334a:	1f 93       	push	r17
    334c:	cf 93       	push	r28
    334e:	df 93       	push	r29
    3350:	ec 01       	movw	r28, r24
    3352:	6b 01       	movw	r12, r22
    3354:	39 01       	movw	r6, r18
    3356:	48 01       	movw	r8, r16
    3358:	64 30       	cpi	r22, 0x04	; 4
    335a:	71 05       	cpc	r23, r1
    335c:	49 f0       	breq	.+18     	; 0x3370 <LCD_PutString+0x3c>
    335e:	91 e0       	ldi	r25, 0x01	; 1
    3360:	80 e0       	ldi	r24, 0x00	; 0
    3362:	62 30       	cpi	r22, 0x02	; 2
    3364:	71 05       	cpc	r23, r1
    3366:	09 f4       	brne	.+2      	; 0x336a <LCD_PutString+0x36>
    3368:	90 e0       	ldi	r25, 0x00	; 0
    336a:	a9 2e       	mov	r10, r25
    336c:	b8 2e       	mov	r11, r24
    336e:	02 c0       	rjmp	.+4      	; 0x3374 <LCD_PutString+0x40>
    3370:	a1 2c       	mov	r10, r1
    3372:	b1 2c       	mov	r11, r1
    3374:	e4 2e       	mov	r14, r20
    3376:	f5 2e       	mov	r15, r21
    3378:	88 81       	ld	r24, Y
    337a:	88 23       	and	r24, r24
    337c:	81 f0       	breq	.+32     	; 0x339e <LCD_PutString+0x6a>
    337e:	84 01       	movw	r16, r8
    3380:	93 01       	movw	r18, r6
    3382:	a7 01       	movw	r20, r14
    3384:	b6 01       	movw	r22, r12
    3386:	ce 01       	movw	r24, r28
    3388:	0e 94 b6 16 	call	0x2d6c	; 0x2d6c <LCD_PutCharacter>
    338c:	95 01       	movw	r18, r10
    338e:	28 0f       	add	r18, r24
    3390:	31 1d       	adc	r19, r1
    3392:	e2 0e       	add	r14, r18
    3394:	f3 1e       	adc	r15, r19
    3396:	21 96       	adiw	r28, 0x01	; 1
    3398:	88 81       	ld	r24, Y
