:100000000C947B0D0C949C0D0C94C11F0C949C0DB6
:100010000C949C0D0C949C0D0C949C0D0C949C0DBC
:100020000C949C0D0C949C0D0C949C0D0C949C0DAC
:100030000C949C0D0C949C0D0C949C0D0C949C0D9C
:100040000C943D1C0C948A1C0C949C0D0C949C0DDF
:100050000C94A61E0C949C0D0C949C0D0C949C0D61
:100060000C949C0D0C949C0D0C949C0D0C949C0D6C
:100070000C949C0D0C949C0D0C949C0D0C949C0D5C
:100080000C949C0D0C949C0D0C949C0D0C949C0D4C
:100090000C949C0D0C949C0D0C949C0D0C949C0D3C
:1000A0000C949C0D0C949C0D0C949C0D0C949C0D2C
:1000B0000C949C0D0C949C0D0C949C0D0C94BC1EEB
:1000C0000C949C0D0C949C0D0C94C61E0C949C0DD1
:1000D0000C949C0D0C949C0D0C949C0D0C949C0DFC
:1000E0000C949C0D0C949C0D0C949C0D0C949C0DEC
:1000F0000C949C0D0C949C0D0C949C0D0C949C0DDC
:100100000C949C0D0C949C0D0C949C0D0C949C0DCB
:100110000C949C0D0C949C0D0C949C0D0C94041D43
:100120000C94E91E0C949C0D0C949C0D0C949C0D4D
:100130000C949C0D0C94BA1A0C94A51F0C949C0D55
:100140000C949C0D0C949C0D0C949C0D0C949C0D8B
:100150000C949C0D0C949C0D0C949C0D0C94D61C32
:100160000C949C0D0C949C0D0C949C0D0C949C0D6B
:100170000C949C0D0C949C0D0C949C0D0C949C0D5B
:100180000C949C0D0C949C0D0C949C0D0C949C0D4B
:100190000C949C0D0C949C0D0C949C0D0C949C0D3B
:1001A0000C949C0D0C949C0D0C949C0D0C949C0D2B
:1001B0000C949C0D0C949C0D0C949C0D0C949C0D1B
:1001C0000C949C0D0C949C0D0C949C0D0C949C0D0B
:1001D0000C949C0D0C949C0D0C949C0D0C949C0DFB
:1001E0000C949C0D0C949C0D0C949C0D0C949C0DEB
:1001F0000C949C0D0C949C0D0C949C0DF61FDB1F15
:10020000DE1FE11FE41FE71FEA1FED1FF01FA425FB
:100210000A26EC25AF25DD25BD25182646262726EE
:10022000254528452B452E453145344537450800A1
:100230000000BE922449123EABAAAA2ABECDCCCC65
:100240004C3E00000080BEABAAAAAA3E00000000FF
:10025000BF000000803F0000000000084178D3BBD1
:100260004387D1133D190E3CC3BD4282AD2B3E687E
:10027000EC8276BED98FE1A93E4C80EFFFBE01C46F
:10028000FF7F3F00000000000C94F61F0C94DB1F62
:100290000C94DE1F0C94EC250C9425450C942845F9
:1002A0000C94DD250C940A260C942B450C942726DF
:1002B0000C94E41F0C94ED1F0C942E450C94BD255A
:1002C0000C94A4250C9437450C9431450C94E71FED
:1002D0000C9418260C94AF250C94F01F0C94E11F7D
:1002E0000C94EA1F0C9434450C9446266E616E0003
:1002F000696E660000407A10F35A00A0724E180929
:100300000010A5D4E80000E87648170000E40B547C
:10031000020000CA9A3B000000E1F505000080964B
:100320009800000040420F000000A086010000007D
:10033000102700000000E803000000006400000037
:1003400000000A00000000000100000000002C7600
:10035000D888DC674F0823DFC1DFAE59E1B1B7961B
:10036000E5E3E453C63AE651997696E8E6C2842678
:10037000EB898C9B62ED407C6FFCEFBC9C9F40F254
:10038000BAA56FA5F490055A2AF75C936B6CF967D0
:100390006DC11BFCE0E40D47FEF520E6B500D0ED95
:1003A000902E0300943577050080841E08000020FD
:1003B0004E0A000000C80C333333330F986E12839B
:1003C0001141EF8D2114893BE65516CFFEE6DB186F
:1003D000D1844B381BF77C1D901DA4BBE424203234
:1003E00084725E228100C9F124ECA1E53D27000062
:1003F0000D0016002B00440056007E00A100AA004C
:10040000B700C400D600ED00F60003010C0119018D
:100410002E01400157016C0181019601AB01C00121
:10042000D501EA01F301FC0115022C0245025A0232
:100430008402A402C202E00200031E033A035D0329
:1004400080039203AB03D003EC0318043B045B046A
:1004500077049704BA04D104ED040D052D055C055D
:100460007C059C05BA05C505D205DD05F4050D061C
:1004700016062D06440656066D067F069106A8064A
:10048000C106CE06DB06F706040729074207570711
:100490006E0785079A07AA07BA07D307EA070D0868
:1004A00024083B0850085D0861086E088708A0080A
:1004B000050000000000000000000000000303FF32
:1004C000FA487FC00000080000E7E7E74242420028
:1004D00000000000000000000000000A000000888A
:1004E00022113FF11044223FF22088441100000005
:1004F00000000000070021F6BD3A3C3C3C3C5CBDDE
:100500006F840000000010000000007808CC10CCC0
:1005100020CC40CC5ECCB3CD337A330233043308E5
:1005200033101E00000000000000000000000E005C
:10053000000000F0066019806601E0079E6E339CA3
:100540008E7C38F1F1F8F9C00000000000000000D6
:10055000000303FE92000000000005000222311893
:10056000C6318C2184104005002082184318C63102
:1005700088C44400070070E6BFE21B36000000009C
:100580000000000000000900000000008040201072
:10059000FF84020100800000000000000003000052
:1005A00000006FCA8000050000000000003E00004F
:1005B00000000003000000007FC0000005000221D1
:1005C0000884221088400000000800003C6666E7AE
:1005D000E7E7E7E7E766663C000000000000070089
:1005E0000023CF870E1C3870E1C39FC000000000BD
:1005F0000900000F0FC4F0381C0C0C04040417F79A
:10060000F80000000000000800003C7E8E0E183C40
:100610001E0F07C7E6780000000000000800000673
:100620000E0E1E2E4E8EFFFF0E0E0E00000000005E
:10063000000800003F7E4078FEFE0F0301C1F27CFF
:10064000000000000000080000071C30707CEEE78E
:10065000E7E7E7763C0000000000000800007FFFAD
:1006600082020204040408081010000000000000C8
:100670000800003EE3E3E37E3C3E4FC7C7C67C0074
:1006800000000000000800003C6EE7E7E7E7773E67
:100690000E0C38E0000000000000030001FF007FA6
:1006A000C00000030001FF006FCA80000A000000C4
:1006B00000010383070200700300380100000000FE
:1006C00000000000000900000000000003FE000020
:1006D0007FC0000000000000000000000A000000D1
:1006E00002007003003801038307020000000000CD
:1006F00000000000000800003EC7E7E7060C1010ED
:100700000038383800000000000011000000000030
:10071000FC01818300610DD90DC58EE287714738D8
:10072000A39891DC48EE423BC500044004180C033A
:10073000F80000000D000000008006007003C02ECD
:10074000017011C08E07F841C20F78FC0000000054
:10075000000000000C000000FFC38E38738738E3F0
:10076000FC38E38738738738EFFC00000000000096
:1007700000000C0000000F9387703601E00E00E0CF
:100780000E00E007013821FC00000000000000001E
:100790000D0000003FE071C3871C18E0E7073839FF
:1007A000C1CE0E70E38E7FC000000000000000008C
:1007B0000C000000FFE3863823903903F0390390E2
:1007C000381381383FFF00000000000000000B00DC
:1007D0000003FF9C3382720E41F8390720E01C03AE
:1007E00081FC00000000000000000E00000000F985
:1007F0000E1C7031C04E003800E00387FE071C1C41
:1008000038703F000000000000000000000E0000F3
:10081000000FCFCE1C3870E1C3870FFC3870E1C3E6
:10082000870E1C3873F3F000000000000000000089
:10083000070003F9C3870E1C3870E1C39FC0000096
:1008400000000A000001FC1C0701C0701C0701CE5B
:10085000739CC60F000000000000000F00000003A2
:10086000F9F1C0838607100E401F803B807380E73C
:1008700001C703871FDFC000000000000000000068
:100880000B000003F81C0380700E01C0380700E065
:100890009C1387FFC0000000000000001200000051
:1008A000000FC0FCF03C2E170B85C271709C9C277A
:1008B0002708F1C23C70871C21873E27F00000000A
:1008C00000000000000000000E0000000707CE043A
:1008D0003C10F842F109E423D087C20F081C2033F2
:1008E000E0400000000000000000000D00000003D8
:1008F000E071C707301B80FC07E03F01D80CE0E344
:100900008E07C000000000000000000B000003FE86
:100910001CE38E71CE39CE3F8700E01C0381FC00C2
:10092000000000000000000D00000003E071C70798
:10093000301B80FC07E03F01F80EE0E38E0FE01C67
:10094000007001F00000000E0000000FFC0E3838AF
:1009500070E1C3870E383F80EE039C0E383873F881
:10096000F00000000000000000000900000F4C6EC5
:10097000170BC0F81F43E0F87E34F00000000000C1
:10098000000B000003FFC718E21C0380700E01C0BB
:10099000380700E07F00000000000000000D0000AC
:1009A000003FBE7043821C10E087043821C10E084E
:1009B0007041C407C000000000000000000D0000EE
:1009C000003F1EE023821C107103880E807403A078
:1009D0000E00700100000000000000000013000085
:1009E000000003F7E3B8382387047071071E20E284
:1009F000C80E9D01D3A01C3803870070E0040800D6
:100A00000000000000000000000000000D000000D9
:100A10003F3E7041C40E403C00E007003C027023A2
:100A2000820E7CFC00000000000000000D000000B1
:100A30003F1EE023821C207101D00F003801C00E40
:100A400000700FE000000000000000000C0000003B
:100A50007FE61C4384380700E00E01C03813817024
:100A60003FFF00000000000000000400FCCCCCCCE4
:100A7000CCCCCCCF000500210421042104210400AA
:100A800000000400F33333333333333F00090004F1
:100A9000050282220905010000000000000000009C
:100AA000000000000A00000000000000000000003C
:100AB000000000000000000000003FF0000319905B
:100AC00000000000000009000000000001F31DCE3E
:100AD000E70F9DDCEEF3BC00000000000009000001
:100AE0003C0E0703B1ECE773B9DCEE77327000001F
:100AF0000000000007000000000799F3E1C387072A
:100B000027800000000009000003C0E071B9BDCEDD
:100B1000E773B9DCE6F9B000000000000007000050
:100B20000000071B77FFC38707278000000000072E
:100B30000000FBB71F1C3870E1C3871F00000000D6
:100B40000009000000000001FD99CEE7730F080FB7
:100B5000F7FDFF01813F00000A00000F01C0701D7A
:100B6000C7B9CE739CE739CE73BEF0000000000019
:100B70000005001CE079CE739CE77C0000000500B6
:100B80000E703CE739CE739CF7BF800B000003C0AA
:100B9000380700E79C6388760FC1DC39C71DF7C0B2
:100BA0000000000000000005003CE739CE739CE720
:100BB0007C0000000F0000000000000000001EE7A5
:100BC0001EF739CE739CE739CE739CE739DF7BC0C3
:100BD0000000000000000000000A0000000000000B
:100BE0003DC7B9CE739CE739CE73BEF0000000005C
:100BF00000000800000000003C66E7E7E7E7E76662
:100C00003C00000000000009000000000007B1ECFB
:100C1000E773B9DCEE77B3B1C0E0707C0000090087
:100C20000000000001E99DCEE773B9DCE6F1B81CD5
:100C30000E0707C000080000000000F77B7370700B
:100C4000707070F80000000000000600000001DC79
:100C5000F9F1E3E7CEE0000000000600010433F7FD
:100C60001C71C71C74E0000000000A0000000000B6
:100C7000003DE739CE739CE739CE778EF000000057
:100C800000000009000000000007DDC4E23A1D0E6C
:100C90008381C0400000000000000E000000000042
:100CA00000000003EF77189CF43BD0EB41CE0738EF
:100CB0001CE021000000000000000000000900000E
:100CC00000000007DCE4741C0E0383C277BC000044
:100CD0000000000009000000000007DDC4723A0FA8
:100CE000078180C02021D0F0300000080000000003
:100CF000007F4E4E1C1C387173FF00000000000086
:100D00000500066630C6641863198C30C0013FFFC9
:100D1000C0050030C3198C304CC630C666000A00CE
:100D20000000000000000001C18C60E00000000035
:100D3000000000000000000A003FF8060180601873
:100D400006018060180601807FF0000000000000AE
:100D500000000022202055000057575023636241B5
:100D60002410253570640000244420422240527231
:100D70005002720000006400700000002011244046
:100D800035556026227061247061216015711074E0
:100D90006160246520713220252520253120002026
:100DA0002000206412421000707042124061202026
:100DB00075547025755065656034443065556074B0
:100DC000647074644034553055755072227011153A
:100DD000205565504444705775505755502555203F
:100DE0006564402557306565503471607222205526
:100DF0005570555520557750552550552220712452
:100E00007064446044211062226025000000000FDD
:100E100062000000357044656000343011353000E8
:100E2000763012722000751744655020222020224F
:100E3000264456502222200077500065500025207D
:100E40000065640035310064400032600272300099
:100E50005570005520005770005250005524006214
:100E6000303262302222206232605A000002570083
:100E70000200000000000001B800000000000308AC
:100E800000080000000550F850F8500003D0A858A2
:100E9000000000058840201088000480D8A8580071
:100EA000000118000000000003205088000000032B
:100EB00088502000000005A8502050A80003207092
:100EC0002000000003201008000000032020200064
:100ED0000000018000000000000580402010080094
:100EE000047088887000000388F88000000003C840
:100EF000A8900000000388A870000000033820F8C4
:100F000000000004B8A8A84800000470A8A0400091
:100F100000031808F80000000450A8A850000004BE
:100F200010A8A870000001500000000000028050CE
:100F300000000000032050880000000350505000C3
:100F4000000003885020000000041008A8100000D2
:100F50000470A8D870000004F02828F0000003F8FE
:100F6000A8500000000370888800000003F8887013
:100F700000000003F8A88800000003F8280800001B
:100F800000047088A860000003F820F80000000347
:100F900088F8880000000340807800000004F820F2
:100FA0005088000003F8808000000005F810201031
:100FB000F80005F8102040F80004708888700000E0
:100FC00003F82810000000057088A848B00003F856
:100FD00028D00000000390A8480000000308F8088B
:100FE0000000000478808078000005186080601898
:100FF00000057880E0807800058850205088000443
:1010000018A0A078000003C8A898000000052010D0
:101010000810200005B0C808C8B000051020402006
:10102000100005B0C808C8B00000000000000000B3
:101030009E0000000E000E0028FE28FE284854FEE8
:101040005424462610C8C46C92AA44A0000A060084
:101050000000384482000082443800105438541094
:1010600010107C101000A060000010101010100074
:101070006060000040201008047CA2928A7C0084FA
:10108000FE800084C2A2928C42828A96623028241A
:10109000FE204E8A8A8A72789492926002E2120A44
:1010A000066C9292926C0C9292523C006C6C000016
:1010B00000AC6C00000010284482282828282882D0
:1010C000442810000402A2120C6492F2827CFC22DA
:1010D0002222FCFE9292926C7C82828244FE828268
:1010E0004438FE92929282FE121202027C8282A206
:1010F00064FE101010FE0082FE82004080827E029C
:10110000FE10284482FE80808080FE040804FEFEDB
:10111000081020FE7C8282827CFE1212120C7C82DD
:10112000A242BCFE1232528C8C929292620202FE59
:1011300002027E8080807E3E4080403EFE40304005
:10114000FEC6281028C60608F00806C2A2928A86A3
:101150000000FE828204081020408282FE00000807
:10116000040204088080808080000204080040A8F7
:10117000A8A8F0FE90888870708888884070888859
:1011800090FE70A8A8A83010FC1202041028A8A88D
:1011900078FE100808F00088FA80004080887A0005
:1011A00000FE2050880082FE8000F8083008F0F829
:1011B000100808F07088888870F8282828101028EF
:1011C0002830F8F81008081090A8A8A840087E88D1
:1011D000804078808040F838408040387880608057
:1011E00078885020508818A0A0A07888C8A898882F
:1011F00000106C82000000FE000000826C100020D5
:1012000010102010F0888488F0287CAA8244F029ED
:101210002721FF00A060000040907C1204C0A000C5
:10122000C0A080008000800004FE04000044FE4452
:10123000000004020400C3D308C4C24C9392936418
:1012400000102800007C82827C9202FE909060C296
:10125000A3928B8644928A927C7088906098000258
:10126000040800000804020002040A040808040A32
:101270000402003838380000101010101010101040
:10128000100201020402F15B55515190A9AAA94034
:101290000088502000708870A8B0387CF87C3888AE
:1012A000C9AA99881C21C0211C0000000000000070
:1012B000F200003844FE4420907C9282404438285A
:1012C00038442A2CF82C2A0000EE00004094AA5240
:1012D000040002000200FE82BA92FE90AAAAAABCF2
:1012E0002050A8508820202020E02020202020FE10
:1012F00082CAA2FE02020202020E11110E008888AA
:10130000BE888812191512001115150A000008046C
:101310000200FE2020103E0C1212FEFE00303000B3
:10132000000080B0400000020F0000000205020033
:101330004428542810221F6854FA021F90C8B01580
:101340001F6050F860908A8040F0292628F0F0282D
:101350002629F0F02A292AF0F229292AF1F0292455
:1013600029F0F02A2D2AF0F824FE92921E21A1E104
:1013700012F8A9AAA888F8A8AAA988F8AAA9AA88E8
:10138000F8AAA8AA880089FA88000088FA890000CB
:101390008AF98A00008AF88A0010FE92827CFA118B
:1013A0002142F978858684787884868578708A8960
:1013B0008A707289898A7178858485784428102892
:1013C0004410AAFEAA107C8182807C7C8082817C71
:1013D00078828182787C8180817C0408F209048192
:1013E000FF242418807C92926C40A9AAA8F040A8FF
:1013F000AAA9F040AAA9AAF042A9A9AAF140AAA8BC
:10140000AAF040AAADAAF064947894581824A4E4F1
:101410001070A9AAA83070A8AAA93070AAA9AA30E9
:1014200070AAA8AA300091FA80000090FA8100000A
:1014300092F982000092F882004AA4AAB060FA11E0
:10144000090AF170898A887070888A89706094921C
:1014500094606492929462708A888A70101054101A
:101460001010A87C2A1078818240F878808241F898
:1014700078828142F878828042F818A0A4A278008D
:1014800082FEA81018A2A0A27800000000000010A0
:10149000E3841001006DB48000000000A7CA29F2A7
:1014A0008020E40C09C1006590842134C0214508E6
:1014B00055234030C2000000001082082081002027
:1014C000410410420000A39F38A00000411F1040BB
:1014D0000000000000C30800001F00000000000022
:1014E00000C3000010842100003914D5651380105A
:1014F000C1041043803910462107C039104E05132E
:10150000800862927C20807D041E05138018841E52
:101510004513807C108420820039144E4513803995
:10152000144F04230000030C00C30000030C00C38D
:10153000080842102040800007C001F000204081D0
:101540000842003910461001003915D55D03803975
:1015500014517D144079145E4517803914104113DD
:10156000807914514517807D041E4107C07D041EFB
:101570004104003914174513C045145F4514403821
:10158000410410438004104145138045251851241F
:10159000404104104107C045B5514514404595539D
:1015A00045144039145145138079145E41040039C3
:1015B000145155234079145E49144039140E051313
:1015C000807C41041041004514514513804514515D
:1015D00044A10045155555528045128429144045B3
:1015E000144A10410078210841078038820820837E
:1015F0008001020408100038208208238010A440D3
:1016000000000000000000003F30C10000000000AA
:1016100003813D13C0410791451780000391411399
:10162000800413D14513C000039179038018821EF2
:101630002082000003D144F04E410712492480105B
:10164000010410418008018208248C410494614403
:101650008010410410418000069555144000071287
:10166000492480000391451380000791451790009D
:1016700003D14513C100058920870000039038136A
:101680008000878820A100000492496280000451F4
:1016900044A10000045155F28000049231248000DE
:1016A000049248E1180007823107801882182081CF
:1016B00080104100104100302083082300294000A1
:1016C00000000010E6D145F000000006000A0012FC
:1016D000001C00240031003E004200490050005828
:1016E00000600064006A006E0074007C0083008B60
:1016F0000093009D00A500AD00B500BD00C500C968
:1017000000CD00D500DD00E500ED00FB0008011371
:10171000011E012B0135013F014C015A0161016B92
:10172000017801830192019F01AC01B701C401D18D
:1017300001D901E301F001FD010F021A0227023273
:101740000238023E0244024C0256025A0264026C03
:101750000273027D0285028D029702A202A902AFE6
:1017600002BA02C102D002DB02E302EB02F502FD83
:101770000204030B0316031E032B0335033F034729
:10178000034E035103580360036A03030000000083
:1017900000023F53C00506F7B0000000000600A29B
:1017A0008AFD4FD45000000523ABC71CB57100085B
:1017B0000042A4A8AA5515254200000008001C34C8
:1017C000343B5ACCED76000000023F000004016477
:1017D000CCCC461004086233332680050109F22878
:1017E000000000050000427C840000020003D803D2
:1017F0000000380000020003C00304A49480000528
:1018000003B7BDEF7B7000040E666666F00005034B
:10181000BF31098FF8000503A6330C737000060072
:10182000218E5A6FC61800000503DC8F7C3AE00059
:101830000500D88F6F7B70000507FE21088420000B
:101840000503B7B73B7B70000503B7BDBC46C000BE
:101850000200F3C00200F3D80500001741C10000E8
:101860000500000F83E000000500010705D000001F
:101870000503B7B1100C600009000F084818DC9E82
:10188000CB6F5A908780080018181C2C3C4646EFF6
:101890000000000701F99B37CCD9B3FC000007001A
:1018A000759E1C1830313C00000800FC66636363C1
:1018B0006366FC0000000603F65A79A619FC0000D6
:1018C0000603F65A79A618F0000008003A66C2C06E
:1018D000C0CF663C00000009007BD8CC67F3198CB0
:1018E000C6F7800000040F666666F0000600F18609
:1018F000186DB67000000800F7646878786C66F7B9
:101900000000000701E183060C18B3FE00000A0086
:101910003CF739CE5D9765D926EBC000000800E79B
:10192000725A5A4E4646E200000008003C66C3C3A5
:10193000C3C3663C0000000701F99B366F9830F086
:10194000000008003C66C3C3C3C3663C180F000810
:1019500000FC6666786C6C66F70000000503778F04
:101960003C7BB0000603FB4C30C30C780000080041
:10197000F76262626262623C0000000800F7626225
:1019800034343418180000000C000EF76626243793
:10199000437419819819800000000701ED91C30379
:1019A0000E26EE00000800F76234341818183C00C8
:1019B00000000700FD32C1860CB3FE0000031F6D5E
:1019C000B6DB80031224912000031DB6DB6F800B71
:1019D0001F063183603C06C18C6088F1E000000680
:1019E0000002240000060000007267B67C000005BB
:1019F00006318F6F7BB0000400007DCC70000600C4
:101A0000E1867B6DB67C0000050000076FF878006A
:101A10000501DACF318CF000060000007F67307FCF
:101A200037800701C183078D9B36EE0000040660F6
:101A3000E666F000030D8EDB6F000701C18306EF41
:101A40001B36EE0000040E666666F0000A00000019
:101A50000000FB1B66D9B6EDC00000070000000FB8
:101A60008D9B36EE0000050000076F7B70000500BF
:101A7000000F6F7BF638060000006B6DB67863C010
:101A80000500000FB58CF0000400007D6BE0000441
:101A90000022F6667000070000000ECD9B363E0067
:101AA000000500000DEB4C60000800000000DBDAD0
:101AB000DA6C6C00000006000000EDC30EDC0000D4
:101AC00006000000EDA70C228C000500000F99CC49
:101AD000F80004036648466630017FE0040C662186
:101AE0002666C00500000066E000000603F8618677
:101AF0001861FC00000011241FBECFEFCDBFDFE353
:101B0000DEBF00E00CBF15E2A0E0B0E2EEE7F1EED0
:101B100000E00BBF02C007900D92A837B107D9F7BC
:101B200024E3A8E7B5E201C01D92A43DB207E1F7A6
:101B30000E940B510C94BD700C9400008333C0F4D0
:101B4000FB0146815781BA01660F771F869F90017E
:101B5000879F300D11243695279536952795ABE74D
:101B6000B4E10E944E6E96958795841B950B08955F
:101B7000FB0146815781440F551F90E0C297489F53
:101B80009001499F300D589F300D112436952795AF
:101B900036952795ABE7B4E10E944E6E96958795F2
:101BA0000895FB012481358140855185841795076F
:101BB00068F1A901440F551FA1E0B0E0A41BB50BCB
:101BC00033230CF44EC02817390709F44DC040E008
:101BD00050E060E070E0FB01EE0FFF1F4E0F5F1F53
:101BE0006F5F7F4FFA01EE0FFF1FEA0FFB1F1E16FC
:101BF0001F062CF4215031094A0F5B1F129626173D
:101C00003707D4F18217930731F736C0A901440F83
:101C1000551FA1E0B0E0A41BB50B332344F100979E
:101C200041F160E070E040E050E0FA01EE0FFF1F8C
:101C30006E0F7F1F4F5F5F4FFB01EE0FFF1FEA0F1D
:101C4000FB1F1E161F062CF4215031096A0F7B1F43
:101C50001296241735077CF08417950731F7B901E0
:101C60000BC060E070E008C060E070E005C0B90142
:101C700003C0B90101C0B901CB010895CF93DF932F
:101C8000EB0199231CF00E94D10D0BC09C019923FC
:101C900024F422273327281B390BBE01C9010E94D7
:101CA000D10D2A813B81A901481B590BCA01DF9143
:101CB000CF9108952F923F924F925F926F927F92B1
:101CC0008F929F92AF92BF92CF92DF92EF92FF924C
:101CD0000F931F93CF93DF9300D01F92CDB7DEB742
:101CE0006C01512CE12CF12C0F2EFFE2AF2EF9E20A
:101CF000BF2EF02D0F2EF4E16F2E712CF02D689475
:101D0000222423F8312C44244394CE0101964C0123
:101D1000B6018E2D0E949E0D8C01B6010E943E0ED2
:101D2000D601ED91FC91E00FF11F50FC2CC08F010A
:101D30000A501109F50102831383668277820297A4
:101D40008483958320863186428660E080E00E940D
:101D50007E20FF92EF9280E691E29F938F939F9275
:101D60008F920E94C06F20E030E045E050E065E0D7
:101D700070E0C4010E94CB240F900F900F900F9041
:101D80000F900F900BC000E010E021E030E042E047
:101D900050E0BC01CF0101970E9477265394BAE02E
:101DA000EB0EF11CEEE6EE16F10409F0B1CF24962D
:101DB000CDBFDEBFDF91CF911F910F91FF90EF90CC
:101DC000DF90CF90BF90AF909F908F907F906F905B
:101DD0005F904F903F902F900895CF92DF92FF92A7
:101DE0000F931F93CF93DF93F82EEB0100E020E8D1
:101DF00030E040E450E060E070E080E090E00E947D
:101E0000A12880913E298F1569F1BE010E949E0D87
:101E10006C01BE010E943E0EE881F9812A813B815E
:101E200001E010E0AF01BC01C6018E0F9F1F0E94B0
:101E3000572C80913E29F816A9F0BE018F2D0E94E3
:101E40009E0D6C01BE010E943E0EE881F9812A813F
:101E50003B810EEF10E0AF01BC01C6018E0F9F1F4A
:101E60000E94572CF0923E29DF91CF911F910F9144
:101E7000FF90DF90CF900895EF92FF920F931F9302
:101E8000CF93DF93CDB7DEB76497CDBFDEBF00E061
:101E900026E130E049E050E061E270E088E690E061
:101EA0000E94A12860E081E00E947E2083E090E013
:101EB0000E94D01F20E030E045E050E065E070E097
:101EC0000E94CB2426E130E049E050E067E170E079
:101ED00088E690E00E94A12860E081E00E947E20D8
:101EE00080E090E00E94D01F20E030E045E050E02C
:101EF00065E070E00E94CB2426E130E049E050E04C
:101F00006DE070E088E690E00E94A12860E081E04A
:101F10000E947E2081E090E00E94D01F20E030E00F
:101F200045E050E065E070E00E94CB248091E2291A
:101F3000853069F1863009F451C0823009F074C0EF
:101F400083E090E00E94D01F7C0101E010E026E1D8
:101F500030E049E050E061E270E088E690E00E9405
:101F6000F82820E030E045E050E065E070E0C7018F
:101F70000E94CB2480E890E0A1E3BAE4809361263C
:101F800090936226A0936326B09364264DC081E0AF
:101F900090E00E94D01F7C0101E010E026E130E0DB
:101FA00049E050E06DE070E088E690E00E94F8289B
:101FB00020E030E045E050E065E070E0C7010E94BD
:101FC000CB2480E090E6AAEEB6E48093612690935D
:101FD0006226A0936326B093642626C080E090E03A
:101FE0000E94D01F7C0101E010E026E130E049E0D2
:101FF00050E067E170E088E690E00E94F82820E079
:1020000030E045E050E065E070E0C7010E94CB247D
:1020100080E89BE3ACE3B9E4809361269093622669
:10202000A0936326B093642686E0E9E9F0E2DE013E
:10203000119601900D928A95E1F760916126709159
:102040006226809163269091642640E050E40E94CD
:102050000717B701CE0101960E946E6FCE0101965F
:102060000E94FE3100E010E022E330E04AE050E060
:102070006EE270E087E290E00E94F8286496CDBF9F
:10208000DEBFDF91CF911F910F91FF90EF900895E8
:102090002F923F924F925F926F927F928F929F9278
:1020A000AF92BF92CF92DF92EF92FF920F931F9366
:1020B000CF93DF93CDB7DEB76497CDBFDEBF84E6A5
:1020C00080933E2901E010E020E830E046E350E054
:1020D0006AE070E080E090E00E94F8288091072696
:1020E00083660F2EF0E8CF2EF6E0DF2EF02DF601FE
:1020F000848300EA16E06894FF24F7F8F801F5827B
:102100000E943346F801F68285E090E00E94F04597
:1021100080910726F6018483F801F5820E943346F8
:10212000F801F68285E090E00E94F04588E0F80131
:10213000858380E185830F2EF0E2CF2EF6E0DF2E3F
:10214000F02D80E2F60185830EED19E283E0F801BF
:10215000858782E0868788E090E20E94641785E0A8
:10216000F80184830E943C0FF80117860E943B35DA
:1021700041E050E061E070E082E390E00E94C7320D
:10218000E1E5F6E2808182608083F601F5828AE0F3
:1021900090E00E94F045FF24F394F801F6860E9437
:1021A00093340E94E73480E991E08093172990935B
:1021B00018291092A7300E949818F8016685858525
:1021C0000E94B753F801F58A00E010E022E330E006
:1021D0004AE050E06EE270E087E290E00E94F8286A
:1021E0001092E8281092E92883EB90E08093C925AB
:1021F0009093CA250F2EF7E1AF2EF9E2BF2EF02DF6
:10220000CE0101962C010F2EFEED6F2EF9E27F2EEE
:10221000F02D0F2EF9E02F2EF6E23F2EF02DF8C014
:1022200081E290E00E944F46809129298130E1F3BC
:102230000E942F54F501E284F384CE14DF0408F4E5
:1022400067010150110961F7960128193909C9017F
:10225000992324F488279927821B930B0B970CF45E
:1022600047C0B60180E090E00E94A06820E030E026
:1022700048EC52E40E94AF6920E030EF4FE755E4AC
:102280000E94F8670E946A68962E872E40E050E010
:1022900060E070E0892D982D0E94C73200E010E0C8
:1022A00022E330E04AE050E06EE270E087E290E046
:1022B0000E94F8288F929F928FE990E29F938F93CC
:1022C0005F924F920E94C06F60E080E00E947E208B
:1022D00020E030E045E050E062E070E0C2010E94A2
:1022E000CB240F900F900F900F900F900F904601FE
:1022F0008091C9259091CA250E94C2468091E82804
:102300009091E928009709F483C087FD86C0823048
:10231000910509F458C018F4019711F15FC080319C
:10232000910519F0809789F159C0F30187858111D2
:102330000AC06685662309F451C0615066878585A9
:102340000E94B7534BC0823009F048C0F101878129
:10235000882309F443C0815087830E94E7343EC03C
:10236000F3018481853039F0863049F0823051F4B0
:1023700025E0248307C026E0F301248303C022E084
:10238000F30124830E943C0F29C0F301878581114A
:102390000FC0FCEAEF16FDE0FF0604F5F3016685C9
:1023A0006630E0F46F5F668785850E94B75316C07C
:1023B0008230A1F4F1018781833080F48F5F8783BD
:1023C0000E94E7340BC0F3018785811103C022E02E
:1023D000278702C0F30117860E943B351092E82838
:1023E0001092E9280E9493340E94E734E1E5F6E276
:1023F000808182608083F0E8F09325068AE090E097
:102400000E94F0458091E8289091E928892B29F4D1
:102410000EE010E0C12CD12C03CF0E94F55764963A
:10242000CDBFDEBFDF91CF911F910F91FF90EF9055
:10243000DF90CF90BF90AF909F908F907F906F90E4
:102440005F904F903F902F900895CF92DF92EF9240
:10245000FF920F931F93CF93DF93CDB7DEB76497AF
:10246000CDBFDEBF7C0100E026E130E049E050E076
:102470006DE070E088E690E00E94A12860E081E0D5
:102480000E947E2086E090E00E94D01F20E030E095
:1024900045E050E065E070E00E94CB2426E130E0AA
:1024A00049E050E067E170E088E690E00E94A128F2
:1024B00060E081E00E947E2087E090E00E94D01FD3
:1024C00020E030E045E050E065E070E00E94CB2481
:1024D0008BE0E5EAF0E2DE01119601900D928A951B
:1024E000E1F781E4E81682E0F80631F08BEDE816BA
:1024F00083E0F80601F13DC086E090E00E94D01F25
:102500006C0101E010E026E130E049E050E06DE0D0
:1025100070E088E690E00E94F82820E030E045E096
:1025200050E065E070E0C6010E94CB2481E492E0B7
:102530000E9412581EC087E090E00E94D01F6C01DC
:1025400001E010E026E130E049E050E067E170E0B2
:1025500088E690E00E94F82820E030E045E050E076
:1025600065E070E0C6010E94CB248BED93E00E94F1
:102570001258B601CE0101960E946E6FCE010196EF
:102580000E94FE3100E010E022E330E04AE050E03B
:102590006EE270E087E290E00E94F8286496CDBF7A
:1025A000DEBFDF91CF911F910F91FF90EF90DF90F1
:1025B000CF9008952F923F924F925F926F927F92A9
:1025C0008F929F92AF92BF92CF92DF92EF92FF9243
:1025D0000F931F93CF93DF93CDB7DEB72A97CDBF6D
:1025E000DEBF81E492E00E9425120EED19E26894AC
:1025F000882482F8F8018482828255245394578675
:102600000E943B3589E591E0F801838B948B41E092
:1026100050E061E070E087E090E00E94C732E1E5C1
:10262000F6E28081826080830F2EF0E2CF2EF6E00A
:10263000DF2EF02D6894992497F8F60195828AE0B0
:1026400090E00E94F0458091072683660F2EF0E807
:10265000AF2EF6E0BF2EF02DF50184830F2EF0EAA9
:10266000EF2EF6E0FF2EF02DF70195820E94334603
:10267000F701968285E090E00E94F0458091072660
:10268000F5018483F70195820E943346F701968213
:1026900085E090E00E94F04588E0F701858380E1C5
:1026A000858380E2F6018683F8011382858656864B
:1026B00080E991E080931729909318291092A73010
:1026C0000E949818F801668585850E94B7530E947C
:1026D00093340E94E73400E010E022E330E04AE067
:1026E00050E06EE270E087E290E00E94F8281092DD
:1026F000E8281092E9288BEB90E08093C92590930D
:10270000CA250F2EF1E44F2EF2E05F2EF02D0F2E92
:10271000F7E1AF2EF9E2BF2EF02D0F2EFEED8F2E3A
:10272000F9E29F2EF02D0F2EF9E02F2EF6E23F2E2C
:10273000F02D6DC181E290E00E944F4680912929E1
:102740008130E1F30E942F54F501E284F384CE142A
:10275000DF040CF467010150110961F79601261995
:102760003709C901992324F488279927821B930BE1
:102770000B970CF44EC0B6010D2C000C880B990B76
:102780000E94A26820E030E048EC52E40E94AF6969
:1027900020E030EF4FE755E40E94F8670E946A6836
:1027A000762E672E40E050E060E070E0872D962D99
:1027B0000E94C73200E010E022E330E04AE050E03F
:1027C0006EE270E087E290E00E94F8286F927F92BC
:1027D0008FE990E29F938F9381E090E08C0F9D1F93
:1027E0009F938F930E94C06F60E080E00E947E20E4
:1027F00020E030E045E050E062E070E0CE0101967C
:102800000E94CB240F900F900F900F900F900F907D
:102810003601F401838994898C159D0518F421E013
:10282000258B02C0F401158A8091C9259091CA2593
:102830000E94C2468091E8289091E928009709F407
:10284000E6C087FDE9C088309105C9F140F48130C8
:10285000910509F4A1C0029709F48AC0BEC0803175
:10286000910521F0809709F463C0B7C0F401878512
:1028700081110AC06685662309F4AFC0615066877E
:1028800085850E94B753A9C0823051F4F101878138
:10289000882309F4A2C0815087830E94E7349DC039
:1028A000813009F09AC0F401138A148A41E050E0A3
:1028B00061E070E081E090E00E94C7328EC0B60116
:1028C000DD0C880B990B0E94A26823E333E343E9F4
:1028D0005FE30E94AF690E946A68693EFDE07F077E
:1028E00020F4F401638B748B05C088EE9DE0F40145
:1028F000838B948BF4016389748980E090E00E945B
:10290000A06820E030E048EC52E40E94AF6920E08B
:1029100030EF4FE755E40E94F8670E946A68DC01D7
:10292000CB0141E050E061E070E00E94C73255C049
:10293000F4018785811111C0FCEAEF16FDE0FF0666
:102940000CF04BC0F4016685663008F046C06F5F3E
:10295000668785850E94B75340C08230F1F5F1014A
:1029600087818330D0F58F5F87830E94E73435C03D
:10297000F4018785811103C082E087870AC0823015
:1029800021F421E0F401278704C0813011F4F4011F
:1029900017860E943B3521C01092E8281092E92842
:1029A000F1E44F16F2E05F0669F02BED421623E0EA
:1029B000520681F40F2EF1E44F2EF02D6894552429
:1029C00051F808C00F2EFBED4F2EF02D0F2EF3E027
:1029D0005F2EF02DC2010E9425121092E82810925D
:1029E000E9280E9493340E94E734E1E5F6E2808111
:1029F00082608083F0E8F09325068AE090E00E94F0
:102A0000F0458091E8289091E928892B29F40EE07F
:102A100010E0C12CD12C8ECE0E94F5572A96CDBF46
:102A2000DEBFDF91CF911F910F91FF90EF90DF906C
:102A3000CF90BF90AF909F908F907F906F905F905E
:102A40004F903F902F9008953F924F925F926F92D8
:102A50007F928F929F92AF92BF92CF92DF92EF922E
:102A6000FF920F931F93CF93DF9380EB90E20E942E
:102A7000FE3101E010E020E830E046E350E06AE09B
:102A800070E080E090E00E94F828EBE8F0E310822C
:102A9000118212821382148215821682178288E0B4
:102AA00090E20E9464178091072683660F2EF0E85B
:102AB000EF2EF6E0FF2EF02DF7018483C0EAD6E07A
:102AC00010E81D830E9433461E8385E090E00E943B
:102AD000F04580910726F70184831D830E943346C9
:102AE0001E8385E090E00E94F04588E08D8380E1C0
:102AF0008D83E0E2F6E080E28583CEEDD9E203E06B
:102B00000D87A1E5B6E28C9182608C9315838AE0F3
:102B100090E00E94F0450E871F8680E991E0809347
:102B20001729909318291092A7300E9498186E8543
:102B30008D850E94B75381E08D8B1092E82810920A
:102B4000E92882EB90E08093C9259093CA250E94E2
:102B500093340E94E7340E943B3500E010E02EE100
:102B600030E049E050E06DE270E081E090E00E94EA
:102B7000F82820E030E045E050E065E070E089EBC7
:102B800090E20E94CB2428E230E049E050E06DE280
:102B900070E087E590E00E94F82820E030E045E012
:102BA00050E065E070E08CEB90E20E94CB2401E005
:102BB00022E530E04EE150E065E170E084E190E034
:102BC0000E94A1280F2EF3E0CF2EF1E2DF2EF02D90
:102BD00007E119E25E010F2EF9E06F2EF6E27F2E7B
:102BE000F02D6894332431F89DC0699179918991D1
:102BF000999140E050E40E94071781E290E00E9422
:102C00004F46809129298130E1F30E942F54F80129
:102C10004284538481E290E00E944F4680912929AA
:102C20008130E1F30E942F54F80182849384842D33
:102C3000952D881599050CF4C401992314F480E0AE
:102C400090E0F701819391937F01CC16DD0669F640
:102C50000E9490338091C9259091CA250E94C24656
:102C60008091E8289091E928009709F45BC087FDDE
:102C700059C08031910539F080329105F9F0029701
:102C800009F04CC03BC0F501878581110CC06685F9
:102C9000662309F443C06150668785850E94B75357
:102CA0000E9493343BC08230C9F5F30187818823A9
:102CB000A9F1815087830E94E73430C0F5018785F0
:102CC000811111C0FCEA8F16FDE09F063CF5F5016D
:102CD0006685663018F56F5F668785850E94B753F5
:102CE0000E9493341BC08230C9F4F3018781833082
:102CF000A8F48F5F87830E94E73410C0F5018785B1
:102D0000811102C0378604C0823011F4F5011786A4
:102D10000E943B350E94E7340E9493341092E828C9
:102D20001092E9288091E8289091E928892B49F4AC
:102D3000C3EDD0E20F2EFEE9EF2EF5E2FF2EF02DCF
:102D400054CF1092CE281092F329DF91CF911F918A
:102D50000F91FF90EF90DF90CF90BF90AF909F903A
:102D60008F907F906F905F904F903F9008950F935A
:102D70001F9301E010E020E830E046E350E06AE015
:102D800070E080E090E00E94F8288FEB90E20E94D3
:102D9000FE3140E050E060E070E085EC90E20E949F
:102DA000253240E050E061E070E08AEC90E20E9461
:102DB000253240E050E062E070E080EB90E20E945B
:102DC000253283E08093DE290E943C5188E390E025
:102DD0008093C9259093CA258FEB90E00E9484468A
:102DE0008091E8289091E9288031910541F0803266
:102DF000910541F0089741F40E94DA1205C00E9443
:102E0000481002C00E9424151F910F9108950F933E
:102E10001F93CF93DF93C52F20E034E244E75DE3B7
:102E20000E94F8670E947168272F2F732C2BE5EB07
:102E3000F0E3238364838B019C010F2EF6E136952A
:102E4000279517950795FA95D1F7F02D0F73C02B9D
:102E5000C583DC01CB01072E7EE0B695A79597953B
:102E600087957A95D1F7702D86830E94114EC0E622
:102E7000D6E010E11E8384E00E94994D1D83DF910E
:102E8000CF911F910F9108951F93CF93DF93EA0184
:102E900020E030E044EB5DE30E94F8670E94716837
:102EA0006C2B7D2BE5EBF0E3738364830E94114E62
:102EB000C0E6D6E010E11E8382E00E94994D1D839A
:102EC000DF91CF911F9108951F93CF93DF93E5EB8F
:102ED000F0E3938384830E94114EC0E6D6E010E1B4
:102EE0001E8382E00E94994D1D83DF91CF911F9137
:102EF00008951BBEFC0128ED24BF60830895EAEC11
:102F0000F8E283818111FDCFE0E5F0E08BED828373
:102F1000808188608083818183FFFDCFE0E5F0E0E0
:102F200082EC8583808180618083818184FFFDCFF5
:102F300064E080E490E00E947917E0E5F0E08081B1
:102F40008E7F808380818D7F808308950E947F178C
:102F500060E081E490E00E94791761E083E490E012
:102F60000E9479170895CF93DF93A0E2B6E08CEF2B
:102F70008C93C0E4D6E088EB8883E0EBF0E087E058
:102F8000808388E1898B89E08483E0E6F6E08FEB3B
:102F9000808381E0858380E115968C9392E0958310
:102FA0008583E0E8F6E08FEF808380898064808B02
:102FB00082898064828B83898064838B8489806426
:102FC000848B8FE98093A006DF91CF910895CF93F2
:102FD000DF93C0E0D9E02EA93FA9A82FB0E00E945E
:102FE0004E6E24E630E040E050E00E94276E2EAFA7
:102FF0003FAFDF91CF910895E0E0F9E080E8818371
:1030000081818360818384E0808380EA9FE086AB56
:1030100097AB16A617A680912E260E94E717089553
:103020000E94FC1782E0809306090895E0E4F8E02E
:1030300081E08083118210A211A225E335E026AB46
:1030400037AB84870895E0E0F8E083E080838183F4
:1030500081E492E00E943B450895E0E0FBE01086A9
:10306000108283E1818310A211A281E492E00E9488
:1030700012580895E0ECF9E010828091C209809125
:10308000C3098081808380818F7D808380818C6073
:1030900080838081806180838081806480831092BE
:1030A000B7300895E0E2F3E080818460808380811E
:1030B0008860808380818160808380E480932103A5
:1030C000E2E2F3E080818E7F80838081886080836C
:1030D00080E098E0809338039093390380933A031B
:1030E00090933B030895E0E0F2E08481887F84833D
:1030F00084818260848382818F78828382818062EE
:10310000828381818F7E81838181806181838181BE
:10311000897F818381E08383808382E082A30E9410
:10312000161888EC8093800189E080934308089505
:103130000E947318E2E6FDE222E830E380E090E8C6
:1031400081939193E217F307D9F710929730109279
:103150009830089580E091E00E94641780E291E247
:103160000E94641740E050E460E070E480E194E481
:103170000E94071780E291E20E94641740E050EC41
:1031800060E070E0CB010E94441780E291E20E946F
:10319000641740E050E860E070E480E194E40E944D
:1031A000071780E291E20E94641740E050EE60E071
:1031B00070E0CB010E94441788E290E20E946417FD
:1031C00008950F931F93CF93DF93C0E6D6E012E0EC
:1031D0001E8382E090E00E94F0451D8382E090E033
:1031E0000E94F0450E943A180E941A4EE2ECF9E063
:1031F00080818068808384E08E8381E08E8382EA90
:103200008093C30980818823ECF7C0E6D6E011E003
:103210001D830E941A4EE2ECF9E080818068808371
:1032200084E08E831E8381EA8093C3098081882392
:10323000ECF7C0E6D6E011E01D830E941A4EE2ECE6
:10324000F9E080818068808384E08E831E8380EC37
:103250008093C30980818823ECF7C0E6D6E011E0B3
:103260001D830E941A4EE2ECF9E080818068808321
:1032700084E08E831E8380E48093C3098081882349
:10328000ECF7C0E6D6E011E01D830E941A4EE2EC96
:10329000F9E080818068808384E08E831E8385E2EC
:1032A0008093C30980818823ECF7C0E6D6E011E063
:1032B0001D830E941A4EE2ECF9E0808180688083D1
:1032C00084E08E831E8381E88093C30980818823F4
:1032D000ECF7C0E6D6E011E01D8300912F260E9496
:1032E0001A4EE2ECF9E080818068808384E08E836E
:1032F0001E830093C30980818823ECF7C0E6D6E0E3
:1033000011E01D830E941A4EE2ECF9E08081806892
:10331000808384E08E831E838FE28093C309808143
:103320008823ECF7C0E6D6E011E01D830E941A4E18
:10333000E2ECF9E080818068808384E08E831E83E4
:103340008FEA8093C30980818823ECF781E0809322
:1033500065060E94F91FDF91CF911F910F9108958B
:103360002F923F924F925F926F927F928F929F9295
:10337000AF92BF92CF92DF92EF92FF920F931F9383
:10338000CF93DF931F92CDB7DEB78091E728898373
:1033900081E194E20E94094612E01093660682E001
:1033A00090E00E94F0451093650682E090E00E9454
:1033B000F04588E08093660681E00E94E717332499
:1033C000339400EA16E06894222421F80F2EF0E2EC
:1033D000CF2EF6E0DF2EF02D0F2EF1E5EF2EF6E2E8
:1033E000FF2EF02D0F2EA12CF6E0BF2EF02D0F2E6C
:1033F000F0E68F2EF6E09F2EF02D0F2EF0E86F2EC8
:10340000F6E07F2EF02D0F2EF8E44F2E512CF02DEC
:1034100001C0382E8091480680FFFCCF88EE93E0F3
:103420000E94F0458091480680FF8EC0F894F80114
:10343000268280E8F6018683F70180818D7F808374
:10344000F5011082F6011082F4011082F30110825E
:10345000F801208286E0E0EBF0E0808310925106D4
:1034600088E0E0E4F6E08083809346061092500600
:1034700081E080934A068093490680934C069DEF35
:1034800088ED08B618BE84BF9093800008BEF20194
:103490008081817F86608083808181608083789451
:1034A000889580818E7F80830E94B3170E941018B8
:1034B0000E943A1888EE93E00E94F04580914806F9
:1034C00080FD3EC0F801258280912E260E94E717DC
:1034D00084E690E00E94F0450E9475579091E7289D
:1034E0008CEF890F823020F4F8012682832D29C0C9
:1034F00089818450823068F49FE188ED08B618BE57
:1035000084BF909380008091820081FDFCCF08BE33
:10351000FFCF9095909308268DEB93E20E9457463B
:10352000E0E4F6E0808580FFFDCF10922A2910921A
:103530002B291092E8281092E9280E94C54D06C058
:10354000832D311066CF02C0311064CF0F90DF9110
:10355000CF911F910F91FF90EF90DF90CF90BF9090
:10356000AF909F908F907F906F905F904F903F9023
:103570002F9008951F920F920FB60F9211240BB641
:103580000F922F933F934F935F936F937F938F93FC
:103590009F93AF93BF93EF93FF938091CB30909124
:1035A000CC30892B51F08091CB309091CC30019769
:1035B0008093CB309093CC3006C08091C825813069
:1035C00011F41092C8258091C4309091C530892B98
:1035D00051F08091C4309091C53001978093C430F0
:1035E0009093C53006C080912929813011F4109242
:1035F000292930914806309537703093CF303323E6
:1036000009F49FC01092CE288091512681FF03C0FB
:1036100080E88093CE2888E08093C6301092BE3038
:103620001092CE3040E028E0AAECB8E2E0E4F6E008
:1036300001C0452F14968C911497822B848351E0FE
:10364000540F220F84E18150F1F7808590E080953E
:10365000909587709927892B09F4F3C0822F89737D
:1036600041F72093C630EFC0E82F81E08E0F3695EA
:10367000D9F71092CF30E093BE30EE0FEE0F4E2B05
:103680004093CE30E42FF0E0EE0FFF1FE258FF4DE5
:10369000808191818093CA302091C330281346C025
:1036A0002091BF302F5F2093BF302D3308F453C0DB
:1036B0002091BC303091BD302115310591F499270E
:1036C00080932A2990932B2981E090E08093BC304D
:1036D0009093BD308EEE92E08093C1309093C230D3
:1036E0000BC02091C8303091C9304091C130509109
:1036F000C2302417350739F02F5F3F4F2093C83071
:103700003093C93028C0992780932A2990932B2978
:103710001092C8301092C93081E08093CD3082EC95
:1037200091E08093C1309093C23015C01092BF30A9
:103730001092BC301092BD301092CD308093C330C7
:103740000AC01092C3301092BC301092BD3010925B
:10375000CD301092BF308091CD28882351F18091D7
:10376000CF289091D028892B21F1EAECF8E28581CD
:10377000968101978583968385819681892BC9F4EB
:10378000818192810496818392830180F281E02D70
:1037900082819381892B19F00E94A8450AC010925A
:1037A000CD2880E880932606E1E5F6E280818D7FD2
:1037B000808380914A2981FF4DC080914A2983FDF1
:1037C0001EC0EFE3F9E226813781828193812817B9
:1037D000390771F4EAE4F9E280818860808380E847
:1037E00080932606E1E5F6E280818D7F808307C025
:1037F000EFE3F9E286819781019686839783809132
:103800004A2983FF27C080914A2985FD23C0EFE321
:10381000F9E220853185848195812817390749F49B
:10382000EAE4F9E280818062808380818F7E8083F8
:1038300011C0EFE3F9E28085918501968087918739
:1038400009C02093C6308091CE2880934406E09131
:10385000BE300BCFFF91EF91BF91AF919F918F91B0
:103860007F916F915F914F913F912F910F900BBE80
:103870000F900FBE0F901F9018951F920F920FB6CA
:103880000F9211240BB60F928F939F93AF93BF9318
:10389000EF93FF9380915026811104C08091CD2831
:1038A0008130C1F4A6E4B6E21A96EC911A97F0E0E2
:1038B000EE0FFF1FE155F64D808191818093380313
:1038C000909339031A968C911A978F5F8F701A967E
:1038D0008C9313C08091502681110FC08091CD2808
:1038E00081110BC0E0E0F8E087818C7F87838FEF48
:1038F00097E08093380390933903FF91EF91BF9144
:10390000AF919F918F910F900BBE0F900FBE0F90B4
:103910001F9018951F920F920FB60F9211240BB69D
:103920000F928F939F93AF93BF93EF93FF938091E9
:103930004A2983FF04C0809149298823B9F0AFE365
:10394000B9E21A96EC911A97F0E0EE0FFF1FE553DB
:10395000FA4D8081918180933A0390933B031A96AC
:103960008C911A978F5F8F701A968C93809149294A
:1039700081110FC080914A2983FF0BC0E0E0F8E07D
:103980008781837F87838FEF97E080933A039093BB
:103990003B03FF91EF91BF91AF919F918F910F905A
:1039A0000BBE0F900FBE0F901F9018951F920F9295
:1039B0000FB60F9211240BB60F928F939F93AF9374
:1039C000BF93EF93FF93E5EBF0E39081818198172C
:1039D00061F0DF01E081F0E0EB54FF4C83818093E4
:1039E000C3098C918F5F8C9302C01092B730FF9106
:1039F000EF91BF91AF919F918F910F900BBE0F9060
:103A00000FBE0F901F9018951F920F920FB60F9236
:103A100011240BB60F920F931F932F933F934F9345
:103A20005F936F937F938F939F93AF93BF93EF9326
:103A3000FF93CF93DF9300D000D0CDB7DEB7E091F6
:103A40009730F0919830EE0FFF1FEE59F24D8081C4
:103A50009181209124023091250229833A83298182
:103A60003A812150384F29833A8329813A813F7026
:103A70002B833C832B813C812093A1303093A23057
:103A80002B813C812431310528F02B813C812C3E57
:103A90003F4018F021E020939F3020919A3022235C
:103AA00029F02091A0302F5F2093A03020919730F3
:103AB000309198302230310508F472C0209197304F
:103AC000309198302E38314008F06AC02B813C810B
:103AD000329522952F7023273F7023272D833E8315
:103AE000AD81BE8140919B3050919C3060919D3062
:103AF00070919E30092F11270A9F90010B9F300D66
:103B00001A9F300D1124420F531F611D711D4093E8
:103B10009B3050939C3060939D3070939E300D810C
:103B20001E8140915A2D50915B2D60915C2D7091BA
:103B30005D2DDF01149711962C9130E0209FD0016C
:103B4000219FB00D309FB00D11244A0F5B1F611DE6
:103B5000711D40935A2D50935B2D60935C2D709393
:103B60005D2D0D811E814091843050918530609192
:103B7000863070918730258130E0209FD001219FD1
:103B8000B00D309FB00D11244A0F5B1F611D711DD8
:103B900040938430509385306093863070938730A3
:103BA00020918830BC0102C0769567952A95E2F78E
:103BB0002B813C81A091883044E050E04A1B5109A0
:103BC00002C0220F331F4A95E2F7820F931F861B14
:103BD000970B808391832091A73021115DC02091A4
:103BE0008230309183306091933070919430409165
:103BF000A530261B370B4F5F02C0220F331F4A959B
:103C0000E2F72093893030938A302D3977EF3707E8
:103C10003CF425E638EF2093893030938A3009C090
:103C20002C39374034F02BE937E02093893030933A
:103C30008A302091893030918A30385F20939530D6
:103C400030939630209110262223B9F03091F32939
:103C5000313099F4409195305091963063E070E0A6
:103C6000FB01E21BF109BA0102C076956795EA955E
:103C7000E2F76093380370933903E0919730F09145
:103C800098302091953030919630EE0FFF1FE85D0F
:103C9000F54D208331830CC0E0919730F09198303E
:103CA0002B813C81EE0FFF1FE85DF54D20833183B2
:103CB00020919730309198302F5F3F4F209397306D
:103CC000309398302091973030919830203931409E
:103CD00081F4109297301092983021E02093B43004
:103CE00020918830211105C0209188302F5F2093CA
:103CF00088302B813C8120938230309383309295A1
:103D000082958F7089279F70892780939330909335
:103D1000943081E080939A302696CDBFDEBFDF914C
:103D2000CF91FF91EF91BF91AF919F918F917F9133
:103D30006F915F914F913F912F911F910F910F9034
:103D40000BBE0F900FBE0F901F9018951F920F92F1
:103D50000FB60F9211248F9380917925813019F439
:103D60001092792503C081E0809379258F910F907F
:103D70000FBE0F901F9018951F920F920FB60F92C3
:103D800011240F900FBE0F901F9018951F920F9245
:103D90000FB60F9211240BB60F928F93EF93FF93F0
:103DA0008091080A80FF06C0E0E0FAE081818F7E02
:103DB000818305C0E0E0FAE0818180618183FF9129
:103DC000EF918F910F900BBE0F900FBE0F901F9031
:103DD00018951F920F920FB60F9211240BB60F92E7
:103DE0002F933F934F935F936F938F939F93AF93D3
:103DF000BF93CF93DF93EF93FF938091E0298130BE
:103E0000A9F520912C0230912D02A7E1B9E28D9104
:103E10009C911197C5E8D5E24F81588551966C91D8
:103E20005197649FF001659FF00D1124E80FF91F71
:103E3000EE0FFF1FE85DF54D2083318301968D93D2
:103E40009C932F8138858217930719F4109295253A
:103E500068C02091902530919125E0E4FAE082AD90
:103E600093AD820F931F82AF93AF5BC0833051F548
:103E700020912C0230912D028EEF97E0821B930B44
:103E80009F709C010090E32902C0359527950A9404
:103E9000E2F72093380330933903209117293091AA
:103EA000182920313105E8F5F901EE0FFF1FE85D13
:103EB000F54D808391832F5F3F4F209317293093D7
:103EC00018292FC0843069F520912C0230912D02E1
:103ED0008EEF97E0821B930B9F702091F329213086
:103EE00061F49C010090E32902C0359527950A945E
:103EF000E2F720933803309339032091172930914A
:103F000018292031310568F4F901EE0FFF1FE85D33
:103F1000F54D808391832F5F3F4F20931729309376
:103F20001829FF91EF91DF91CF91BF91AF919F91B0
:103F30008F916F915F914F913F912F910F900BBE99
:103F40000F900FBE0F901F9018951F920F920FB6F3
:103F50000F9211248F9380917825813031F4109243
:103F6000782584E08093A60606C081E080937825BA
:103F700084E08093A5068F910F900FBE0F901F9045
:103F800018951F920F920FB60F9211248F9381E014
:103F900080934C068F910F900FBE0F901F90189535
:103FA00090E089309105F8F4FC018827E250FF4F3A
:103FB0008F4F0C94466E86E091E208958BE091E27B
:103FC000089580E191E2089585E191E2089580EA03
:103FD00091E208958BE191E208958FE191E20895D5
:103FE00083E291E2089587E291E2089583E091E20D
:103FF00008956F927F928F929F92AF92BF92CF92CD
:10400000DF92EF92FF920F931F93CF93DF930F2EC8
:10401000F3EDEF2EF0E3FF2EF02D712CC2ECD9E082
:1040200000E616E06894882482F8992493940F2E71
:10403000F3ECCF2EF9E0DF2EF02D6894662464F8BF
:10404000872D8F70806BB82E0E941A4E88818068F1
:104050008883F80186829682F601B082888188235F
:10406000ECF7F80195820E941A4E88818068888357
:10407000F80186829682F601608288818823ECF7B7
:10408000F80195820E941A4E888180688883F80121
:1040900086829682F601808288818823ECF7F80177
:1040A00095825701F0E8AF0EB11CF70111927F0124
:1040B0000E941A4E888180688883F80185829682E2
:1040C000F601108288818823ECF7F8019582EA14C2
:1040D000FB0459F773947501F8E07F12B1CFDF91BB
:1040E000CF911F910F91FF90EF90DF90CF90BF90F5
:1040F000AF909F908F907F906F9008952F923F92F6
:104100004F925F926F927F928F929F92AF92BF92E7
:10411000CF92DF92EF92FF920F931F93CF93DF9393
:10412000CDB7DEB76797CDBFDEBF21E090E081114C
:1041300020E0422F592FCE014196FE013196119277
:1041400011928E179F07D9F7EFE2F9E2A481B581AA
:10415000CD01840F951F20853185A20FB31FA41BAD
:10416000B50B8A179B0720F501E010E0FC01F695DE
:10417000E795F695E795F695E795EE0FFF1F21E099
:1041800030E02C0F3D1FE20FF31F9C0127703327F7
:10419000780102C0EE0CFF1C2A95E2F720813181E4
:1041A0002E293F29208331830196A817B907F1F6FC
:1041B000EFE2F9E222813381C901840F951F898BD7
:1041C0009A8B86819781820F931FFC01E41BF50B6C
:1041D000EE8BFF8B29893A892E173F0708F475C0AB
:1041E0009CC0F401C190D1904F01C114D10409F4D5
:1041F0005AC00E941A4EF801808180688083F701BE
:10420000368246822C89F3012083F801808188233D
:10421000E4F7F70145820E941A4EF8018081806818
:104220008083F701368246822D89F3012083F801CD
:1042300080818823E4F7F7014582852D8F70806B9C
:104240008B8B0E941A4EF801808180688083F70171
:10425000368246822B89F3012083F80180818823EE
:10426000E4F7F7014582211007C0C094D094F5010E
:104270008081C822C08204C0F5018081C82AC08222
:10428000F501D0800E941A4EF801808180688083F9
:10429000F70135824682F301D082F80180818823BC
:1042A000E4F7F7014582F0E8AF0EB11C539428E023
:1042B000521297CF89899A890196898B9A8BEE89B8
:1042C000FF898E179F07A8F028C0262E02EC19E060
:1042D0000F2EF0E6EF2EF6E0FF2EF02D689433243B
:1042E00032F8442443940F2EF3EC6F2EF9E07F2E26
:1042F000F02D89898F778C5F982F92959F709061B0
:104300009C8B29893A892D523F4C5901FE013196E7
:104310004F01512C8F708D8B64CF6796CDBFDEBF60
:10432000DF91CF911F910F91FF90EF90DF90CF9091
:10433000BF90AF909F908F907F906F905F904F90C5
:104340003F902F9008952F923F924F925F926F92DD
:104350007F928F929F92AF92BF92CF92DF92EF9215
:10436000FF920F931F93CF93DF93CDB7DEB7ED97F7
:10437000CDBFDEBFFB01EE0FFF1FEE0FFF1FE60FED
:10438000F71FE85DFF4DA481EA2EF12CEDA6FEA6F5
:10439000A081B1816430710531F06230710521F581
:1043A000E6E0E9AF02C0F4E0F9AFFC01808190E003
:1043B0008097D9ACEDA4FEA4DE9CF001DF9CF00D4B
:1043C0001124F695E795F695E795F695E7958E9F76
:1043D00070018F9FF00C9E9FF00C1124CD018E0D6B
:1043E0009F1D8FAB98AF62C06330710501F5FC0172
:1043F000808190E08097FC01EE0FFF1FEE0FFF1F02
:104400008E0F9F1F7D01E80EF91EEFAAF8AE809176
:104410003129909132297A01E80EF91EEBA6FCA60B
:1044200045E050E04FA758AB55E059AF25C2653085
:104430007105E1F4FC01808190E08F35910510F069
:104440008FE390E0FC01EE0FFF1FEE0FFF1FEE0F5A
:10445000FF1FE81BF90BE05EF109EA0FFB1FD49088
:10446000D9AECF0101968FAB98AF20C0FB01EE0F04
:10447000FF1FEE0FFF1FE60FF71FE85DFF4DE28005
:10448000F380FC01808190E080529048880F991F52
:10449000F701E80FF91F85919491FD01E80FF91FCD
:1044A000D490D9AECF0101968FAB98AF80913129CE
:1044B000909132297A01E80EF91EEBA6FCA6F9AC20
:1044C000EF2CF12CEFA6F8AAEF2809F0D5C108C20D
:1044D000119211928E179F07D9F7A0903329B090AF
:1044E0003429C9A8DAA8CA0CDB1CC6010BA91CA96F
:1044F00003301105A9F00530110591F0EFA4F8A8DB
:104500002DA53EA5E29E8001E39E100DF29E100DAA
:104510001124E9A4FAA4E016F10608F44BC095C0F2
:104520000FA518A9E9A4FAA4E016F10608F089C0BD
:10453000EFA9F8ADEE0DFF1DE491AE2FB0E020E045
:1045400030E0EAACFBAC6CAD7DADAC01420F531F6B
:10455000FB01022E02C0EE0FFF1F0A94E2F7EA23CE
:10456000FB23EF2BE9F0FA01F695E795F695E79531
:10457000F695E795EE0FFF1F01E010E00C0F1D1FF1
:10458000E00FF11F47705527810102C0000F111F76
:104590004A95E2F740815181402B512B4083518352
:1045A0002F5F3F4F2E153F0580F2EAACFBACEDA626
:1045B000FEA64BC0A60129A53AA54FA858ACEFA46A
:1045C000F8A8F901F695E795F695E795F695E7953C
:1045D000E40DF51D6491F901E770FF27A0E8B0E054
:1045E00002C0B595A795EA95E2F770E06A237B23B0
:1045F000672BF1F0FA01F695E795F695E795F695B4
:10460000E795EE0FFF1F61E070E06C0F7D1FE60F76
:10461000F71FBA0167707727D10102C0AA0FBB1F2D
:104620006A95E2F7608171816A2B7B2B60837183CD
:104630002E0D3F1D4F5F5F4F2017310708F4C1CF8C
:1046400004C0EAACFBACEDA6FEA6FE0171969E018D
:104650002F5D3F4F11921192E217F307D9F77601C0
:10466000F594E794F594E794F594E7940DA51EA5C9
:10467000C00ED11E860116950795169507951695BD
:1046800007950DA31EA369A97AA96A0D7B1D0DA527
:104690001EA5600F711F8617970710F5FC01F69590
:1046A000E795F695E795F695E795EE0FFF1F21E064
:1046B00030E02C0F3D1FE20FF31F9C0127703327C2
:1046C000A10102C0440F551F2A95E2F720893189C4
:1046D000242B352B208B318B019686179707F1F60B
:1046E0000DA11EA10E151F0508F4B4C08BA58F7770
:1046F0008C5F982F92959F7090619FA3870116956C
:10470000102F0027179507952BA53CA5020F131F07
:104710000D521F4C2701440C551C0F2EF1E1AF2EFA
:10472000B12CF02DAC0EBD1EA40CB51C41E050E028
:104730004C0F5D1F440E551E6894DD24D2F8CC2426
:10474000C3948F7088A72DAA3EAA09A31AA3F501C6
:104750002081F2E0AF0EB11C822F8095F80190818C
:10476000892380834BA15CA1452B31F4F201908118
:10477000892BF80180830DC04BA15CA14F3F5105EF
:1047800041F4F201908190952923822BE9A1FAA1AD
:1047900080830E941A4EF401808180688083F30137
:1047A000D682C6822FA1E3ECF9E02083F401808158
:1047B0008823E4F7F301C5820E941A4EF401808138
:1047C00080688083F301D682C68228A5E3ECF9E0F5
:1047D0002083F40180818823E4F7F301C5828E2DC4
:1047E0008F70806B382E0E941A4EF4018081806891
:1047F0008083F301D682C682E3ECF9E03082F401D3
:1048000080818823E4F7F301C582E9A1FAA1308011
:104810000E941A4EF401808180688083F301D58262
:10482000C682E3ECF9E03082F40180818823E4F76A
:10483000F301C582FFEFEF1AFF0A00581F4F22E075
:10484000420E511C4DA15EA14E155F0508F07DCFB3
:104850002DA83EA80BA51CA50F5F1F4F0BA71CA7DB
:1048600009A51AA50F5F1F4F09A71AA7EFA4F8A85B
:104870000E151F0580F134C06330710519F447E04F
:1048800050E002C045E050E00BA31CA329AB3AABBB
:104890006BAB7CAB4AAF5BAF88E090E0841B950BC1
:1048A00021E030E0890102C0000F111F8A95E2F774
:1048B0000CAF1DAF19A61AA622242394312C0F2E5B
:1048C000F2EC8F2EF9E09F2EF02D0F2EF0E66F2EDA
:1048D000F6E07F2EF02DFE013196CE014196F8CD07
:1048E00089ADED96CDBFDEBFDF91CF911F910F91C6
:1048F000FF90EF90DF90CF90BF90AF909F908F9000
:104900007F906F905F904F903F902F9008956F929F
:104910007F928F929F92AF92BF92CF92DF92EF924F
:10492000FF920F931F93CF93DF93EC016B0139013B
:1049300048016430710549F091E080E06230710512
:1049400009F490E0A92EB82E02C0A12CB12CE42EBF
:10495000F52E8881882381F084019301A701B60197
:10496000CE010E94A3219501280F311DE20EF31EF6
:10497000219688818111F0CFDF91CF911F910F9106
:10498000FF90EF90DF90CF90BF90AF909F908F906F
:104990007F906F9008952F923F924F925F926F9207
:1049A0007F928F929F92AF92BF92CF92DF92EF92BF
:1049B000FF920F931F93CF93DF93CDB7DEB7CA5605
:1049C000D109CDBFDEBFA82FB92FAB964EAF5FAFD9
:1049D000AB97A7962EAF3FAFA797FB01EE0FFF1F38
:1049E000EE0FFF1FE60FF71FE85DFF4D4480512CCF
:1049F00020903929220CCB010297039738F56430B7
:104A0000710531F00F2EF6E0EF2EF12CF02D04C0E1
:104A10006894EE24E2F8F12C0091352910913629A2
:104A200002191109EA2FFB2FDE01119620E030E078
:104A3000C9018E0D9F1D8017910708F075C0219147
:104A40002D939C01D080D110F3CF6EC065307105DD
:104A500099F5E0904120F090422000913529109185
:104A600036295801A218B1088A2F9B2FDE01119612
:104A700020E030E0FC01D190CF01FBE5FD1510F402
:104A8000EFE301C0ED2DE052870147E0E49F000D08
:104A9000111D1124F801E49189010E0F111D0A1551
:104AA0001B0508F041C0DD9298012F5F3F4FFC01CC
:104AB00010811111DFCF38C0FB01EE0FFF1FEE0F89
:104AC000FF1FE60FF71FE85DFF4DA280B380C08097
:104AD000D180E0903529F0903629E218F1080A2FAC
:104AE0001B2FDE01119620E030E0F80131908F019C
:104AF000E32DF0E0E052F048EE0FFF1FEA0DFB1D42
:104B000085919491F601E80FF91FE491F0E0319658
:104B1000AF01420F531F4E155F0530F43D929A01CD
:104B2000F80180818111E1CF1C92AB960EAD1FADD3
:104B3000AB970930110508F0B9C0F8018827E95F83
:104B4000FE4F8F4F0C94466E0F2EF3E08F2E912C5C
:104B5000F02D0F2EF3E06F2E712CF02DA7C060907A
:104B6000352970903629621A730A769467940F2E4D
:104B7000F3E08F2E912CF02D99C0809137299091E0
:104B80003829821991094C011AF41FEF811A910AF0
:104B9000A40155954795EFE2F9E28285882E912C84
:104BA0005694479484189508840E951E66807780E5
:104BB000621A730A7694679479C0EFE2F9E280840E
:104BC0009184841895088218910866807780621A0B
:104BD000730A769467946AC0809137299091382936
:104BE000821991094C011AF42FEF821A920A94014A
:104BF0003595279580913929882E912C5694479484
:104C000084189508820E931E0F2EF3E06F2E712CE0
:104C1000F02D4CC080903729909038298418950841
:104C2000821891080F2EF3E06F2E712CF02D3EC0EC
:104C3000EFE2F9E266807780621A730A8285681A69
:104C400071080F2EF3E08F2E912CF02D2FC0EFE284
:104C5000F9E2828590E040855185421951094A0167
:104C60001AF4EFEF8E1A9E0A9594879456944794FF
:104C7000AC0144195509840E951E60903529709039
:104C80003629621A730A681A790A10C0EFE2F9E24B
:104C9000828590E08084918484189508881A990A06
:104CA00066807780621A730A681A790AA7960EAD31
:104CB0001FADA7979401A301CE0101960E948724FE
:104CC000C659DF4FCDBFDEBFDF91CF911F910F914E
:104CD000FF90EF90DF90CF90BF90AF909F908F901C
:104CE0007F906F905F904F903F902F9008952F92FC
:104CF0003F924F925F926F927F928F929F92AF926C
:104D0000BF92CF92DF92EF92FF920F931F93CF93B8
:104D1000DF93CDB7DEB7AD97CDBFDEBF898B9A8B62
:104D20006B8B7C8B4D8B5E8B2F8B388FE02FF0E065
:104D3000E98FFA8F8F8F98A3FC01E20FF31FEFA387
:104D4000F8A78E179F0708F41AC152C11192119249
:104D50002B8D3C8DE217F307C9F729A53AA58BA542
:104D60009CA5892B09F42CC1F901F695E795F695D8
:104D7000E795F695E795EE0FFF1F81E090E08C0F29
:104D80009D1FE80FF91FC90187709927A20102C072
:104D9000440F551F8A95E2F780819181842B952BD2
:104DA000808391832F5F3F4F26153705E9F608C1B1
:104DB000711066C0CD8EDE8EF50100811181F60185
:104DC000808190E0802391230817190709F4BEC061
:104DD0000E941A4EF10180818068808324E0F401F2
:104DE0002683E68229A1E3ECF9E02083F1018081AA
:104DF0008823E4F7F401E5820E941A4EF1018081D4
:104E00008068808324E0F4012683E6822AA1E3EC13
:104E1000F9E02083F10180818823E4F7F401E58241
:104E20008F2D8F70806B582E0E941A4EF101808159
:104E30008068808324E0F4012683E682E3ECF9E0D5
:104E40005082F10180818823E4F7F401E582ED8D41
:104E5000FE8D8081082B00830E941A4EF101808113
:104E60008068808324E0F4012583E682E3ECF9E0A6
:104E70000083F10180818823E4F7F401E58266C0B4
:104E8000FFEF7F1263C02601F50100811181F60159
:104E9000808190E080239123892B09F457C00E94E0
:104EA0001A4EF10180818068808324E0F40126831A
:104EB000E68229A1E3ECF9E02083F10180818823D7
:104EC000E4F7F401E5820E941A4EF10180818068C6
:104ED000808324E0F4012683E6822AA1E3ECF9E052
:104EE0002083F10180818823E4F7F401E5828F2D8E
:104EF0008F70806B682E0E941A4EF101808180684D
:104F0000808324E0F4012683E682E3ECF9E060820A
:104F1000F10180818823E4F7F401E5820095F20134
:104F20008081082300830E941A4EF10180818068ED
:104F3000808324E0F4012583E682E3ECF9E000833A
:104F4000F10180818823E4F7F401E582F0E8CF0ED7
:104F5000D11C22E0A20EB11CF39438E0F31228CF4A
:104F60006BA07CA04DA05EA08F8D98A101968F8F25
:104F700098A3EFA1F8A58E179F07E8F039C00DA7F9
:104F80004BA75CA769A77AA79E012F5E3F4F2B8F87
:104F90003C8F3B01640E751E44244394512C0F2E0C
:104FA000F2EC2F2EF9E03F2EF02D0F2EF0E68F2E93
:104FB000F6E09F2EF02DCE0101965C01FC01C6CEDD
:104FC0008F8D8F778C5F982F92959F70906199A3AA
:104FD000EF8DF8A1ED52FF4C6F01F12CEE24E3941C
:104FE0008F708AA36BA27CA24DA25EA27DA4E0CEAC
:104FF000AD96CDBFDEBFDF91CF911F910F91FF9096
:10500000EF90DF90CF90BF90AF909F908F907F9068
:105010006F905F904F903F902F9008952F923F9206
:105020004F925F926F927F928F929F92AF92BF92B8
:10503000CF92DF92EF92FF920F931F93CF93DF9364
:105040006C015B014A013901E8010130110589F564
:10505000F12CE90122972C018FEF481A580A870199
:105060009E0141E050E0C2010E947726B501680D23
:10507000791D615071099E0141E050E0C2010E941A
:10508000772682E0881A91088FEFA81AB80A21E0E3
:1050900030E0A401B501C6010E947726C3018C0D42
:1050A0009D1D21E030E0A401B50101970E94772603
:1050B00035C0F12CC801880F991F2901481A590AD7
:1050C00087019201AE011E012C0C3D1CC1010E9402
:1050D0007726B501680D791D6C1B7D0B9201AE0121
:1050E000C1010E9477268C1A9D0ACE01DD230CF4A3
:1050F000019695958795A80EB91E87019E01A4017A
:10510000B501C6010E947726C3018C0D9D1D9E012D
:10511000A401B5018C1B9D0B0E947726DF91CF91D6
:105120001F910F91FF90EF90DF90CF90BF90AF90C5
:105130009F908F907F906F905F904F903F902F90B7
:105140000895CF92DF92EF920F931F93CF93DF9347
:105150006C01EB01023020F481E08093392912C008
:105160000F3F81F4EFE2F9E282E0828740875187C6
:10517000268337831282138214821582E12C02E087
:1051800010E01EC0EFE2F9E24087518726833783A3
:105190000023D1F01282138214821582013069F04B
:1051A0000C3C21F0E12C02E010E00AC00F2EFCECD8
:1051B000EF2EF02D02E010E003C0E12C01E010E042
:1051C000BE01C6010E940E28EFE2F9E2C282D3823C
:1051D000C483D58381E090E0838794878587968711
:1051E000DF91CF911F910F91EF90DF90CF900895B5
:1051F0000F930E94A12860E080E00E947E200F9122
:1052000008952F923F924F925F926F927F928F926A
:105210009F92AF92BF92CF92DF92EF92FF920F9345
:105220001F93CF93DF93CDB7DEB76497CDBFDEBFBB
:105230008B83698300E024E630E044E250E06CE0D8
:1052400070E08AE190E00E94A128EFE2F9E2828119
:105250009381268137814981642F70E0AC01420F30
:10526000531F415051094617570714F4215001C0EC
:105270002981280F2887EFE2F9E22481A2E0A20F1A
:10528000A98B308534503A8B2F5F2C832695269539
:1052900026952A83A30FAE834A2E469446944694BD
:1052A000B981EB81BE1709F4AFC08E0F8B83A12C9F
:1052B000B12C282F30E02A873B870F2EF0E68F2E67
:1052C000F6E09F2EF02D6894552452F877247394BD
:1052D0000F2EF3ECEF2EF9E0FF2EF02D8B818F7760
:1052E0008C5F982F92959F709061292E6A80CA8456
:1052F000DB84CA0CDB1C8F70382E062D10E0D80121
:10530000B695BA2FAA27B795A795AD52BF4CAC0D4D
:10531000BD1DF801EE0FFF1FE00FF11FE150F74D2B
:10532000EA0DFB1D80818C930E941A4EA2ECB9E01D
:105330008C9180688C93F40156827682D7012C92EE
:10534000E2ECF9E080818823DCF7D40115967C92A9
:105350000E941A4EE2ECF9E0808180688083D401DB
:1053600016965C92169716967C92F7013082A2EC04
:10537000B9E08C918823DCF7F4017582862D8F705B
:10538000806B89830E941A4EA2ECB9E08C918068F0
:105390008C93F40156827682E981D701EC93A2ECDA
:1053A000B9E08C918823DCF7F4017582F801F69559
:1053B000FE2FEE27F795E795ED52FF4CEC0DFD1D06
:1053C00010810E941A4EA2ECB9E08C9180688C93F7
:1053D000F40155827682D7011C93E2ECF9E08081DA
:1053E0008823DCF7D40115967C926394461408F068
:1053F00084CFBFEFAB1ABB0AEB81EF5FEB83F3E027
:10540000AF16B10409F06ACF8C8187704FEF50E07E
:10541000BA0102C0759567958A95E2F78E8187700B
:105420003885232F30E02A873B879A81292F30E067
:10543000EA85FB85A0E89A9FE00DF11D1124DF01AC
:10544000AD52BF4CAC83BD83F901EE0FFF1F2E0F91
:105450003F1FF901E150F74DEE83FF83F885FB8391
:10546000212C312C292F30E02D873E87AF2FB0E043
:10547000AF87B88B6C8700E616E06894772472F8E3
:105480000F2EF3ECCF2EF9E0DF2EF02D6B8BF42FE7
:1054900001C0FF0F8A95EAF7FC8BED84FE842F850F
:1054A0003889288739878A849B84820C931CAC8135
:1054B000BD818D91AC83BD83EE81FF818193EE83AD
:1054C000FF832B812F772C5F922F92959F70906195
:1054D000592EAA809C85BB24B3942F70622E21C0C4
:1054E000EA2CF12CF701F695FE2FEE27F795E795BC
:1054F000ED52FF4CE80DF91D8081F701EE0FFF1F03
:10550000EE0DFF1DE150F74DE20DF31D8083FA8192
:10551000FA1521F04A1004C09C8903C09B8901C080
:1055200090E0F701F695FE2FEE27F795E795ED52FF
:10553000FF4CE80DF91D892380830E941A4EA2ECCE
:10554000B9E08C9180688C93F8017682B682D6019E
:105550005C92E2ECF9E080818823DCF7D8011596B3
:10556000BC920E941A4EE2ECF9E080818068808350
:10557000D80116967C9216971696BC92F601608218
:10558000A2ECB9E08C918823DCF7F801B5828A2D72
:105590008F70806B89830E941A4EA2ECB9E08C91C7
:1055A00080688C93F8017682B682E981D601EC930B
:1055B000A2ECB9E08C918823DCF7F801B582F70101
:1055C000F695FE2FEE27F795E795ED52FF4CE80D87
:1055D000F91DF0800E941A4EA2ECB9E08C9180680F
:1055E0008C93F8017582B682D601FC92E2ECF9E068
:1055F00080818823DCF7D8011596BC92A3944A14C5
:1056000008F06ECFBFEF2B1A3B0AEB81EF5FEB8305
:10561000F3E02F16310409F040CF2989C22ED12C96
:105620009A89892F90E08C839D837C01EC0CFD1C72
:10563000A2E0EA1AF10800E010E021E030E042E0E8
:1056400050E0B701888599850E94772621E030E0F7
:105650004C815D81B6018885998501960E947726E7
:1056600021E030E042E050E0B7018885998502965C
:105670000E9477266496CDBFDEBFDF91CF911F9148
:105680000F91FF90EF90DF90CF90BF90AF909F90E1
:105690008F907F906F905F904F903F902F900895E4
:1056A0009F92AF92BF92CF92DF92EF92FF920F93B1
:1056B0001F93CF93DF937A01EFE2F9E224813581E2
:1056C000E901C60FD71FD595C795D595C795D5952F
:1056D000C795D280D80E620F677001E010E002C05B
:1056E000000F111F6A95E2F78D2D8F776894CC24F7
:1056F000C2F8C80E8C2D82958F708061B82E0E94E2
:105700001A4EE2ECF9E0808180688083E0E6F6E002
:1057100084E0868381E08683B092C309E2ECF9E0FD
:1057200080818823ECF70F2EF0E6AF2EF6E0BF2E37
:10573000F02D99249394F5019582FC2DFF70CF2EC6
:105740000E941A4EE2ECF9E080818068808384E058
:10575000F50186839682C092C309E2ECF9E080816C
:105760008823ECF70F2EF0E6AF2EF6E0BF2EF02DDB
:1057700099249394F50195828C2F8F70806BC82E9D
:105780000E941A4EE2ECF9E080818068808384E018
:10579000F50186839682C092C309E2ECF9E080812C
:1057A0008823ECF781E0809365068091D3348D3FA8
:1057B00029F5FE01FF27F695FE2FEE27F795E795D1
:1057C000ED52FF4CED0DF11D8081082B0E941A4E09
:1057D000E2ECF9E0808180688083E0E6F6E084E036
:1057E000858381E086830093C309E2ECF9E0808140
:1057F0008823ECF781E0809365064DC0EF2831F1F6
:10580000FE01FF27F695FE2FEE27F795E795ED525F
:10581000FF4CED0DF11D8081082B00830E941A4E74
:10582000E2ECF9E0808180688083E0E6F6E084E0E5
:10583000858381E086830093C309E2ECF9E08081EF
:105840008823ECF781E08093650625C0DD27D69597
:10585000DC2FCC27D795C795CD52DF4CCD0DD11D70
:1058600000958881082308830E941A4EE2ECF9E033
:10587000808180688083E0E6F6E084E0858381E0D3
:1058800086830093C309E2ECF9E080818823ECF77A
:1058900081E080936506DF91CF911F910F91FF907A
:1058A000EF90DF90CF90BF90AF909F9008952F9290
:1058B0003F924F925F926F927F928F929F92AF92A0
:1058C000BF92CF92DF92EF92FF920F931F93CF93ED
:1058D000DF93CDB7DEB72E97CDBFDEBF89839A8326
:1058E0001B012B833C83013031F4390129E0621A1A
:1058F000710800E00BC00E3F39F46B807C8039E00A
:10590000631A71080FEF02C06B807C806A01898185
:105910009A81C81AD90A2B813C81221933092D8317
:105920003E838417950709F020C24B815C812416C1
:10593000350609F444C0232B09F436C22614370473
:1059400094F400FBEE24E0F8F12CC7019695982F13
:105950008827979587950695082BA701B10189811E
:105960009A810E94502B5FEF251A350A8D819E8106
:1059700001978D839E83892B09F716C2C114D10428
:1059800009F412C2E980FA80302F317039871A8603
:1059900089859A859695982F882797958795069556
:1059A000082B49855A85B101C7010E94502B4FEF42
:1059B000E41AF40A51E0C51AD10831F7F5C18D8116
:1059C0009E81181619060CF0C4C01C141D040CF09E
:1059D000C0C0C816D9060CF05AC0261437040CF003
:1059E000E3C1412C512C102F2D813E81420E531EBC
:1059F000141415040CF0C0C1A12CB12C4C185D0876
:105A00001AF03FEFA31AB30A14141504BCF355207F
:105A100034F402C0A12CB12C4C0C5D1C02C0412CF2
:105A2000512CA114B10441F175012B823C824B81B0
:105A30005C8146155705ACF410FB882480F8912C46
:105A400094013695322F222737952795812F8695F9
:105A5000182F122BA4016B817C8189819A810E946D
:105A6000502B8B819C8101968B839C8391E0E91A5A
:105A7000F108E9F62A0C3B1C29813A812F5F3F4F40
:105A800029833A83261437040CF4AECF8DC14B81A1
:105A90005C81241635060CF087C1812C912CCF82B5
:105AA000D886D02E0D811E818F819885880E991EF3
:105AB000181419040CF066C1A12CB12C801A910A9B
:105AC0001AF09FEFA91AB90A18141904BCF3992007
:105AD00034F402C0A12CB12C800E911E02C0812C86
:105AE000912CA114B10459F1AD82BE82E980FA80F3
:105AF000261437049CF4D0FA442440F8512C920127
:105B00003695322F2227379527958D2D8695D82EBD
:105B1000D22AA201B101C7010E94502B2FEFE21A35
:105B2000F20A4D815E81415051094D835E83452BC0
:105B3000F9F689819A818A0D9B1D89839A839FEF4B
:105B4000291A390A2B813C81221633060CF4ACCF7A
:105B50002BC1DD200CF0A0C0B6010D2C000C880B71
:105B6000990B0E94A2689B01AC015F7729873A8755
:105B70004B875C874D815E81BA01550F880B990B6D
:105B80000E94A2689B01AC0169857A858B859C8502
:105B90000E94526988230CF47FC069857A858B85C1
:105BA0009C850E946A682B018B819C81281639068E
:105BB0000CF0FAC0812C912CAA24A394B12CA986B4
:105BC000BA86B02E0D811E81840C951C1814190400
:105BD0000CF0DEC0C12CD12C801A910A1AF09FEF74
:105BE000C91AD90A18141904BCF3992034F402C054
:105BF000C12CD12C800E911E02C0812C912CC1147D
:105C0000D10409F43FC0E980FA802FEFE21AF20ACA
:105C1000CD86DE860D831E831B2DAF80B8842614AF
:105C200037049CF410FBAA24A0F8B12C95013695FA
:105C3000322F222737952795812F8695182F122BE3
:105C4000A501B101C7010E94502B8D859E8501974A
:105C50008D879E8791E0E91AF1082D853E85232BDB
:105C6000F1F6AF82B886B12E0D811E8189819A81AD
:105C7000019729853A852C193D09A901480F591F1B
:105C800049835A835FEF251A350A8B819C81281638
:105C900039060CF499CF88C0B601DD0C880B990B3E
:105CA0000E94A2689F770E946A684B012B813C8109
:105CB000221633060CF078C0412C512C102F4D8148
:105CC0005E81440E551E141415040CF067C0C12CDF
:105CD000D12C481859081AF05FEFC51AD50A1414C8
:105CE0001504BCF3552034F402C0C12CD12C480C4F
:105CF000591C02C0412C512CC114D10449F1760128
:105D00002F8238868F81988586159705ACF410FB15
:105D1000AA24A0F8B12C95013695322F2227379569
:105D20002795812F8695182F122BA5016F817885D5
:105D300089819A810E94502B2F8138852F5F3F4F98
:105D40002F83388731E0E31AF108E1F62C0C3D1C73
:105D500049815A814150510949835A838B819C81E1
:105D6000281639060CF4ABCF1FC02B813C812216BC
:105D7000330609F024CE02CE55200CF44BCE412C34
:105D8000512C7ACE99200CF4A5CE812C912CD7CE13
:105D900099200CF42DCF812C912C74CF55200CF42C
:105DA000A4CF412C512CD4CF2E96CDBFDEBFDF9196
:105DB000CF911F910F91FF90EF90DF90CF90BF9008
:105DC000AF909F908F907F906F905F904F903F909B
:105DD0002F9008950F9301E020E830E046E350E073
:105DE0006AE070E080E090E00E94F8282CE030E06B
:105DF0004BE050E06EE070E084E090E00E94A1286B
:105E00006FEF80E00E947E202FEF30E045E050E011
:105E100063E070E08FE893E20E94CB242CE030E056
:105E20004BE050E06EE070E080E790E00E94A12837
:105E30006FEF80E00E947E202FEF30E045E050E0E1
:105E400063E070E085E192E20E94CB242CE030E038
:105E50004BE050E063E370E08AE390E00E94A12809
:105E60006FEF80E00E947E202FEF30E045E050E0B1
:105E700063E070E08FE291E20E94CB2420E830E002
:105E800046E350E06AE070E080E090E00E94A128E4
:105E90000FEF28E030E048E250E068E070E080E199
:105EA00090E00E94572C28E030E040E750E068E0A6
:105EB00070E088E590E00E94572C2AE230E04AE347
:105EC00050E06CE070E080E190E00E94572C2AE204
:105ED00030E044E450E06BE070E08EE690E00E9439
:105EE000572C01E020E330E04CE050E060E270E04D
:105EF00086E490E00E94F82820E330E04CE050E097
:105F000060E270E08BE090E00E94F82820E330E04F
:105F10004CE050E06EE070E088E290E00E94F828EB
:105F20000F9108950F931F93CF93DF93CDB7DEB7F3
:105F30002A97CDBFDEBF00E02EE130E049E050E01F
:105F40006DE270E081E090E00E94F82809E016E23E
:105F5000D8019396EC91B7E0EB9FF0011124E7593B
:105F6000FA4D20E030E042E050E065E070E08581ED
:105F700096810E94CB248CE49AE389839A8380E201
:105F800090E08B839C83D8019496EC91B7E0EB9FD3
:105F9000F0011124EC5AFA4D65817681CE0101960B
:105FA0000E946E6F00E028E230E049E050E06DE2D0
:105FB00070E087E590E00E94F82820E030E048E0BB
:105FC00050E065E070E0CE0101960E94CB242A9655
:105FD000CDBFDEBFDF91CF911F910F910895EF925A
:105FE000FF920F93CF93DF9301E020E830E046E388
:105FF00050E06AE070E080E090E00E94A12860E05C
:1060000080E00E947E208091E629813031F48091E9
:10601000E529811102C01092E4290FEF26E230E059
:1060200048E150E062E070E088E190E00E94572C87
:1060300026E230E04EE750E066E270E088E190E072
:106040000E94572CCAE0D0E00F2EFEE1EF2EF0E2C6
:10605000FF2EF02D00E02AE130E048E050E0BE01E4
:1060600082E090E00E94A12820E030E045E050E08E
:1060700065E070E0F701819191917F010E94CB244E
:106080002896C233D10531F7CEE0D0E00F2EF4E1EF
:10609000EF2EF0E2FF2EF02D00E02AE130E048E0A4
:1060A00050E060E370E0CE010E94A12820E030E0E3
:1060B00045E050E065E070E0F701819191917F014A
:1060C0000E94CB246796C138D10531F7DF91CF917B
:1060D0000F91FF90EF9008952F923F924F925F9211
:1060E0006F927F928F929F92AF92BF92CF92DF92E8
:1060F000EF92FF920F931F93CF93DF93CDB7DEB74D
:10610000A897CDBFDEBF182FF92E00E024E630E0BF
:1061100044E250E06CE070E08AE190E00E94A12847
:106120009E01275F3F4F298B3A8BC901D901FE01A0
:10613000319611921D928E179F07D9F73FC1E92F13
:10614000E695E695E695F0E0292F2770BA0102C0A2
:10615000660F771F2A95E2F79B01A1E0B0E0AC0F34
:10616000BD1FAE0FBF1F6C91622B6C938F5F883089
:1061700051F4A9E0B0E0AC0FBD1FEA0FFB1F808116
:10618000282B208380E09F5F9033C9F68BA31DA34B
:10619000FEA219A21AA21F8E18A20F2EF2ECAF2E89
:1061A000F9E0BF2EF02D0F2EF0E62F2EF6E03F2E59
:1061B000F02D6894442442F80F2EF3EC8F2EF9E072
:1061C0009F2EF02D07C0EF8DF8A13196EF8FF8A329
:1061D000FCA1F8A72F8D2FA3ADA1BEA1ED91ADA37A
:1061E000BEA3ECA329A13AA12F5F3F4F29A33AA355
:1061F000288F398F1F8A3FA1365E3C8F6BA1677055
:106200006C8B7F8D7D8F88A18E8F8C8D9F89890F60
:106210008F778C5F982F92959F7090619D8BA88D42
:10622000B98D1197AA8FBB8F8D010D521F4CFE01A6
:1062300039967F019E012F5F3F4F6901612C5524E4
:1062400053948F708E8BD6017D906D01711009C0B3
:10625000F7018081882309F463C0FC89F73009F0D5
:106260005FC00E941A4ED5018C9180688C93F10119
:1062700046825682ED89D401EC93D5018C91882316
:10628000E4F7F10155820E941A4ED5018C91806885
:106290008C93F10146825682EE89D401EC93D501AC
:1062A0008C918823E4F7F1015582862D8F70806BE5
:1062B0008B8B0E941A4ED5018C9180688C93F101D2
:1062C00046825682EB89D401EC93D5018C918823C8
:1062D000E4F7F1015582F801872D8095928D89238D
:1062E000828F2C89273039F43F89311104C0D701BE
:1062F0009C91892B828F728C0E941A4EF5018081AD
:1063000080688083D10115964C92159716965C9201
:10631000F4017082D5018C918823E4F7F101558254
:106320006394FFEFEF1AFF0A00581F4F28E0621234
:106330008ACFFD8C1E8D6A8D7B8D6436710574F459
:106340007F897F5F7F8B888D998D8436910534F4AA
:106350000196888F998F763009F057CF9BA19F5F68
:106360009BA3ACA1CA2ED12C4FEF50E0B6018F2DCC
:10637000912F0E94502BBFA1BB2309F424CFECA185
:10638000F8A5EF1758F42F2F30E00FEF4F2D512FB6
:10639000B6018F2D912F0E94572C0BC028A5622F7C
:1063A00070E00FEF96014F2D512F8F2D912F0E94EE
:1063B000572C39A1343608F406CF0AC08A8180618F
:1063C0008A839CE065E06BA341E050E085E0DBCE92
:1063D000A896CDBFDEBFDF91CF911F910F91FF90A7
:1063E000EF90DF90CF90BF90AF909F908F907F9075
:1063F0006F905F904F903F902F9008950F93CF93A1
:10640000DF93EC0101E020E830E04BE050E060E099
:1064100070E080E090E00E94A12860E080E00E94AF
:106420007E2020E030E045E050E063E070E0CE0107
:106430000E94CB248091E7288095809308260E94B3
:106440009C43DF91CF910F910895EF92FF920F93AC
:10645000CF93DF937C01D62FC42F0E94374301E0F6
:10646000CF3F09F400E0D13079F018F0D230B9F024
:1064700020C028E230E049E050E067E370E081E0CE
:1064800090E00E94A12815C028E230E049E050E0E9
:1064900067E370E08CE290E00E94A1280AC028E245
:1064A00030E049E050E067E370E087E590E00E946B
:1064B000A1286C2F80E00E947E202C2F30E045E048
:1064C00050E065E070E0C7010E94CB240E94374392
:1064D000DF91CF910F91FF90EF9008950F93CF939D
:1064E000C62F8130A1F018F0823009F12FC001E0F1
:1064F00028E230E049E050E067E370E081E090E0BE
:106500000E94A1286C2F81E00E947E201FC001E024
:1065100028E230E049E050E067E370E08CE290E090
:106520000E94A1286C2F81E00E947E200FC001E014
:1065300028E230E049E050E067E370E087E590E072
:106540000E94A1286C2F81E00E947E2001E020E8BB
:1065500030E046E350E06AE070E080E090E00E94C6
:10656000A128CF910F91089540E060E08DE095E281
:106570000E94253240E061E087E491E20E942532EA
:1065800040E062E089E491E20E9425320895CF92D2
:10659000DF92EF92FF920F93CF93DF936C01982FCE
:1065A0008D2DDD2014F490E080E0292F382F253642
:1065B000310514F024E630E06130710509F077C050
:1065C000042F22E530E048E150E065E170E084E12D
:1065D00090E00E94F82800E026E430E042E050E03D
:1065E0006FE170E08AE190E00E9477260F2EFAE1D9
:1065F000EF2EF12CF02DCBE0D0E0C0FF0BC000E07F
:1066000021E030E045E050E06FE170E0C7010E941A
:1066100077260AC000E021E030E043E050E06FE17F
:1066200070E0C7010E947726219787E0E80EF11CF1
:10663000209719F720E030E047E050E065E070E097
:106640008BE491E20E94CB2420E030E041E050E076
:1066500065E070E08DE491E20E94CB2410927A25EF
:1066600010927B258091E029843009F051C026E406
:106670002C9DC0012D9D900D112464E670E00E94B8
:10668000F16DCB0100E027E030E048E050E065E14B
:1066900070E047960E94F82820E030E045E050E0A6
:1066A00065E070E087E491E20E94CB2431C046E4CB
:1066B000429FC001439F900D112464E670E00E9448
:1066C000F16DEB019B0180917A2590917B258617D6
:1066D00097075CF4281B390B00E043E050E06BE1C6
:1066E00070E04A960E9477260FC06817790764F415
:1066F0009C01261B370B0FEF43E050E06BE170E08D
:10670000CE014A960E947726C0937A25D0937B25A6
:10671000DF91CF910F91FF90EF90DF90CF90089590
:106720004F925F926F927F928F929F92AF92BF92A1
:10673000CF92DF92EF92FF920F93CF93DF93CDB77B
:10674000DEB76097CDBFDEBF19828981843008F043
:10675000D7C00F2EFEE9EF2EF5E2FF2EF02D0F2E03
:10676000F3E04F2E512C612C712CF02D0F2E88242C
:106770008A94FFE09F2EA12CB12CF02D0F2EF2E376
:10678000CF2ED12CF02D1D861E861F86188A1A82C8
:106790008A818330B0F4F701219131917F018D8599
:1067A0009E85AF85B889820F931FA11DB11D8D876E
:1067B0009E87AF87B88B8A818F5F8A838A81833077
:1067C00050F36D857E858F859889A30192010E9483
:1067D000276E2D873E874F87588B2D853E854F85A9
:1067E0005889ABE1B0E00E94646EA50194010E945B
:1067F000276E2B833C83898190E002968295929547
:10680000907F9827807F98278D839E83E9818B8155
:106810009C81F0E0EE0FFF1FE557FF4C2081318196
:106820002817390740F5E981F0E0EE0FFF1FE55723
:10683000FF4C808191819601281B390B29873A876B
:106840008B819C81F601E81BF90BEF83F887898522
:106850009A852F813885821B930B8B879C874B856C
:106860005C856F8178858D819E8100E028E030E035
:106870000E94772634C0E9818B819C81F0E0EE0F85
:10688000FF1FE557FF4C208131818217930738F5B0
:10689000E981F0E0EE0FFF1FE557FF4C8081918109
:1068A0009601281B390B2F8338878B819C81F60139
:1068B000E81BF90BE987FA8789859A852F81388546
:1068C000821B930B8B879C874B855C856F817885BA
:1068D0008D819E810FEF28E030E00E947726E981CC
:1068E0008B819C81F0E0EE0FFF1FE557FF4C80830A
:1068F000918389818F5F89838981843008F443CFB4
:106900006096CDBFDEBFDF91CF910F91FF90EF90EA
:10691000DF90CF90BF90AF909F908F907F906F90BF
:106920005F904F9008950F931F93CF93DF93CDB750
:10693000DEB76497CDBFDEBF0E9437438091ED295B
:1069400081110CC001E028E230E049E050E06CE049
:1069500070E081E090E00E94F8280FC000E028E29B
:1069600030E049E050E06CE070E081E090E00E94AF
:10697000A12860E081E00E947E208091EC2990E0D7
:1069800001969F938F938FE491E29F938F938E0153
:106990000F5F1F4F1F930F930E94C06F20E030E0E6
:1069A00042E050E065E070E0C8010E94CB240E9404
:1069B00037430F900F900F900F900F900F906496A9
:1069C000CDBFDEBFDF91CF911F910F9108950F933F
:1069D0001F93CF93DF93CDB7DEB76497CDBFDEBFF4
:1069E0000E9437438091ED29823061F401E022E377
:1069F00030E049E050E06CE070E082E390E00E941B
:106A0000F8280FC000E022E330E049E050E06CE0FD
:106A100070E082E390E00E94A12860E081E00E94A3
:106A20007E208091102690E001969F938F9388E5B9
:106A300091E29F938F938E010F5F1F4F1F930F93D0
:106A40000E94C06F20E030E042E050E065E070E07E
:106A5000C8010E94CB240E9437430F900F900F90E3
:106A60000F900F900F906496CDBFDEBFDF91CF9156
:106A70001F910F9108958091ED29813099F44FEF86
:106A800060E083E691E20E94253240E061E08BE61F
:106A900091E20E94253260E082E00E946E320E9404
:106AA000E734089540E061E087E491E20E942532F6
:106AB00040E062E089E491E20E9425328091ED2974
:106AC000811107C040E060E084E195E20E94253238
:106AD000089540E060E083E791E20E942532089546
:106AE0000F93CF93DF93EC018091E129813009F47A
:106AF0007AC018F08230E1F1B0C000E024E030E06C
:106B000044E050E060E270E088E090E00E94F82805
:106B100060E080E00E947E2024E030E044E050E02D
:106B200060E270E083E490E00E94F82860E080E09A
:106B30000E947E2024E030E044E050E06EE070E00F
:106B400085E290E00E94F8286FEF80E00E947E20AE
:106B500001E020E330E04CE050E06EE070E088E2DD
:106B600090E00E94A12860E080E00E947E2075C035
:106B700000E024E030E044E050E060E270E083E4D4
:106B800090E00E94F82860E080E00E947E2024E0EF
:106B900030E044E050E06EE070E085E290E00E947A
:106BA000F82860E080E00E947E2024E030E044E0AD
:106BB00050E060E270E088E090E00E94F8286FEF1B
:106BC00080E00E947E2001E020E330E04CE050E0D5
:106BD00060E270E08BE090E00E94A12860E080E03D
:106BE0000E947E203AC000E024E030E044E050E023
:106BF00060E270E088E090E00E94F82860E080E0C9
:106C00000E947E2024E030E044E050E06EE070E03E
:106C100085E290E00E94F82860E080E00E947E20FB
:106C200024E030E044E050E060E270E083E490E093
:106C30000E94F8286FEF80E00E947E2001E020E3B0
:106C400030E04CE050E060E270E086E490E00E94CA
:106C5000A12860E080E00E947E2020E030E048E053
:106C600050E065E070E0CE010E94CB2484E690E025
:106C70000E94F045DF91CF910F910895EF92FF921E
:106C80000F931F93CF93DF93CDB7DEB76497CDBF3C
:106C9000DEBF20913126211135C023E232E34CE0E2
:106CA00050E40E94F8670E94576920E030E040EA13
:106CB00051E40E94AF69162F072FF82EE92E20E02D
:106CC00030E04CE852EC0E94526918168CF4EF92B6
:106CD000FF920F931F938AE791E29F938F93CE01C8
:106CE00001969F938F930E94C06FCDBFDEBF1AC0E5
:106CF0008AE0E4E8F1E2DE01119601900D928A95B6
:106D0000E1F710C09F938F937F936F938EE891E28A
:106D10009F938F93CE0101969F938F930E94C06F94
:106D2000CDBFDEBFCE0101960E9470356496CDBF07
:106D3000DEBFDF91CF911F910F91FF90EF900895EB
:106D40008F929F92AF92BF92CF92DF92EF92FF927B
:106D50000F931F93CF93DF93CDB7DEB76497CDBF6B
:106D6000DEBF05E815E2F801C188D288E388F4881F
:106D7000678570E06F5F7F4F072E000C880B990BC3
:106D80000E94A268A70196010E94AF696B017C0175
:106D9000F80185889688A788B08C61897289838973
:106DA00094899B01AC010E948767A50194010E9410
:106DB0008767A70196010E9487670E9471687F9389
:106DC0006F9387EA91E29F938F938E010F5F1F4F1E
:106DD0001F930F930E94C06F40E050E060E070E0AE
:106DE000C8010E9425320F900F900F900F900F90C6
:106DF0000F906496CDBFDEBFDF91CF911F910F91B1
:106E0000FF90EF90DF90CF90BF90AF909F908F90CA
:106E10000895CF93DF931092F029EAECF8E2838192
:106E20008111FDCF109200081092060960E070E019
:106E300082E090E00E94D253E0E0FAE01082C0E4E9
:106E4000DAE0188283EF84878C8710A211A218A23F
:106E500019A287E0818343E04983A5E8B5E28D91DB
:106E60009C9111979695879586A397A38D919C9158
:106E700011979695879586AB97AB8D919C911197BD
:106E80008EA39FA38D919C9111978EAB9FAB86A9EA
:106E900097A913962D913C91149736952795821BAF
:106EA000930B80A791A786A997A913962D913C9142
:106EB000149736952795821B930B80AF91AF80ADC9
:106EC00091AD19962D913C911A97820F931F8AA725
:106ED0009BA780AD91AD19962D913C911A97820F89
:106EE000931F8AAF9BAF84E690E082A793A782AFFF
:106EF00093AF84E08783109217291092182981E0BC
:106F000050968C93A0E8B1E098EE12969C9312975D
:106F10009AE893839DEE11969C93A0E0B2E022E064
:106F200013962C9313979B969C919B9792609B969C
:106F30009C939B971C922C939C919D7F9C938C93EC
:106F400011969C911197997F11969C9311979A96FF
:106F50004C9380838883DF91CF910895CF93DF9303
:106F6000E0E8F1E0108211821092000A1092400ACB
:106F700082E080930008E0E0F9E081E08487868386
:106F8000C0E0D2E01AA282E090E00E94F0451882B0
:106F90001B828C81887F8C838C8182608C83DF91C3
:106FA000CF910895CF92DF92EF92FF920F931F93AC
:106FB000CF93DF9380918C2590918D25892B09F1BA
:106FC00000E010E0980180E0A5E8B5E2E82FF0E0ED
:106FD000EE0FFF1FE85DF54D40815181052E000C3D
:106FE000660B770B040F151F261F371F8F5F179631
:106FF0004D915C911897682F70E06417750730F316
:1070000003C000E010E09801C5E8D5E2CF80D88445
:10701000E12CF12CC901B801A70196010E94276E4D
:10702000D9018F819885892BD1F090E0E92FF0E08C
:10703000EE0FFF1FE85DF54D40815181A417B507A4
:107040002CF0421753071CF49A0101C0DA019F5F2C
:107050004F815885692F70E06417750738F3CD01AB
:10706000821B930BDF91CF911F910F91FF90EF90B7
:10707000DF90CF900895CF92DF92EF92FF920F931F
:107080001F93CF93DF9380918C2590918D25892B31
:1070900009F100E010E0980180E0A5E8B5E2E82FF2
:1070A000F0E0EE0FFF1FE85DF54D40815181052EA8
:1070B000000C660B770B040F151F261F371F8F5F01
:1070C00017964D915C911897682F70E064177507BB
:1070D00030F303C000E010E09801C5E8D5E2CF80AE
:1070E000D884E12CF12CC901B801A70196010E94B6
:1070F000276E8F819885892BC1F090E0DE01E92F02
:10710000F0E0EE0FFF1FE85DF54D40815181421721
:1071100053070CF49A019F5F17964D915C91189755
:10712000692F70E06417750750F3C901DF91CF91A3
:107130001F910F91FF90EF90DF90CF9008953F92B5
:107140004F925F926F927F928F929F92AF92BF9277
:10715000CF92DF92EF92FF920F931F93CF93DF9323
:10716000109228290F2EF3E0DF2EF02D00E012E020
:10717000C5E8D5E20F2EF7E1EF2EF9E2FF2EF02D54
:107180000E940937F8018481887F84838481848305
:1071900088898130E9F30E94AE37F70181898F5FDA
:1071A000818BDA94D110ECCFC5E8D5E28F81988538
:1071B00080931729909318290E94D2376C01D69496
:1071C000C7940E94D2378D819E810E943B382F81C7
:1071D0003885232B09F092C0A4C02F813885249FC5
:1071E000C001259F900D349F900D1124860F971F8D
:1071F000880F991FFC01E85DF54D805D954D01916B
:107200001191012E000C220B330B400E511E621EF9
:10721000731EE817F90799F74F5F5F4F4330510529
:10722000E1F6C301B2012CE030E040E050E00E9402
:10723000276EDA01C90188199909AA09BB098C01CD
:107240009D010C191D092E093F09D901C801880F9C
:10725000991FAA1FBB1F880F991FAA1FBB1F880F4A
:10726000991FAA1FBB1F800F911FA21FB31FBC0134
:10727000CD01660F771F881F991F0D811E81A70101
:1072800096010E94276ED8010E94646E8B019C01BA
:10729000992324F40D5F1F4F2F4F3F4FD901C80191
:1072A000B595A79597958795B595A7959795879542
:1072B00022E130E040E050E0281B390B4A0B5B0B29
:1072C000DA01C901253231054105510524F084E276
:1072D00090E0A0E0B0E0E32DF0E0E55BF64DBB23ED
:1072E0001CF480E090E0DC0180833394632D70E037
:1072F0008F8198856817790770F013C060E070E09F
:10730000312CC5E8D5E24C01990FAA08BB080D2C19
:10731000000CEE08FF0840E050E0412C512C3201F7
:107320005CCF8BE499E20E946C30DF91CF911F918A
:107330000F91FF90EF90DF90CF90BF90AF909F9014
:107340008F907F906F905F904F903F9008958091C5
:107350009225823009F43FC030F4882309F46DC0CF
:10736000813039F008958330E9F0843009F44CC05D
:10737000089540E050E060E070E084E195E20E9412
:10738000253240E050E061E070E087E491E20E9445
:10739000253240E050E062E070E089E491E20E9432
:1073A0002532089540E050E060E070E08DEA91E21F
:1073B0000E94253240E050E061E070E087E491E215
:1073C0000E94253240E050E062E070E089E491E202
:1073D0000E942532089540E050E060E070E083EBC9
:1073E00091E20E94253240E050E061E070E087E4E5
:1073F00091E20E94253240E050E062E070E089E4D2
:1074000091E20E942532089540E050E060E070E093
:1074100086EB91E20E94253240E050E061E070E0AE
:107420008BEB91E20E94253240E050E062E070E098
:107430008DEB91E20E942532089540E050E060E03B
:1074400070E08FEB91E20E94253240E050E061E075
:1074500070E08BEB91E20E94253240E050E062E068
:1074600070E08DEB91E20E94253208950F931F93F7
:10747000CF93DF93CDB7DEB72A97CDBFDEBF0E9493
:10748000374300E010E028E130E049E050E067E1F8
:1074900070E081E090E00E94F82880918A25909128
:1074A0008B259F938F9386EC91E29F938F938E0110
:1074B0000F5F1F4F1F930F930E94C06F20E030E0BB
:1074C00042E050E065E070E0C8010E94CB240E94D9
:1074D00037430F900F900F900F900F900F902A96B8
:1074E000CDBFDEBFDF91CF911F910F9108950F9314
:1074F0001F93CF93DF93CDB7DEB72A97CDBFDEBF03
:107500000E94374300E010E028E130E049E050E01D
:107510006FE170E081E090E00E94F828809188257A
:10752000909189259F938F938CEC91E29F938F93F9
:107530008E010F5F1F4F1F930F930E94C06F20E0BB
:1075400030E042E050E065E070E0C8010E94CB24EA
:107550000E9437430F900F900F900F900F900F9055
:107560002A96CDBFDEBFDF91CF911F910F91089575
:107570002F923F924F925F926F927F928F929F9243
:10758000AF92BF92CF92DF92EF92FF920F931F9331
:10759000CF93DF93CDB7DEB76497CDBFDEBF8091C9
:1075A00092258430E9F18091E3298130B9F018F017
:1075B000823029F145C0E5E8F5E281E0828381E08F
:1075C00090E08387948784E090E08383948380EDC8
:1075D00097E0808391831186128632C0E5E8F5E258
:1075E00081E0828384E090E083879487838394831F
:1075F00080ED97E0808391831186128621C0E5E8B3
:10760000F5E281E0828388E090E08387948783833A
:10761000948380ED97E0808391831186128610C059
:1076200080919225843061F4E5E8F5E281E082837F
:1076300080ED97E08083918381E090E08387948759
:107640006091092670E080E090E00E94A06820E050
:1076500030E048EC52E40E94F86727E93AEC4BE747
:107660005FE30E94AF6920E030E040E05FE30E940A
:10767000AF6920E030E04AEF51E40E94AF696B014E
:107680007C0105E815E2F8016385748580E090E0EF
:107690000E94A068A70196010E94AF69F801618B62
:1076A000728B838B948B158A168A178A108E81852C
:1076B0009285181619060CF09CC061857285072EFC
:1076C000000C880B990B0E94A268A70196010E94EA
:1076D000AF69F801658B768B878B908F8AC0F60136
:1076E00081889288A388B488458856886788708C7A
:1076F000B801012E000C880B990B0E94A268A5010D
:1077000094010E94AF6920E030E048EC51E40E940F
:10771000AF69A30192010E94876720E030E04AE749
:1077200054E40E94F8679F938F937F936F933F92E7
:107730002F92FF92EF920E94C06F0F5F1F4FFAE0EF
:10774000EF0EF11CCDBFDEBF0530110541F6EEEDA9
:10775000F9E281E08087178280919225843059F088
:107760000E94EF2F84E594E489839A8382E590E078
:107770008B839C8335C089E0E9EDF1E2DE0111964F
:1077800001900D928A95E1F70F2EFEE0EF2EF12C7D
:10779000F02D0F2EF4E1CF2EF0E2DF2EF02D00E0E1
:1077A00026E130E048E050E060E370E0C7010E946D
:1077B000A12860E080E00E947E2020E030E045E0EB
:1077C00050E065E070E0F601819191916F010E94B7
:1077D000CB24F7E1EF0EF11C81E8E816F104F9F68D
:1077E000CE0101960E94FE310E94773A0E94363AFD
:1077F00015C00F2EF6EFEF2EF9E2FF2EF02D00E070
:1078000010E00F2EF5E8CF2EF5E2DF2EF02D0F2E33
:10781000F2ED2F2EF1E23F2EF02D61CF6496CDBF19
:10782000DEBFDF91CF911F910F91FF90EF90DF901E
:10783000CF90BF90AF909F908F907F906F905F9010
:107840004F903F902F900895CF92DF92EF92FF924A
:107850000F931F93CF93DF93CDB7DEB72A97CDBF9A
:10786000DEBF82EE91E20E94FE3101E010E020E8EE
:1078700030E046E350E06AE070E080E090E00E9493
:10788000F8280E94B43200E021E430E04EE050E0FD
:107890006AE170E088E190E00E94A12860E080E069
:1078A0000E947E2020E030E048E050E061E070E09F
:1078B0008DEE91E20E94CB242EE130E04EE050E0CC
:1078C0006AE170E089E590E00E94A1288091092694
:1078D0001F928F9380E691E29F938F938E010F5FAB
:1078E0001F4F1F930F930E94C06F20E030E042E0D3
:1078F00050E061E070E0C8010E94CB241092E828BB
:107900001092E92888E390E08093C9259093CA25D6
:107910000F900F900F900F900F900F900F2EF9E097
:10792000CF2EF6E2DF2EF02D0F2EF0E6EF2EF1E255
:10793000FF2EF02D5FC08091C9259091CA258768E0
:107940000E9484468091E8289091E9289C0127783C
:107950003327232B09F04EC08031910531F080325E
:10796000910589F00897C9F40BC0F60180818D3329
:1079700010F0815080831092E8281092E9280DC001
:107980000E9422470AC0F6018081803510F48F5F83
:1079900080831092E8281092E92800E02EE130E080
:1079A0004EE050E06AE170E089E590E00E94A12895
:1079B00060E080E00E947E20F60180811F928F931C
:1079C000FF92EF9281E090E08C0F9D1F9F938F9329
:1079D0000E94C06F20E030E042E050E061E070E0E3
:1079E000CE0101960E94CB240F900F900F900F9024
:1079F0000F900F908091E8289091E9288F7899272F
:107A0000892B09F498CF2A96CDBFDEBFDF91CF91A5
:107A10001F910F91FF90EF90DF90CF9008950F93FB
:107A20001F93CF93DF93EC01162F2A8130E06981F9
:107A300070E08881012F49E050E090E00E94A12889
:107A4000113029F460E080E00E947E2004C060E0F4
:107A500081E00E947E2020E030E042E050E065E0DE
:107A600070E08B819C810E94CB24DF91CF911F918C
:107A70000F910895CF92DF92EF92FF920F931F9391
:107A8000CF93DF93EC01D62E1092E8281092E928CC
:107A900001E020E830E046E350E06AE070E080E09A
:107AA00090E00E94A12860E080E00E947E200E9479
:107AB000B43220E830E046E350E06AE070E080E075
:107AC00090E00E94A128C0907C25DD2069F07E0115
:107AD00010E060E070E0C7010E940F3D1F5F85E08D
:107AE000E80EF11CD112F5CF8C2D90E09C01220FF5
:107AF000331F220F331F820F931F61E070E08C0F42
:107B00009D1F0E940F3D88E390E08093C9259093CC
:107B1000CA250D2D10E0015011094EC08091C925D4
:107B20009091CA2587680E9484468091E8289091A8
:107B3000E9289C0127783327232BF1F58031910523
:107B400071F08097C1F4CC2011F0CA9403C0CC240A
:107B5000CA94CD0C1092E8281092E9280CC08C2D04
:107B600090E08017910714F4C39401C0C12C1092C7
:107B7000E8281092E92880917C2590E09C01220F52
:107B8000331F220F331F820F931F60E070E08C0FB2
:107B90009D1F0E940F3D8C2D90E09C01220F331FF2
:107BA000220F331F820F931F61E070E08C0F9D1F27
:107BB0000E940F3DC0927C258091E8289091E92891
:107BC000892B09F4ABCFEAECF8E283818111FDCF78
:107BD0008C2DDF91CF911F910F91FF90EF90DF904F
:107BE000CF9008950F931F9384EF91E20E94FE318E
:107BF00001E010E020E830E046E350E06AE070E0A9
:107C000080E090E00E94F8281092E8281092E9287D
:107C10006AE086E490E20E943A3D2091E8283091A3
:107C2000E92828303105B1F41092E8281092E928AB
:107C3000893019F40E94243C09C0E82FF0E0E05795
:107C4000FD4D8081809309260E9422471092E828EA
:107C50001092E9281F910F9108952F923F924F9211
:107C60005F926F927F928F929F92AF92BF92CF92CC
:107C7000DF92EF92FF920F931F93CF93DF93CDB7D5
:107C8000DEB76097CDBFDEBF40E050E060E070E05F
:107C90008EEF91E20E94253240E050E061E070E01A
:107CA00085E092E20E94253240E050E062E070E020
:107CB0008CE092E20E94253283E192E20E94FE3142
:107CC00082E08093DE290E943C51EAECF8E2838155
:107CD0008111FDCF8AE090E00E94F04581E0809321
:107CE000E029E5E8F5E2158688E690E0878390874D
:107CF00082E090E08583968388EB90E08093C925AD
:107D00009093CA250E9484468091E8289091E928A2
:107D10008038910509F4FCC28830910519F040972C
:107D200021F007C01092E32907C081E08093E32986
:107D300003C082E08093E3290E94B83A0E94A739E9
:107D400082E3809394251092E1298FEB90E0809359
:107D5000C9259093CA250F2EF2E3CF2ED12CF02DFA
:107D60000F2EF5E8EF2EF5E2FF2EF02D0F2EFBE49F
:107D70008F2EF9E29F2EF02D0F2EFEEDAF2EF9E2A1
:107D8000BF2EF02D13E00F2EFFEB2F2E312CF02DF8
:107D9000BBC20E949F38D7011D968C918138A1F5F6
:107DA000F401838190E02581821B91099C0122F4DA
:107DB00022273327281B390B25303105E4F4EFE463
:107DC000F9E264E070E0819190E02181821B9109E9
:107DD0009C0122F422273327281B390B253031053B
:107DE00034F46F5F7F4F6136710569F706C0623604
:107DF0007105E4F402C063E070E080E090E00E946E
:107E000001290E94A03612C0D7011D968C911D97A2
:107E100081110CC01F966C9170E0C6010E9401296F
:107E20000E94A03684E690E00E94F04581E0F501D2
:107E3000828B01C06C011092E8281092E928809191
:107E4000C9259091CA250E94C2468091E828909148
:107E5000E928009709F46FC28038910509F471C2CE
:107E6000D50152961C9284EF91E00E944F4680917A
:107E7000E8289091E9288430910509F436C140F44E
:107E80008130910509F42BC1029709F422C114C273
:107E90008031910561F08032910509F47DC0089729
:107EA00009F00AC2F70115860E94A73905C2D70159
:107EB0001D968C918230B1F128F4882351F08130E5
:107EC00019F1FAC1833009F441C0843009F44EC07D
:107ED000F3C18091CD30882349F0F7018785863042
:107EE00008F41EC28785855087871AC2D7011F965E
:107EF0008C911F97882309F413C21F968C911F97AA
:107F000081501F968C930CC2F70185819681029750
:107F100008F406C2858196810197858396830E9425
:107F2000363ACAC1D70113968D919C911497039745
:107F300008F4F6C113968D919C91149701971396AE
:107F40008D939C9314970E94773AB6C1F501858171
:107F5000882319F08150858304C0E2E0D50115968D
:107F6000EC930E94B83A0E94A739A6C1D70119968E
:107F70008D919C911A970B970CF4D2C119968D9103
:107F80009C911A970A9719968D939C931A970E9421
:107F9000B83A0E94A73990C1F7018585823071F106
:107FA00028F4882349F08130E1F086C18330A1F1C3
:107FB000843009F442C080C18091CD30882341F0E3
:107FC00087858D3508F0AFC187858B5F8787ABC10B
:107FD000F7018785813608F0A6C187858F5F87877F
:107FE000A2C185819681049708F09DC18581968103
:107FF0000196858396830E94363A5EC1F70183819C
:108000009481449708F08FC1838194810196838382
:1080100094830E94773A50C1D50115968C9115979B
:10802000823020F48F5F15968C9302C0F501158283
:108030000E94B83A0E94A7393FC1D70141885288AF
:1080400063887488678170850184F285E02DE987F3
:10805000FA8751968D919D910D90BC91A02D8D87A1
:108060009E87AF87B88B80E090E00E94A068A30154
:1080700092010E94AF692B013C01E985FA85BF019D
:10808000FF0F880B990B0E94A2682D853E854F85B6
:1080900058890E94AF699B01AC01C301B2010E94E3
:1080A000876720E030E44CE955E40E94F3678823B9
:1080B0000CF039C1D70119968D919C911A970A96A7
:1080C00019968D939C931A970E94B83A0E94A739EB
:1080D000F3C081E0F70185870E94A739EDC0D70181
:1080E0001D961C930E94A739E7C000E024E630E00B
:1080F00044E250E06CE070E08AE190E00E94A12848
:1081000060E081E00E947E2040E050E060E070E0AE
:1081100087E192E20E94253240E050E061E070E0A9
:1081200086EB91E20E94253240E050E062E070E090
:1081300083EB91E20E94253288EB90E00E94844616
:108140008091E8289091E9288031910581F0803272
:10815000910509F4AAC0089709F0AAC00E94F23D4F
:10816000F70115862092C9253092CA25A1C0D701F2
:108170001D968C911D97843019F41D961C9298C001
:1081800024E0F701258741885288638874886785D1
:1081900070E06F5F7F4F072E000C880B990B0E94D9
:1081A000A268A30192010E94AF6969837A838B83DD
:1081B0009C83D70155968D919D910D90BC91A02DDA
:1081C00089879A87AB87BC87F70161897289838920
:1081D000948949805A806B807C809B01AC010E940D
:1081E000876729853A854B855C850E948767A3014F
:1081F00092010E94876769837A838B839C83D7016E
:1082000051964D905D906D907C9054971B966D911A
:108210007C911C9780E090E00E94A0689B01AC01DB
:10822000C301B2010E94F8676D837E838F839887B4
:10823000F70167854D805E806F80788489819A819F
:10824000AB81BC8189879A87AB87BC8770E080E06F
:1082500090E00E94A068A30192010E94AF699B0177
:10826000AC0169857A858B859C850E9486676983C8
:108270007A838B839C832D813E814F8158856981D0
:108280007A818B819C810E94F86769837A838B83D2
:108290009C8369817A818B819C810E946A68D70165
:1082A00019966D937C931A9703C022E0F7012587F6
:1082B0000E94B83A0E94A739D7011F968C9190E08E
:1082C000C816D90631F48091E8289091E9284097A2
:1082D00079F4F701858581110BC0678570E0C601CF
:1082E0000E9401290E94A036D7011F96CC90D12C64
:1082F00080912929813041F48091E8289091E928E2
:108300008038910509F097CD8091E82887FF41CD0D
:10831000EAECF8E283818111FDCF1092E0291BC0C5
:10832000F7018785D6CFD7011F968C9190E0C816AC
:10833000D90679F609C080912929813009F47BCDCD
:10834000E3CF80912929E0CF20912929213009F418
:1083500071CD6C01D9CF6096CDBFDEBFDF91CF91DB
:108360001F910F91FF90EF90DF90CF90BF90AF9053
:108370009F908F907F906F905F904F903F902F9045
:1083800008950F931092E8281092E9280E94F91F8F
:1083900089E992E20E94FE3101E020E830E046E304
:1083A00050E06AE070E080E090E00E94A12820E0C8
:1083B00030E045E050E060E070E087EA92E20E9441
:1083C000CB2440E050E060E070E08FEA92E20E944F
:1083D000253240E050E061E070E08FEB90E20E94D7
:1083E000253240E050E062E070E084EB92E20E94CF
:1083F00025320F9108950F931F93CF93DF93CDB73D
:10840000DEB76497CDBFDEBF0E942E5360E083E0ED
:108410000E94B75384E490E08093C4309093C530B9
:1084200081E080932929809129298130E1F30E94FC
:108430002F548B879C878B859C8598508B879C8736
:108440002B853C858091E12990E0FC01EE0FFF1F18
:10845000EF5EF94D40815181241B350B2B873C8702
:10846000AB85BC85880F991FFC01E95EF94D208121
:1084700031810E945D6E6D877E878F87988B8D8599
:108480009E85AF85B889BB2324F481509C4FAF4FA4
:10849000BF4F072E7AE0B595A795979587957A9562
:1084A000D1F7702D8D879E87AF87B88B8D859E8580
:1084B000AF85B8898B879C876B857C85072E000CE0
:1084C000880B990B0E94A26823E333E343ED5FE33B
:1084D0000E94AF6928EA33ED45E152E40E94F86753
:1084E000698B7A8B8B8B9C8B89899A89AB89BC89A8
:1084F000BC01CD019F7726E636E646E050E40E94B7
:10850000F367882344F48091F529811104C0198A06
:108510001A8A1B8A1C8A89899A89AB89BC89BF936C
:10852000AF939F938F938AEB92E29F938F938E01E9
:108530000F5F1F4F1F930F930E94C06FC8010E94CF
:108540007035CDBFDEBF6496CDBFDEBFDF91CF916A
:108550001F910F9108950F931F93CF93DF93CDB782
:10856000DEB76497CDBFDEBF0E942E5360E083E08C
:108570000E94B75384E490E08093C4309093C53058
:1085800081E080932929809129298130E1F30E949B
:108590002F548B879C8780912129909122298B874A
:1085A0009C87AB85BC85E091E129F0E0EE0FFF1FD1
:1085B000E35EF94D208131810E945D6E6D877E877B
:1085C0008F87988B8D859E85AF85B889BB2324F4D2
:1085D00081509C4FAF4FBF4F072E7AE0B595A795BE
:1085E000979587957A95D1F7702D8D879E87AF8760
:1085F000B88B8D859E85AF85B8898B879C876B8569
:108600007C85072E000C880B990B0E94A26823E33F
:1086100033E343ED5FE30E94AF6920E030E040E8E0
:1086200059E30E94AF69698B7A8B8B8B9C8B89890C
:108630009A89AB89BC89BF93AF939F938F938AEB41
:1086400092E29F938F938E010F5F1F4F1F930F93A3
:108650000E94C06FC8010E947035CDBFDEBF649616
:10866000CDBFDEBFDF91CF911F910F910895809113
:108670007D25811131C0EFECF9E2AFE2B9E28D91D5
:108680009C9111978083918312968D919C91139761
:108690008283938314968D919C91159784839583FF
:1086A00018968D919C9119978087918716968D9138
:1086B0009C911797868397831B968D919C911C970D
:1086C000838794871D968D919C911E9785879687A9
:1086D00081E080937D250895EFE2F9E2AFECB9E205
:1086E0008D919C9111978083918312968D919C918D
:1086F00013978283938314968D919C91159784830D
:10870000958318968D919C911997808791871696DD
:108710008D919C911797868397831B968D919C9141
:108720001C97838794871D968D919C911E978587B2
:10873000968710927D2508950F9390910826809139
:10874000E728981709F4A9C00E9437438091E728C9
:10875000833009F045C001E02FE030E047E050E011
:1087600062E070E083E090E00E94A12860E081E098
:108770000E947E2021E030E045E050E063E070E0C0
:1087800082E190E00E94A12860E081E00E947E20CA
:1087900000E023E030E043E050E064E070E085E09A
:1087A00090E00E94A12860E081E00E947E2023E00A
:1087B00030E043E050E064E070E089E090E00E9447
:1087C000A12860E081E00E947E2023E030E043E0C9
:1087D00050E064E070E08DE090E00E94A12857C076
:1087E00001E02FE030E047E050E062E070E083E03D
:1087F00090E00E94A12860E080E00E947E2021E0BD
:1088000030E045E050E063E070E082E190E00E94FB
:10881000A12860E080E00E947E208091E7288330DC
:1088200078F40FEF23E030E043E050E064E070E0E4
:1088300085E090E00E94A1286FEF81E00E947E20F9
:108840008091E7288150823078F40FEF23E030E008
:1088500043E050E064E070E089E090E00E94A128ED
:108860006FEF81E00E947E208091E728823079F4CA
:108870000FEF23E030E043E050E064E070E08DE093
:1088800090E00E94A1286FEF81E00E947E208091FD
:10889000E728809308260E9437430F9108952F926E
:1088A0003F924F925F926F927F928F929F92AF9280
:1088B000BF92CF92DF92EF92FF920F931F93CF93CD
:1088C000DF9300D0CDB7DEB7898380900C269090DF
:1088D0000D26A12CB12C01E913E28FEA99E20F2EAB
:1088E000FFECCF2EF9E2DF2EF02D0F2EF1E5EF2E6B
:1088F000F6E2FF2EF02D0F2E22242A94F7E03F2ED1
:10890000F02D0F2EF4E64F2E512C612C712CF02DF2
:108910008A839B83F701808181FF19C0F981F1303F
:1089200091F4F801A081B181A50194010E946F6EBC
:10893000A30192010E94276E2150384FEA81FB81EA
:108940002083318304C0EA81FB81208231820E5F63
:108950001F4F8A819B8102968A839B838C159D057C
:10896000C9F62396CDBFDEBFDF91CF911F910F9146
:10897000FF90EF90DF90CF90BF90AF909F908F903F
:108980007F906F905F904F903F902F9008954F92FF
:108990005F926F927F92AF92BF92CF92DF92EF92EF
:1089A000FF920F931F93CF93DF93E0912D2687E0E3
:1089B000E89FF0011124EC5AFA4DC080D180E12CDF
:1089C000F12CC1E9D3E20BEC15E20F2EF1EBAF2E47
:1089D000F3E2BF2EF02D0F2EF4E64F2E512C612C1A
:1089E000712CF02DA991B991A70196010E946F6E8B
:1089F000A30192010E94276E2150384FF801219364
:108A000031938F01CA15DB0569F7DF91CF911F9173
:108A10000F91FF90EF90DF90CF90BF90AF907F903D
:108A20006F905F904F900895FC018081E82FEF7068
:108A30008E2F90E0FC013197E730F105D0F48827C4
:108A4000E05FFE4F8F4F0C94466E21E030E011C086
:108A500022E030E00EC024E030E00BC028E030E03F
:108A600008C020E430E005C020E031E002C020E092
:108A700034E0C90108950F931F93CF93DF93CDB7CF
:108A8000DEB72C97CDBFDEBFBC0180E090E00E9436
:108A9000A0689B01AC0160E070E080E89FE30E9469
:108AA000F86720E030E040E85DE30E94AF69698349
:108AB0007A838B839C838DEB97E3A6E0B3E38D836E
:108AC0009E83AF83B88780E098E00E941445BC0184
:108AD00080E090E00E94A06869877A878B879C87F6
:108AE00069857A858B859C852D813E814F8158854E
:108AF0000E94AF696D837E838F83988700E018E0C2
:108B0000F80110A211A269817A818B819C812D814B
:108B10003E814F8158850E94F8670E947168F80174
:108B200066AB77AB86A997A9969587959695879515
:108B300080AF91AF86A997A99695879582AF93AF9D
:108B40002C96CDBFDEBFDF91CF911F910F9108957D
:108B5000EAECF8E2A181B2818D919C91A181B28170
:108B600012962D913C91139725833683009749F4F3
:108B700080E00E944F44E0E0F8E0878183608783D3
:108B800008959C01255631092B3A364258F40E942B
:108B90003B4581E00E944F44E0E0F8E0878183603C
:108BA0008783089580E00E944F440895CF93DF9318
:108BB0009C01EAECF8E293819111FDCFCAECD8E276
:108BC00029833A830E94A845E0E0F8E080E18487A9
:108BD00081E08B83878183608783DF91CF910895C4
:108BE0008093CB309093CC30AC014051510981E05F
:108BF0008093C82509C02091CB303091CC304217EA
:108C0000530710F0405151099091C825913099F3C4
:108C10000895CF93DF93EC01E1E5F6E28081826075
:108C2000808380E8809325068AE090E00E94F045EA
:108C3000CE010E94D645EAECF8E283818111FDCF96
:108C40008091CE28882361F0E1E5F6E280818260A0
:108C5000808380E8809325068AE090E00E94F045BA
:108C6000DF91CF910895CF93DF931F921F92CDB7DD
:108C7000DEB78AE090E089839A8389819A81892B83
:108C800049F089819A81019789839A8389819A81A0
:108C9000892BB9F70F900F90DF91CF9108958093B2
:108CA000C4309093C53081E08093292908950E94B3
:108CB00009468091292690912A260E943B450895D5
:108CC000CF92DF92EF92FF9220912A2930912B29A7
:108CD0006C01C222D322C601892B29F08DEB93E2CD
:108CE0000E94574607C081EB93E20E945746C12C71
:108CF000D12C760110922A2910922B29C601FF90BF
:108D0000EF90DF90CF900895EF92FF920F931F9313
:108D1000CF93DF937C011092E8281092E9281092FB
:108D20002A2910922B2900E014E0CEEDD9E205C0EB
:108D30008A89813011F40E94E95780912A29909103
:108D40002B29892BA9F3F801108611868091E82838
:108D50009091E9288038910529F410922A291092DF
:108D60002B2909C0C7010E946046009731F3809308
:108D7000E8289093E928DF91CF911F910F91FF9000
:108D8000EF900895CF93DF93EC018091F02981302B
:108D900011F40E94E95780912A2990912B29892B5F
:108DA00059F01092080410920904CE010E94604606
:108DB0008093E8289093E928DF91CF9108950F934D
:108DC0001F93CF93DF93CEEDD9E2188211E0198380
:108DD0000E943C5184EC92E20E94FE310E94EA2EF5
:108DE00080E991E0809317299093182988E0809377
:108DF000A7301A8B80E890E08093C9259093CA250C
:108E00001092E8281092E92802E00E9498180B833B
:108E10000E94FB411B820E94FB411B830E94FB417D
:108E20008091C9259091CA250E94C2468091E82868
:108E30009091E9288038910541F7DF91CF911F91FA
:108E40000F910895CF93DF93C9E0D6E229813A814B
:108E50008B819C81820F931F8B5A9F4F2D813E8166
:108E6000820F931F2E853F85820F931F2889398992
:108E7000820F931F2A893B89820F931F2F81820FB4
:108E8000911D28A5820F911D8DA79EA74FE250E04E
:108E900060E070E0CE010E94477089EC93E20E948E
:108EA000094681E08FA3DF91CF9108952F923F92E1
:108EB0004F925F926F927F928F929F92AF92BF92EA
:108EC000CF92DF92EF92FF920F931F93CF93DF9396
:108ED000CDB7DEB72897CDBFDEBF0E94EA2E8091C6
:108EE000312681110DC08FEC92E20E94FE3140E0EC
:108EF00050E060E070E08EE694E20E9425320CC003
:108F00008BED92E20E94FE3140E050E060E070E0C4
:108F10008BE891E20E94253280E991E08093172945
:108F2000909318290E9498186894EE24E3F8E09230
:108F3000A73088E890E08093C9259093CA251092C5
:108F4000E8281092E928EEEDF9E2128A10821182E7
:108F50000E943C5100EA16E0F801E6828091072663
:108F600080640F2EF0E8CF2EF6E0DF2EF02DF60114
:108F700084836894FF24F7F8F801F5820E94334651
:108F8000F801F68285E090E00E94F0458091072686
:108F9000F6018483F801F5820E943346F801F682D7
:108FA00085E090E00E94F045F801E6820F2EFEED8C
:108FB000CF2EF9E2DF2EF02D07E119E20F2EF0E8B7
:108FC0006F2EF6E07F2EF02D0F2EF8ECEF2EF12C09
:108FD000F02D0F2EF6E38F2E912CF02DDEC1F60131
:108FE00023820E942E531D821E821F821886109299
:108FF0002C2980912C29843008F052C083E00E94F3
:10900000635569837A838B839C8369817A818B81A1
:109010009C8123E333E343E55FE30E945269181622
:109020003CF560E080E00E94B753E092C430F092DB
:10903000C53050922929809129298130E1F30E947D
:109040002F54F8016285738580E090E00E94A0684B
:1090500023E333E343ED5FE30E94AF6923E333EBA4
:109060004CE453E40E94F86769837A838B839C8382
:1090700069817A818B819C812D813E814F815885C8
:109080000E9487676D837E838F83988780912C29C8
:109090008F5F80932C2980912C29843008F4AECFE7
:1090A0006D817E818F81988520E030E040E85EE32D
:1090B0000E94AF6969837A838B839C8369817A81FB
:1090C0008B819C810E943E368091C9259091CA2552
:1090D0000E94C2468091E8289091E928892B09F0E6
:1090E00024C1F60133820E942E531D821E821F82EC
:1090F000188610922C2980912C29843008F052C0B7
:1091000083E00E94635569837A838B839C836981A2
:109110007A818B819C8123E333E343E55FE30E9403
:10912000526918163CF560E0832D0E94B753809277
:10913000C4309092C53050922929809129298130DC
:10914000E1F30E947156F8016285738580E090E03A
:109150000E94A06823E333E343ED5FE30E94AF691D
:1091600023E333EB4CE453E40E94F86769837A838A
:109170008B839C8369817A818B819C812D813E8147
:109180004F8158850E9487676D837E838F83988780
:1091900080912C298F5F80932C2980912C298430F9
:1091A00008F4AECF6D817E818F81988520E030E01C
:1091B00040E85EE30E94AF6969837A838B839C8376
:1091C00069817A818B819C810E943E368091C9257C
:1091D0009091CA250E94C2468091E8289091E92882
:1091E000892B09F0A2C0F60113820E942E531D8222
:1091F0001E821F82188610922C2980912C2984307F
:10920000B0F483E00E9463552D813E814F815885E3
:109210000E9487676D837E838F83988780912C2936
:109220008F5F80932C2980912C29843050F36D819D
:109230007E818F81988520E030E040E85EE30E94E7
:10924000AF6969837A838B839C8369817A818B81FF
:109250009C8123E333E343E55FE30E9452691816E0
:109260000CF040C080910726836CF3018483F501E4
:1092700045820E943346F501468285E090E00E94D7
:10928000F04580910726F3018483F50145820E9411
:109290003346F501468285E090E00E94F0458092D9
:1092A000C4309092C530509229298091292981306B
:1092B000E1F30E947156F8016285738580E090E0C9
:1092C0000E94A06823E333E343ED5FE30E94AF69AC
:1092D0002EEE30EC45E152E40E94F86769837A8310
:1092E0008B839C83809107268062F3018483F50140
:1092F00045820E943346F501468285E090E00E9457
:10930000F04580910726F3018483F50145820E9490
:109310003346F501468285E090E00E94F045698180
:109320007A818B819C810E943E368091C9259091E3
:10933000CA250E94C2468091E8289091E9280897A2
:10934000D9F50E94EA2E80913126882389F0813058
:10935000F1F4109231268FEC92E20E94FE3140E04F
:1093600050E060E070E08EE694E20E9425320FC08B
:1093700081E0809331268BED92E20E94FE3140E045
:1093800050E060E070E08BE891E20E9425320E949C
:1093900022471092E8281092E9286894222421F8A4
:1093A00033243394532C0F2EF0EAAF2EF6E0BF2E69
:1093B000F02D6894442447F88091E8289091E9289A
:1093C0008038910509F00BCE2896CDBFDEBFDF9126
:1093D000CF911F910F91FF90EF90DF90CF90BF90B2
:1093E000AF909F908F907F906F905F904F903F9045
:1093F0002F90089540E050E060E070E084E694E251
:109400000E94253240E050E061E070E08EE694E298
:109410000E94253240E050E062E070E083E192E299
:109420000E94253288EB90E08093C9259093CA254D
:109430000E9484468091E8289091E9288031910526
:1094400041F08032910541F0089741F40E94DF46D7
:1094500008950E94564708950E942D3E08954FE2B8
:1094600050E060E070E089E096E20E94A370E9E0DD
:10947000F6E22181328183819481820F931F8B5A7E
:109480009F4F25813681820F931F26853785820F56
:10949000931F20893189820F931F22893389820F7C
:1094A000931F2781820F911D20A5820F911D25A555
:1094B00036A58217930709F44FC084E4808384E1C2
:1094C00090E08383948381E0878381E490E08583C7
:1094D000968310922C2980912C298330E8F420E087
:1094E00034E0E0912C29F0E0EE0FFF1FE95EF94D2A
:1094F00020833183E0912C29F0E0EE0FFF1FE35E23
:10950000F94D2083318380912C298F5F80932C2902
:1095100080912C29833028F3E9E0F6E286EF9FEF73
:109520008087918781ED9FEF828793878CE190E020
:109530008487958785E790E08183928388E285A37D
:109540008AE186A381E492E080A391A381E084A3D1
:1095500083A310A60E9422470895AF92BF92CF9294
:10956000DF92EF92FF920F931F93CF93DF93CDB7CC
:10957000DEB76497CDBFDEBF88EE92E20E94FE3177
:1095800001E010E020E830E046E350E06AE070E0FF
:1095900080E090E00E94F8280E94B43200E021E4CC
:1095A00030E04EE050E06AE170E088E190E00E9437
:1095B000A12860E080E00E947E2020E030E048E0CA
:1095C00050E061E070E085EF92E20E94CB242EE152
:1095D00030E04EE050E06AE170E089E590E00E9402
:1095E000A12809E016E2F801878190E001969F9397
:1095F0008F9380E691E29F938F93CE0101967C0139
:109600009F938F930E94C06F20E030E042E050E0D3
:1096100061E070E0C7010E94CB24F80117818091BE
:10962000E8289091E9289C01287833270F900F9023
:109630000F900F900F900F90232B09F05FC05F01E8
:109640000F2EF0E6CF2EF1E2DF2EF02D81E00E940A
:109650004F448FEB90E00E9484468091E8289091DF
:10966000E9288031910531F08032910569F0089741
:1096700089F407C0F5018781882361F081508783D1
:1096800009C00E94224706C0F5018781833010F48B
:109690008F5F878300E02EE130E04EE050E06AE12A
:1096A00070E089E590E00E94A12860E080E00E94DF
:1096B0007E20F501878190E001969F938F93DF9242
:1096C000CF92FF92EF920E94C06F20E030E042E024
:1096D00050E061E070E0C7010E94CB248091E8284F
:1096E0009091E9289C01287833270F900F900F90D4
:1096F0000F900F900F90232B09F4A8CF803891057D
:1097000011F4109310266496CDBFDEBFDF91CF9188
:109710001F910F91FF90EF90DF90CF90BF90AF908F
:1097200008958F929F92AF92BF92CF92DF92EF9265
:10973000FF920F931F93CF93DF93CDB7DEB764975C
:10974000CDBFDEBF8EEF92E20E94FE310E94B432A6
:1097500000E021E430E04EE050E06AE170E088E1B2
:1097600090E00E94A12860E080E00E947E2020E03E
:1097700030E048E050E061E070E085EF92E20E9466
:10978000CB242EE130E04EE050E06AE170E089E564
:1097900090E00E94A12809E016E2F80123813481BB
:1097A000ADECBCEC0E944E6E96958795969587958C
:1097B000969587959F938F9380E691E29F938F93E1
:1097C000CE0101967C019F938F930E94C06F20E091
:1097D00030E042E050E061E070E0C7010E94CB243D
:1097E0001092E8281092E928F801838094800F9065
:1097F0000F900F900F900F900F9058010F2EF0E6E2
:10980000CF2EF1E2DF2EF02D81E00E944F448FEB4E
:1098100090E00E9484468091E8289091E928803168
:10982000910531F08032910581F00897B9F40AC0B2
:10983000F501838194818B30910580F00A978383B1
:1098400094830CC00E94224709C0F5018381948152
:109850008436910518F40A968383948300E02EE100
:1098600030E04EE050E06AE170E089E590E00E946F
:10987000A12860E080E00E947E20F50123813481F0
:10988000ADECBCEC0E944E6E9695879596958795AB
:10989000969587959F938F93DF92CF92FF92EF9249
:1098A0000E94C06F20E030E042E050E061E070E0F4
:1098B000C7010E94CB248091E8289091E9289C015F
:1098C000287833270F900F900F900F900F900F90E4
:1098D000232B09F499CF8038910521F480920C262E
:1098E00090920D266496CDBFDEBFDF91CF911F9180
:1098F0000F91FF90EF90DF90CF90BF90AF909F902F
:109900008F9008958DE093E20E94FE3160E070E058
:1099100080E090E00E946E3240E050E061E070E054
:1099200089E193E20E94253240E050E062E070E07D
:109930008FEB90E20E94253280EB90E00E948446FB
:109940008091E8289091E9288031910519F080975D
:1099500021F008950E94914B08950E94AD4A089508
:109960009F92AF92BF92CF92DF92EF92FF920F93AE
:109970001F93CF93DF93CDB7DEB76497CDBFDEBF24
:1099800081E293E20E94FE310E94B43200E021E4C1
:1099900030E04EE050E06AE170E088E190E00E9443
:1099A000A12860E080E00E947E2020E030E042E0DC
:1099B00050E061E070E08BE293E20E94CB242EE164
:1099C00030E04EE050E06AE170E089E590E00E940E
:1099D000A12809E016E2F80185A19DEC899F812D5F
:1099E00011248695869586951F928F9380E691E245
:1099F0009F938F93CE0101967C019F938F930E943A
:109A0000C06F20E030E045E050E061E070E0C70169
:109A10000E94CB241092E8281092E928F80195A022
:109A20000F900F900F900F900F900F9078011DECFA
:109A30000F2EF0E6AF2EF1E2BF2EF02DCE010196F3
:109A40006C0188EB90E00E9484468091E828909118
:109A5000E9288031910531F08032910551F0089765
:109A600089F40EC0F70185A18B3060F08A5085A380
:109A700009C0F70185A1803528F4865F85A302C05F
:109A80000E942247F70185A10E94E71700E02EE11E
:109A900030E04EE050E06AE170E089E590E00E943D
:109AA000A12860E080E00E947E20F70185A1819FCF
:109AB000812D11248695869586951F928F93BF924E
:109AC000AF92DF92CF920E94C06F20E030E045E07D
:109AD00050E061E070E0C6010E94CB248091E8284C
:109AE0009091E9289C01287833270F900F900F90D0
:109AF0000F900F900F90232B09F4A3CF803891057E
:109B000029F490922E26892D0E94E7171092E828BA
:109B10001092E9286496CDBFDEBFDF91CF911F91EF
:109B20000F91FF90EF90DF90CF90BF90AF909F90FC
:109B30000895E5EBF0E392819111FDCF9091C20978
:109B4000A3ECB9E09C91E5EBF0E391E09283818393
:109B5000908383E08093C10983818C9382818130DB
:109B6000E9F308951F93CF93DF93E5EBF0E31382BE
:109B7000C0E2D6E010E11E83848382E00E94994D0A
:109B80001D83DF91CF911F9108950F931092E828C4
:109B90001092E92881E08093F02980E00E944F44F0
:109BA00082E08093A5060E94E1180E94AA18809185
:109BB0000A2690910B260E94B24D01E020E830E089
:109BC00040E450E060E070E080E090E00E94A12876
:109BD00020E030E045E050E060E070E087EA92E2AB
:109BE0000E94CB2400E020E830E04FE150E060E24A
:109BF00070E080E090E00E94A12820E030E045E0A5
:109C000050E062E070E087E393E20E94CB2485E3BA
:109C100094E20E94094680EC90E20E9464170F9142
:109C20000895E0ECF9E08081837F80838081886003
:109C300080830895E1ECF9E080818C7F8083E0EC03
:109C4000F9E08081837F808380818C6080830895A8
:109C50002F923F924F925F926F927F928F929F923C
:109C6000AF92BF92CF92DF92EF92FF920F931F932A
:109C7000CF93DF93CDB7DEB76597CDBFDEBF87E467
:109C800093E20E94FE310E94B43200E021E430E011
:109C90004EE050E06AE170E088E190E00E94A12887
:109CA00060E080E00E947E2020E030E048E050E06C
:109CB00061E070E080E593E20E94CB242EE130E089
:109CC0004EE050E06AE170E089E590E00E94A12852
:109CD00009E016E2F80186A11F928F9380E691E2D7
:109CE0009F938F93CE0101967C019F938F930E9447
:109CF000C06F20E030E042E050E061E070E0C7017A
:109D00000E94CB241092E8281092E928F801F6A1CD
:109D1000FD8B88E390E08093C9259093CA250F902E
:109D20000F900F900F900F900F9058010F2EF2ECA4
:109D3000EF2EF9E0FF2EF02D0F2EF0E6CF2EF6E0FD
:109D4000DF2EF02D6894332432F811E00F2EF3EC5F
:109D50006F2EF9E07F2EF02D0F2EF1E82F2EF02D33
:109D60000F2EF0E64F2EF1E25F2EF02DCE01019680
:109D70004C018091C9259091CA2580680E94844633
:109D80008091E8289091E9288031910531F0803266
:109D9000910569F0089789F407C0F50186A1803123
:109DA00060F0815086A309C00E94224706C0F501D9
:109DB00086A1863210F48F5F86A30E941A4EF701A7
:109DC000808180688083F60136821683F3012082C9
:109DD000F70180818823E4F7F6011583F50106A1D8
:109DE0000E941A4EF701808180688083F6013682D6
:109DF0001683F3010083F70180818823E4F7F601DD
:109E0000158300E02EE130E04EE050E06AE170E0C2
:109E100089E590E00E94A12860E080E00E947E2019
:109E2000F50186A11F928F935F924F929F928F921E
:109E30000E94C06F20E030E042E050E061E070E05E
:109E4000C4010E94CB248091E8289091E9289C01CC
:109E5000287833270F900F900F900F900F900F904E
:109E6000232B09F486CF80389105A9F5FD89F0935D
:109E70002F260E941A4EE2ECF9E0808180688083F0
:109E8000E0E6F6E084E0868381E0868381E88093E3
:109E9000C309E2ECF9E080818823ECF700E616E0E4
:109EA000FF24F394F801F582E0902F260E941A4EC9
:109EB000E2ECF9E080818068808384E0F8018683A9
:109EC000F682E092C309E2ECF9E080818823ECF7A6
:109ED00081E0809365066596CDBFDEBFDF91CF91AF
:109EE0001F910F91FF90EF90DF90CF90BF90AF90B8
:109EF0009F908F907F906F905F904F903F902F90AA
:109F000008950F931F9389E593E20E94FE3101E0CB
:109F100020E830E046E350E06AE070E080E090E066
:109F20000E94A12860E080E00E947E2001E010E015
:109F300020E830E046E350E06AE070E080E090E046
:109F40000E94F82840E050E060E070E087E693E28D
:109F50000E94253240E050E061E070E08EE693E23E
:109F60000E94253240E050E062E070E083E791E239
:109F70000E9425328FEB90E00E9484468091E82871
:109F80009091E9288031910541F08032910541F0AE
:109F9000089741F40E94B04C05C00E94284E02C0B0
:109FA0000E94824C1F910F9108950F931F9301E01F
:109FB00010E020E830E046E350E06AE070E080E046
:109FC00090E00E94F8288091E8289091E92882305A
:109FD000910569F18430910509F450C0019709F0A9
:109FE0006DC080E090E00E94DB602091E828309115
:109FF000E9282830310509F061C0A9E0B6E293965E
:10A000008C9393979927FC01EE0FFF1FEE0FFF1F14
:10A01000EE0FFF1FE81BF90BE759FA4D8081918184
:10A0200090968D939C9391970E94224747C081E020
:10A0300090E00E94DB602091E8283091E9282830E8
:10A040003105E1F5A9E0B6E294968C9394979927AF
:10A05000FC01EE0FFF1FEE0FFF1FEE0FFF1FE81BAF
:10A06000F90BEC5AFA4D8081918115968D939C9352
:10A0700016970E94C7440E94224720C08EEE92E0AD
:10A080008093C4309093C53081E0809329298091DA
:10A090002929813089F482E090E00E94C2468091B3
:10A0A00029298130C1F38091E8289091E92802970D
:10A0B00019F40E943C6702C00E94814F8091E828F9
:10A0C0009091E9288038910521F01092E8281092AB
:10A0D000E9281F910F910895C0E8D0E00F2EF8E312
:10A0E000EF2EF12CF02D8091E8289091E92880380E
:10A0F000910509F086C01092E8281092E92884EFB3
:10A1000091E00E94F04587E890E00E94C24680916D
:10A11000E8289091E9288038910509F072C00E94E2
:10A12000B0198091E8289091E92887789927892BA0
:10A1300051F40E94C141E092C925F092CA258FEBEB
:10A1400090E00E9484468091E8289091E928803828
:10A150009105C9F18091E7288330A9F189E992E25C
:10A160000E94FE3101E09E0146E350E06AE070E0AB
:10A1700080E090E00E94A12860E080E00E947E20C4
:10A180008091E8289091E9288430910581F028F4A5
:10A190000197029708F0A7CF0AC08031910569F0B6
:10A1A0008032910569F0089709F09DCF03C00E94A5
:10A1B000D54F99CF0E941F6096CF0E94B71693CFBC
:10A1C0000E94FA4990CF84EF91E00E94F0451092EE
:10A1D000E8281092E92884EF91E00E94F04587E892
:10A1E00090E00E94C2468091E8289091E92880384A
:10A1F000910511F40E94B019C093E828D093E92882
:10A2000072CF8091E8289091E92887789927892B47
:10A2100009F0A0CF8ECF0E94A61787E88093A200F6
:10A2200078940E94B317C1E0C09330260E9423188F
:10A230000E942F4A0E9410180E942D180E943A185E
:10A240000E9498180E9452180E94C54D88EB9BE00E
:10A250008093C4309093C530C093292980912929D7
:10A26000813041F487E890E00E94C246809129291C
:10A270008130C1F30E946C50EF92FF921F93CF93F5
:10A28000DF938091DE29813009F4FCC038F0823000
:10A2900009F4ADC0833009F48EC1DAC1809107267C
:10A2A000982F9F7E909307268C700F2EF0E8EF2E4C
:10A2B000F6E0FF2EF02DF7018483C0EAD6E010E827
:10A2C0001D830E9433461E8380E18E838091072682
:10A2D0008366F70184831D830E9433461E8385E0D5
:10A2E00090E00E94F04580910726F70184831D834A
:10A2F0000E9433461E8385E090E00E94F04580E294
:10A30000809326068091DF29811135C088E08E83F5
:10A31000809107268064F70184831D830E94334661
:10A320001E8385E090E00E94F04580910726F701AA
:10A3300084831D830E9433461E8385E090E00E9443
:10A34000F045809107268062F70184831D830E9477
:10A3500033461E8385E090E00E94F04580910726F9
:10A36000F70184831D830E9433461E8385E090E0BD
:10A370000E94F0456DC180910726836A0F2EF0E898
:10A38000EF2EF6E0FF2EF02DF7018483C0EAD6E031
:10A3900010E81D830E9433461E8385E090E00E94F2
:10A3A000F04580910726F70184831D830E94334680
:10A3B0001E8385E090E00E94F04580910726836C23
:10A3C000F70184831D830E9433461E8385E090E05D
:10A3D0000E94F04580910726F70184831D830E9427
:10A3E00033461E8385E090E00E94F04531C1109213
:10A3F00007260F2EF0E8EF2EF6E0FF2EF02DF701E6
:10A400001482C0EAD6E010E81D830E9433461E8302
:10A4100080E18E8380E28093260680910726836AFE
:10A42000F70184831D830E9433461E8385E090E0FC
:10A430000E94F04580910726F70184831D830E94C6
:10A4400033461E8385E090E00E94F04588E08D83CE
:10A45000809107268068F70184831D830E9433461C
:10A460001E8385E090E00E94F04580910726F70169
:10A4700084831D830E9433461E8385E090E00E9402
:10A48000F045E6C080910726982F9F7E909307267F
:10A490008C700F2EF0E8EF2EF6E0FF2EF02DF70176
:10A4A0008483C0EAD6E010E81D830E9433461E83F1
:10A4B00080E18E8380E28093260680910726836662
:10A4C000F70184831D830E9433461E8385E090E05C
:10A4D0000E94F04580910726F70184831D830E9426
:10A4E00033461E8385E090E00E94F04588E08E832D
:10A4F000809107268064F70184831D830E94334680
:10A500001E8385E090E00E94F04580910726F701C8
:10A5100084831D830E9433461E8385E090E00E9461
:10A52000F0458CE080930726F70184831D830E9409
:10A5300033461E838091DF2981111AC0809107263E
:10A540008062F70184831D830E9433461E8385E069
:10A5500090E00E94F04580910726F70184831D83D7
:10A560000E9433461E8385E090E00E94F04570C053
:10A5700080910726836C0F2EF0E8EF2EF6E0FF2E79
:10A58000F02DF7018483C0EAD6E010E81D830E9415
:10A5900033461E8385E090E00E94F04580910726B7
:10A5A000F70184831D830E9433461E8385E090E07B
:10A5B0000E94F0454DC08091072683660F2EF0E87B
:10A5C000EF2EF6E0FF2EF02DF7018483C0EAD6E0EF
:10A5D00010E81D830E9433461E8385E090E00E94B0
:10A5E000F04580910726F70184831D830E9433463E
:10A5F0001E8385E090E00E94F04580910726836AE3
:10A60000F70184831D830E9433461E8385E090E01A
:10A610000E94F04580910726F70184831D830E94E4
:10A6200033461E8385E090E00E94F04588E08D83EC
:10A6300080E18D8380910726982F90619093072663
:10A640008C718061F70184831D830E9433461E83D1
:10A65000DF91CF911F91FF90EF900895EF92FF92BD
:10A660001F93CF93DF938091E129813009F453C088
:10A6700018F0823049F175C0C0EAD6E088E08D83D9
:10A6800080910726982F9460909307268C718460A0
:10A690000F2EF0E8EF2EF6E0FF2EF02DF701848369
:10A6A00010E81D830E9433461E8380910726982F51
:10A6B0009860909307268C718860F70184831D83CE
:10A6C0000E9433461E834DC080910726982F9B7FA2
:10A6D0009093072688710F2EF0E8EF2EF6E0FF2EFC
:10A6E000F02DF7018483C0EAD6E010E81D830E94B4
:10A6F00033461E8388E08E8380910726982F9860CA
:10A70000909307268C718860F70184831D830E94D3
:10A7100033461E8326C080910726982F977F9093FB
:10A72000072684710F2EF0E8EF2EF6E0FF2EF02DB5
:10A73000F7018483C0EAD6E010E81D830E94334607
:10A740001E8388E08E8380910726982F94609093D3
:10A7500007268C718460F70184831D830E94334631
:10A760001E83DF91CF911F91FF90EF900895E0E05D
:10A77000F2E0118291819061918390A19C7F90A3DE
:10A7800090A1936090A390A1937E90A390A1660F57
:10A79000660F692B60A3A82FB0E0AC56BF4D8C911B
:10A7A00081A30895E0E0F2E01182918190619183AC
:10A7B00090A59C7F90A790A5936090A790A5937E6D
:10A7C00090A790A5660F660F692B60A7A82FB0E031
:10A7D000AC56BF4D8C9181A70895CF92DF92EF9236
:10A7E000FF920F931F9328E0829FC0011124FC0168
:10A7F000E05EFD4FA0E0B2E08C9181608C93A62FCB
:10A80000B0E01097B9F000E010E0980140E050E0AF
:10A810008381816083838081806880838481958146
:10A82000080F191F211D311D4F5F5F4F4A175B072E
:10A8300079F703C000E010E09801C62ED12CE12C7E
:10A84000F12CC901B801A70196010E94276EC90128
:10A850001F910F91FF90EF90DF90CF9008952F926E
:10A860003F924F925F926F927F928F929F92AF92A0
:10A87000BF92CF92DF92EF92FF920F931F93CF93ED
:10A88000DF93E7E1F9E214861586168617860081C4
:10A89000118101151105F9F0E8E2FAE29801220FA1
:10A8A000331F285D354D40E050E0BA018191919110
:10A8B000092E000CAA0BBB0B480F591F6A1F7B1FE8
:10A8C0002E173F0799F7409323295093242960932B
:10A8D0002529709326296801E12CF12C6091232908
:10A8E000709124298091252990912629A70196010C
:10A8F0000E94276E29013A01A8E4BDE20F2EF6EB73
:10A900002F2EF5E23F2EF02D0F2EF8E58F2EFDE2D3
:10A910009F2EF02DC101FD0121933193EC0129936C
:10A920003993CE018E169F06B9F70115110509F46A
:10A93000A0C0E8E2FAE2000F111F085D154D60E0CB
:10A9400070E040E050E0AA24AA940F2EFFE0BF2E52
:10A95000F02D48C0299139912C153D0510F469015D
:10A96000AC01019688309105A9F7E101C12CD12CE9
:10A9700080E090E029913991C216D30610F4690164
:10A98000BC01019688309105A9F721913191CA0146
:10A99000880F991FEC01C85BD24D8881998182177D
:10A9A00093074CF4CA01880F991FEC01C85BD24D84
:10A9B0002883398313C0CB01880F991FEC01CA5437
:10A9C000DA4D888199812817390744F4CB01880F23
:10A9D000991FEC01CA54DA4D288339830E171F07DB
:10A9E00009F447C0ED01CA2CDB2C80E090E0B2CF27
:10A9F0004D915D91052E000C660B770BC40ED51E94
:10AA0000E61EF71E8A169B0699F726EC35E240E013
:10AA100050E0BA01F101819191911F01092E000CC2
:10AA2000AA0BBB0B480F591F6A1F7B1FE217F307C6
:10AA300089F7D701C601FF201CF40796A11DB11D9F
:10AA4000689412F8B595A795979587951694D1F7C0
:10AA50008093192990931A29A0931B29B0931C293C
:10AA60008A019B0177234CF4095F1F4F2F4F3F4F03
:10AA700004C0C12CD12C7601BBCF689412F8359557
:10AA80002795179507951694D1F7E7E1F9E2068324
:10AA9000178320873187801B910B82879387C201A0
:10AAA000DF91CF911F910F91FF90EF90DF90CF90AA
:10AAB000BF90AF909F908F907F906F905F904F90DE
:10AAC0003F902F9008954F925F926F927F928F9256
:10AAD0009F92AF92BF92EF92FF920F931F93CF93EB
:10AAE000DF93CDB7DEB72E97CDBFDEBF20E038E0D5
:10AAF0002B833C839091DF29913051F42B813C8151
:10AB0000332314F42F5F3F4F359527952B833C83D8
:10AB10001A821D821E8289832D813E814B815C8138
:10AB2000C901992324F488279927821B930B841742
:10AB3000950774F58A81853058F507E119E26A8135
:10AB400089810E94B75386E390E00E944F4680912E
:10AB500029298130E1F30E942F548D839E83F801CF
:10AB6000828593858D839E838A818F5F8A832D81E1
:10AB70003E814B815C81C901992324F48827992760
:10AB8000821B930B841795071CF48A818530B8F2D9
:10AB90000EED19E2F801F380EF2DF0E0EE0FFF1F4C
:10ABA000E35EF94D6081718180E090E00E94A068D1
:10ABB00020E030E040E85AE30E94AF696B877C8771
:10ABC0008D879E876D817E81EA808B849C84AD8495
:10ABD000BE84072E000C880B990B0E94A2682B01E3
:10ABE0003C01EA9461E070E002C0660F771FEA94CE
:10ABF000E2F7072E000C880B990B0E94A2689B01BC
:10AC0000AC01C301B2010E94F867A50194010E9442
:10AC1000AF696B877C878D879E876B857C858D85EB
:10AC20009E8523E333E343ED5FE30E94AF6920E0B9
:10AC300030EE4FEF54E40E94F8676F83788789877E
:10AC40009A87F8018789811136C0809032269090CA
:10AC50003326A0903426B09035262F81388549853B
:10AC60005A85C501B4010E94F3678823E4F46F811B
:10AC7000788589859A85A50194010E9486676F83EE
:10AC8000788789879A87F1E0FF1215C06F817885F0
:10AC900089859A859B01AC010E9487676F837887BD
:10ACA00089879A8708C08FE692E1A3E0BAE38F8391
:10ACB0009887A987BA876F81788589859A852E9626
:10ACC000CDBFDEBFDF91CF911F910F91FF90EF902D
:10ACD000BF90AF909F908F907F906F905F904F90BC
:10ACE00008952F923F924F925F926F927F928F9230
:10ACF0009F92AF92BF92CF92DF92EF92FF920F930B
:10AD00001F93CF93DF93CDB7DEB72C97CDBFDEBFB8
:10AD10000F2EF8E42F2EFDE23F2EF02D0F2EF6EB36
:10AD20008F2EF5E29F2EF02D28E53DE2D401F101B2
:10AD300080E098E0819391938D939D93E217F307C0
:10AD4000C9F76090172970901829B301660F771F13
:10AD5000685D754D0F2EF6EBAF2EF5E2BF2EF02D90
:10AD600088E49DE28D839E8340E050E019821A8240
:10AD70001B821C8200E018E09C0141C04115510576
:10AD800091F4208131812901330F66087708898188
:10AD90009A81AB81BC81840D951DA61DB71D898349
:10ADA0009A83AB83BC8380819181AD81BE812D91DB
:10ADB0003C912817390734F4D7018D939C93008375
:10ADC00011830BC0D5012D913C91821793072CF470
:10ADD000D6018D939C930083118332966E177F0763
:10ADE00069F62D813E816B847C844F5F5F4F2E5FBF
:10ADF0003F4FB2E0AB0EB11C4830510561F0611419
:10AE0000710499F3E8E2FAE2790165012D833E834A
:10AE10006B867C86B3CF26EC35E240E050E0BA0189
:10AE2000C12CD12C7601F401819191914F01092E11
:10AE3000000CAA0BBB0BC80ED91EEA1EFB1ED101CB
:10AE40008D919D911D01092E000CAA0BBB0B480F83
:10AE5000591F6A1F7B1F2E173F0729F74C195D09E1
:10AE60006E097F09DB01CA011AF40796A11DB11D05
:10AE7000689412F8B595A795979587951694D1F78C
:10AE80008093212990932229930140E050E0698129
:10AE90007A818B819C810E94056EC9012C96CDBF61
:10AEA000DEBFDF91CF911F910F91FF90EF90DF9068
:10AEB000CF90BF90AF909F908F907F906F905F905A
:10AEC0004F903F902F90089528E0829FC001112459
:10AED000FC01E05EFD4F108281E0808381818778F4
:10AEE00081838181682B61830895CF92DF92EF92F5
:10AEF000FF92CF93DF931F921F92CDB7DEB7E0E0B2
:10AF0000F2E0838180E3828368E482E00E946457F8
:10AF100062E382E00E94ED5389839A8369817A819A
:10AF200080E090E00E94A06823E333E343E550E42F
:10AF30000E94AF6920E030EE4FEF54E40E94F867C2
:10AF40002AE837EF43EA50E40E94AF696B017C01C5
:10AF500023E333E343E750E40E945269181624F4D4
:10AF600082E08093E7282CC026E636E646E650E4E9
:10AF7000C701B6010E945269181624F481E080933B
:10AF8000E7281EC02AE939E949E550E4C701B601BE
:10AF90000E94526918161CF41092E72811C02DEC7B
:10AFA0003CEC4CE450E4C701B6010E94526918160B
:10AFB00024F484E08093E72803C085E08093E728A9
:10AFC0000F900F90DF91CF91FF90EF90DF90CF9097
:10AFD00008950E9475578091E728853019F40E94E2
:10AFE000B01908950E949C430895E0E0F2E012A297
:10AFF000109280011092470880818E7F8083138297
:10B00000EEEDF9E2128281E0828B80E880932606E1
:10B01000E1E5F6E280818D7F808380EC90E20E9402
:10B02000641708950F931F93CF93DF93CDB7DEB7C7
:10B030002C97CDBFDEBF40E050E060E071E449876F
:10B040005A876B877C8700E01BE024E0F8012083AF
:10B05000BC0180E090E00E94A0689B01AC0160E030
:10B0600070E080E89FE30E94F86720E030E048EC61
:10B0700052E40E94F86769837A838B839C838DEB0B
:10B0800097E3A6E0B3E38D839E83AF83B88769859A
:10B090007A858B859C852D813E814F8158850E94C4
:10B0A000AF696D837E838F83988769817A818B8175
:10B0B0009C812D813E814F8158850E94F8670E94B6
:10B0C0007168F80166AB77AB7695679560AF71AF45
:10B0D0002C96CDBFDEBFDF91CF911F910F910895C8
:10B0E000CF93DF93EAECF8E293819111FDCF8111C8
:10B0F0000FC08091292690912A26EFE3F9E2808300
:10B10000918380EA90E082839383848395831DC03A
:10B110008091292690912A26853823E0920738F0DD
:10B120009695879580933F299093402906C0880F74
:10B13000991F80933F2990934029EFE3F9E280EA39
:10B1400090E08283938384839583EFE3F9E2168210
:10B150001782108611861386208131818091812586
:10B16000909182252817390759F0EF01808191814C
:10B170000E943B4588819981809381259093822507
:10B18000EAE4F9E28081826080838081806180834B
:10B19000E0E0F8E087818C608783DF91CF910895AC
:10B1A00081E08093F4296FEF80E00E947E202FEFF2
:10B1B00030E045E050E065E070E089E594E20E940F
:10B1C000CB248DEE93E20E94094608950F931F93BE
:10B1D000CF93DF9300D01F92CDB7DEB780E991E027
:10B1E00080931729909318290E9498188091F52927
:10B1F000811103C01092A73003C088E08093A7306C
:10B20000E1E5F6E280818260808380E88093250614
:10B210008AE090E00E94F04560E080E00E94B75331
:10B2200080E490E00E944F46809129298130E1F32B
:10B230000E942F5480912129909122298B839C83F5
:10B240006B817C8180E090E00E94A06823E333E37F
:10B2500043ED5FE30E94AF6923E333EB4CE453E437
:10B260000E94F8670AEC18E2D80159966D937D9315
:10B270008D939C935C970E947168F8016387748733
:10B28000E9E0F6E224A1D8011B964D915C911C9750
:10B29000848D958D022E02C0969587950A94E2F7CB
:10B2A0008417950758F484E190E002C0959587953E
:10B2B0002A95E2F78093D5289093D62860E081E024
:10B2C0000E94B75380E290E00E944F468091292966
:10B2D0008130E1F30E942F548091212990912229FD
:10B2E0008B839C836B817C8180E090E00E94A068CE
:10B2F00023E333E343ED5FE30E94AF6923E333EBE2
:10B300004CE453E40E94F8670AEC18E2F801658BFC
:10B31000768B878B908F0E947168D80119966D93F8
:10B320007C931A97E9E0F6E224A119964D915C917D
:10B330001A97868D978D022E02C0969587950A944E
:10B34000E2F78417950758F484E190E002C09595E0
:10B3500087952A95E2F78093D3289093D42884E0A8
:10B360008093A50660E083E00E94B75380E290E0FE
:10B370000E944F46809129298130E1F30E942F5489
:10B3800080912129909122298B839C836B817C81E0
:10B3900080E090E00E94A06823E333E343ED5FE3A5
:10B3A0000E94AF692EEE30EC45E152E40E94F8674E
:10B3B0000AEC18E2F801618B728B838B948B0E94EC
:10B3C0006A68D8011D966D937C931E97E9E0F6E2BA
:10B3D00024A11D964D915C911E97828D938D022E16
:10B3E00002C0969587950A94E2F78417950758F45A
:10B3F00088E290E002C0959587952A95E2F78093C0
:10B40000D7289093D82884E08093A60691E02091D5
:10B410002A2930912B29232B09F090E0EAE4F9E264
:10B42000808183FB882780F98917D0F388E0809397
:10B43000A73060E083E00E94B75380E290E00E9472
:10B440004F46809129298130E1F30E94715689830A
:10B450009A8389819A81985089839A8369817A81B4
:10B46000072E000C880B990B0E94A26823E333E39C
:10B4700043ED5FE30E94AF6928EA33ED45E152E412
:10B480000E94F8670E946A68EAECF8E26787708BAE
:10B4900087859089833E9F4FA4F08091D928909111
:10B4A000DA288D3E9F4F6CF48091D9289091DA284C
:10B4B000833E9F4F34F088EE9FEF8093D92890937E
:10B4C000DA28109222022496CDBFDEBFDF91CF9101
:10B4D0001F910F910895CF92DF92EF92FF920F93F9
:10B4E0001F93CF93DF93CDB7DEB72F97CDBFDEBFCE
:10B4F0008091E129833008F49EC0853020F08530AA
:10B5000009F443C098C00E94E6582091D928309190
:10B51000DA28C9010996439720F481E08093D22864
:10B520008AC0C9014397069718F41092D22883C0A5
:10B5300040917F2550918025B901641B750BCB018B
:10B54000992324F488279927861B970B03970CF4DB
:10B5500072C0B901332324F466277727621B730B6B
:10B56000CA01992324F488279927841B950B68170F
:10B57000790724F481E08093D2285DC0861797076D
:10B580000CF059C01092D22856C00E94E658209163
:10B59000D7283091D828A9E0B6E25A96ED91FC91CF
:10B5A0005B9794960C9002C0F695E7950A94E2F7A3
:10B5B0004FE04E9FC0014F9F900D112464E670E054
:10B5C0000E94F16D2617370724F481E08093D2287A
:10B5D00032C040E54E9FC0014F9F900D112464E69C
:10B5E00070E00E94F16D621773071CF41092D2286C
:10B5F00022C080917F2590918025A901481B590B7D
:10B60000CF01FF230CF4019695958795BA01552338
:10B6100024F466277727641B750B861797075CF45D
:10B62000552324F481E08093D22805C01416150612
:10B6300014F41092D22820937F2530938025109106
:10B64000E1298CEF810F823008F0F2C08091D2287E
:10B6500000917E258017A9F08091D228813089F44D
:10B66000123079F401E010E020E330E04CE050E0EB
:10B6700060E270E08BE090E00E94F8280E94D058D1
:10B680005BC0C0905D26D0905E26E0905F26F09073
:10B6900060266091D5287091D62880E090E00E94C5
:10B6A000A0689B01AC01C701B6010E94F36781113C
:10B6B00005C08091D228081709F445C06091D528AB
:10B6C0007091D62880E090E00E94A0680F2EF3E5EC
:10B6D000EF2EF6E2FF2EF02DF70162877387848745
:10B6E000958701E010E020E330E04CE050E060E2BC
:10B6F00070E08BE090E00E94F828F7018285938546
:10B70000A485B585BF93AF939F938F938FE891E204
:10B710009F938F938E010F5F1F4F1F930F930E9474
:10B72000C06F20E030E045E050E065E070E0C80127
:10B730000E94CB24CDBFDEBF1091E1298CEF810F99
:10B74000823008F075C08091D22800917E25801744
:10B75000A9F08091D228813089F4113079F401E088
:10B7600010E020E330E04CE050E060E270E086E47E
:10B7700090E00E94F8280E94D0585AC0C0905926E4
:10B78000D0905A26E0905B26F0905C266091D328FA
:10B790007091D42880E090E00E94A0689B01AC01E9
:10B7A000C701B6010E94F367811104C08091D228BD
:10B7B0000817F1F16091D3287091D42880E090E0CF
:10B7C0000E94A0680F2EF3E5EF2EF6E2FF2EF02D7B
:10B7D000F701668377838087918701E010E020E39B
:10B7E00030E04CE050E060E270E086E490E00E94DF
:10B7F000F828F70186819781A085B185BF93AF9323
:10B800009F938F938FE891E29F938F938E010F5FA9
:10B810001F4F1F930F930E94C06F20E030E045E060
:10B8200050E065E070E0C8010E94CB24CDBFDEBFD0
:10B830008091E1298350833008F090C09091D22804
:10B8400080917E25981791F08091D228813071F4F3
:10B8500001E020E330E04CE050E06EE070E088E290
:10B8600090E00E94A1280E94D0580CC080915526DB
:10B8700090915626A0915726B09158268091D928AC
:10B880009091DA2801E020E330E04CE050E06EE0F7
:10B8900070E088E290E00E94A1288091E129843044
:10B8A00029F56091D9287091DA28072E000C880BB1
:10B8B000990B0E94A268E3E5F6E2628373838483B6
:10B8C000958382819381A481B581BF93AF939F9328
:10B8D0008F938EE594E29F938F93CE0101969F9371
:10B8E0008F930E94C06FCDBFDEBF22C06091D7286A
:10B8F0007091D82880E090E00E94A068E3E5F6E22D
:10B90000628373838483958382819381A481B581CB
:10B91000BF93AF939F938F9388E694E29F938F9307
:10B92000CE0101969F938F930E94C06FCDBFDEBF63
:10B9300021E080917E25813009F020E0122F1195C1
:10B94000612F80E00E947E20212F30E045E050E012
:10B9500065E070E0CE0101960E94CB249091D22840
:10B9600080917E25981731F08091D228811102C0F4
:10B970001092F4298091D22880937E252F96CDBFF6
:10B98000DEBFDF91CF911F910F91FF90EF90DF907D
:10B99000CF9008950F931F93CF93DF931092F329C5
:10B9A000E3E5F6E212861386148615861682178260
:10B9B00010861186128213821482158280E00E9402
:10B9C00070588091292690912A260E943B45CAE40E
:10B9D000D9E20EED19E217C00E946B5A8091C92579
:10B9E0009091CA2587680E94C246888185FFFDCF55
:10B9F000F8018689882321F08FEF0E94705803C0D8
:10BA000080E00E9470588091E8289091E928892B65
:10BA100019F3DF91CF911F910F91089580E48093E6
:10BA200026060E94C7441092E8281092E9288FEA5F
:10BA300090E08093C9259093CA253CC082E794E2A8
:10BA40000E94FE310E94EA2E0E94922F40E050E0B8
:10BA500062E070E080917A2090917B200E942532F4
:10BA600040E050E060E070E080917C2090917D208B
:10BA70000E9425322091E8283091E9288091C9253B
:10BA80009091CA2582239323892B71F40E94CA5C6A
:10BA90002091E8283091E9288091C9259091CA2504
:10BAA00082239323892B91F327703327232B11F0C3
:10BAB0000E94D54F2091E8283091E9288091C9252E
:10BAC0009091CA2582239323892B09F4B7CF089537
:10BAD000E1E5F6E280818260808380E8809325063C
:10BAE0008AE090E00E94F0458DEE93E20E94D645F8
:10BAF00008952F923F924F925F926F927F928F9212
:10BB00009F92AF92BF92CF92DF92EF92FF920F93EC
:10BB10001F93CF93DF93CDB7DEB72E97CDBFDEBF98
:10BB20008091E7288095809308261092D12888E399
:10BB300080933E298091292690912A260E943B4598
:10BB400080E00E94705888E290E08093C92590932D
:10BB5000CA2501E010E028E230E049E050E067E368
:10BB600070E08CE290E00E94F828E0E2F6E080E4E9
:10BB70008583A1E5B6E28C9182608C9380E8858311
:10BB80008AE090E00E94F04580E991E080931729D7
:10BB90009093182988E08093A7308091E8289091AD
:10BBA000E928892B09F027C10F2EFAECAF2EF8E215
:10BBB000BF2EF02D4E0125E0820E911C0AE419E201
:10BBC0000F2EFEED2F2EF9E23F2EF02DF501878589
:10BBD000908999231CF49195819591096AE070E010
:10BBE0000E94F16D69837A8389819A8185369105F6
:10BBF00024F084E690E089839A8369817A81609059
:10BC00003E29712C66197709072E000C880B990BB9
:10BC10000E94A2682EEA37E441E25FE30E94AF6926
:10BC20000E946A68660D771D6B837C838B819C8183
:10BC300020E030E040EA51E46F2D7E2D8D2D9C2DCB
:10BC40000E9452691816B4F420E030E048EC51E448
:10BC50006F2D7E2D8D2D9C2D0E94F367882354F42B
:10BC6000F12CE12C0F2EF0EADF2EF02D0F2EF1E457
:10BC7000CF2EF02DCF92DF92EF92FF92EFE7F4E21A
:10BC8000FF93EF939F928F920E94C06F60E080E0DD
:10BC90000E947E2020E030E048E050E065E070E067
:10BCA000C4010E94CB240E9437438B819C8160E0B9
:10BCB00070E20E94ED0E0E9437438B819C8180933D
:10BCC0003E29CDBFDEBFF801808185FFFCCFF101A9
:10BCD0008689882321F08FEF0E94705803C080E08E
:10BCE0000E9470580E94981891E020912A29309162
:10BCF0002B29232B09F090E0F801808183FB882712
:10BD000080F98917C8F360E083E00E94B75380E3AD
:10BD100090E00E944F46809129298130E1F30E94F2
:10BD200071569850BC01990F880B990B0E94A2681C
:10BD300023E333E343ED5FE30E94AF6928EA33ED89
:10BD400045E152E40E94F8670E946A682B013C01B9
:10BD5000072E000C880B990B0E94A268F62EE72E86
:10BD6000D82EC92EC201880F991F440C551C440CB3
:10BD7000551C440C551C480E591EF5014786508A27
:10BD800010922202878590891816190674F4878507
:10BD90009089813F91054CF487859089893C910574
:10BDA00024F088EC90E08787908B8B819C810F97A3
:10BDB00054F4F1018689813039F10E94685D81E097
:10BDC000F101868B0AC08B819C810F9734F0F101C1
:10BDD0008689813011F4F101168A8091C9259091EC
:10BDE000CA2587680E94C2468091E8289091E92878
:10BDF000892B09F4EBCE80E880932606E1E5F6E294
:10BE000080818D7F808305C08B819C810F972CF36F
:10BE1000E2CF2E96CDBFDEBFDF91CF911F910F9164
:10BE2000FF90EF90DF90CF90BF90AF909F908F905A
:10BE30007F906F905F904F903F902F900895AF92BA
:10BE4000BF92CF92DF92EF92FF920F931F93CF9307
:10BE5000DF9380E48093250601E010E020E830E0E5
:10BE600046E350E06AE070E080E090E00E94F8284D
:10BE700088E290E08093C9259093CA25CEEDD9E25F
:10BE80000F2EF3E0EF2EF02D6894FF24F2F8689463
:10BE9000AA24A4F8B12CCA2CDB2CBDC00E94C74434
:10BEA0008091E8289091E9288430910509F492C0A6
:10BEB00028F40197029708F08FC08CC08830910554
:10BEC00039F1409709F088C01092E8281092E928CB
:10BED000FB8289E894E20E94FE310E94EA2E0E94D1
:10BEE000922F40E050E060E070E080917C209091E3
:10BEF0007D200E94253240E050E062E070E08091B9
:10BF00007820909179200E9425320E94CA5C64C0FA
:10BF10001092E8281092E928EB8201E010E020E876
:10BF200030E040E450E060E070E080E090E00E94AB
:10BF3000F8288AE090E20E945A0E00E010E026E124
:10BF400030E047E050E062E070E088E690E00E9478
:10BF5000F82820E030E045E050E065E070E086E958
:10BF600094E20E94CB2426E130E049E050E06DE00D
:10BF700070E088E690E00E94A12820E030E048E0F0
:10BF800050E065E070E08EE893E20E94CB240E94CE
:10BF9000922F40E050E060E070E080917A20909134
:10BFA0007B200E94253240E050E062E070E080910A
:10BFB0007820909179200E9425320E94795D8091AD
:10BFC000E8289091E928089739F4C092E828D0929F
:10BFD000E92821C00E94D54F8091E8289091E92856
:10BFE00087709927892BB9F00E94D54F8091E82856
:10BFF0009091E9288038910571F08B81833039F474
:10C0000088E090E08093E8289093E92804C0A0920B
:10C01000E828B092E9288091E8289091E928877A69
:10C020009927892B09F43ACFDF91CF911F910F9176
:10C03000FF90EF90DF90CF90BF90AF900895CF9298
:10C04000DF92EF92FF920F931F93CF93DF9381E0E4
:10C050008093DE298CE0809307268AE794E20E9491
:10C06000FE3188E390E08093C9259093CA2540E093
:10C0700050E060E070E080917C2090917D200E94F3
:10C08000253240E050E061E070E080917A209091AC
:10C090007B200E94253240E050E062E070E0809119
:10C0A0007820909179200E94253288EB90E00E94C0
:10C0B00084468091292690912A260E943B45CEED08
:10C0C000D9E211E06894CC24C2F80F2EF5E0DF2EFF
:10C0D000F02D6894EE24E4F8F12C03E031C08031B7
:10C0E0009105B9F080329105D9F08830910561F55C
:10C0F00019830E943C510B834FEF50E060E070E0E9
:10C1000080917C2090917D200E9425320E941F5FAB
:10C1100017C019830E943C51CB820E941F5F10C040
:10C1200019830E943C51DB820E940E5D8091E828B9
:10C130009091E928809721F4E092E828F092E9288C
:10C140008091E8289091E9288038910541F6DF91A7
:10C15000CF911F910F91FF90EF90DF90CF900895B6
:10C160000F931F93CF93DF93EC01162F2C8130E0B8
:10C170006B8170E08A81012F49E050E090E00E94DD
:10C18000A128113029F460E080E00E947E2004C0E4
:10C1900060E081E00E947E2020E030E042E050E05C
:10C1A00065E070E08D819E810E94CB24DF91CF916C
:10C1B0001F910F910895EF92FF920F931F93CF93CA
:10C1C000DF9300D01F92CDB7DEB7182F0E94B43294
:10C1D00001E020E830E046E350E06AE070E080E013
:10C1E00090E00E94A128111111C08CE994E20E94F4
:10C1F000FE3182E08B8380912C268A838C830F2EE4
:10C20000F9E6EF2EF5E2FF2EF02D12C0113081F489
:10C2100088EA94E20E94FE3183E08B8380912D2690
:10C220008A838C830F2EF4E5EF2EF5E2FF2EF02D9E
:10C23000198299818B81981790F4898160E0970128
:10C2400047E0849F200D311D1124C9010E94B06078
:10C2500089818F5F898399818B81981770F38A8197
:10C2600061E0970147E0849F200D311D1124C90131
:10C270000E94B0601092E8281092E9284DC0809189
:10C28000C9259091CA258F6B0E9484468091E82829
:10C290009091E9289C0128733327232BE9F1803101
:10C2A000910589F0809701F58C81882321F08C819C
:10C2B00081508C8303C08B8181508C831092E8283D
:10C2C0001092E92811C02C818B8130E090E0019719
:10C2D0002817390724F48C818F5F8C8301C01C825E
:10C2E0001092E8281092E9288A8160E0970147E0DF
:10C2F000849F200D311D1124C9010E94B0608C81E2
:10C3000061E0970147E0849F200D311D1124C90190
:10C310000E94B0608C818A838091E8289091E928FE
:10C32000892B09F4ACCF8C812496CDBFDEBFDF9181
:10C33000CF911F910F91FF90EF9008952F923F9210
:10C340004F925F926F927F928F929F92AF92BF9225
:10C35000CF92DF92EF92FF920F931F93CF93DF93D1
:10C36000CDB7DEB7E797CDBFDEBF01E010E020E834
:10C3700030E046E350E06AE070E080E090E00E9448
:10C38000F8280E94EA2E0E94922F0E94B43285EB78
:10C3900094E20E94FE3109E016E2F801F4A1FFAB3D
:10C3A00082E0F80184A30F2EFEEDEF2EF9E2FF2EBE
:10C3B000F02DBB24B394F701B78A0E94C74480E4F0
:10C3C0008093250684E0F7018383B08211820E9466
:10C3D0003C51F8010180F281E02DEDABFEAB1092F3
:10C3E000E8281092E928FE017596CE01C5961192B3
:10C3F0001192119211928E179F07C9F7CE010196E3
:10C400004C010F2EFEEB2F2EF4E23F2EF02D0F2EBF
:10C41000FAE44F2EF9E25F2EF02D612CD82CC92CB6
:10C42000F5C08091292690912A260E943B4501E083
:10C4300010E020E330E04CE050E060E270E08BE0A0
:10C4400090E00E94F82880910B268F9380910A2615
:10C450008F93E0E6F1E2FF93EF939F928F920E9419
:10C46000C06F20E030E045E050E065E070E08D2DE9
:10C470009C2D0E94CB2480910A2690910B260E942D
:10C48000B24D8091E8289091E9280F900F900F907D
:10C490000F900F900F90009709F4CAC089C080E0F8
:10C4A0000E9470580E94E6588091DB289091DC2809
:10C4B000A091DD28B091DE28F40124E0A29EE00DD9
:10C4C000F11D1124848B958BA68BB78BA39488E0E8
:10C4D000A81201C0A12C10922C2980912C298830FF
:10C4E00020F5712CB12CE62CF12C80912C29F40133
:10C4F00094E0899FE00DF11D112424893589468936
:10C500005789672D7B2D8E2D9F2D0E948767762E54
:10C51000B72EE82EF92E20912C292F5F20932C295D
:10C5200080912C29883008F304C0712CB12CE62CA2
:10C53000F12C01E010E020E330E04CE050E06EE050
:10C5400070E088E290E00E94F82820E030E040E0CF
:10C550005EE3672D7B2D8E2D9F2D0E94AF699F93EB
:10C560008F937F936F933F922F929F928F920E940F
:10C57000C06F20E030E045E050E065E070E08D2DD8
:10C580009C2D0E94CB24CDBFDEBFF201808185FFB0
:10C59000FCCF88EB90E00E94C24660E083E00E94FE
:10C5A000B7538091E8289091E928009709F477CF54
:10C5B0009C0128733327232B49F18031910581F0A9
:10C5C0008032910519F00897E9F414C080910A2689
:10C5D00090910B26019680930A2690930B2612C009
:10C5E00080910A2690910B26019780930A269093BA
:10C5F0000B2608C080910A2690910B268DAB9EAB2E
:10C600000E9422471092E8281092E9288091E82899
:10C610009091E928892B09F404CFE9E0F6E29FA97B
:10C6200094A38DA99EA9818392830E94B24D14C0C8
:10C6300080E00E9470580E94E6588091DB2890911B
:10C64000DC28A091DD28B091DE288D8B9E8BAF8BEE
:10C65000B88FAA24A3943FCFE796CDBFDEBFDF916A
:10C66000CF911F910F91FF90EF90DF90CF90BF90EF
:10C67000AF909F908F907F906F905F904F903F9082
:10C680002F9008956F927F928F929F92AF92BF9258
:10C69000CF92DF92EF92FF920F931F93CF93DF938E
:10C6A000CDB7DEB76497CDBFDEBF01E010E020E874
:10C6B00030E046E350E06AE070E080E090E00E9405
:10C6C000F8280E94EA2E0E94922F0E94B43288EC31
:10C6D00094E20E94FE31E9E0F6E264A014A20EEDBD
:10C6E00019E2FF24F394F801F78A0E94C7440E94DC
:10C6F000EA2E0E94922F80E48093260684E0F801BF
:10C700008383F082F1820E943C511092E8281092BB
:10C71000E9280F2EFAEC8F2EF8E29F2EF02D7724C9
:10C7200073940F2EFEEBAF2EF4E2BF2EF02D9E0180
:10C730002F5F3F4F69010F2EFAE4EF2EF9E2FF2E33
:10C74000F02D80E00E9470580E94E658F401618943
:10C7500072898389948920E030E040E252E40E94AB
:10C76000F367880F880B282F2721122F1195072D8B
:10C7700020E330E04CE050E06EE070E088E290E0D2
:10C780000E94A128612F80E00E947E20F40181890F
:10C790009289A389B489BF93AF939F938F93BF92DC
:10C7A000AF92DF92CF920E94C06F212F30E045E020
:10C7B00050E065E070E0C6010E94CB24F401618D79
:10C7C000728D838D948DCDBFDEBF20E030E040EAD6
:10C7D00051E40E94F367880F880B282F2721122F1E
:10C7E000119520E330E04CE050E060E270E08BE037
:10C7F00090E00E94A128612F80E00E947E20F40139
:10C80000818D928DA38DB48DBF93AF939F938F93A2
:10C81000BF92AF92DF92CF920E94C06F212F30E083
:10C8200045E050E065E070E0C6010E94CB24F401D1
:10C83000658976898789908DCDBFDEBF20E030E0A5
:10C8400040EA51E40E94F367880F880B282F2721C4
:10C85000122F119520E330E04CE050E060E270E0F0
:10C8600086E490E00E94A128612F80E00E947E2053
:10C87000F40185899689A789B08DBF93AF939F9363
:10C880008F93BF92AF92DF92CF920E94C06F212F01
:10C8900030E045E050E065E070E0C6010E94CB2446
:10C8A000CDBFDEBFF701808185FFFCCF88E890E037
:10C8B0000E94C2468091E8289091E928009709F4E7
:10C8C00040CF0897D1F50F2EFAECEF2EF8E2FF2EAD
:10C8D000F02DF701618972898389948909E016E254
:10C8E00026E636E646E65FE30E94AF690E9471687D
:10C8F000F801628F738FF701618D728D838D948D36
:10C9000026E636E646E65FE30E94AF690E9471685C
:10C91000F801648F758FF701658976898789908D15
:10C9200026E636E646E65FE30E94AF690E9471683C
:10C93000F801668F778F0E94224760922D26109211
:10C94000F5296496CDBFDEBFDF91CF911F910F9186
:10C95000FF90EF90DF90CF90BF90AF909F908F901F
:10C960007F906F9008954F925F926F927F928F9217
:10C970009F92AF92BF92CF92DF92EF92FF920F936E
:10C980001F93CF93DF93CDB7DEB76497CDBFDEBFE4
:10C990000F2EFEEDEF2EF9E2FF2EF02DF7011082A3
:10C9A00011820E943C510E94EA2E86ED94E20E9480
:10C9B000FE3180E991E080931729909318290E9415
:10C9C00098186894CC24C3F8C092A73088E890E007
:10C9D0008093C9259093CA251092E8281092E928DF
:10C9E000F701128A0F2EF0EAEF2EF6E0FF2EF02D5F
:10C9F000F701C6828091072680640F2EF0E8AF2EE3
:10CA0000F6E0BF2EF02DF50184836894DD24D7F87D
:10CA1000F701D5820E943346F701D68285E090E087
:10CA20000E94F04580910726F5018483F701D582A5
:10CA30000E943346F701D68285E090E00E94F045DF
:10CA4000F701C6828091E8289091E928009709F0C3
:10CA500069C00F2EFEEDAF2EF9E2BF2EF02D612C36
:10CA6000712C512C412C0F2EF1EECF2EF4E2DF2E43
:10CA7000F02D9E012F5F3F4F7901F50113820E9437
:10CA80002E5310922C2980912C298430E8F4862C86
:10CA9000972C052D142D83E00E9463559B01AC015A
:10CAA000682D792D802F912F0E948767862E972ED3
:10CAB000082F192F80912C298F5F80932C2980912A
:10CAC0002C29843040F304C0862C972C052D142D7E
:10CAD00020E030E040E85EE3682D792D802F912F33
:10CAE0000E94AF69862E972E082F192F9F938F9340
:10CAF0007F936F93DF92CF92FF92EF920E94C06F6D
:10CB0000C7010E9470358091C9259091CA250E9465
:10CB1000C2468091E8289091E928CDBFDEBF0097FA
:10CB200009F4ABCF0897A1F42DEC3CEC4CE85FE3A3
:10CB3000682D792D802F912F0E94AF696093322646
:10CB40007093332680933426909335260E94224793
:10CB50006496CDBFDEBFDF91CF911F910F91FF9003
:10CB6000EF90DF90CF90BF90AF909F908F907F908D
:10CB70006F905F904F9008954F925F926F927F9267
:10CB80008F929F92AF92BF92CF92DF92EF92FF92DD
:10CB90000F931F93CF93DF93CDB7DEB72A97CDBF07
:10CBA000DEBF3C010E94EA2E0E94B43201E010E098
:10CBB00028E230E049E050E06DE270E087E590E087
:10CBC0000E94F828F30181818F9380818F9380E602
:10CBD00091E29F938F938E010F5F1F4F1F930F93CF
:10CBE0000E94C06F20E030E045E050E065E070E07A
:10CBF000C8010E94CB241092E8281092E9280F90D7
:10CC00000F900F900F900F900F9073010F2EFEED6D
:10CC1000CF2EF9E2DF2EF02D0F2EFFE58F2EF1E261
:10CC20009F2EF02D58016894442441F855245394C4
:10CC3000F6018181813019F40E94FB4102C00E94FB
:10CC4000AB4289EB90E00E94C2468091E828909127
:10CC5000E9289C012F77232B09F45FC088309105C8
:10CC600051F018F40197C1F02EC08031910531F0D8
:10CC7000809759F028C00E94224725C0F701808183
:10CC800091810197808391831EC0F70180819181FA
:10CC900001968083918317C0F6018381813039F03A
:10CCA00018F0823039F008C0F601538205C0F60151
:10CCB000438202C0F6011382F601E380F12CEE0CF0
:10CCC000FF1CE60CF71C1092E8281092E92801E0FE
:10CCD00010E028E230E049E050E06DE270E087E5E6
:10CCE00090E00E94F828F70181818F9380818F93D3
:10CCF0009F928F92BF92AF920E94C06F20E030E06F
:10CD000045E050E065E070E0C5010E94CB240F9043
:10CD10000F900F900F900F900F908091E8289091B6
:10CD2000E9288038910509F083CF2A96CDBFDEBF70
:10CD3000DF91CF911F910F91FF90EF90DF90CF90F7
:10CD4000BF90AF909F908F907F906F905F904F902B
:10CD500008950F931F9301E010E020E830E046E3D0
:10CD600050E06AE070E080E090E00E94F8288CEEED
:10CD700094E20E94FE31EEEDF9E2138281E08183BC
:10CD800081E196E20E94BC651F910F9108950F9377
:10CD90001F9301E010E020E830E046E350E06AE055
:10CDA00070E080E090E00E94F82887EF94E20E9413
:10CDB000FE31EEEDF9E2138281E0818387E196E2B4
:10CDC0000E94BC651F910F9108950F931F9301E07E
:10CDD00010E020E830E046E350E06AE070E080E0F8
:10CDE00090E00E94F82880E095E20E94FE3140E049
:10CDF00050E060E070E08AE095E20E94253240E079
:10CE000050E061E070E081E195E20E94253240E06F
:10CE100050E062E070E089E195E20E94253288EB03
:10CE200090E00E94844680E991E0809317299093D6
:10CE3000182988E08093A7300E949818EEEDF9E257
:10CE400081E0878B128A8091E8289091E9288031CF
:10CE5000910541F08032910541F0089741F40E941C
:10CE6000A96605C00E94C76602C00E94B364109202
:10CE7000F5291F910F9108950F931F9301E010E082
:10CE800020E830E046E350E06AE070E080E090E0C7
:10CE90000E94F8288FE195E20E94FE3140E050E0C8
:10CEA00060E070E089EB94E20E94253240E050E0BF
:10CEB00061E070E089E295E20E94253240E050E0B6
:10CEC00062E070E084EB92E20E94253288EB90E011
:10CED0000E94844681E08093F5298091E828909112
:10CEE000E9288031910541F08032910541F00897A1
:10CEF00041F40E949E6105C00E94426302C00E94EC
:10CF0000E5661092F5291F910F9108955058BB279F
:10CF1000AA270E949E670C9418690E940A6938F03B
:10CF20000E94116920F039F49F3F19F426F40C9403
:10CF300007690EF4E095E7FB0C940169E92F0E9464
:10CF4000296958F3BA17620773078407950720F019
:10CF500079F4A6F50C944B690EF4E0950B2EBA2FDC
:10CF6000A02D0B01B90190010C01CA01A0011124EF
:10CF7000FF27591B99F0593F50F4503E68F11A169B
:10CF8000F040A22F232F342F4427585FF3CF46952C
:10CF900037952795A795F0405395C9F77EF41F164E
:10CFA000BA0B620B730B840BBAF09150A1F0FF0F18
:10CFB000BB1F661F771F881FC2F70EC0BA0F621F04
:10CFC000731F841F48F4879577956795B795F795F4
:10CFD0009E3F08F0B0CF9395880F08F09927EE0F89
:10CFE0009795879508950E94DD6808F481E008957B
:10CFF0000E940C680C9418690E94116958F00E94F4
:10D000000A6940F029F45F3F29F00C94016951113D
:10D010000C944C690C9407690E94296968F3992360
:10D02000B1F3552391F3951B550BBB27AA27621724
:10D030007307840738F09F5F5F4F220F331F441F31
:10D04000AA1FA9F335D00E2E3AF0E0E832D0915065
:10D050005040E695001CCAF72BD0FE2F29D0660F52
:10D06000771F881FBB1F261737074807AB07B0E895
:10D0700009F0BB0B802DBF01FF2793585F4F3AF09B
:10D080009E3F510578F00C9401690C944C695F3F08
:10D09000E4F3983ED4F3869577956795B795F79521
:10D0A0009F5FC9F7880F911D9695879597F9089509
:10D0B000E1E0660F771F881FBB1F621773078407A5
:10D0C000BA0720F0621B730B840BBA0BEE1F88F7B4
:10D0D000E09508950E9471686894B1110C944C69B0
:10D0E00008950E94316988F09F5798F0B92F9927C9
:10D0F000B751B0F0E1F0660F771F881F991F1AF043
:10D10000BA95C9F714C0B13091F00E944B69B1E0F3
:10D1100008950C944B69672F782F8827B85F39F0F2
:10D12000B93FCCF3869577956795B395D9F73EF4DB
:10D1300090958095709561957F4F8F4F9F4F089583
:10D14000E89409C097FB3EF49095809570956195A1
:10D150007F4F8F4F9F4F9923A9F0F92F96E9BB2757
:10D160009395F695879577956795B795F111F8CFD3
:10D17000FAF4BB0F11F460FF1BC06F5F7F4F8F4F3E
:10D180009F4F16C0882311F096E911C0772321F034
:10D190009EE8872F762F05C0662371F096E8862FCC
:10D1A00070E060E02AF09A95660F771F881FDAF723
:10D1B000880F9695879597F90895990F0008550F50
:10D1C000AA0BE0E8FEEF16161706E807F907C0F00D
:10D1D00012161306E407F50798F0621B730B840B15
:10D1E000950B39F40A2661F0232B242B252B21F4EF
:10D1F00008950A2609F4A140A6958FEF811D811D8F
:10D20000089597F99F6780E870E060E008959FEFC8
:10D2100080EC089500240A941616170618060906CD
:10D22000089500240A94121613061406050608959C
:10D23000092E0394000C11F4882352F0BB0F40F424
:10D24000BF2B11F460FF04C06F5F7F4F8F4F9F4F64
:10D25000089557FD9058440F551F59F05F3F71F0E6
:10D260004795880F97FB991F61F09F3F79F087954D
:10D270000895121613061406551FF2CF4695F1DFD6
:10D2800008C0161617061806991FF1CF8695710566
:10D29000610508940895E894BB2766277727CB019A
:10D2A00097F908950E94DD6808F48FEF08950E94B1
:10D2B000676929ED3BE54EED5EE30C94AF6916F02E
:10D2C0000C941C6A0C94076968940C9401690E9480
:10D2D0003169A8F39923C1F3AEF3DF93CF931F9382
:10D2E0000F93FF92C92FDD2788232AF02197660F1D
:10D2F000771F881FDAF720E030E040E85FEB9FE31C
:10D30000883920F0803E38F021968F770E94876719
:10D31000EEE2F2E004C00E948767EBE5F2E00E94D3
:10D320002A6A8B01BE01EC01FB2E6F5771097595BE
:10D33000771F880B990B0E94A26828E132E741E32E
:10D340005FE30E94C269AF2D9801AE01FF900F917B
:10D350001F91CF91DF910E949E670C9418690E94E3
:10D36000C2690C9418690E940A6938F00E94116918
:10D3700020F0952311F00C9401690C940769112495
:10D380000C944C690E94296970F3959FC1F3950F25
:10D3900050E0551F629FF001729FBB27F00DB11D39
:10D3A000639FAA27F00DB11DAA1F649F6627B00DC9
:10D3B000A11D661F829F2227B00DA11D621F739FB2
:10D3C000B00DA11D621F839FA00D611D221F749FC0
:10D3D0003327A00D611D231F849F600D211D822F07
:10D3E000762F6A2F11249F5750409AF0F1F088232E
:10D3F0004AF0EE0FFF1FBB1F661F771F881F91505B
:10D400005040A9F79E3F510580F00C9401690C949F
:10D410004C695F3FE4F3983ED4F386957795679522
:10D42000B795F795E7959F5FC1F7FE2B880F911D84
:10D430009695879597F908959F3F31F0915020F484
:10D44000879577956795B795880F911D96958795E0
:10D4500097F90895DF93CF931F930F93FF92EF9265
:10D46000DF927B018C01689406C0DA2EEF010E94E6
:10D47000C269FE01E894A591259135914591559198
:10D48000A6F3EF010E949E67FE019701A801DA94BE
:10D4900069F7DF90EF90FF900F911F91CF91DF918F
:10D4A00008952F923F924F925F926F927F928F9248
:10D4B0009F92AF92BF92CF92DF92EF92FF920F9323
:10D4C0001F93CF93DF93CDB7DEB76097CDBFDEBF9D
:10D4D0007C011B016A01FC0116821782838181FF96
:10D4E00044C39E012F5F3F4F3901F7019381F10142
:10D4F00093FD859193FF81911F01882309F431C326
:10D50000853239F493FD859193FF81911F01853216
:10D5100039F4B70190E00E94846F56016501E5CFB0
:10D5200010E0512C912CFFE1F915D8F08B3279F0F5
:10D5300038F4803279F08332A1F4F92DF0612EC0F5
:10D540008D3261F0803369F4292D21602DC0392D91
:10D550003260932E892D8460982E2AC0E92DE860D0
:10D5600015C097FC2DC020ED280F2A3088F496FEB8
:10D5700006C03AE0139F200D1124122F19C08AE033
:10D58000589E200D1124522EE92DE0629E2E10C0CF
:10D590008E3231F496FCE5C2F92DF0649F2E08C05E
:10D5A0008C3621F4292D2068922E02C0883641F451
:10D5B000F10193FD859193FF81911F018111B3CFFB
:10D5C0009BEB980F933020F4992D9061805E07C0FB
:10D5D0009BE9980F933008F066C1992D9F7E96FFC6
:10D5E00016E09F73992E853619F49064992E08C021
:10D5F000863621F4392F3068932E02C01111115054
:10D6000097FE07C01C3350F444244394410E27E096
:10D610000BC0183038F027E017E005C027E09CE386
:10D62000492E02C0212F412C560184E0A80EB11CC6
:10D63000F6016081718182819381042DA3010E9492
:10D640008B6E6C01F981FC87F0FF02C0F3FF06C00E
:10D6500091FC06C092FE06C000E205C00DE203C0C8
:10D660000BE201C000E08C858C7019F001115AC2E8
:10D670009BC297FE10C04C0CFC85F4FF04C08A814D
:10D68000813309F44A94141474F528E0241578F5CC
:10D6900088E0482E2CC096FC2AC0812F90E08C1583
:10D6A0009D059CF03CEFC3163FEFD30674F0892D27
:10D6B0008068982E0AC0E2E0F0E0EC0FFD1FE10F59
:10D6C000F11D8081803319F411501111F4CF97FEB0
:10D6D0000EC044244394410E812F90E0C816D90611
:10D6E0002CF41C1904C04424439401C010E097FE9C
:10D6F00006C01C141D0434F4C601019605C085E063
:10D7000090E002C081E090E001110196112331F018
:10D71000212F30E02F5F3F4F820F931F252D30E0E8
:10D720008217930714F4581A01C0512C892D89705F
:10D7300049F4552039F0B70180E290E00E94846FEF
:10D740005A94F7CF002329F0B701802F90E00E9470
:10D75000846F93FC09C0552039F0B70180E390E055
:10D760000E94846F5A94F7CF97FE4CC04601D7FEB3
:10D7700002C0812C912CC60188199909F301E80F88
:10D78000F91FED87FE879601241931092F87388B01
:10D79000012F10E01195019511093FEF83169306B3
:10D7A00029F4B7018EE290E00E94846FC814D90476
:10D7B0004CF08F8598898815990524F4ED85FE85B0
:10D7C000818101C080E3F1E08F1A91082D853E85AB
:10D7D0002F5F3F4F2D873E87801691062CF0B701B3
:10D7E00090E00E94846FD9CFC814D90441F49A8183
:10D7F000963320F4953319F43C8534FF81E3B70167
:10D8000090E04EC08A81813319F09C859F7E9C8771
:10D81000B70190E00E94846F111105C094FC18C0FC
:10D8200085E690E017C0B7018EE290E00E94846F19
:10D830001E5F82E001E0080FF301E80FF11D808117
:10D84000B70190E00E94846F802F0113F3CFE6CFE1
:10D8500085E490E0B7010E94846FD7FC06C0C11434
:10D86000D10441F4EC85E4FF05C0D194C194D10802
:10D870008DE201C08BE2B70190E00E94846F80E3EB
:10D880002AE0C216D1042CF08F5FFAE0CF1AD1083B
:10D89000F7CFB70190E00E94846FB701C601C09630
:10D8A0000E94846F54C1833631F0833779F0833519
:10D8B00009F056C020C0560132E0A30EB11CF6019B
:10D8C0008081898301E010E0630112C05601F2E01B
:10D8D000AF0EB11CF601C080D18096FE03C0612F4F
:10D8E00070E002C06FEF7FEFC6010E94796F8C017C
:10D8F000F92DFF7714C0560122E0A20EB11CF601EB
:10D90000C080D18096FE03C0612F70E002C06FEF2F
:10D910007FEFC6010E94636F8C01F92DF0689F2E86
:10D92000F3FD1AC0852D90E008171907A8F4B70178
:10D9300080E290E00E94846F5A94F4CFF60197FC45
:10D94000859197FE81916F01B70190E00E94846FED
:10D9500051105A94015011090115110579F7F7C0BA
:10D96000843611F0893661F5560197FE09C024E02E
:10D97000A20EB11CF60160817181828193810AC07F
:10D98000F2E0AF0EB11CF60160817181072E000C30
:10D99000880B990BF92DFF769F2E97FF09C0909564
:10D9A0008095709561957F4F8F4F9F4FF0689F2EA8
:10D9B0002AE030E0A3010E94E96FC82EC6183FC0DC
:10D9C000092D853721F40F7E2AE030E01DC0097F44
:10D9D0008F3691F018F4883559F0C3C0803719F0AC
:10D9E000883711F0BEC0006104FF09C0046007C0A1
:10D9F00094FE08C0066006C028E030E005C020E1C3
:10DA000030E002C020E132E0560107FF09C084E0A7
:10DA1000A80EB11CF601608171818281938108C0DA
:10DA2000F2E0AF0EB11CF6016081718180E090E000
:10DA3000A3010E94E96FC82EC6180F77902E96FE9C
:10DA40000BC0092D0E7FC11650F494FE0AC092FC43
:10DA500008C0092D0E7E05C0DC2C092D03C0DC2C6E
:10DA600001C0D12E04FF0DC0FE01EC0DF11D80811F
:10DA7000803311F4097E09C002FF06C0D394D39409
:10DA800004C0802F867809F0D39403FD11C000FFF5
:10DA900006C01C2DD51480F4150D1D190DC0D5140C
:10DAA00058F4B70180E290E00E94846FD394F7CFDE
:10DAB000D51410F45D1801C0512C04FF10C0B7013B
:10DAC00080E390E00E94846F02FF17C001FD03C055
:10DAD00088E790E002C088E590E0B7010CC0802F95
:10DAE000867859F001FF02C08BE201C080E207FD99
:10DAF0008DE2B70190E00E94846FC11638F4B7013F
:10DB000080E390E00E94846F1150F7CFCA94F30134
:10DB1000EC0DF11D8081B70190E00E94846FC1106F
:10DB2000F5CF15C0F4E0F51560F584E0581A93FEC2
:10DB30001FC0011127C02C8523FF2AC00CEE12E064
:10DB4000392D3071932EF8018491811124C0552014
:10DB500009F4E4CCB70180E290E00E94846F5A940B
:10DB6000F6CFF7018681978126C08FEF9FEF23C004
:10DB7000B70180E290E00E94846F5A945110F8CF70
:10DB8000D8CF512CB701802F90E00E94846FD3CF63
:10DB900000EF12E0D5CF91108052B70190E00E94C3
:10DBA000846F0F5F1F4FCFCF23E0251510F483E064
:10DBB000BDCF512CC0CF6096CDBFDEBFDF91CF91DE
:10DBC0001F910F91FF90EF90DF90CF90BF90AF909B
:10DBD0009F908F907F906F905F904F903F902F908D
:10DBE000089597FB072E16F4009407D077FD09D00F
:10DBF0000E94776E07FC05D03EF4909581959F4F6B
:10DC00000895709561957F4F0895A1E21A2EAA1B81
:10DC1000BB1BFD010DC0AA1FBB1FEE1FFF1FA217DC
:10DC2000B307E407F50720F0A21BB30BE40BF50BD9
:10DC3000661F771F881F991F1A9469F76095709562
:10DC4000809590959B01AC01BD01CF010895052EF3
:10DC500097FB1EF400940E943E6E57FD07D00E9471
:10DC6000056E07FC03D04EF40C943E6E5095409523
:10DC7000309521953F4F4F4F5F4F08959095809578
:10DC8000709561957F4F8F4F9F4F0895EE0FFF1F47
:10DC9000881F8BBF0790F691E02D1994A29FB001C9
:10DCA000B39FC001A39F700D811D1124911DB29FD0
:10DCB000700D811D1124911D08950E944E6EB7FFB5
:10DCC0000895821B930B08950E944E6EA59F900DA0
:10DCD000B49F900DA49F800D911D11240895B7FF4E
:10DCE0000C94646E0E94646E821B930B0895AA1BB1
:10DCF000BB1B51E107C0AA1FBB1FA617B70710F037
:10DD0000A61BB70B881F991F5A95A9F78095909568
:10DD1000BC01CD010895283008F027E03327DA014F
:10DD2000990F311D87FD916000966105710539F4E9
:10DD300032602E5F3D9330E32A95E1F708959F3FCF
:10DD400030F080387105610509F03C5F3C5F3D9320
:10DD5000913008F08068911DDF93CF931F930F934C
:10DD6000FF92EF92192F987F9695E92F96959695A9
:10DD7000E90FFF27E25BFC4F99273327EE24FF24AE
:10DD8000A701E70105900894079428F4360FE71ED1
:10DD9000F81E491F511D660F771F881F991F069493
:10DDA000A1F70590079428F4E70EF81E491F561FA7
:10DDB000C11D770F881F991F661F0694A1F7059054
:10DDC000079428F4F80E491F561FC71FD11D880F4E
:10DDD000991F661F771F0694A1F70590079420F4FA
:10DDE000490F561FC71FD81F990F661F771F881F1F
:10DDF0000694A9F784911095177041F0D695C795B0
:10DE000057954795F794E7941A95C1F7E4EFF2E038
:10DE100068941590159135916591959105907FE2E3
:10DE20007395E118F10A430B560BC90BD009C0F7E3
:10DE3000E10CF11E431F561FC91FD01D7EF4703325
:10DE400011F48A95E6CFE894015030F0080F0AF4F7
:10DE50000027021708F4202F2395022F7A3328F089
:10DE600079E37D932A95E9F710C07D932A9589F689
:10DE7000069497956795379517951794E118F10AC9
:10DE8000430B560BC90BD00998F023957E917395DF
:10DE90007A3308F070E37C932013B8F77E917061B9
:10DEA0007D9330F0839571E37D9370E32A95E1F7DC
:10DEB0001124EF90FF900F911F91CF91DF9199273F
:10DEC00087FD90950895FC01059061507040011008
:10DED000D8F7809590958E0F9F1F0895FB01DC0168
:10DEE0000D900020E9F7119701900D920020E1F7C5
:10DEF0000895FC016150704001900110D8F78095A1
:10DF000090958E0F9F1F08950F931F93CF93DF93CC
:10DF1000FB01238121FD03C08FEF9FEF2CC022FF67
:10DF200016C046815781248135814217530744F436
:10DF3000A081B1819D012F5F3F4F208331838C935E
:10DF4000268137812F5F3F4F2683378314C08B0193
:10DF5000EC01FB010084F185E02D1995892BE1F698
:10DF6000D80116968D919C911797019616968D93D0
:10DF70009C931797CE01DF91CF911F910F91089538
:10DF80000F931F93CF93DF93CDB7DEB72E97CDBFFF
:10DF9000DEBF0E891F8986E08C8309831A838FEF89
:10DFA0009FE78D839E83AE01465E5F4F688D798DBE
:10DFB000CE0101960E94516AEF81F885E00FF11FB2
:10DFC00010822E96CDBFDEBFDF91CF911F910F91B2
:10DFD0000895FA01AA27283051F1203181F1E894FF
:10DFE0006F936E7F6E5F7F4F8F4F9F4FAF4FB1E04C
:10DFF0003ED0B4E03CD0670F781F891F9A1FA11D47
:10E00000680F791F8A1F911DA11D6A0F711D811D47
:10E01000911DA11D20D009F468943F912AE0269F0C
:10E0200011243019305D3193DEF6CF010895462F6B
:10E030004770405D4193B3E00FD0C9F7F6CF462F4C
:10E040004F70405D4A3318F0495D31FD40524193B5
:10E0500002D0A9F7EACFB4E0A69597958795779572
:10E060006795BA95C9F700976105710508959B01F9
:10E07000AC010A2E06945795479537952795BA9582
:10E08000C9F7620F731F841F951FA01D0895CF92BB
:10E09000DF92EF92FF920F931F93CF93DF93209124
:10E0A000CC0128602093CC01C0E20FEF17E0D5E34C
:10E0B000FF24F39441155105C1F1262F2F713C2FF8
:10E0C000321B232F30E04217530708F49A01D22E57
:10E0D000F801E21BF30BE617F70710F40E94AF708C
:10E0E000E091CF01E7FDFCCFC82EDB01B05FFC0162
:10E0F000E090CF01E7FCFCCFE190ED92EE2EEC1822
:10E10000ED14B0F31092C2017093C1016093C0018D
:10E11000D093CA01E8EDE4BFF092CB01820F931FC8
:10E12000620F731F421B530BC5CF8091CC01877FB9
:10E130008093CC01DF91CF911F910F91FF90EF90D1
:10E14000DF90CF900895E0ECF1E0A785A7FDFDCF2B
:10E15000A485A860A4876050704F0C94B47081E0CF
:10E1600090E0F8940C94BD70FB01DC0102C00190BA
:0EE170000D9241505040D8F70895F894FFCF1B
:10E17E004000400034002D002500400040003C00CF
:10E18E0034002A00F629002A0A2A142A1E2A992166
:10E19E00A0219E21A021A221B004EE03138B17C94A
:10E1AE00160B8914C916082910C91607500DC91661
:10E1BE0006700EC91605040C381B220414382722CB
:10E1CE00041C3833220424383F22042C384C2244B9
:10E1DE000C3859224414386522441C3871224424C8
:10E1EE00387D22442C38892276237F238823800091
:10E1FE0000010002000401000200040000010800FA
:10E20E001000200030281810085263766520002573
:10E21E006420252500546F6E6520464C5452200014
:10E22E0044534C205343414E004C46004846005048
:10E23E00524F424500544F4E450044534C204652D7
:10E24E0045510000E0AB460000FA4600504347003F
:10E25E00C486480086BA480050C34800E62A498062
:10E26E003B3C4940D78849007ABC4900E62A4A001F
:10E27E0050434A5431004844534C004144534C00DF
:10E28E005644534C00787844534C00353737003998
:10E29E003837004F464600696E76616C69640047F8
:10E2AE0000457374696D61746564204C6F737300FF
:10E2BE00524554455354005D005B003130300047E9
:10E2CE0041494E3A20256400564F4C554D453A2053
:10E2DE002564005345542053514C0052535420533F
:10E2EE00514C00564F4C554D45002025322E31666F
:10E2FE0020444200203C202D37302044420020256F
:10E30E00322E316620564143004849205A00202DB6
:10E31E0020004C4F205A0025642046540052414E96
:10E32E004745005057005A4F4F4D003C003E0043AA
:10E33E005552534F5200473D20256400503D202535
:10E34E00640025332E31664B00544452205A6F6FB1
:10E35E006D00437573746F6D20566F5000564F509D
:10E36E003A202E00566F5020536574757000302D74
:10E37E00314B465400302D344B465400302D384B23
:10E38E0046540054445200564F50003232205055DD
:10E39E004C50202E36380032342050554C50202E02
:10E3AE0036370032362050554C50202E3630003243
:10E3BE0032205049432020202E3637003234205050
:10E3CE0049432020202E3636003236205049432035
:10E3DE00202E36340032322047454C20202E363245
:10E3EE000032342047454C20202E36300032362065
:10E3FE0047454C20202E353800435553544F4D0081
:10E40E0044433C4342403E3C3A545458203030330F
:10E41E002056322E30360041414C6F6769630053EF
:10E42E00454E44004D455445520025322E3166204E
:10E43E0056444300566F6C74204D65746572004EE1
:10E44E006F697365204D6574657200414320566F88
:10E45E006C746D657465720050726F626520566FD4
:10E46E006C756D6500564F4C554D453A20004B6509
:10E47E00795075736820566F6C756D650053706BAF
:10E48E007220566F6C756D65004B4559505553484B
:10E49E00004261636B4C69676874004261636B4C48
:10E4AE00696768743A20007777772E41414C6F6721
:10E4BE0069632E636F6D00436F6E747261737400C7
:10E4CE00434E545253543A2000436F6E6669672090
:10E4DE0053797374656D0042434B4C544500434F62
:10E4EE004E54525354005452492D504C45580053DB
:10E4FE004D504C5820335400534D504C58203154ED
:10E50E000000000F03A7056307FF076307A7050FAA
:10E51E00030000F1FC59FA9DF801F89DF859FAF143
:10E52E00FC900141000000C80000000000200341E3
:10E53E00000000C800000000002003410000004160
:10E54E00002003C30000004100200341000000C86A
:10E55E000000000000000000000000000020034149
:10E56E0000000041002003C3000000C800000000AE
:10E57E00000000000000000000000000000000008D
:10E58E0000140564000000C8004C04640000001470
:10E59E00008403640000001400BC02640000001438
:10E5AE000000000000BC026400000014008403643C
:10E5BE0000000014004C04640000001400140564F4
:10E5CE00000000C8000000000042555A5A002532D3
:10E5DE002E3066205644430025322E30662056419A
:10E5EE004300547269506C657820546F6E65002537
:10E5FE00332E3166205644430053696D706C657836
:10E60E0020546F6E650044432054520053656C6570
:10E61E0063742046726571004F7574707574204C6A
:10E62E006576656C00542F52204E554C4C002532A9
:10E63E002E32662056414300564143205265666590
:10E64E0072656E636500466C6F6F724E6F697365AF
:10E65E00002025322E336620564143005644432077
:10E66E004F666673657400564443204761696E00B9
:10E67E004D657465722043616C004F464653455498
:10E68E00004443204741494E004E4F4953450043F5
:10E69E00616C696272617465005641432043414C5E
:10E6AE0000566163204761696E004D41580048492C
:10E6BE00004E4F524D0039383720485A0035373703
:10E6CE0020485A006400040C243A25320004142415
:10E6DE003E251900041C244125DB03041424462581
:08E6EE004102041C244D25002B
:00000001FF
